{
  "_format": "hh-sol-artifact-1",
  "contractName": "GGC",
  "sourceName": "contracts/GGC.sol",
  "abi": [
    {
      "inputs": [],
      "stateMutability": "nonpayable",
      "type": "constructor"
    },
    {
      "inputs": [
        {
          "internalType": "address",
          "name": "spender",
          "type": "address"
        },
        {
          "internalType": "uint256",
          "name": "allowance",
          "type": "uint256"
        },
        {
          "internalType": "uint256",
          "name": "needed",
          "type": "uint256"
        }
      ],
      "name": "ERC20InsufficientAllowance",
      "type": "error"
    },
    {
      "inputs": [
        {
          "internalType": "address",
          "name": "sender",
          "type": "address"
        },
        {
          "internalType": "uint256",
          "name": "balance",
          "type": "uint256"
        },
        {
          "internalType": "uint256",
          "name": "needed",
          "type": "uint256"
        }
      ],
      "name": "ERC20InsufficientBalance",
      "type": "error"
    },
    {
      "inputs": [
        {
          "internalType": "address",
          "name": "approver",
          "type": "address"
        }
      ],
      "name": "ERC20InvalidApprover",
      "type": "error"
    },
    {
      "inputs": [
        {
          "internalType": "address",
          "name": "receiver",
          "type": "address"
        }
      ],
      "name": "ERC20InvalidReceiver",
      "type": "error"
    },
    {
      "inputs": [
        {
          "internalType": "address",
          "name": "sender",
          "type": "address"
        }
      ],
      "name": "ERC20InvalidSender",
      "type": "error"
    },
    {
      "inputs": [
        {
          "internalType": "address",
          "name": "spender",
          "type": "address"
        }
      ],
      "name": "ERC20InvalidSpender",
      "type": "error"
    },
    {
      "inputs": [
        {
          "internalType": "address",
          "name": "owner",
          "type": "address"
        }
      ],
      "name": "OwnableInvalidOwner",
      "type": "error"
    },
    {
      "inputs": [
        {
          "internalType": "address",
          "name": "account",
          "type": "address"
        }
      ],
      "name": "OwnableUnauthorizedAccount",
      "type": "error"
    },
    {
      "anonymous": false,
      "inputs": [
        {
          "indexed": true,
          "internalType": "address",
          "name": "oldAddress",
          "type": "address"
        },
        {
          "indexed": true,
          "internalType": "address",
          "name": "newAddress",
          "type": "address"
        }
      ],
      "name": "AddressChanged",
      "type": "event"
    },
    {
      "anonymous": false,
      "inputs": [
        {
          "indexed": true,
          "internalType": "enum GGC.Category",
          "name": "category",
          "type": "uint8"
        },
        {
          "indexed": true,
          "internalType": "address",
          "name": "beneficiary",
          "type": "address"
        },
        {
          "indexed": false,
          "internalType": "uint256",
          "name": "totalAmount",
          "type": "uint256"
        },
        {
          "indexed": false,
          "internalType": "uint256",
          "name": "tgeUnlock",
          "type": "uint256"
        },
        {
          "indexed": false,
          "internalType": "uint256",
          "name": "cliffMonths",
          "type": "uint256"
        },
        {
          "indexed": false,
          "internalType": "uint256",
          "name": "vestingMonths",
          "type": "uint256"
        },
        {
          "indexed": false,
          "internalType": "uint256",
          "name": "claimPerSecond",
          "type": "uint256"
        },
        {
          "indexed": false,
          "internalType": "uint256",
          "name": "startTimestamp",
          "type": "uint256"
        }
      ],
      "name": "AllocationSet",
      "type": "event"
    },
    {
      "anonymous": false,
      "inputs": [
        {
          "indexed": true,
          "internalType": "address",
          "name": "owner",
          "type": "address"
        },
        {
          "indexed": true,
          "internalType": "address",
          "name": "spender",
          "type": "address"
        },
        {
          "indexed": false,
          "internalType": "uint256",
          "name": "value",
          "type": "uint256"
        }
      ],
      "name": "Approval",
      "type": "event"
    },
    {
      "anonymous": false,
      "inputs": [
        {
          "indexed": true,
          "internalType": "enum GGC.Category",
          "name": "category",
          "type": "uint8"
        },
        {
          "indexed": false,
          "internalType": "uint256",
          "name": "totalAmount",
          "type": "uint256"
        },
        {
          "indexed": false,
          "internalType": "uint16",
          "name": "tgeBps",
          "type": "uint16"
        },
        {
          "indexed": false,
          "internalType": "uint256",
          "name": "cliffMonths",
          "type": "uint256"
        },
        {
          "indexed": false,
          "internalType": "uint256",
          "name": "vestingMonths",
          "type": "uint256"
        }
      ],
      "name": "CategoryInitialized",
      "type": "event"
    },
    {
      "anonymous": false,
      "inputs": [
        {
          "indexed": true,
          "internalType": "address",
          "name": "previousOwner",
          "type": "address"
        },
        {
          "indexed": true,
          "internalType": "address",
          "name": "newOwner",
          "type": "address"
        }
      ],
      "name": "OwnershipTransferStarted",
      "type": "event"
    },
    {
      "anonymous": false,
      "inputs": [
        {
          "indexed": true,
          "internalType": "address",
          "name": "previousOwner",
          "type": "address"
        },
        {
          "indexed": true,
          "internalType": "address",
          "name": "newOwner",
          "type": "address"
        }
      ],
      "name": "OwnershipTransferred",
      "type": "event"
    },
    {
      "anonymous": false,
      "inputs": [
        {
          "indexed": true,
          "internalType": "address",
          "name": "beneficiary",
          "type": "address"
        },
        {
          "indexed": false,
          "internalType": "uint256",
          "name": "amount",
          "type": "uint256"
        },
        {
          "indexed": false,
          "internalType": "uint256",
          "name": "timestamp",
          "type": "uint256"
        }
      ],
      "name": "TokensClaimed",
      "type": "event"
    },
    {
      "anonymous": false,
      "inputs": [
        {
          "indexed": true,
          "internalType": "address",
          "name": "from",
          "type": "address"
        },
        {
          "indexed": true,
          "internalType": "address",
          "name": "to",
          "type": "address"
        },
        {
          "indexed": false,
          "internalType": "uint256",
          "name": "value",
          "type": "uint256"
        }
      ],
      "name": "Transfer",
      "type": "event"
    },
    {
      "inputs": [],
      "name": "BPS_DENOMINATOR",
      "outputs": [
        {
          "internalType": "uint16",
          "name": "",
          "type": "uint16"
        }
      ],
      "stateMutability": "view",
      "type": "function"
    },
    {
      "inputs": [],
      "name": "SECONDS_PER_MONTH",
      "outputs": [
        {
          "internalType": "uint256",
          "name": "",
          "type": "uint256"
        }
      ],
      "stateMutability": "view",
      "type": "function"
    },
    {
      "inputs": [],
      "name": "acceptOwnership",
      "outputs": [],
      "stateMutability": "nonpayable",
      "type": "function"
    },
    {
      "inputs": [
        {
          "internalType": "address",
          "name": "",
          "type": "address"
        }
      ],
      "name": "addressChangeApproved",
      "outputs": [
        {
          "internalType": "bool",
          "name": "",
          "type": "bool"
        }
      ],
      "stateMutability": "view",
      "type": "function"
    },
    {
      "inputs": [
        {
          "internalType": "enum GGC.Category",
          "name": "category",
          "type": "uint8"
        },
        {
          "internalType": "address[]",
          "name": "beneficiaries",
          "type": "address[]"
        },
        {
          "internalType": "uint256[]",
          "name": "amounts",
          "type": "uint256[]"
        }
      ],
      "name": "allocateBatch",
      "outputs": [],
      "stateMutability": "nonpayable",
      "type": "function"
    },
    {
      "inputs": [
        {
          "internalType": "address",
          "name": "",
          "type": "address"
        }
      ],
      "name": "allocations",
      "outputs": [
        {
          "internalType": "uint256",
          "name": "total",
          "type": "uint256"
        },
        {
          "internalType": "uint256",
          "name": "tgeUnlock",
          "type": "uint256"
        },
        {
          "internalType": "uint256",
          "name": "cliffMonths",
          "type": "uint256"
        },
        {
          "internalType": "uint256",
          "name": "vestingMonths",
          "type": "uint256"
        },
        {
          "internalType": "uint256",
          "name": "claimPerSecond",
          "type": "uint256"
        },
        {
          "internalType": "uint256",
          "name": "claimed",
          "type": "uint256"
        },
        {
          "internalType": "uint256",
          "name": "startTimestamp",
          "type": "uint256"
        }
      ],
      "stateMutability": "view",
      "type": "function"
    },
    {
      "inputs": [
        {
          "internalType": "address",
          "name": "owner",
          "type": "address"
        },
        {
          "internalType": "address",
          "name": "spender",
          "type": "address"
        }
      ],
      "name": "allowance",
      "outputs": [
        {
          "internalType": "uint256",
          "name": "",
          "type": "uint256"
        }
      ],
      "stateMutability": "view",
      "type": "function"
    },
    {
      "inputs": [
        {
          "internalType": "address",
          "name": "spender",
          "type": "address"
        },
        {
          "internalType": "uint256",
          "name": "value",
          "type": "uint256"
        }
      ],
      "name": "approve",
      "outputs": [
        {
          "internalType": "bool",
          "name": "",
          "type": "bool"
        }
      ],
      "stateMutability": "nonpayable",
      "type": "function"
    },
    {
      "inputs": [],
      "name": "approveAddressChange",
      "outputs": [],
      "stateMutability": "nonpayable",
      "type": "function"
    },
    {
      "inputs": [
        {
          "internalType": "address",
          "name": "account",
          "type": "address"
        }
      ],
      "name": "balanceOf",
      "outputs": [
        {
          "internalType": "uint256",
          "name": "",
          "type": "uint256"
        }
      ],
      "stateMutability": "view",
      "type": "function"
    },
    {
      "inputs": [
        {
          "internalType": "uint256",
          "name": "value",
          "type": "uint256"
        }
      ],
      "name": "burn",
      "outputs": [],
      "stateMutability": "nonpayable",
      "type": "function"
    },
    {
      "inputs": [
        {
          "internalType": "address",
          "name": "account",
          "type": "address"
        },
        {
          "internalType": "uint256",
          "name": "value",
          "type": "uint256"
        }
      ],
      "name": "burnFrom",
      "outputs": [],
      "stateMutability": "nonpayable",
      "type": "function"
    },
    {
      "inputs": [
        {
          "internalType": "enum GGC.Category",
          "name": "",
          "type": "uint8"
        }
      ],
      "name": "categories",
      "outputs": [
        {
          "internalType": "uint256",
          "name": "totalAmount",
          "type": "uint256"
        },
        {
          "internalType": "uint16",
          "name": "tgeBps",
          "type": "uint16"
        },
        {
          "internalType": "uint256",
          "name": "cliffMonths",
          "type": "uint256"
        },
        {
          "internalType": "uint256",
          "name": "vestingMonths",
          "type": "uint256"
        },
        {
          "internalType": "uint256",
          "name": "allocated",
          "type": "uint256"
        }
      ],
      "stateMutability": "view",
      "type": "function"
    },
    {
      "inputs": [
        {
          "internalType": "address",
          "name": "oldAddr",
          "type": "address"
        },
        {
          "internalType": "address",
          "name": "newAddr",
          "type": "address"
        }
      ],
      "name": "changeAddress",
      "outputs": [],
      "stateMutability": "nonpayable",
      "type": "function"
    },
    {
      "inputs": [],
      "name": "claim",
      "outputs": [],
      "stateMutability": "nonpayable",
      "type": "function"
    },
    {
      "inputs": [],
      "name": "decimals",
      "outputs": [
        {
          "internalType": "uint8",
          "name": "",
          "type": "uint8"
        }
      ],
      "stateMutability": "view",
      "type": "function"
    },
    {
      "inputs": [],
      "name": "name",
      "outputs": [
        {
          "internalType": "string",
          "name": "",
          "type": "string"
        }
      ],
      "stateMutability": "view",
      "type": "function"
    },
    {
      "inputs": [],
      "name": "owner",
      "outputs": [
        {
          "internalType": "address",
          "name": "",
          "type": "address"
        }
      ],
      "stateMutability": "view",
      "type": "function"
    },
    {
      "inputs": [],
      "name": "pendingOwner",
      "outputs": [
        {
          "internalType": "address",
          "name": "",
          "type": "address"
        }
      ],
      "stateMutability": "view",
      "type": "function"
    },
    {
      "inputs": [],
      "name": "renounceOwnership",
      "outputs": [],
      "stateMutability": "nonpayable",
      "type": "function"
    },
    {
      "inputs": [],
      "name": "revokeAddressChangeApproval",
      "outputs": [],
      "stateMutability": "nonpayable",
      "type": "function"
    },
    {
      "inputs": [],
      "name": "symbol",
      "outputs": [
        {
          "internalType": "string",
          "name": "",
          "type": "string"
        }
      ],
      "stateMutability": "view",
      "type": "function"
    },
    {
      "inputs": [],
      "name": "totalSupply",
      "outputs": [
        {
          "internalType": "uint256",
          "name": "",
          "type": "uint256"
        }
      ],
      "stateMutability": "view",
      "type": "function"
    },
    {
      "inputs": [
        {
          "internalType": "address",
          "name": "to",
          "type": "address"
        },
        {
          "internalType": "uint256",
          "name": "value",
          "type": "uint256"
        }
      ],
      "name": "transfer",
      "outputs": [
        {
          "internalType": "bool",
          "name": "",
          "type": "bool"
        }
      ],
      "stateMutability": "nonpayable",
      "type": "function"
    },
    {
      "inputs": [
        {
          "internalType": "address",
          "name": "from",
          "type": "address"
        },
        {
          "internalType": "address",
          "name": "to",
          "type": "address"
        },
        {
          "internalType": "uint256",
          "name": "value",
          "type": "uint256"
        }
      ],
      "name": "transferFrom",
      "outputs": [
        {
          "internalType": "bool",
          "name": "",
          "type": "bool"
        }
      ],
      "stateMutability": "nonpayable",
      "type": "function"
    },
    {
      "inputs": [
        {
          "internalType": "address",
          "name": "newOwner",
          "type": "address"
        }
      ],
      "name": "transferOwnership",
      "outputs": [],
      "stateMutability": "nonpayable",
      "type": "function"
    }
  ],
  "bytecode": "0x60806040523480156200001157600080fd5b50336040518060400160405280601281526020017f4772616e642047616e67737461204369747900000000000000000000000000008152506040518060400160405280600381526020017f4747430000000000000000000000000000000000000000000000000000000000815250816003908162000090919062000a39565b508060049081620000a2919062000a39565b505050600073ffffffffffffffffffffffffffffffffffffffff168173ffffffffffffffffffffffffffffffffffffffff16036200011a5760006040517f1e4fbdf700000000000000000000000000000000000000000000000000000000815260040162000111919062000b65565b60405180910390fd5b6200012b81620002b760201b60201c565b506200016c3062000141620002f060201b60201c565b600a6200014f919062000d12565b633b9aca0062000160919062000d63565b620002f960201b60201c565b6200018a600063098968006103e86003600c6200038660201b60201c565b620001a860016302faf0806105dc6003600c6200038660201b60201c565b620001c660026307bfa480610fa0600160046200038660201b60201c565b620001e360036305f5e1006000600660246200038660201b60201c565b62000201600463039387006101f4600460186200038660201b60201c565b6200021f60056305f5e10061012c600360306200038660201b60201c565b6200023d60066301312d006103e8600060056200038660201b60201c565b6200025a60076301c9c3806000600860406200038660201b60201c565b6200027760086308f0d1806127106000806200038660201b60201c565b6200029460096308f0d180600a600060486200038660201b60201c565b620002b1600a6302faf0806000600360246200038660201b60201c565b62000eef565b600660006101000a81549073ffffffffffffffffffffffffffffffffffffffff0219169055620002ed81620004c960201b60201c565b50565b60006012905090565b600073ffffffffffffffffffffffffffffffffffffffff168273ffffffffffffffffffffffffffffffffffffffff16036200036e5760006040517fec442f0500000000000000000000000000000000000000000000000000000000815260040162000365919062000b65565b60405180910390fd5b62000382600083836200058f60201b60201c565b5050565b600062000398620002f060201b60201c565b600a620003a6919062000d12565b85620003b3919062000d63565b90506040518060a001604052808281526020018561ffff16815260200184815260200183815260200160008152506007600088600a811115620003fb57620003fa62000dae565b5b600a81111562000410576200040f62000dae565b5b81526020019081526020016000206000820151816000015560208201518160010160006101000a81548161ffff021916908361ffff16021790555060408201518160020155606082015181600301556080820151816004015590505085600a81111562000482576200048162000dae565b5b7f09f20332fb28d16bab33aad07b39e6ae6b2a696ee7dfba356a9e71ce59372f0882868686604051620004b9949392919062000e0d565b60405180910390a2505050505050565b6000600560009054906101000a900473ffffffffffffffffffffffffffffffffffffffff16905081600560006101000a81548173ffffffffffffffffffffffffffffffffffffffff021916908373ffffffffffffffffffffffffffffffffffffffff1602179055508173ffffffffffffffffffffffffffffffffffffffff168173ffffffffffffffffffffffffffffffffffffffff167f8be0079c531659141344cd1fd0a4f28419497f9722a3daafe3b4186f6b6457e060405160405180910390a35050565b600073ffffffffffffffffffffffffffffffffffffffff168373ffffffffffffffffffffffffffffffffffffffff1603620005e5578060026000828254620005d8919062000e5a565b92505081905550620006bb565b60008060008573ffffffffffffffffffffffffffffffffffffffff1673ffffffffffffffffffffffffffffffffffffffff1681526020019081526020016000205490508181101562000674578381836040517fe450d38c0000000000000000000000000000000000000000000000000000000081526004016200066b9392919062000e95565b60405180910390fd5b8181036000808673ffffffffffffffffffffffffffffffffffffffff1673ffffffffffffffffffffffffffffffffffffffff16815260200190815260200160002081905550505b600073ffffffffffffffffffffffffffffffffffffffff168273ffffffffffffffffffffffffffffffffffffffff160362000706578060026000828254039250508190555062000753565b806000808473ffffffffffffffffffffffffffffffffffffffff1673ffffffffffffffffffffffffffffffffffffffff168152602001908152602001600020600082825401925050819055505b8173ffffffffffffffffffffffffffffffffffffffff168373ffffffffffffffffffffffffffffffffffffffff167fddf252ad1be2c89b69c2b068fc378daa952ba7f163c4a11628f55a4df523b3ef83604051620007b2919062000ed2565b60405180910390a3505050565b600081519050919050565b7f4e487b7100000000000000000000000000000000000000000000000000000000600052604160045260246000fd5b7f4e487b7100000000000000000000000000000000000000000000000000000000600052602260045260246000fd5b600060028204905060018216806200084157607f821691505b602082108103620008575762000856620007f9565b5b50919050565b60008190508160005260206000209050919050565b60006020601f8301049050919050565b600082821b905092915050565b600060088302620008c17fffffffffffffffffffffffffffffffffffffffffffffffffffffffffffffffff8262000882565b620008cd868362000882565b95508019841693508086168417925050509392505050565b6000819050919050565b6000819050919050565b60006200091a620009146200090e84620008e5565b620008ef565b620008e5565b9050919050565b6000819050919050565b6200093683620008f9565b6200094e620009458262000921565b8484546200088f565b825550505050565b600090565b6200096562000956565b620009728184846200092b565b505050565b5b818110156200099a576200098e6000826200095b565b60018101905062000978565b5050565b601f821115620009e957620009b3816200085d565b620009be8462000872565b81016020851015620009ce578190505b620009e6620009dd8562000872565b83018262000977565b50505b505050565b600082821c905092915050565b600062000a0e60001984600802620009ee565b1980831691505092915050565b600062000a298383620009fb565b9150826002028217905092915050565b62000a4482620007bf565b67ffffffffffffffff81111562000a605762000a5f620007ca565b5b62000a6c825462000828565b62000a798282856200099e565b600060209050601f83116001811462000ab1576000841562000a9c578287015190505b62000aa8858262000a1b565b86555062000b18565b601f19841662000ac1866200085d565b60005b8281101562000aeb5784890151825560018201915060208501945060208101905062000ac4565b8683101562000b0b578489015162000b07601f891682620009fb565b8355505b6001600288020188555050505b505050505050565b600073ffffffffffffffffffffffffffffffffffffffff82169050919050565b600062000b4d8262000b20565b9050919050565b62000b5f8162000b40565b82525050565b600060208201905062000b7c600083018462000b54565b92915050565b7f4e487b7100000000000000000000000000000000000000000000000000000000600052601160045260246000fd5b60008160011c9050919050565b6000808291508390505b600185111562000c105780860481111562000be85762000be762000b82565b5b600185161562000bf85780820291505b808102905062000c088562000bb1565b945062000bc8565b94509492505050565b60008262000c2b576001905062000cfe565b8162000c3b576000905062000cfe565b816001811462000c54576002811462000c5f5762000c95565b600191505062000cfe565b60ff84111562000c745762000c7362000b82565b5b8360020a91508482111562000c8e5762000c8d62000b82565b5b5062000cfe565b5060208310610133831016604e8410600b841016171562000ccf5782820a90508381111562000cc95762000cc862000b82565b5b62000cfe565b62000cde848484600162000bbe565b9250905081840481111562000cf85762000cf762000b82565b5b81810290505b9392505050565b600060ff82169050919050565b600062000d1f82620008e5565b915062000d2c8362000d05565b925062000d5b7fffffffffffffffffffffffffffffffffffffffffffffffffffffffffffffffff848462000c19565b905092915050565b600062000d7082620008e5565b915062000d7d83620008e5565b925082820262000d8d81620008e5565b9150828204841483151762000da75762000da662000b82565b5b5092915050565b7f4e487b7100000000000000000000000000000000000000000000000000000000600052602160045260246000fd5b62000de881620008e5565b82525050565b600061ffff82169050919050565b62000e078162000dee565b82525050565b600060808201905062000e24600083018762000ddd565b62000e33602083018662000dfc565b62000e42604083018562000ddd565b62000e51606083018462000ddd565b95945050505050565b600062000e6782620008e5565b915062000e7483620008e5565b925082820190508082111562000e8f5762000e8e62000b82565b5b92915050565b600060608201905062000eac600083018662000b54565b62000ebb602083018562000ddd565b62000eca604083018462000ddd565b949350505050565b600060208201905062000ee9600083018462000ddd565b92915050565b612d3f8062000eff6000396000f3fe608060405234801561001057600080fd5b506004361061018e5760003560e01c806379ba5097116100de578063dd62ed3e11610097578063e821c39a11610071578063e821c39a1461046d578063eeb32e3d14610477578063efe08a7d14610493578063f2fde38b146104af5761018e565b8063dd62ed3e14610401578063e1a4521814610431578063e30c39781461044f5761018e565b806379ba50971461033b57806379cc6790146103455780637be6277b146103615780638da5cb5b1461039557806395d89b41146103b3578063a9059cbb146103d15761018e565b806342966c681161014b57806364f342ee1161012557806364f342ee146102c757806370a08231146102d1578063710315d614610301578063715018a6146103315761018e565b806342966c681461026b5780634e71d92d1461028757806352a9039c146102915761018e565b806306fdde0314610193578063095ea7b3146101b157806310786deb146101e157806318160ddd146101ff57806323b872dd1461021d578063313ce5671461024d575b600080fd5b61019b6104cb565b6040516101a89190611e31565b60405180910390f35b6101cb60048036038101906101c69190611ef1565b61055d565b6040516101d89190611f4c565b60405180910390f35b6101e9610580565b6040516101f69190611f76565b60405180910390f35b610207610587565b6040516102149190611f76565b60405180910390f35b61023760048036038101906102329190611f91565b610591565b6040516102449190611f4c565b60405180910390f35b6102556105c0565b6040516102629190612000565b60405180910390f35b6102856004803603810190610280919061201b565b6105c9565b005b61028f6105dd565b005b6102ab60048036038101906102a69190612048565b61084d565b6040516102be9796959493929190612075565b60405180910390f35b6102cf61088f565b005b6102eb60048036038101906102e69190612048565b61096e565b6040516102f89190611f76565b60405180910390f35b61031b60048036038101906103169190612048565b6109b6565b6040516103289190611f4c565b60405180910390f35b6103396109d6565b005b6103436109ea565b005b61035f600480360381019061035a9190611ef1565b610a79565b005b61037b60048036038101906103769190612109565b610a99565b60405161038c959493929190612153565b60405180910390f35b61039d610add565b6040516103aa91906121b5565b60405180910390f35b6103bb610b07565b6040516103c89190611e31565b60405180910390f35b6103eb60048036038101906103e69190611ef1565b610b99565b6040516103f89190611f4c565b60405180910390f35b61041b600480360381019061041691906121d0565b610bbc565b6040516104289190611f76565b60405180910390f35b610439610c43565b6040516104469190612210565b60405180910390f35b610457610c49565b60405161046491906121b5565b60405180910390f35b610475610c73565b005b610491600480360381019061048c91906122e6565b610ccd565b005b6104ad60048036038101906104a891906121d0565b611101565b005b6104c960048036038101906104c49190612048565b611555565b005b6060600380546104da906123aa565b80601f0160208091040260200160405190810160405280929190818152602001828054610506906123aa565b80156105535780601f1061052857610100808354040283529160200191610553565b820191906000526020600020905b81548152906001019060200180831161053657829003601f168201915b5050505050905090565b600080610568611602565b905061057581858561160a565b600191505092915050565b62278d0081565b6000600254905090565b60008061059c611602565b90506105a985828561161c565b6105b48585856116b1565b60019150509392505050565b60006012905090565b6105da6105d4611602565b826117a5565b50565b6000600860003373ffffffffffffffffffffffffffffffffffffffff1673ffffffffffffffffffffffffffffffffffffffff16815260200190815260200160002090506000816000015411610667576040517f08c379a000000000000000000000000000000000000000000000000000000000815260040161065e90612427565b60405180910390fd5b600042905081600601548110156106b3576040517f08c379a00000000000000000000000000000000000000000000000000000000081526004016106aa90612493565b60405180910390fd5b60008260010154905060008184600001546106ce91906124e2565b9050600062278d0085600201546106e59190612516565b85600601546106f49190612558565b905080841061076457600062278d0086600301546107129190612516565b8261071d9190612558565b90508085106107395782846107329190612558565b9350610762565b8560040154828661074a91906124e2565b6107549190612516565b8461075f9190612558565b93505b505b846000015483111561077857846000015492505b600085600501548461078a91906124e2565b9050600081116107cf576040517f08c379a00000000000000000000000000000000000000000000000000000000081526004016107c6906125d8565b60405180910390fd5b808660050160008282546107e39190612558565b925050819055506107f53033836116b1565b3373ffffffffffffffffffffffffffffffffffffffff167f9923b4306c6c030f2bdfbf156517d5983b87e15b96176da122cd4f2effa4ba7b828760405161083d9291906125f8565b60405180910390a2505050505050565b60086020528060005260406000206000915090508060000154908060010154908060020154908060030154908060040154908060050154908060060154905087565b6000600860003373ffffffffffffffffffffffffffffffffffffffff1673ffffffffffffffffffffffffffffffffffffffff1681526020019081526020016000206000015411610914576040517f08c379a000000000000000000000000000000000000000000000000000000000815260040161090b9061266d565b60405180910390fd5b6001600960003373ffffffffffffffffffffffffffffffffffffffff1673ffffffffffffffffffffffffffffffffffffffff16815260200190815260200160002060006101000a81548160ff021916908315150217905550565b60008060008373ffffffffffffffffffffffffffffffffffffffff1673ffffffffffffffffffffffffffffffffffffffff168152602001908152602001600020549050919050565b60096020528060005260406000206000915054906101000a900460ff1681565b6109de611827565b6109e860006118ae565b565b60006109f4611602565b90508073ffffffffffffffffffffffffffffffffffffffff16610a15610c49565b73ffffffffffffffffffffffffffffffffffffffff1614610a6d57806040517f118cdaa7000000000000000000000000000000000000000000000000000000008152600401610a6491906121b5565b60405180910390fd5b610a76816118ae565b50565b610a8b82610a85611602565b8361161c565b610a9582826117a5565b5050565b60076020528060005260406000206000915090508060000154908060010160009054906101000a900461ffff16908060020154908060030154908060040154905085565b6000600560009054906101000a900473ffffffffffffffffffffffffffffffffffffffff16905090565b606060048054610b16906123aa565b80601f0160208091040260200160405190810160405280929190818152602001828054610b42906123aa565b8015610b8f5780601f10610b6457610100808354040283529160200191610b8f565b820191906000526020600020905b815481529060010190602001808311610b7257829003601f168201915b5050505050905090565b600080610ba4611602565b9050610bb18185856116b1565b600191505092915050565b6000600160008473ffffffffffffffffffffffffffffffffffffffff1673ffffffffffffffffffffffffffffffffffffffff16815260200190815260200160002060008373ffffffffffffffffffffffffffffffffffffffff1673ffffffffffffffffffffffffffffffffffffffff16815260200190815260200160002054905092915050565b61271081565b6000600660009054906101000a900473ffffffffffffffffffffffffffffffffffffffff16905090565b6000600960003373ffffffffffffffffffffffffffffffffffffffff1673ffffffffffffffffffffffffffffffffffffffff16815260200190815260200160002060006101000a81548160ff021916908315150217905550565b610cd5611827565b818190508484905014610d1d576040517f08c379a0000000000000000000000000000000000000000000000000000000008152600401610d14906126d9565b60405180910390fd5b60006007600087600a811115610d3657610d356126f9565b5b600a811115610d4857610d476126f9565b5b8152602001908152602001600020905060005b858590508110156110f8576000868683818110610d7b57610d7a612728565b5b9050602002016020810190610d909190612048565b9050600073ffffffffffffffffffffffffffffffffffffffff168173ffffffffffffffffffffffffffffffffffffffff1603610e01576040517f08c379a0000000000000000000000000000000000000000000000000000000008152600401610df8906127a3565b60405180910390fd5b6000610e0b6105c0565b600a610e1791906128f6565b868685818110610e2a57610e29612728565b5b90506020020135610e3b9190612516565b90508360000154818560040154610e529190612558565b1115610e93576040517f08c379a0000000000000000000000000000000000000000000000000000000008152600401610e8a9061298d565b60405180910390fd5b6000600860008473ffffffffffffffffffffffffffffffffffffffff1673ffffffffffffffffffffffffffffffffffffffff1681526020019081526020016000206000015414610f18576040517f08c379a0000000000000000000000000000000000000000000000000000000008152600401610f0f906129f9565b60405180910390fd5b80846004016000828254610f2c9190612558565b92505081905550600061271061ffff168560010160009054906101000a900461ffff1661ffff1683610f5e9190612516565b610f689190612a48565b905060008183610f7891906124e2565b905060008087600301541115610fa95762278d008760030154610f9b9190612516565b82610fa69190612a48565b90505b6040518060e0016040528085815260200184815260200188600201548152602001886003015481526020018281526020016000815260200142815250600860008773ffffffffffffffffffffffffffffffffffffffff1673ffffffffffffffffffffffffffffffffffffffff168152602001908152602001600020600082015181600001556020820151816001015560408201518160020155606082015181600301556080820151816004015560a0820151816005015560c082015181600601559050508473ffffffffffffffffffffffffffffffffffffffff168c600a811115611097576110966126f9565b5b7f951a64fd3e10bdb0c1fe79c048549dbdbb2a891ee03ed559d71fb935d35d95f886868b600201548c6003015487426040516110d896959493929190612a79565b60405180910390a3505050505080806110f090612ada565b915050610d5b565b50505050505050565b611109611827565b600073ffffffffffffffffffffffffffffffffffffffff168273ffffffffffffffffffffffffffffffffffffffff16141580156111735750600073ffffffffffffffffffffffffffffffffffffffff168173ffffffffffffffffffffffffffffffffffffffff1614155b6111b2576040517f08c379a00000000000000000000000000000000000000000000000000000000081526004016111a990612b6e565b60405180910390fd5b6000600860008473ffffffffffffffffffffffffffffffffffffffff1673ffffffffffffffffffffffffffffffffffffffff1681526020019081526020016000209050600081600001541161123c576040517f08c379a000000000000000000000000000000000000000000000000000000000815260040161123390612bda565b60405180910390fd5b6000600860008473ffffffffffffffffffffffffffffffffffffffff1673ffffffffffffffffffffffffffffffffffffffff16815260200190815260200160002060000154146112c1576040517f08c379a00000000000000000000000000000000000000000000000000000000081526004016112b890612c46565b60405180910390fd5b600960008473ffffffffffffffffffffffffffffffffffffffff1673ffffffffffffffffffffffffffffffffffffffff16815260200190815260200160002060009054906101000a900460ff1661134d576040517f08c379a000000000000000000000000000000000000000000000000000000000815260040161134490612cb2565b60405180910390fd5b6040518060e001604052808260000154815260200182600101548152602001826002015481526020018260030154815260200182600401548152602001826005015481526020018260060154815250600860008473ffffffffffffffffffffffffffffffffffffffff1673ffffffffffffffffffffffffffffffffffffffff168152602001908152602001600020600082015181600001556020820151816001015560408201518160020155606082015181600301556080820151816004015560a0820151816005015560c08201518160060155905050600860008473ffffffffffffffffffffffffffffffffffffffff1673ffffffffffffffffffffffffffffffffffffffff16815260200190815260200160002060008082016000905560018201600090556002820160009055600382016000905560048201600090556005820160009055600682016000905550506000600960008573ffffffffffffffffffffffffffffffffffffffff1673ffffffffffffffffffffffffffffffffffffffff16815260200190815260200160002060006101000a81548160ff0219169083151502179055508173ffffffffffffffffffffffffffffffffffffffff168373ffffffffffffffffffffffffffffffffffffffff167f1552bf14c580c20e53a4227e9b76734da8e21905a818fdc5fa05dcb2891bb89e60405160405180910390a3505050565b61155d611827565b80600660006101000a81548173ffffffffffffffffffffffffffffffffffffffff021916908373ffffffffffffffffffffffffffffffffffffffff1602179055508073ffffffffffffffffffffffffffffffffffffffff166115bd610add565b73ffffffffffffffffffffffffffffffffffffffff167f38d16b8cac22d99fc7c124b9cd0de2d3fa1faef420bfe791d8c362d765e2270060405160405180910390a350565b600033905090565b61161783838360016118df565b505050565b60006116288484610bbc565b90507fffffffffffffffffffffffffffffffffffffffffffffffffffffffffffffffff8110156116ab578181101561169b578281836040517ffb8f41b200000000000000000000000000000000000000000000000000000000815260040161169293929190612cd2565b60405180910390fd5b6116aa848484840360006118df565b5b50505050565b600073ffffffffffffffffffffffffffffffffffffffff168373ffffffffffffffffffffffffffffffffffffffff16036117235760006040517f96c6fd1e00000000000000000000000000000000000000000000000000000000815260040161171a91906121b5565b60405180910390fd5b600073ffffffffffffffffffffffffffffffffffffffff168273ffffffffffffffffffffffffffffffffffffffff16036117955760006040517fec442f0500000000000000000000000000000000000000000000000000000000815260040161178c91906121b5565b60405180910390fd5b6117a0838383611ab6565b505050565b600073ffffffffffffffffffffffffffffffffffffffff168273ffffffffffffffffffffffffffffffffffffffff16036118175760006040517f96c6fd1e00000000000000000000000000000000000000000000000000000000815260040161180e91906121b5565b60405180910390fd5b61182382600083611ab6565b5050565b61182f611602565b73ffffffffffffffffffffffffffffffffffffffff1661184d610add565b73ffffffffffffffffffffffffffffffffffffffff16146118ac57611870611602565b6040517f118cdaa70000000000000000000000000000000000000000000000000000000081526004016118a391906121b5565b60405180910390fd5b565b600660006101000a81549073ffffffffffffffffffffffffffffffffffffffff02191690556118dc81611cdb565b50565b600073ffffffffffffffffffffffffffffffffffffffff168473ffffffffffffffffffffffffffffffffffffffff16036119515760006040517fe602df0500000000000000000000000000000000000000000000000000000000815260040161194891906121b5565b60405180910390fd5b600073ffffffffffffffffffffffffffffffffffffffff168373ffffffffffffffffffffffffffffffffffffffff16036119c35760006040517f94280d620000000000000000000000000000000000000000000000000000000081526004016119ba91906121b5565b60405180910390fd5b81600160008673ffffffffffffffffffffffffffffffffffffffff1673ffffffffffffffffffffffffffffffffffffffff16815260200190815260200160002060008573ffffffffffffffffffffffffffffffffffffffff1673ffffffffffffffffffffffffffffffffffffffff168152602001908152602001600020819055508015611ab0578273ffffffffffffffffffffffffffffffffffffffff168473ffffffffffffffffffffffffffffffffffffffff167f8c5be1e5ebec7d5bd14f71427d1e84f3dd0314c0f7b2291e5b200ac8c7c3b92584604051611aa79190611f76565b60405180910390a35b50505050565b600073ffffffffffffffffffffffffffffffffffffffff168373ffffffffffffffffffffffffffffffffffffffff1603611b08578060026000828254611afc9190612558565b92505081905550611bdb565b60008060008573ffffffffffffffffffffffffffffffffffffffff1673ffffffffffffffffffffffffffffffffffffffff16815260200190815260200160002054905081811015611b94578381836040517fe450d38c000000000000000000000000000000000000000000000000000000008152600401611b8b93929190612cd2565b60405180910390fd5b8181036000808673ffffffffffffffffffffffffffffffffffffffff1673ffffffffffffffffffffffffffffffffffffffff16815260200190815260200160002081905550505b600073ffffffffffffffffffffffffffffffffffffffff168273ffffffffffffffffffffffffffffffffffffffff1603611c245780600260008282540392505081905550611c71565b806000808473ffffffffffffffffffffffffffffffffffffffff1673ffffffffffffffffffffffffffffffffffffffff168152602001908152602001600020600082825401925050819055505b8173ffffffffffffffffffffffffffffffffffffffff168373ffffffffffffffffffffffffffffffffffffffff167fddf252ad1be2c89b69c2b068fc378daa952ba7f163c4a11628f55a4df523b3ef83604051611cce9190611f76565b60405180910390a3505050565b6000600560009054906101000a900473ffffffffffffffffffffffffffffffffffffffff16905081600560006101000a81548173ffffffffffffffffffffffffffffffffffffffff021916908373ffffffffffffffffffffffffffffffffffffffff1602179055508173ffffffffffffffffffffffffffffffffffffffff168173ffffffffffffffffffffffffffffffffffffffff167f8be0079c531659141344cd1fd0a4f28419497f9722a3daafe3b4186f6b6457e060405160405180910390a35050565b600081519050919050565b600082825260208201905092915050565b60005b83811015611ddb578082015181840152602081019050611dc0565b60008484015250505050565b6000601f19601f8301169050919050565b6000611e0382611da1565b611e0d8185611dac565b9350611e1d818560208601611dbd565b611e2681611de7565b840191505092915050565b60006020820190508181036000830152611e4b8184611df8565b905092915050565b600080fd5b600080fd5b600073ffffffffffffffffffffffffffffffffffffffff82169050919050565b6000611e8882611e5d565b9050919050565b611e9881611e7d565b8114611ea357600080fd5b50565b600081359050611eb581611e8f565b92915050565b6000819050919050565b611ece81611ebb565b8114611ed957600080fd5b50565b600081359050611eeb81611ec5565b92915050565b60008060408385031215611f0857611f07611e53565b5b6000611f1685828601611ea6565b9250506020611f2785828601611edc565b9150509250929050565b60008115159050919050565b611f4681611f31565b82525050565b6000602082019050611f616000830184611f3d565b92915050565b611f7081611ebb565b82525050565b6000602082019050611f8b6000830184611f67565b92915050565b600080600060608486031215611faa57611fa9611e53565b5b6000611fb886828701611ea6565b9350506020611fc986828701611ea6565b9250506040611fda86828701611edc565b9150509250925092565b600060ff82169050919050565b611ffa81611fe4565b82525050565b60006020820190506120156000830184611ff1565b92915050565b60006020828403121561203157612030611e53565b5b600061203f84828501611edc565b91505092915050565b60006020828403121561205e5761205d611e53565b5b600061206c84828501611ea6565b91505092915050565b600060e08201905061208a600083018a611f67565b6120976020830189611f67565b6120a46040830188611f67565b6120b16060830187611f67565b6120be6080830186611f67565b6120cb60a0830185611f67565b6120d860c0830184611f67565b98975050505050505050565b600b81106120f157600080fd5b50565b600081359050612103816120e4565b92915050565b60006020828403121561211f5761211e611e53565b5b600061212d848285016120f4565b91505092915050565b600061ffff82169050919050565b61214d81612136565b82525050565b600060a0820190506121686000830188611f67565b6121756020830187612144565b6121826040830186611f67565b61218f6060830185611f67565b61219c6080830184611f67565b9695505050505050565b6121af81611e7d565b82525050565b60006020820190506121ca60008301846121a6565b92915050565b600080604083850312156121e7576121e6611e53565b5b60006121f585828601611ea6565b925050602061220685828601611ea6565b9150509250929050565b60006020820190506122256000830184612144565b92915050565b600080fd5b600080fd5b600080fd5b60008083601f8401126122505761224f61222b565b5b8235905067ffffffffffffffff81111561226d5761226c612230565b5b60208301915083602082028301111561228957612288612235565b5b9250929050565b60008083601f8401126122a6576122a561222b565b5b8235905067ffffffffffffffff8111156122c3576122c2612230565b5b6020830191508360208202830111156122df576122de612235565b5b9250929050565b60008060008060006060868803121561230257612301611e53565b5b6000612310888289016120f4565b955050602086013567ffffffffffffffff81111561233157612330611e58565b5b61233d8882890161223a565b9450945050604086013567ffffffffffffffff8111156123605761235f611e58565b5b61236c88828901612290565b92509250509295509295909350565b7f4e487b7100000000000000000000000000000000000000000000000000000000600052602260045260246000fd5b600060028204905060018216806123c257607f821691505b6020821081036123d5576123d461237b565b5b50919050565b7f4747433a206e6f20616c6c6f636174696f6e0000000000000000000000000000600082015250565b6000612411601283611dac565b915061241c826123db565b602082019050919050565b6000602082019050818103600083015261244081612404565b9050919050565b7f4747433a206e6f74207374617274656400000000000000000000000000000000600082015250565b600061247d601083611dac565b915061248882612447565b602082019050919050565b600060208201905081810360008301526124ac81612470565b9050919050565b7f4e487b7100000000000000000000000000000000000000000000000000000000600052601160045260246000fd5b60006124ed82611ebb565b91506124f883611ebb565b92508282039050818111156125105761250f6124b3565b5b92915050565b600061252182611ebb565b915061252c83611ebb565b925082820261253a81611ebb565b91508282048414831517612551576125506124b3565b5b5092915050565b600061256382611ebb565b915061256e83611ebb565b9250828201905080821115612586576125856124b3565b5b92915050565b7f4747433a206e6f7468696e6720746f20636c61696d0000000000000000000000600082015250565b60006125c2601583611dac565b91506125cd8261258c565b602082019050919050565b600060208201905081810360008301526125f1816125b5565b9050919050565b600060408201905061260d6000830185611f67565b61261a6020830184611f67565b9392505050565b7f4747433a206e6f20616c6c6f6300000000000000000000000000000000000000600082015250565b6000612657600d83611dac565b915061266282612621565b602082019050919050565b600060208201905081810360008301526126868161264a565b9050919050565b7f4747433a206c656e677468206d69736d61746368000000000000000000000000600082015250565b60006126c3601483611dac565b91506126ce8261268d565b602082019050919050565b600060208201905081810360008301526126f2816126b6565b9050919050565b7f4e487b7100000000000000000000000000000000000000000000000000000000600052602160045260246000fd5b7f4e487b7100000000000000000000000000000000000000000000000000000000600052603260045260246000fd5b7f4747433a207a65726f2061646472657373000000000000000000000000000000600082015250565b600061278d601183611dac565b915061279882612757565b602082019050919050565b600060208201905081810360008301526127bc81612780565b9050919050565b60008160011c9050919050565b6000808291508390505b600185111561281a578086048111156127f6576127f56124b3565b5b60018516156128055780820291505b8081029050612813856127c3565b94506127da565b94509492505050565b60008261283357600190506128ef565b8161284157600090506128ef565b8160018114612857576002811461286157612890565b60019150506128ef565b60ff841115612873576128726124b3565b5b8360020a91508482111561288a576128896124b3565b5b506128ef565b5060208310610133831016604e8410600b84101617156128c55782820a9050838111156128c0576128bf6124b3565b5b6128ef565b6128d284848460016127d0565b925090508184048111156128e9576128e86124b3565b5b81810290505b9392505050565b600061290182611ebb565b915061290c83611fe4565b92506129397fffffffffffffffffffffffffffffffffffffffffffffffffffffffffffffffff8484612823565b905092915050565b7f4747433a20706f6f6c2065786861757374656400000000000000000000000000600082015250565b6000612977601383611dac565b915061298282612941565b602082019050919050565b600060208201905081810360008301526129a68161296a565b9050919050565b7f4747433a20616c72656164792068617320616c6c6f6300000000000000000000600082015250565b60006129e3601683611dac565b91506129ee826129ad565b602082019050919050565b60006020820190508181036000830152612a12816129d6565b9050919050565b7f4e487b7100000000000000000000000000000000000000000000000000000000600052601260045260246000fd5b6000612a5382611ebb565b9150612a5e83611ebb565b925082612a6e57612a6d612a19565b5b828204905092915050565b600060c082019050612a8e6000830189611f67565b612a9b6020830188611f67565b612aa86040830187611f67565b612ab56060830186611f67565b612ac26080830185611f67565b612acf60a0830184611f67565b979650505050505050565b6000612ae582611ebb565b91507fffffffffffffffffffffffffffffffffffffffffffffffffffffffffffffffff8203612b1757612b166124b3565b5b600182019050919050565b7f4747433a207a65726f2061646472000000000000000000000000000000000000600082015250565b6000612b58600e83611dac565b9150612b6382612b22565b602082019050919050565b60006020820190508181036000830152612b8781612b4b565b9050919050565b7f4747433a206e6f20616c6c6f63206f6c64000000000000000000000000000000600082015250565b6000612bc4601183611dac565b9150612bcf82612b8e565b602082019050919050565b60006020820190508181036000830152612bf381612bb7565b9050919050565b7f4747433a20616c6c6f6320657869737473206e65770000000000000000000000600082015250565b6000612c30601583611dac565b9150612c3b82612bfa565b602082019050919050565b60006020820190508181036000830152612c5f81612c23565b9050919050565b7f4747433a206e6f207573657220617070726f76616c0000000000000000000000600082015250565b6000612c9c601583611dac565b9150612ca782612c66565b602082019050919050565b60006020820190508181036000830152612ccb81612c8f565b9050919050565b6000606082019050612ce760008301866121a6565b612cf46020830185611f67565b612d016040830184611f67565b94935050505056fea2646970667358221220c101c82447c6a79dfb187c2add5f77aa2a8fcb2c348b4301b38eb7c186b8b92464736f6c63430008140033",
  "linkReferences": {},
  "deployedLinkReferences": {}
}