{
  "_format": "hh-sol-artifact-1",
  "contractName": "GGC",
  "sourceName": "contracts/GGC.sol",
  "abi": [
    {
      "inputs": [],
      "stateMutability": "nonpayable",
      "type": "constructor"
    },
    {
      "inputs": [
        {
          "internalType": "address",
          "name": "spender",
          "type": "address"
        },
        {
          "internalType": "uint256",
          "name": "allowance",
          "type": "uint256"
        },
        {
          "internalType": "uint256",
          "name": "needed",
          "type": "uint256"
        }
      ],
      "name": "ERC20InsufficientAllowance",
      "type": "error"
    },
    {
      "inputs": [
        {
          "internalType": "address",
          "name": "sender",
          "type": "address"
        },
        {
          "internalType": "uint256",
          "name": "balance",
          "type": "uint256"
        },
        {
          "internalType": "uint256",
          "name": "needed",
          "type": "uint256"
        }
      ],
      "name": "ERC20InsufficientBalance",
      "type": "error"
    },
    {
      "inputs": [
        {
          "internalType": "address",
          "name": "approver",
          "type": "address"
        }
      ],
      "name": "ERC20InvalidApprover",
      "type": "error"
    },
    {
      "inputs": [
        {
          "internalType": "address",
          "name": "receiver",
          "type": "address"
        }
      ],
      "name": "ERC20InvalidReceiver",
      "type": "error"
    },
    {
      "inputs": [
        {
          "internalType": "address",
          "name": "sender",
          "type": "address"
        }
      ],
      "name": "ERC20InvalidSender",
      "type": "error"
    },
    {
      "inputs": [
        {
          "internalType": "address",
          "name": "spender",
          "type": "address"
        }
      ],
      "name": "ERC20InvalidSpender",
      "type": "error"
    },
    {
      "inputs": [
        {
          "internalType": "address",
          "name": "owner",
          "type": "address"
        }
      ],
      "name": "OwnableInvalidOwner",
      "type": "error"
    },
    {
      "inputs": [
        {
          "internalType": "address",
          "name": "account",
          "type": "address"
        }
      ],
      "name": "OwnableUnauthorizedAccount",
      "type": "error"
    },
    {
      "anonymous": false,
      "inputs": [
        {
          "indexed": true,
          "internalType": "address",
          "name": "oldAddress",
          "type": "address"
        },
        {
          "indexed": true,
          "internalType": "address",
          "name": "newAddress",
          "type": "address"
        }
      ],
      "name": "AddressChanged",
      "type": "event"
    },
    {
      "anonymous": false,
      "inputs": [
        {
          "indexed": true,
          "internalType": "address",
          "name": "beneficiary",
          "type": "address"
        },
        {
          "indexed": false,
          "internalType": "uint256",
          "name": "unclaimed",
          "type": "uint256"
        },
        {
          "indexed": false,
          "internalType": "enum GGC.Category",
          "name": "category",
          "type": "uint8"
        }
      ],
      "name": "AllocationRevoked",
      "type": "event"
    },
    {
      "anonymous": false,
      "inputs": [
        {
          "indexed": true,
          "internalType": "enum GGC.Category",
          "name": "category",
          "type": "uint8"
        },
        {
          "indexed": true,
          "internalType": "address",
          "name": "beneficiary",
          "type": "address"
        },
        {
          "indexed": false,
          "internalType": "uint256",
          "name": "totalAmount",
          "type": "uint256"
        },
        {
          "indexed": false,
          "internalType": "uint256",
          "name": "tgeUnlock",
          "type": "uint256"
        },
        {
          "indexed": false,
          "internalType": "uint256",
          "name": "cliffMonths",
          "type": "uint256"
        },
        {
          "indexed": false,
          "internalType": "uint256",
          "name": "vestingMonths",
          "type": "uint256"
        },
        {
          "indexed": false,
          "internalType": "uint256",
          "name": "claimPerSecond",
          "type": "uint256"
        },
        {
          "indexed": false,
          "internalType": "uint256",
          "name": "startTimestamp",
          "type": "uint256"
        }
      ],
      "name": "AllocationSet",
      "type": "event"
    },
    {
      "anonymous": false,
      "inputs": [
        {
          "indexed": true,
          "internalType": "address",
          "name": "owner",
          "type": "address"
        },
        {
          "indexed": true,
          "internalType": "address",
          "name": "spender",
          "type": "address"
        },
        {
          "indexed": false,
          "internalType": "uint256",
          "name": "value",
          "type": "uint256"
        }
      ],
      "name": "Approval",
      "type": "event"
    },
    {
      "anonymous": false,
      "inputs": [
        {
          "indexed": true,
          "internalType": "enum GGC.Category",
          "name": "category",
          "type": "uint8"
        },
        {
          "indexed": false,
          "internalType": "uint256",
          "name": "totalAmount",
          "type": "uint256"
        },
        {
          "indexed": false,
          "internalType": "uint16",
          "name": "tgeBps",
          "type": "uint16"
        },
        {
          "indexed": false,
          "internalType": "uint256",
          "name": "cliffMonths",
          "type": "uint256"
        },
        {
          "indexed": false,
          "internalType": "uint256",
          "name": "vestingMonths",
          "type": "uint256"
        }
      ],
      "name": "CategoryInitialized",
      "type": "event"
    },
    {
      "anonymous": false,
      "inputs": [
        {
          "indexed": true,
          "internalType": "address",
          "name": "previousOwner",
          "type": "address"
        },
        {
          "indexed": true,
          "internalType": "address",
          "name": "newOwner",
          "type": "address"
        }
      ],
      "name": "OwnershipTransferStarted",
      "type": "event"
    },
    {
      "anonymous": false,
      "inputs": [
        {
          "indexed": true,
          "internalType": "address",
          "name": "previousOwner",
          "type": "address"
        },
        {
          "indexed": true,
          "internalType": "address",
          "name": "newOwner",
          "type": "address"
        }
      ],
      "name": "OwnershipTransferred",
      "type": "event"
    },
    {
      "anonymous": false,
      "inputs": [
        {
          "indexed": true,
          "internalType": "address",
          "name": "beneficiary",
          "type": "address"
        },
        {
          "indexed": false,
          "internalType": "uint256",
          "name": "amount",
          "type": "uint256"
        },
        {
          "indexed": false,
          "internalType": "uint256",
          "name": "timestamp",
          "type": "uint256"
        }
      ],
      "name": "TokensClaimed",
      "type": "event"
    },
    {
      "anonymous": false,
      "inputs": [
        {
          "indexed": true,
          "internalType": "address",
          "name": "from",
          "type": "address"
        },
        {
          "indexed": true,
          "internalType": "address",
          "name": "to",
          "type": "address"
        },
        {
          "indexed": false,
          "internalType": "uint256",
          "name": "value",
          "type": "uint256"
        }
      ],
      "name": "Transfer",
      "type": "event"
    },
    {
      "inputs": [],
      "name": "BPS_DENOMINATOR",
      "outputs": [
        {
          "internalType": "uint16",
          "name": "",
          "type": "uint16"
        }
      ],
      "stateMutability": "view",
      "type": "function"
    },
    {
      "inputs": [],
      "name": "SECONDS_PER_MONTH",
      "outputs": [
        {
          "internalType": "uint256",
          "name": "",
          "type": "uint256"
        }
      ],
      "stateMutability": "view",
      "type": "function"
    },
    {
      "inputs": [],
      "name": "acceptOwnership",
      "outputs": [],
      "stateMutability": "nonpayable",
      "type": "function"
    },
    {
      "inputs": [
        {
          "internalType": "address",
          "name": "",
          "type": "address"
        }
      ],
      "name": "addressChangeApproved",
      "outputs": [
        {
          "internalType": "bool",
          "name": "",
          "type": "bool"
        }
      ],
      "stateMutability": "view",
      "type": "function"
    },
    {
      "inputs": [
        {
          "internalType": "enum GGC.Category",
          "name": "category",
          "type": "uint8"
        },
        {
          "internalType": "address[]",
          "name": "beneficiaries",
          "type": "address[]"
        },
        {
          "internalType": "uint256[]",
          "name": "amounts",
          "type": "uint256[]"
        }
      ],
      "name": "allocateBatch",
      "outputs": [],
      "stateMutability": "nonpayable",
      "type": "function"
    },
    {
      "inputs": [
        {
          "internalType": "address",
          "name": "",
          "type": "address"
        }
      ],
      "name": "allocations",
      "outputs": [
        {
          "internalType": "enum GGC.Category",
          "name": "category",
          "type": "uint8"
        },
        {
          "internalType": "uint256",
          "name": "total",
          "type": "uint256"
        },
        {
          "internalType": "uint256",
          "name": "tgeUnlock",
          "type": "uint256"
        },
        {
          "internalType": "uint256",
          "name": "cliffMonths",
          "type": "uint256"
        },
        {
          "internalType": "uint256",
          "name": "vestingMonths",
          "type": "uint256"
        },
        {
          "internalType": "uint256",
          "name": "claimPerSecond",
          "type": "uint256"
        },
        {
          "internalType": "uint256",
          "name": "claimed",
          "type": "uint256"
        },
        {
          "internalType": "uint256",
          "name": "startTimestamp",
          "type": "uint256"
        }
      ],
      "stateMutability": "view",
      "type": "function"
    },
    {
      "inputs": [
        {
          "internalType": "address",
          "name": "owner",
          "type": "address"
        },
        {
          "internalType": "address",
          "name": "spender",
          "type": "address"
        }
      ],
      "name": "allowance",
      "outputs": [
        {
          "internalType": "uint256",
          "name": "",
          "type": "uint256"
        }
      ],
      "stateMutability": "view",
      "type": "function"
    },
    {
      "inputs": [
        {
          "internalType": "address",
          "name": "spender",
          "type": "address"
        },
        {
          "internalType": "uint256",
          "name": "value",
          "type": "uint256"
        }
      ],
      "name": "approve",
      "outputs": [
        {
          "internalType": "bool",
          "name": "",
          "type": "bool"
        }
      ],
      "stateMutability": "nonpayable",
      "type": "function"
    },
    {
      "inputs": [],
      "name": "approveAddressChange",
      "outputs": [],
      "stateMutability": "nonpayable",
      "type": "function"
    },
    {
      "inputs": [
        {
          "internalType": "address",
          "name": "account",
          "type": "address"
        }
      ],
      "name": "balanceOf",
      "outputs": [
        {
          "internalType": "uint256",
          "name": "",
          "type": "uint256"
        }
      ],
      "stateMutability": "view",
      "type": "function"
    },
    {
      "inputs": [
        {
          "internalType": "uint256",
          "name": "value",
          "type": "uint256"
        }
      ],
      "name": "burn",
      "outputs": [],
      "stateMutability": "nonpayable",
      "type": "function"
    },
    {
      "inputs": [
        {
          "internalType": "address",
          "name": "account",
          "type": "address"
        },
        {
          "internalType": "uint256",
          "name": "value",
          "type": "uint256"
        }
      ],
      "name": "burnFrom",
      "outputs": [],
      "stateMutability": "nonpayable",
      "type": "function"
    },
    {
      "inputs": [
        {
          "internalType": "enum GGC.Category",
          "name": "",
          "type": "uint8"
        }
      ],
      "name": "categories",
      "outputs": [
        {
          "internalType": "uint256",
          "name": "totalAmount",
          "type": "uint256"
        },
        {
          "internalType": "uint16",
          "name": "tgeBps",
          "type": "uint16"
        },
        {
          "internalType": "uint256",
          "name": "cliffMonths",
          "type": "uint256"
        },
        {
          "internalType": "uint256",
          "name": "vestingMonths",
          "type": "uint256"
        },
        {
          "internalType": "uint256",
          "name": "allocated",
          "type": "uint256"
        }
      ],
      "stateMutability": "view",
      "type": "function"
    },
    {
      "inputs": [
        {
          "internalType": "address",
          "name": "oldAddr",
          "type": "address"
        },
        {
          "internalType": "address",
          "name": "newAddr",
          "type": "address"
        }
      ],
      "name": "changeAddress",
      "outputs": [],
      "stateMutability": "nonpayable",
      "type": "function"
    },
    {
      "inputs": [],
      "name": "claim",
      "outputs": [],
      "stateMutability": "nonpayable",
      "type": "function"
    },
    {
      "inputs": [],
      "name": "decimals",
      "outputs": [
        {
          "internalType": "uint8",
          "name": "",
          "type": "uint8"
        }
      ],
      "stateMutability": "view",
      "type": "function"
    },
    {
      "inputs": [],
      "name": "name",
      "outputs": [
        {
          "internalType": "string",
          "name": "",
          "type": "string"
        }
      ],
      "stateMutability": "view",
      "type": "function"
    },
    {
      "inputs": [],
      "name": "owner",
      "outputs": [
        {
          "internalType": "address",
          "name": "",
          "type": "address"
        }
      ],
      "stateMutability": "view",
      "type": "function"
    },
    {
      "inputs": [],
      "name": "pendingOwner",
      "outputs": [
        {
          "internalType": "address",
          "name": "",
          "type": "address"
        }
      ],
      "stateMutability": "view",
      "type": "function"
    },
    {
      "inputs": [],
      "name": "renounceOwnership",
      "outputs": [],
      "stateMutability": "nonpayable",
      "type": "function"
    },
    {
      "inputs": [],
      "name": "revokeAddressChangeApproval",
      "outputs": [],
      "stateMutability": "nonpayable",
      "type": "function"
    },
    {
      "inputs": [
        {
          "internalType": "address",
          "name": "beneficiary",
          "type": "address"
        }
      ],
      "name": "revokeAllocation",
      "outputs": [],
      "stateMutability": "nonpayable",
      "type": "function"
    },
    {
      "inputs": [],
      "name": "symbol",
      "outputs": [
        {
          "internalType": "string",
          "name": "",
          "type": "string"
        }
      ],
      "stateMutability": "view",
      "type": "function"
    },
    {
      "inputs": [],
      "name": "totalSupply",
      "outputs": [
        {
          "internalType": "uint256",
          "name": "",
          "type": "uint256"
        }
      ],
      "stateMutability": "view",
      "type": "function"
    },
    {
      "inputs": [
        {
          "internalType": "address",
          "name": "to",
          "type": "address"
        },
        {
          "internalType": "uint256",
          "name": "value",
          "type": "uint256"
        }
      ],
      "name": "transfer",
      "outputs": [
        {
          "internalType": "bool",
          "name": "",
          "type": "bool"
        }
      ],
      "stateMutability": "nonpayable",
      "type": "function"
    },
    {
      "inputs": [
        {
          "internalType": "address",
          "name": "from",
          "type": "address"
        },
        {
          "internalType": "address",
          "name": "to",
          "type": "address"
        },
        {
          "internalType": "uint256",
          "name": "value",
          "type": "uint256"
        }
      ],
      "name": "transferFrom",
      "outputs": [
        {
          "internalType": "bool",
          "name": "",
          "type": "bool"
        }
      ],
      "stateMutability": "nonpayable",
      "type": "function"
    },
    {
      "inputs": [
        {
          "internalType": "address",
          "name": "newOwner",
          "type": "address"
        }
      ],
      "name": "transferOwnership",
      "outputs": [],
      "stateMutability": "nonpayable",
      "type": "function"
    }
  ],
  "bytecode": "0x60806040523480156200001157600080fd5b5033604051806040016040528060128152602001714772616e642047616e67737461204369747960701b8152506040518060400160405280600381526020016247474360e81b81525081600390816200006b91906200059e565b5060046200007a82826200059e565b5050506001600160a01b038116620000ad57604051631e4fbdf760e01b8152600060048201526024015b60405180910390fd5b620000b881620001e9565b50620000e230620000cc6012600a6200077f565b620000dc90633b9aca0062000797565b62000207565b620000fa600063098968006103e86003600c62000245565b6200011260016302faf0806105dc6003600c62000245565b6200012960026307bfa48061271060008062000245565b6200014060036305f5e10060006006602462000245565b62000157600463039387006101f482601862000245565b6200016f60056305f5e10061012c6003603062000245565b6200018760066301312d006103e86000600562000245565b6200019e60076301c9c38060006008604062000245565b620001b560086308f0d18061271060008062000245565b620001cc60096308f0d180600a6000604862000245565b620001e3600a6302faf08060006003602462000245565b620007dd565b600680546001600160a01b0319169055620002048162000374565b50565b6001600160a01b038216620002335760405163ec442f0560e01b815260006004820152602401620000a4565b6200024160008383620003c6565b5050565b6000620002556012600a6200077f565b62000261908662000797565b90506040518060a001604052808281526020018561ffff16815260200184815260200183815260200160008152506007600088600a811115620002a857620002a8620007b1565b600a811115620002bc57620002bc620007b1565b81526020808201929092526040908101600020835181559183015160018301805461ffff191661ffff90921691909117905582015160028201556060820151600382015560809091015160049091015585600a811115620003215762000321620007b1565b6040805183815261ffff87166020820152908101859052606081018490527f09f20332fb28d16bab33aad07b39e6ae6b2a696ee7dfba356a9e71ce59372f089060800160405180910390a2505050505050565b600580546001600160a01b038381166001600160a01b0319831681179093556040519116919082907f8be0079c531659141344cd1fd0a4f28419497f9722a3daafe3b4186f6b6457e090600090a35050565b6001600160a01b038316620003f5578060026000828254620003e99190620007c7565b90915550620004699050565b6001600160a01b038316600090815260208190526040902054818110156200044a5760405163391434e360e21b81526001600160a01b03851660048201526024810182905260448101839052606401620000a4565b6001600160a01b03841660009081526020819052604090209082900390555b6001600160a01b0382166200048757600280548290039055620004a6565b6001600160a01b03821660009081526020819052604090208054820190555b816001600160a01b0316836001600160a01b03167fddf252ad1be2c89b69c2b068fc378daa952ba7f163c4a11628f55a4df523b3ef83604051620004ec91815260200190565b60405180910390a3505050565b634e487b7160e01b600052604160045260246000fd5b600181811c908216806200052457607f821691505b6020821081036200054557634e487b7160e01b600052602260045260246000fd5b50919050565b601f8211156200059957600081815260208120601f850160051c81016020861015620005745750805b601f850160051c820191505b81811015620005955782815560010162000580565b5050505b505050565b81516001600160401b03811115620005ba57620005ba620004f9565b620005d281620005cb84546200050f565b846200054b565b602080601f8311600181146200060a5760008415620005f15750858301515b600019600386901b1c1916600185901b17855562000595565b600085815260208120601f198616915b828110156200063b578886015182559484019460019091019084016200061a565b50858210156200065a5787850151600019600388901b60f8161c191681555b5050505050600190811b01905550565b634e487b7160e01b600052601160045260246000fd5b600181815b80851115620006c1578160001904821115620006a557620006a56200066a565b80851615620006b357918102915b93841c939080029062000685565b509250929050565b600082620006da5750600162000779565b81620006e95750600062000779565b81600181146200070257600281146200070d576200072d565b600191505062000779565b60ff8411156200072157620007216200066a565b50506001821b62000779565b5060208310610133831016604e8410600b841016171562000752575081810a62000779565b6200075e838362000680565b80600019048211156200077557620007756200066a565b0290505b92915050565b60006200079060ff841683620006c9565b9392505050565b80820281158282048414176200077957620007796200066a565b634e487b7160e01b600052602160045260246000fd5b808201808211156200077957620007796200066a565b611a6780620007ed6000396000f3fe608060405234801561001057600080fd5b50600436106101a95760003560e01c806379ba5097116100f9578063e1a4521811610097578063e821c39a11610071578063e821c39a14610454578063eeb32e3d14610470578063efe08a7d14610483578063f2fde38b1461049657600080fd5b8063e1a4521814610414578063e30c397814610430578063e70b11df1461044157600080fd5b80638da5cb5b116100d35780638da5cb5b1461039b57806395d89b41146103c0578063a9059cbb146103c8578063dd62ed3e146103db57600080fd5b806379ba50971461031357806379cc67901461031b5780637be6277b1461032e57600080fd5b806342966c681161016657806364f342ee1161014057806364f342ee146102b757806370a08231146102bf578063710315d6146102e8578063715018a61461030b57600080fd5b806342966c68146102315780634e71d92d1461024657806352a9039c1461024e57600080fd5b806306fdde03146101ae578063095ea7b3146101cc57806310786deb146101ef57806318160ddd1461020757806323b872dd1461020f578063313ce56714610222575b600080fd5b6101b66104a9565b6040516101c391906115a2565b60405180910390f35b6101df6101da36600461160c565b61053b565b60405190151581526020016101c3565b6101f962278d0081565b6040519081526020016101c3565b6002546101f9565b6101df61021d366004611636565b610555565b604051601281526020016101c3565b61024461023f366004611672565b61057b565b005b610244610588565b6102a361025c36600461168b565b6008602052600090815260409020805460018201546002830154600384015460048501546005860154600687015460079097015460ff909616969495939492939192909188565b6040516101c39897969594939291906116de565b6102446107ab565b6101f96102cd36600461168b565b6001600160a01b031660009081526020819052604090205490565b6101df6102f636600461168b565b60096020526000908152604090205460ff1681565b610244610816565b61024461082a565b61024461032936600461160c565b61086b565b61037061033c366004611731565b60076020526000908152604090208054600182015460028301546003840154600490940154929361ffff9092169290919085565b6040805195865261ffff9094166020860152928401919091526060830152608082015260a0016101c3565b6005546001600160a01b03165b6040516001600160a01b0390911681526020016101c3565b6101b6610884565b6101df6103d636600461160c565b610893565b6101f96103e936600461174c565b6001600160a01b03918216600090815260016020908152604080832093909416825291909152205490565b61041d61271081565b60405161ffff90911681526020016101c3565b6006546001600160a01b03166103a8565b61024461044f36600461168b565b6108a1565b610244336000908152600960205260409020805460ff19169055565b61024461047e3660046117cb565b610a5c565b61024461049136600461174c565b610e43565b6102446104a436600461168b565b611174565b6060600380546104b89061184c565b80601f01602080910402602001604051908101604052809291908181526020018280546104e49061184c565b80156105315780601f1061050657610100808354040283529160200191610531565b820191906000526020600020905b81548152906001019060200180831161051457829003601f168201915b5050505050905090565b6000336105498185856111e5565b60019150505b92915050565b6000336105638582856111f7565b61056e858585611276565b60019150505b9392505050565b61058533826112d5565b50565b33600090815260086020526040902060018101546105e25760405162461bcd60e51b815260206004820152601260248201527123a3a19d1037379030b63637b1b0ba34b7b760711b60448201526064015b60405180910390fd5b6007810154429081101561062b5760405162461bcd60e51b815260206004820152601060248201526f11d1d0ce881b9bdd081cdd185c9d195960821b60448201526064016105d9565b6002820154600183015460009061064390839061189c565b9050600062278d00856003015461065a91906118af565b856007015461066991906118c6565b90508084106106d357600062278d00866004015461068791906118af565b61069190836118c6565b90508085106106ab576106a483856118c6565b93506106d1565b60058601546106ba838761189c565b6106c491906118af565b6106ce90856118c6565b93505b505b84600101548311156106e757846001015492505b60008560060154846106f9919061189c565b9050600081116107435760405162461bcd60e51b81526020600482015260156024820152744747433a206e6f7468696e6720746f20636c61696d60581b60448201526064016105d9565b8086600601600082825461075791906118c6565b909155506107689050303383611276565b604080518281526020810187905233917f9923b4306c6c030f2bdfbf156517d5983b87e15b96176da122cd4f2effa4ba7b910160405180910390a2505050505050565b336000908152600860205260409020600101546107fa5760405162461bcd60e51b815260206004820152600d60248201526c4747433a206e6f20616c6c6f6360981b60448201526064016105d9565b336000908152600960205260409020805460ff19166001179055565b61081e61130b565b6108286000611338565b565b60065433906001600160a01b031681146108625760405163118cdaa760e01b81526001600160a01b03821660048201526024016105d9565b61058581611338565b6108768233836111f7565b61088082826112d5565b5050565b6060600480546104b89061184c565b600033610549818585611276565b6108a961130b565b6001600160a01b038116600090815260086020526040902060018101546109075760405162461bcd60e51b815260206004820152601260248201527123a3a19d1037379030b63637b1b0ba34b7b760711b60448201526064016105d9565b60008160060154826001015461091d919061189c565b90506000811161096f5760405162461bcd60e51b815260206004820181905260248201527f4747433a206e6f7468696e6720756e636c61696d656420746f207265766f6b6560448201526064016105d9565b8154600090600790829060ff16600a81111561098d5761098d6116a6565b600a81111561099e5761099e6116a6565b81526020019081526020016000209050818160040160008282546109c2919061189c565b90915550506001600160a01b038416600081815260086020526040808220805460ff1916815560018101839055600281018390556003810183905560048101839055600581018390556006810183905560070191909155845490517f2a00296a8bb64e722a7d641b29b1b11efde441c98cf2ce2e75c7ff866da7c72391610a4e91869160ff16906118d9565b60405180910390a250505050565b610a6461130b565b828114610aaa5760405162461bcd60e51b815260206004820152601460248201527308e8e867440d8cadccee8d040dad2e6dac2e8c6d60631b60448201526064016105d9565b60006007600087600a811115610ac257610ac26116a6565b600a811115610ad357610ad36116a6565b8152602001908152602001600020905060005b84811015610e3a576000868683818110610b0257610b026118ed565b9050602002016020810190610b17919061168b565b90506001600160a01b038116610b635760405162461bcd60e51b81526020600482015260116024820152704747433a207a65726f206164647265737360781b60448201526064016105d9565b6000610b716012600a6119e7565b868685818110610b8357610b836118ed565b90506020020135610b9491906118af565b90508360000154818560040154610bab91906118c6565b1115610bef5760405162461bcd60e51b815260206004820152601360248201527211d1d0ce881c1bdbdb08195e1a185d5cdd1959606a1b60448201526064016105d9565b6001600160a01b03821660009081526008602052604090206001015415610c515760405162461bcd60e51b81526020600482015260166024820152754747433a20616c72656164792068617320616c6c6f6360501b60448201526064016105d9565b80846004016000828254610c6591906118c6565b9091555050600184015460009061271090610c849061ffff16846118af565b610c8e91906119f6565b90506000610c9c828461189c565b905060008087600301541115610ccc5762278d008760030154610cbf91906118af565b610cc990836119f6565b90505b6040518061010001604052808d600a811115610cea57610cea6116a6565b81526020808201879052604080830187905260028b0154606084015260038b0154608084015260a08301859052600060c084018190524260e0909401939093526001600160a01b03891683526008909152902081518154829060ff1916600183600a811115610d5b57610d5b6116a6565b02179055506020820151600182015560408201516002820155606082015160038201556080820151600482015560a0820151600582015560c0820151600682015560e0909101516007909101556001600160a01b0385168c600a811115610dc457610dc46116a6565b600289015460038a01546040805189815260208101899052908101929092526060820152608081018490524260a08201527f951a64fd3e10bdb0c1fe79c048549dbdbb2a891ee03ed559d71fb935d35d95f89060c00160405180910390a350505050508080610e3290611a18565b915050610ae6565b50505050505050565b610e4b61130b565b6001600160a01b03821615801590610e6b57506001600160a01b03811615155b610ea85760405162461bcd60e51b815260206004820152600e60248201526d23a3a19d103d32b9379030b2323960911b60448201526064016105d9565b6001600160a01b03821660009081526008602052604090206001810154610f055760405162461bcd60e51b815260206004820152601160248201527011d1d0ce881b9bc8185b1b1bd8c81bdb19607a1b60448201526064016105d9565b6001600160a01b03821660009081526008602052604090206001015415610f665760405162461bcd60e51b81526020600482015260156024820152744747433a20616c6c6f6320657869737473206e657760581b60448201526064016105d9565b6001600160a01b03831660009081526009602052604090205460ff16610fc65760405162461bcd60e51b815260206004820152601560248201527411d1d0ce881b9bc81d5cd95c88185c1c1c9bdd985b605a1b60448201526064016105d9565b6040805161010081019091528154819060ff16600a811115610fea57610fea6116a6565b8152602001826001015481526020018260020154815260200182600301548152602001826004015481526020018260050154815260200182600601548152602001826007015481525060086000846001600160a01b03166001600160a01b0316815260200190815260200160002060008201518160000160006101000a81548160ff0219169083600a811115611082576110826116a6565b02179055506020828101516001808401919091556040808501516002808601919091556060860151600380870191909155608087015160048088019190915560a088015160058089019190915560c08901516006808a019190915560e0909901516007988901556001600160a01b03808d16600081815260088a52878120805460ff1990811682559981018290559687018190559486018590559285018490559084018390559783018290559190950185905560099093528084208054909216909155519285169290917f1552bf14c580c20e53a4227e9b76734da8e21905a818fdc5fa05dcb2891bb89e91a3505050565b61117c61130b565b600680546001600160a01b0383166001600160a01b031990911681179091556111ad6005546001600160a01b031690565b6001600160a01b03167f38d16b8cac22d99fc7c124b9cd0de2d3fa1faef420bfe791d8c362d765e2270060405160405180910390a350565b6111f28383836001611351565b505050565b6001600160a01b03838116600090815260016020908152604080832093861683529290522054600019811015611270578181101561126157604051637dc7a0d960e11b81526001600160a01b038416600482015260248101829052604481018390526064016105d9565b61127084848484036000611351565b50505050565b6001600160a01b0383166112a057604051634b637e8f60e11b8152600060048201526024016105d9565b6001600160a01b0382166112ca5760405163ec442f0560e01b8152600060048201526024016105d9565b6111f2838383611426565b6001600160a01b0382166112ff57604051634b637e8f60e11b8152600060048201526024016105d9565b61088082600083611426565b6005546001600160a01b031633146108285760405163118cdaa760e01b81523360048201526024016105d9565b600680546001600160a01b031916905561058581611550565b6001600160a01b03841661137b5760405163e602df0560e01b8152600060048201526024016105d9565b6001600160a01b0383166113a557604051634a1406b160e11b8152600060048201526024016105d9565b6001600160a01b038085166000908152600160209081526040808320938716835292905220829055801561127057826001600160a01b0316846001600160a01b03167f8c5be1e5ebec7d5bd14f71427d1e84f3dd0314c0f7b2291e5b200ac8c7c3b9258460405161141891815260200190565b60405180910390a350505050565b6001600160a01b03831661145157806002600082825461144691906118c6565b909155506114c39050565b6001600160a01b038316600090815260208190526040902054818110156114a45760405163391434e360e21b81526001600160a01b038516600482015260248101829052604481018390526064016105d9565b6001600160a01b03841660009081526020819052604090209082900390555b6001600160a01b0382166114df576002805482900390556114fe565b6001600160a01b03821660009081526020819052604090208054820190555b816001600160a01b0316836001600160a01b03167fddf252ad1be2c89b69c2b068fc378daa952ba7f163c4a11628f55a4df523b3ef8360405161154391815260200190565b60405180910390a3505050565b600580546001600160a01b038381166001600160a01b0319831681179093556040519116919082907f8be0079c531659141344cd1fd0a4f28419497f9722a3daafe3b4186f6b6457e090600090a35050565b600060208083528351808285015260005b818110156115cf578581018301518582016040015282016115b3565b506000604082860101526040601f19601f8301168501019250505092915050565b80356001600160a01b038116811461160757600080fd5b919050565b6000806040838503121561161f57600080fd5b611628836115f0565b946020939093013593505050565b60008060006060848603121561164b57600080fd5b611654846115f0565b9250611662602085016115f0565b9150604084013590509250925092565b60006020828403121561168457600080fd5b5035919050565b60006020828403121561169d57600080fd5b610574826115f0565b634e487b7160e01b600052602160045260246000fd5b600b81106116da57634e487b7160e01b600052602160045260246000fd5b9052565b61010081016116ed828b6116bc565b602082019890985260408101969096526060860194909452608085019290925260a084015260c083015260e090910152919050565b8035600b811061160757600080fd5b60006020828403121561174357600080fd5b61057482611722565b6000806040838503121561175f57600080fd5b611768836115f0565b9150611776602084016115f0565b90509250929050565b60008083601f84011261179157600080fd5b50813567ffffffffffffffff8111156117a957600080fd5b6020830191508360208260051b85010111156117c457600080fd5b9250929050565b6000806000806000606086880312156117e357600080fd5b6117ec86611722565b9450602086013567ffffffffffffffff8082111561180957600080fd5b61181589838a0161177f565b9096509450604088013591508082111561182e57600080fd5b5061183b8882890161177f565b969995985093965092949392505050565b600181811c9082168061186057607f821691505b60208210810361188057634e487b7160e01b600052602260045260246000fd5b50919050565b634e487b7160e01b600052601160045260246000fd5b8181038181111561054f5761054f611886565b808202811582820484141761054f5761054f611886565b8082018082111561054f5761054f611886565b8281526040810161057460208301846116bc565b634e487b7160e01b600052603260045260246000fd5b600181815b8085111561193e57816000190482111561192457611924611886565b8085161561193157918102915b93841c9390800290611908565b509250929050565b6000826119555750600161054f565b816119625750600061054f565b816001811461197857600281146119825761199e565b600191505061054f565b60ff84111561199357611993611886565b50506001821b61054f565b5060208310610133831016604e8410600b84101617156119c1575081810a61054f565b6119cb8383611903565b80600019048211156119df576119df611886565b029392505050565b600061057460ff841683611946565b600082611a1357634e487b7160e01b600052601260045260246000fd5b500490565b600060018201611a2a57611a2a611886565b506001019056fea26469706673582212208bc9d91a286d1c2093a32fd3da9f4a2a43f2dcfb36a4a500ec5a0f48eddf7bae64736f6c63430008140033",
  "linkReferences": {},
  "deployedLinkReferences": {}
}