{
  "_format": "hh-sol-artifact-1",
  "contractName": "GGC",
  "sourceName": "contracts/GGC.sol",
  "abi": [
    {
      "inputs": [],
      "stateMutability": "nonpayable",
      "type": "constructor"
    },
    {
      "inputs": [
        {
          "internalType": "address",
          "name": "spender",
          "type": "address"
        },
        {
          "internalType": "uint256",
          "name": "allowance",
          "type": "uint256"
        },
        {
          "internalType": "uint256",
          "name": "needed",
          "type": "uint256"
        }
      ],
      "name": "ERC20InsufficientAllowance",
      "type": "error"
    },
    {
      "inputs": [
        {
          "internalType": "address",
          "name": "sender",
          "type": "address"
        },
        {
          "internalType": "uint256",
          "name": "balance",
          "type": "uint256"
        },
        {
          "internalType": "uint256",
          "name": "needed",
          "type": "uint256"
        }
      ],
      "name": "ERC20InsufficientBalance",
      "type": "error"
    },
    {
      "inputs": [
        {
          "internalType": "address",
          "name": "approver",
          "type": "address"
        }
      ],
      "name": "ERC20InvalidApprover",
      "type": "error"
    },
    {
      "inputs": [
        {
          "internalType": "address",
          "name": "receiver",
          "type": "address"
        }
      ],
      "name": "ERC20InvalidReceiver",
      "type": "error"
    },
    {
      "inputs": [
        {
          "internalType": "address",
          "name": "sender",
          "type": "address"
        }
      ],
      "name": "ERC20InvalidSender",
      "type": "error"
    },
    {
      "inputs": [
        {
          "internalType": "address",
          "name": "spender",
          "type": "address"
        }
      ],
      "name": "ERC20InvalidSpender",
      "type": "error"
    },
    {
      "inputs": [
        {
          "internalType": "address",
          "name": "owner",
          "type": "address"
        }
      ],
      "name": "OwnableInvalidOwner",
      "type": "error"
    },
    {
      "inputs": [
        {
          "internalType": "address",
          "name": "account",
          "type": "address"
        }
      ],
      "name": "OwnableUnauthorizedAccount",
      "type": "error"
    },
    {
      "inputs": [],
      "name": "ReentrancyGuardReentrantCall",
      "type": "error"
    },
    {
      "anonymous": false,
      "inputs": [
        {
          "indexed": true,
          "internalType": "address",
          "name": "oldAddress",
          "type": "address"
        },
        {
          "indexed": true,
          "internalType": "address",
          "name": "newAddress",
          "type": "address"
        }
      ],
      "name": "AddressChanged",
      "type": "event"
    },
    {
      "anonymous": false,
      "inputs": [
        {
          "indexed": true,
          "internalType": "enum GGC.Category",
          "name": "category",
          "type": "uint8"
        },
        {
          "indexed": true,
          "internalType": "address",
          "name": "beneficiary",
          "type": "address"
        },
        {
          "indexed": false,
          "internalType": "uint256",
          "name": "totalAmount",
          "type": "uint256"
        },
        {
          "indexed": false,
          "internalType": "uint256",
          "name": "tgeUnlock",
          "type": "uint256"
        },
        {
          "indexed": false,
          "internalType": "uint256",
          "name": "cliffMonths",
          "type": "uint256"
        },
        {
          "indexed": false,
          "internalType": "uint256",
          "name": "vestingMonths",
          "type": "uint256"
        },
        {
          "indexed": false,
          "internalType": "uint256",
          "name": "claimPerSecond",
          "type": "uint256"
        },
        {
          "indexed": false,
          "internalType": "uint256",
          "name": "startTimestamp",
          "type": "uint256"
        }
      ],
      "name": "AllocationSet",
      "type": "event"
    },
    {
      "anonymous": false,
      "inputs": [
        {
          "indexed": true,
          "internalType": "address",
          "name": "owner",
          "type": "address"
        },
        {
          "indexed": true,
          "internalType": "address",
          "name": "spender",
          "type": "address"
        },
        {
          "indexed": false,
          "internalType": "uint256",
          "name": "value",
          "type": "uint256"
        }
      ],
      "name": "Approval",
      "type": "event"
    },
    {
      "anonymous": false,
      "inputs": [
        {
          "indexed": true,
          "internalType": "enum GGC.Category",
          "name": "category",
          "type": "uint8"
        },
        {
          "indexed": false,
          "internalType": "uint256",
          "name": "totalAmount",
          "type": "uint256"
        },
        {
          "indexed": false,
          "internalType": "uint256",
          "name": "tgePercent",
          "type": "uint256"
        },
        {
          "indexed": false,
          "internalType": "uint256",
          "name": "cliffMonths",
          "type": "uint256"
        },
        {
          "indexed": false,
          "internalType": "uint256",
          "name": "vestingMonths",
          "type": "uint256"
        }
      ],
      "name": "CategoryInitialized",
      "type": "event"
    },
    {
      "anonymous": false,
      "inputs": [
        {
          "indexed": true,
          "internalType": "address",
          "name": "to",
          "type": "address"
        },
        {
          "indexed": false,
          "internalType": "uint256",
          "name": "amount",
          "type": "uint256"
        }
      ],
      "name": "EmergencyWithdraw",
      "type": "event"
    },
    {
      "anonymous": false,
      "inputs": [
        {
          "indexed": true,
          "internalType": "address",
          "name": "previousOwner",
          "type": "address"
        },
        {
          "indexed": true,
          "internalType": "address",
          "name": "newOwner",
          "type": "address"
        }
      ],
      "name": "OwnershipTransferred",
      "type": "event"
    },
    {
      "anonymous": false,
      "inputs": [
        {
          "indexed": true,
          "internalType": "address",
          "name": "beneficiary",
          "type": "address"
        },
        {
          "indexed": false,
          "internalType": "uint256",
          "name": "amount",
          "type": "uint256"
        },
        {
          "indexed": false,
          "internalType": "uint256",
          "name": "timestamp",
          "type": "uint256"
        }
      ],
      "name": "TokensClaimed",
      "type": "event"
    },
    {
      "anonymous": false,
      "inputs": [
        {
          "indexed": true,
          "internalType": "address",
          "name": "from",
          "type": "address"
        },
        {
          "indexed": true,
          "internalType": "address",
          "name": "to",
          "type": "address"
        },
        {
          "indexed": false,
          "internalType": "uint256",
          "name": "value",
          "type": "uint256"
        }
      ],
      "name": "Transfer",
      "type": "event"
    },
    {
      "inputs": [],
      "name": "SECONDS_PER_MONTH",
      "outputs": [
        {
          "internalType": "uint256",
          "name": "",
          "type": "uint256"
        }
      ],
      "stateMutability": "view",
      "type": "function"
    },
    {
      "inputs": [
        {
          "internalType": "enum GGC.Category",
          "name": "category",
          "type": "uint8"
        },
        {
          "internalType": "address[]",
          "name": "beneficiaries",
          "type": "address[]"
        },
        {
          "internalType": "uint256[]",
          "name": "amounts",
          "type": "uint256[]"
        }
      ],
      "name": "allocateBatch",
      "outputs": [],
      "stateMutability": "nonpayable",
      "type": "function"
    },
    {
      "inputs": [
        {
          "internalType": "address",
          "name": "",
          "type": "address"
        }
      ],
      "name": "allocations",
      "outputs": [
        {
          "internalType": "uint256",
          "name": "total",
          "type": "uint256"
        },
        {
          "internalType": "uint256",
          "name": "tgeUnlock",
          "type": "uint256"
        },
        {
          "internalType": "uint256",
          "name": "cliffMonths",
          "type": "uint256"
        },
        {
          "internalType": "uint256",
          "name": "vestingMonths",
          "type": "uint256"
        },
        {
          "internalType": "uint256",
          "name": "claimPerSecond",
          "type": "uint256"
        },
        {
          "internalType": "uint256",
          "name": "claimed",
          "type": "uint256"
        },
        {
          "internalType": "uint256",
          "name": "startTimestamp",
          "type": "uint256"
        }
      ],
      "stateMutability": "view",
      "type": "function"
    },
    {
      "inputs": [
        {
          "internalType": "address",
          "name": "owner",
          "type": "address"
        },
        {
          "internalType": "address",
          "name": "spender",
          "type": "address"
        }
      ],
      "name": "allowance",
      "outputs": [
        {
          "internalType": "uint256",
          "name": "",
          "type": "uint256"
        }
      ],
      "stateMutability": "view",
      "type": "function"
    },
    {
      "inputs": [
        {
          "internalType": "address",
          "name": "spender",
          "type": "address"
        },
        {
          "internalType": "uint256",
          "name": "value",
          "type": "uint256"
        }
      ],
      "name": "approve",
      "outputs": [
        {
          "internalType": "bool",
          "name": "",
          "type": "bool"
        }
      ],
      "stateMutability": "nonpayable",
      "type": "function"
    },
    {
      "inputs": [
        {
          "internalType": "address",
          "name": "account",
          "type": "address"
        }
      ],
      "name": "balanceOf",
      "outputs": [
        {
          "internalType": "uint256",
          "name": "",
          "type": "uint256"
        }
      ],
      "stateMutability": "view",
      "type": "function"
    },
    {
      "inputs": [
        {
          "internalType": "uint256",
          "name": "value",
          "type": "uint256"
        }
      ],
      "name": "burn",
      "outputs": [],
      "stateMutability": "nonpayable",
      "type": "function"
    },
    {
      "inputs": [
        {
          "internalType": "address",
          "name": "account",
          "type": "address"
        },
        {
          "internalType": "uint256",
          "name": "value",
          "type": "uint256"
        }
      ],
      "name": "burnFrom",
      "outputs": [],
      "stateMutability": "nonpayable",
      "type": "function"
    },
    {
      "inputs": [
        {
          "internalType": "enum GGC.Category",
          "name": "",
          "type": "uint8"
        }
      ],
      "name": "categories",
      "outputs": [
        {
          "internalType": "uint256",
          "name": "totalAmount",
          "type": "uint256"
        },
        {
          "internalType": "uint256",
          "name": "tgePercent",
          "type": "uint256"
        },
        {
          "internalType": "uint256",
          "name": "cliffMonths",
          "type": "uint256"
        },
        {
          "internalType": "uint256",
          "name": "vestingMonths",
          "type": "uint256"
        },
        {
          "internalType": "uint256",
          "name": "allocated",
          "type": "uint256"
        }
      ],
      "stateMutability": "view",
      "type": "function"
    },
    {
      "inputs": [
        {
          "internalType": "address",
          "name": "oldAddress",
          "type": "address"
        },
        {
          "internalType": "address",
          "name": "newAddress",
          "type": "address"
        }
      ],
      "name": "changeAddress",
      "outputs": [],
      "stateMutability": "nonpayable",
      "type": "function"
    },
    {
      "inputs": [],
      "name": "claim",
      "outputs": [],
      "stateMutability": "nonpayable",
      "type": "function"
    },
    {
      "inputs": [],
      "name": "decimals",
      "outputs": [
        {
          "internalType": "uint8",
          "name": "",
          "type": "uint8"
        }
      ],
      "stateMutability": "view",
      "type": "function"
    },
    {
      "inputs": [],
      "name": "name",
      "outputs": [
        {
          "internalType": "string",
          "name": "",
          "type": "string"
        }
      ],
      "stateMutability": "view",
      "type": "function"
    },
    {
      "inputs": [],
      "name": "owner",
      "outputs": [
        {
          "internalType": "address",
          "name": "",
          "type": "address"
        }
      ],
      "stateMutability": "view",
      "type": "function"
    },
    {
      "inputs": [],
      "name": "renounceOwnership",
      "outputs": [],
      "stateMutability": "nonpayable",
      "type": "function"
    },
    {
      "inputs": [],
      "name": "symbol",
      "outputs": [
        {
          "internalType": "string",
          "name": "",
          "type": "string"
        }
      ],
      "stateMutability": "view",
      "type": "function"
    },
    {
      "inputs": [],
      "name": "totalSupply",
      "outputs": [
        {
          "internalType": "uint256",
          "name": "",
          "type": "uint256"
        }
      ],
      "stateMutability": "view",
      "type": "function"
    },
    {
      "inputs": [
        {
          "internalType": "address",
          "name": "to",
          "type": "address"
        },
        {
          "internalType": "uint256",
          "name": "value",
          "type": "uint256"
        }
      ],
      "name": "transfer",
      "outputs": [
        {
          "internalType": "bool",
          "name": "",
          "type": "bool"
        }
      ],
      "stateMutability": "nonpayable",
      "type": "function"
    },
    {
      "inputs": [
        {
          "internalType": "address",
          "name": "from",
          "type": "address"
        },
        {
          "internalType": "address",
          "name": "to",
          "type": "address"
        },
        {
          "internalType": "uint256",
          "name": "value",
          "type": "uint256"
        }
      ],
      "name": "transferFrom",
      "outputs": [
        {
          "internalType": "bool",
          "name": "",
          "type": "bool"
        }
      ],
      "stateMutability": "nonpayable",
      "type": "function"
    },
    {
      "inputs": [
        {
          "internalType": "address",
          "name": "newOwner",
          "type": "address"
        }
      ],
      "name": "transferOwnership",
      "outputs": [],
      "stateMutability": "nonpayable",
      "type": "function"
    }
  ],
  "bytecode": "0x60806040523480156200001157600080fd5b50336040518060400160405280601281526020017f4772616e642047616e67737461204369747900000000000000000000000000008152506040518060400160405280600381526020017f474743000000000000000000000000000000000000000000000000000000000081525081600390816200009091906200160b565b508060049081620000a291906200160b565b505050600073ffffffffffffffffffffffffffffffffffffffff168173ffffffffffffffffffffffffffffffffffffffff16036200011a5760006040517f1e4fbdf700000000000000000000000000000000000000000000000000000000815260040162000111919062001737565b60405180910390fd5b6200012b816200100560201b60201c565b506001600681905550620001743062000149620010cb60201b60201c565b600a620001579190620018e4565b633b9aca0062000168919062001935565b620010d460201b60201c565b6040518060a001604052806200018f620010cb60201b60201c565b600a6200019d9190620018e4565b6309896800620001ae919062001935565b8152602001600a815260200160038152602001600c815260200160008152506007600080600a811115620001e757620001e662001980565b5b600a811115620001fc57620001fb62001980565b5b815260200190815260200160002060008201518160000155602082015181600101556040820151816002015560608201518160030155608082015181600401559050506000600a81111562000256576200025562001980565b5b7f40350cfcce49fcb51c9bb71941687543f9cec3a0cb63a18a1f42e879c9cd66dc62000287620010cb60201b60201c565b600a620002959190620018e4565b6309896800620002a6919062001935565b600a6003600c604051620002be949392919062001a89565b60405180910390a26040518060a00160405280620002e1620010cb60201b60201c565b600a620002ef9190620018e4565b6302faf08062000300919062001935565b8152602001600f815260200160038152602001600c81526020016000815250600760006001600a8111156200033a576200033962001980565b5b600a8111156200034f576200034e62001980565b5b815260200190815260200160002060008201518160000155602082015181600101556040820151816002015560608201518160030155608082015181600401559050506001600a811115620003a957620003a862001980565b5b7f40350cfcce49fcb51c9bb71941687543f9cec3a0cb63a18a1f42e879c9cd66dc620003da620010cb60201b60201c565b600a620003e89190620018e4565b6302faf080620003f9919062001935565b600f6003600c60405162000411949392919062001b19565b60405180910390a26040518060a0016040528062000434620010cb60201b60201c565b600a620004429190620018e4565b6307bfa48062000453919062001935565b81526020016028815260200160018152602001600481526020016000815250600760006002600a8111156200048d576200048c62001980565b5b600a811115620004a257620004a162001980565b5b815260200190815260200160002060008201518160000155602082015181600101556040820151816002015560608201518160030155608082015181600401559050506002600a811115620004fc57620004fb62001980565b5b7f40350cfcce49fcb51c9bb71941687543f9cec3a0cb63a18a1f42e879c9cd66dc6200052d620010cb60201b60201c565b600a6200053b9190620018e4565b6307bfa4806200054c919062001935565b60286001600460405162000564949392919062001c2f565b60405180910390a26040518060a0016040528062000587620010cb60201b60201c565b600a620005959190620018e4565b6305f5e100620005a6919062001935565b81526020016000815260200160068152602001602481526020016000815250600760006003600a811115620005e057620005df62001980565b5b600a811115620005f557620005f462001980565b5b815260200190815260200160002060008201518160000155602082015181600101556040820151816002015560608201518160030155608082015181600401559050506003600a8111156200064f576200064e62001980565b5b7f40350cfcce49fcb51c9bb71941687543f9cec3a0cb63a18a1f42e879c9cd66dc62000680620010cb60201b60201c565b600a6200068e9190620018e4565b6305f5e1006200069f919062001935565b600060066024604051620006b7949392919062001d45565b60405180910390a26040518060a00160405280620006da620010cb60201b60201c565b600a620006e89190620018e4565b6303938700620006f9919062001935565b81526020016005815260200160048152602001601881526020016000815250600760006004600a81111562000733576200073262001980565b5b600a81111562000748576200074762001980565b5b815260200190815260200160002060008201518160000155602082015181600101556040820151816002015560608201518160030155608082015181600401559050506004600a811115620007a257620007a162001980565b5b7f40350cfcce49fcb51c9bb71941687543f9cec3a0cb63a18a1f42e879c9cd66dc620007d3620010cb60201b60201c565b600a620007e19190620018e4565b6303938700620007f2919062001935565b6005600460186040516200080a949392919062001e18565b60405180910390a26040518060a001604052806200082d620010cb60201b60201c565b600a6200083b9190620018e4565b6305f5e1006200084c919062001935565b81526020016003815260200160038152602001603081526020016000815250600760006005600a81111562000886576200088562001980565b5b600a8111156200089b576200089a62001980565b5b815260200190815260200160002060008201518160000155602082015181600101556040820151816002015560608201518160030155608082015181600401559050506005600a811115620008f557620008f462001980565b5b7f40350cfcce49fcb51c9bb71941687543f9cec3a0cb63a18a1f42e879c9cd66dc62000926620010cb60201b60201c565b600a620009349190620018e4565b6305f5e10062000945919062001935565b60038060306040516200095c949392919062001ea8565b60405180910390a26040518060a001604052806200097f620010cb60201b60201c565b600a6200098d9190620018e4565b6301312d006200099e919062001935565b8152602001600a815260200160008152602001600581526020016000815250600760006006600a811115620009d857620009d762001980565b5b600a811115620009ed57620009ec62001980565b5b815260200190815260200160002060008201518160000155602082015181600101556040820151816002015560608201518160030155608082015181600401559050506006600a81111562000a475762000a4662001980565b5b7f40350cfcce49fcb51c9bb71941687543f9cec3a0cb63a18a1f42e879c9cd66dc62000a78620010cb60201b60201c565b600a62000a869190620018e4565b6301312d0062000a97919062001935565b600a6000600560405162000aaf949392919062001ef5565b60405180910390a26040518060a0016040528062000ad2620010cb60201b60201c565b600a62000ae09190620018e4565b6301c9c38062000af1919062001935565b81526020016000815260200160088152602001604081526020016000815250600760006007600a81111562000b2b5762000b2a62001980565b5b600a81111562000b405762000b3f62001980565b5b815260200190815260200160002060008201518160000155602082015181600101556040820151816002015560608201518160030155608082015181600401559050506007600a81111562000b9a5762000b9962001980565b5b7f40350cfcce49fcb51c9bb71941687543f9cec3a0cb63a18a1f42e879c9cd66dc62000bcb620010cb60201b60201c565b600a62000bd99190620018e4565b6301c9c38062000bea919062001935565b600060086040805162000c01949392919062001fc8565b60405180910390a26040518060a0016040528062000c24620010cb60201b60201c565b600a62000c329190620018e4565b6308f0d18062000c43919062001935565b81526020016064815260200160008152602001600081526020016000815250600760006008600a81111562000c7d5762000c7c62001980565b5b600a81111562000c925762000c9162001980565b5b815260200190815260200160002060008201518160000155602082015181600101556040820151816002015560608201518160030155608082015181600401559050506008600a81111562000cec5762000ceb62001980565b5b7f40350cfcce49fcb51c9bb71941687543f9cec3a0cb63a18a1f42e879c9cd66dc62000d1d620010cb60201b60201c565b600a62000d2b9190620018e4565b6308f0d18062000d3c919062001935565b606460008060405162000d53949392919062002058565b60405180910390a26040518060a0016040528062000d76620010cb60201b60201c565b600a62000d849190620018e4565b6308f0d18062000d95919062001935565b81526020016001815260200160008152602001604881526020016000815250600760006009600a81111562000dcf5762000dce62001980565b5b600a81111562000de45762000de362001980565b5b815260200190815260200160002060008201518160000155602082015181600101556040820151816002015560608201518160030155608082015181600401559050506009600a81111562000e3e5762000e3d62001980565b5b7f40350cfcce49fcb51c9bb71941687543f9cec3a0cb63a18a1f42e879c9cd66dc62000e6f620010cb60201b60201c565b600a62000e7d9190620018e4565b6308f0d18062000e8e919062001935565b60016000604860405162000ea69493929190620020e8565b60405180910390a26040518060a0016040528062000ec9620010cb60201b60201c565b600a62000ed79190620018e4565b6302faf08062000ee8919062001935565b8152602001600081526020016003815260200160248152602001600081525060076000600a8081111562000f215762000f2062001980565b5b600a81111562000f365762000f3562001980565b5b81526020019081526020016000206000820151816000015560208201518160010155604082015181600201556060820151816003015560808201518160040155905050600a8081111562000f8f5762000f8e62001980565b5b7f40350cfcce49fcb51c9bb71941687543f9cec3a0cb63a18a1f42e879c9cd66dc62000fc0620010cb60201b60201c565b600a62000fce9190620018e4565b6302faf08062000fdf919062001935565b60006003602460405162000ff7949392919062002135565b60405180910390a262002217565b6000600560009054906101000a900473ffffffffffffffffffffffffffffffffffffffff16905081600560006101000a81548173ffffffffffffffffffffffffffffffffffffffff021916908373ffffffffffffffffffffffffffffffffffffffff1602179055508173ffffffffffffffffffffffffffffffffffffffff168173ffffffffffffffffffffffffffffffffffffffff167f8be0079c531659141344cd1fd0a4f28419497f9722a3daafe3b4186f6b6457e060405160405180910390a35050565b60006012905090565b600073ffffffffffffffffffffffffffffffffffffffff168273ffffffffffffffffffffffffffffffffffffffff1603620011495760006040517fec442f0500000000000000000000000000000000000000000000000000000000815260040162001140919062001737565b60405180910390fd5b6200115d600083836200116160201b60201c565b5050565b600073ffffffffffffffffffffffffffffffffffffffff168373ffffffffffffffffffffffffffffffffffffffff1603620011b7578060026000828254620011aa919062002182565b925050819055506200128d565b60008060008573ffffffffffffffffffffffffffffffffffffffff1673ffffffffffffffffffffffffffffffffffffffff1681526020019081526020016000205490508181101562001246578381836040517fe450d38c0000000000000000000000000000000000000000000000000000000081526004016200123d93929190620021bd565b60405180910390fd5b8181036000808673ffffffffffffffffffffffffffffffffffffffff1673ffffffffffffffffffffffffffffffffffffffff16815260200190815260200160002081905550505b600073ffffffffffffffffffffffffffffffffffffffff168273ffffffffffffffffffffffffffffffffffffffff1603620012d8578060026000828254039250508190555062001325565b806000808473ffffffffffffffffffffffffffffffffffffffff1673ffffffffffffffffffffffffffffffffffffffff168152602001908152602001600020600082825401925050819055505b8173ffffffffffffffffffffffffffffffffffffffff168373ffffffffffffffffffffffffffffffffffffffff167fddf252ad1be2c89b69c2b068fc378daa952ba7f163c4a11628f55a4df523b3ef83604051620013849190620021fa565b60405180910390a3505050565b600081519050919050565b7f4e487b7100000000000000000000000000000000000000000000000000000000600052604160045260246000fd5b7f4e487b7100000000000000000000000000000000000000000000000000000000600052602260045260246000fd5b600060028204905060018216806200141357607f821691505b602082108103620014295762001428620013cb565b5b50919050565b60008190508160005260206000209050919050565b60006020601f8301049050919050565b600082821b905092915050565b600060088302620014937fffffffffffffffffffffffffffffffffffffffffffffffffffffffffffffffff8262001454565b6200149f868362001454565b95508019841693508086168417925050509392505050565b6000819050919050565b6000819050919050565b6000620014ec620014e6620014e084620014b7565b620014c1565b620014b7565b9050919050565b6000819050919050565b6200150883620014cb565b620015206200151782620014f3565b84845462001461565b825550505050565b600090565b6200153762001528565b62001544818484620014fd565b505050565b5b818110156200156c57620015606000826200152d565b6001810190506200154a565b5050565b601f821115620015bb5762001585816200142f565b620015908462001444565b81016020851015620015a0578190505b620015b8620015af8562001444565b83018262001549565b50505b505050565b600082821c905092915050565b6000620015e060001984600802620015c0565b1980831691505092915050565b6000620015fb8383620015cd565b9150826002028217905092915050565b620016168262001391565b67ffffffffffffffff8111156200163257620016316200139c565b5b6200163e8254620013fa565b6200164b82828562001570565b600060209050601f8311600181146200168357600084156200166e578287015190505b6200167a8582620015ed565b865550620016ea565b601f19841662001693866200142f565b60005b82811015620016bd5784890151825560018201915060208501945060208101905062001696565b86831015620016dd5784890151620016d9601f891682620015cd565b8355505b6001600288020188555050505b505050505050565b600073ffffffffffffffffffffffffffffffffffffffff82169050919050565b60006200171f82620016f2565b9050919050565b620017318162001712565b82525050565b60006020820190506200174e600083018462001726565b92915050565b7f4e487b7100000000000000000000000000000000000000000000000000000000600052601160045260246000fd5b60008160011c9050919050565b6000808291508390505b6001851115620017e257808604811115620017ba57620017b962001754565b5b6001851615620017ca5780820291505b8081029050620017da8562001783565b94506200179a565b94509492505050565b600082620017fd5760019050620018d0565b816200180d5760009050620018d0565b8160018114620018265760028114620018315762001867565b6001915050620018d0565b60ff84111562001846576200184562001754565b5b8360020a91508482111562001860576200185f62001754565b5b50620018d0565b5060208310610133831016604e8410600b8410161715620018a15782820a9050838111156200189b576200189a62001754565b5b620018d0565b620018b0848484600162001790565b92509050818404811115620018ca57620018c962001754565b5b81810290505b9392505050565b600060ff82169050919050565b6000620018f182620014b7565b9150620018fe83620018d7565b92506200192d7fffffffffffffffffffffffffffffffffffffffffffffffffffffffffffffffff8484620017eb565b905092915050565b60006200194282620014b7565b91506200194f83620014b7565b92508282026200195f81620014b7565b9150828204841483151762001979576200197862001754565b5b5092915050565b7f4e487b7100000000000000000000000000000000000000000000000000000000600052602160045260246000fd5b620019ba81620014b7565b82525050565b6000819050919050565b6000620019eb620019e5620019df84620019c0565b620014c1565b620014b7565b9050919050565b620019fd81620019ca565b82525050565b6000819050919050565b600062001a2e62001a2862001a228462001a03565b620014c1565b620014b7565b9050919050565b62001a408162001a0d565b82525050565b6000819050919050565b600062001a7162001a6b62001a658462001a46565b620014c1565b620014b7565b9050919050565b62001a838162001a50565b82525050565b600060808201905062001aa06000830187620019af565b62001aaf6020830186620019f2565b62001abe604083018562001a35565b62001acd606083018462001a78565b95945050505050565b6000819050919050565b600062001b0162001afb62001af58462001ad6565b620014c1565b620014b7565b9050919050565b62001b138162001ae0565b82525050565b600060808201905062001b306000830187620019af565b62001b3f602083018662001b08565b62001b4e604083018562001a35565b62001b5d606083018462001a78565b95945050505050565b6000819050919050565b600062001b9162001b8b62001b858462001b66565b620014c1565b620014b7565b9050919050565b62001ba38162001b70565b82525050565b6000819050919050565b600062001bd462001bce62001bc88462001ba9565b620014c1565b620014b7565b9050919050565b62001be68162001bb3565b82525050565b6000819050919050565b600062001c1762001c1162001c0b8462001bec565b620014c1565b620014b7565b9050919050565b62001c298162001bf6565b82525050565b600060808201905062001c466000830187620019af565b62001c55602083018662001b98565b62001c64604083018562001bdb565b62001c73606083018462001c1e565b95945050505050565b6000819050919050565b600062001ca762001ca162001c9b8462001c7c565b620014c1565b620014b7565b9050919050565b62001cb98162001c86565b82525050565b6000819050919050565b600062001cea62001ce462001cde8462001cbf565b620014c1565b620014b7565b9050919050565b62001cfc8162001cc9565b82525050565b6000819050919050565b600062001d2d62001d2762001d218462001d02565b620014c1565b620014b7565b9050919050565b62001d3f8162001d0c565b82525050565b600060808201905062001d5c6000830187620019af565b62001d6b602083018662001cae565b62001d7a604083018562001cf1565b62001d89606083018462001d34565b95945050505050565b6000819050919050565b600062001dbd62001db762001db18462001d92565b620014c1565b620014b7565b9050919050565b62001dcf8162001d9c565b82525050565b6000819050919050565b600062001e0062001dfa62001df48462001dd5565b620014c1565b620014b7565b9050919050565b62001e128162001ddf565b82525050565b600060808201905062001e2f6000830187620019af565b62001e3e602083018662001dc4565b62001e4d604083018562001c1e565b62001e5c606083018462001e07565b95945050505050565b6000819050919050565b600062001e9062001e8a62001e848462001e65565b620014c1565b620014b7565b9050919050565b62001ea28162001e6f565b82525050565b600060808201905062001ebf6000830187620019af565b62001ece602083018662001a35565b62001edd604083018562001a35565b62001eec606083018462001e97565b95945050505050565b600060808201905062001f0c6000830187620019af565b62001f1b6020830186620019f2565b62001f2a604083018562001cae565b62001f39606083018462001dc4565b95945050505050565b6000819050919050565b600062001f6d62001f6762001f618462001f42565b620014c1565b620014b7565b9050919050565b62001f7f8162001f4c565b82525050565b6000819050919050565b600062001fb062001faa62001fa48462001f85565b620014c1565b620014b7565b9050919050565b62001fc28162001f8f565b82525050565b600060808201905062001fdf6000830187620019af565b62001fee602083018662001cae565b62001ffd604083018562001f74565b6200200c606083018462001fb7565b95945050505050565b6000819050919050565b6000620020406200203a620020348462002015565b620014c1565b620014b7565b9050919050565b62002052816200201f565b82525050565b60006080820190506200206f6000830187620019af565b6200207e602083018662002047565b6200208d604083018562001cae565b6200209c606083018462001cae565b95945050505050565b6000819050919050565b6000620020d0620020ca620020c484620020a5565b620014c1565b620014b7565b9050919050565b620020e281620020af565b82525050565b6000608082019050620020ff6000830187620019af565b6200210e602083018662001bdb565b6200211d604083018562001cae565b6200212c6060830184620020d7565b95945050505050565b60006080820190506200214c6000830187620019af565b6200215b602083018662001cae565b6200216a604083018562001a35565b62002179606083018462001d34565b95945050505050565b60006200218f82620014b7565b91506200219c83620014b7565b9250828201905080821115620021b757620021b662001754565b5b92915050565b6000606082019050620021d4600083018662001726565b620021e36020830185620019af565b620021f26040830184620019af565b949350505050565b6000602082019050620022116000830184620019af565b92915050565b6129e680620022276000396000f3fe608060405234801561001057600080fd5b506004361061012c5760003560e01c8063715018a6116100ad578063a9059cbb11610071578063a9059cbb1461032b578063dd62ed3e1461035b578063eeb32e3d1461038b578063efe08a7d146103a7578063f2fde38b146103c35761012c565b8063715018a61461029557806379cc67901461029f5780637be6277b146102bb5780638da5cb5b146102ef57806395d89b411461030d5761012c565b8063313ce567116100f4578063313ce567146101eb57806342966c68146102095780634e71d92d1461022557806352a9039c1461022f57806370a08231146102655761012c565b806306fdde0314610131578063095ea7b31461014f57806310786deb1461017f57806318160ddd1461019d57806323b872dd146101bb575b600080fd5b6101396103df565b6040516101469190611aea565b60405180910390f35b61016960048036038101906101649190611baa565b610471565b6040516101769190611c05565b60405180910390f35b610187610494565b6040516101949190611c2f565b60405180910390f35b6101a5610499565b6040516101b29190611c2f565b60405180910390f35b6101d560048036038101906101d09190611c4a565b6104a3565b6040516101e29190611c05565b60405180910390f35b6101f36104d2565b6040516102009190611cb9565b60405180910390f35b610223600480360381019061021e9190611cd4565b6104db565b005b61022d6104ef565b005b61024960048036038101906102449190611d01565b610766565b60405161025c9796959493929190611d2e565b60405180910390f35b61027f600480360381019061027a9190611d01565b6107a8565b60405161028c9190611c2f565b60405180910390f35b61029d6107f0565b005b6102b960048036038101906102b49190611baa565b610804565b005b6102d560048036038101906102d09190611dc2565b610824565b6040516102e6959493929190611def565b60405180910390f35b6102f761085a565b6040516103049190611e51565b60405180910390f35b610315610884565b6040516103229190611aea565b60405180910390f35b61034560048036038101906103409190611baa565b610916565b6040516103529190611c05565b60405180910390f35b61037560048036038101906103709190611e6c565b610939565b6040516103829190611c2f565b60405180910390f35b6103a560048036038101906103a09190611f67565b6109c0565b005b6103c160048036038101906103bc9190611e6c565b610e71565b005b6103dd60048036038101906103d89190611d01565b611216565b005b6060600380546103ee9061202b565b80601f016020809104026020016040519081016040528092919081815260200182805461041a9061202b565b80156104675780601f1061043c57610100808354040283529160200191610467565b820191906000526020600020905b81548152906001019060200180831161044a57829003601f168201915b5050505050905090565b60008061047c61129c565b90506104898185856112a4565b600191505092915050565b603c81565b6000600254905090565b6000806104ae61129c565b90506104bb8582856112b6565b6104c685858561134b565b60019150509392505050565b60006012905090565b6104ec6104e661129c565b8261143f565b50565b6104f76114c1565b6000600860003373ffffffffffffffffffffffffffffffffffffffff1673ffffffffffffffffffffffffffffffffffffffff16815260200190815260200160002090506000816000015411610581576040517f08c379a0000000000000000000000000000000000000000000000000000000008152600401610578906120a8565b60405180910390fd5b600042905081600601548110156105cd576040517f08c379a00000000000000000000000000000000000000000000000000000000081526004016105c490612114565b60405180910390fd5b60008260010154905060008184600001546105e89190612163565b9050600080603c86600201546105fe9190612197565b866006015461060d91906121d9565b9050808510610677576000603c87600301546106299190612197565b8261063491906121d9565b905080861061064557839250610675565b600082876106539190612163565b90508760040154816106659190612197565b935084841115610673578493505b505b505b6000828561068591906121d9565b905060008760050154826106999190612163565b9050600081116106de576040517f08c379a00000000000000000000000000000000000000000000000000000000081526004016106d590612259565b60405180910390fd5b808860050160008282546106f291906121d9565b9250508190555061070430338361134b565b3373ffffffffffffffffffffffffffffffffffffffff167f9923b4306c6c030f2bdfbf156517d5983b87e15b96176da122cd4f2effa4ba7b828960405161074c929190612279565b60405180910390a25050505050505050610764611507565b565b60086020528060005260406000206000915090508060000154908060010154908060020154908060030154908060040154908060050154908060060154905087565b60008060008373ffffffffffffffffffffffffffffffffffffffff1673ffffffffffffffffffffffffffffffffffffffff168152602001908152602001600020549050919050565b6107f8611511565b6108026000611598565b565b6108168261081061129c565b836112b6565b610820828261143f565b5050565b60076020528060005260406000206000915090508060000154908060010154908060020154908060030154908060040154905085565b6000600560009054906101000a900473ffffffffffffffffffffffffffffffffffffffff16905090565b6060600480546108939061202b565b80601f01602080910402602001604051908101604052809291908181526020018280546108bf9061202b565b801561090c5780601f106108e15761010080835404028352916020019161090c565b820191906000526020600020905b8154815290600101906020018083116108ef57829003601f168201915b5050505050905090565b60008061092161129c565b905061092e81858561134b565b600191505092915050565b6000600160008473ffffffffffffffffffffffffffffffffffffffff1673ffffffffffffffffffffffffffffffffffffffff16815260200190815260200160002060008373ffffffffffffffffffffffffffffffffffffffff1673ffffffffffffffffffffffffffffffffffffffff16815260200190815260200160002054905092915050565b6109c8611511565b818190508484905014610a10576040517f08c379a0000000000000000000000000000000000000000000000000000000008152600401610a07906122ee565b60405180910390fd5b60006007600087600a811115610a2957610a2861230e565b5b600a811115610a3b57610a3a61230e565b5b8152602001908152602001600020905060005b85859050811015610e68576000868683818110610a6e57610a6d61233d565b5b9050602002016020810190610a839190611d01565b90506000610a8f6104d2565b600a610a9b919061249f565b868685818110610aae57610aad61233d565b5b90506020020135610abf9190612197565b9050600073ffffffffffffffffffffffffffffffffffffffff168273ffffffffffffffffffffffffffffffffffffffff1603610b30576040517f08c379a0000000000000000000000000000000000000000000000000000000008152600401610b2790612536565b60405180910390fd5b8360000154818560040154610b4591906121d9565b1115610b86576040517f08c379a0000000000000000000000000000000000000000000000000000000008152600401610b7d906125a2565b60405180910390fd5b6000600860008473ffffffffffffffffffffffffffffffffffffffff1673ffffffffffffffffffffffffffffffffffffffff1681526020019081526020016000206000015414610c0b576040517f08c379a0000000000000000000000000000000000000000000000000000000008152600401610c0290612634565b60405180910390fd5b80846004016000828254610c1f91906121d9565b9250508190555060006009600a811115610c3c57610c3b61230e565b5b8a600a811115610c4f57610c4e61230e565b5b03610c78576103e8856001015483610c679190612197565b610c719190612683565b9050610c97565b6064856001015483610c8a9190612197565b610c949190612683565b90505b60008560020154905060008660030154905060008385610cb79190612163565b9050600080831115610d27576000603c84610cd29190612197565b905060008111610d17576040517f08c379a0000000000000000000000000000000000000000000000000000000008152600401610d0e90612700565b60405180910390fd5b8083610d239190612683565b9150505b6040518060e001604052808781526020018681526020018581526020018481526020018281526020016000815260200142815250600860008973ffffffffffffffffffffffffffffffffffffffff1673ffffffffffffffffffffffffffffffffffffffff168152602001908152602001600020600082015181600001556020820151816001015560408201518160020155606082015181600301556080820151816004015560a0820151816005015560c082015181600601559050508673ffffffffffffffffffffffffffffffffffffffff168e600a811115610e0d57610e0c61230e565b5b7f951a64fd3e10bdb0c1fe79c048549dbdbb2a891ee03ed559d71fb935d35d95f8888888888742604051610e4696959493929190612720565b60405180910390a3505050505050508080610e6090612781565b915050610a4e565b50505050505050565b610e79611511565b600073ffffffffffffffffffffffffffffffffffffffff168273ffffffffffffffffffffffffffffffffffffffff1603610ee8576040517f08c379a0000000000000000000000000000000000000000000000000000000008152600401610edf90612815565b60405180910390fd5b600073ffffffffffffffffffffffffffffffffffffffff168173ffffffffffffffffffffffffffffffffffffffff1603610f57576040517f08c379a0000000000000000000000000000000000000000000000000000000008152600401610f4e90612881565b60405180910390fd5b6000600860008473ffffffffffffffffffffffffffffffffffffffff1673ffffffffffffffffffffffffffffffffffffffff16815260200190815260200160002090506000816000015411610fe1576040517f08c379a0000000000000000000000000000000000000000000000000000000008152600401610fd8906128ed565b60405180910390fd5b6000600860008473ffffffffffffffffffffffffffffffffffffffff1673ffffffffffffffffffffffffffffffffffffffff1681526020019081526020016000206000015414611066576040517f08c379a000000000000000000000000000000000000000000000000000000000815260040161105d90612959565b60405180910390fd5b6040518060e001604052808260000154815260200182600101548152602001826002015481526020018260030154815260200182600401548152602001826005015481526020018260060154815250600860008473ffffffffffffffffffffffffffffffffffffffff1673ffffffffffffffffffffffffffffffffffffffff168152602001908152602001600020600082015181600001556020820151816001015560408201518160020155606082015181600301556080820151816004015560a0820151816005015560c08201518160060155905050600860008473ffffffffffffffffffffffffffffffffffffffff1673ffffffffffffffffffffffffffffffffffffffff16815260200190815260200160002060008082016000905560018201600090556002820160009055600382016000905560048201600090556005820160009055600682016000905550508173ffffffffffffffffffffffffffffffffffffffff168373ffffffffffffffffffffffffffffffffffffffff167f1552bf14c580c20e53a4227e9b76734da8e21905a818fdc5fa05dcb2891bb89e60405160405180910390a3505050565b61121e611511565b600073ffffffffffffffffffffffffffffffffffffffff168173ffffffffffffffffffffffffffffffffffffffff16036112905760006040517f1e4fbdf70000000000000000000000000000000000000000000000000000000081526004016112879190611e51565b60405180910390fd5b61129981611598565b50565b600033905090565b6112b1838383600161165e565b505050565b60006112c28484610939565b90507fffffffffffffffffffffffffffffffffffffffffffffffffffffffffffffffff8110156113455781811015611335578281836040517ffb8f41b200000000000000000000000000000000000000000000000000000000815260040161132c93929190612979565b60405180910390fd5b6113448484848403600061165e565b5b50505050565b600073ffffffffffffffffffffffffffffffffffffffff168373ffffffffffffffffffffffffffffffffffffffff16036113bd5760006040517f96c6fd1e0000000000000000000000000000000000000000000000000000000081526004016113b49190611e51565b60405180910390fd5b600073ffffffffffffffffffffffffffffffffffffffff168273ffffffffffffffffffffffffffffffffffffffff160361142f5760006040517fec442f050000000000000000000000000000000000000000000000000000000081526004016114269190611e51565b60405180910390fd5b61143a838383611835565b505050565b600073ffffffffffffffffffffffffffffffffffffffff168273ffffffffffffffffffffffffffffffffffffffff16036114b15760006040517f96c6fd1e0000000000000000000000000000000000000000000000000000000081526004016114a89190611e51565b60405180910390fd5b6114bd82600083611835565b5050565b6002600654036114fd576040517f3ee5aeb500000000000000000000000000000000000000000000000000000000815260040160405180910390fd5b6002600681905550565b6001600681905550565b61151961129c565b73ffffffffffffffffffffffffffffffffffffffff1661153761085a565b73ffffffffffffffffffffffffffffffffffffffff16146115965761155a61129c565b6040517f118cdaa700000000000000000000000000000000000000000000000000000000815260040161158d9190611e51565b60405180910390fd5b565b6000600560009054906101000a900473ffffffffffffffffffffffffffffffffffffffff16905081600560006101000a81548173ffffffffffffffffffffffffffffffffffffffff021916908373ffffffffffffffffffffffffffffffffffffffff1602179055508173ffffffffffffffffffffffffffffffffffffffff168173ffffffffffffffffffffffffffffffffffffffff167f8be0079c531659141344cd1fd0a4f28419497f9722a3daafe3b4186f6b6457e060405160405180910390a35050565b600073ffffffffffffffffffffffffffffffffffffffff168473ffffffffffffffffffffffffffffffffffffffff16036116d05760006040517fe602df050000000000000000000000000000000000000000000000000000000081526004016116c79190611e51565b60405180910390fd5b600073ffffffffffffffffffffffffffffffffffffffff168373ffffffffffffffffffffffffffffffffffffffff16036117425760006040517f94280d620000000000000000000000000000000000000000000000000000000081526004016117399190611e51565b60405180910390fd5b81600160008673ffffffffffffffffffffffffffffffffffffffff1673ffffffffffffffffffffffffffffffffffffffff16815260200190815260200160002060008573ffffffffffffffffffffffffffffffffffffffff1673ffffffffffffffffffffffffffffffffffffffff16815260200190815260200160002081905550801561182f578273ffffffffffffffffffffffffffffffffffffffff168473ffffffffffffffffffffffffffffffffffffffff167f8c5be1e5ebec7d5bd14f71427d1e84f3dd0314c0f7b2291e5b200ac8c7c3b925846040516118269190611c2f565b60405180910390a35b50505050565b600073ffffffffffffffffffffffffffffffffffffffff168373ffffffffffffffffffffffffffffffffffffffff160361188757806002600082825461187b91906121d9565b9250508190555061195a565b60008060008573ffffffffffffffffffffffffffffffffffffffff1673ffffffffffffffffffffffffffffffffffffffff16815260200190815260200160002054905081811015611913578381836040517fe450d38c00000000000000000000000000000000000000000000000000000000815260040161190a93929190612979565b60405180910390fd5b8181036000808673ffffffffffffffffffffffffffffffffffffffff1673ffffffffffffffffffffffffffffffffffffffff16815260200190815260200160002081905550505b600073ffffffffffffffffffffffffffffffffffffffff168273ffffffffffffffffffffffffffffffffffffffff16036119a357806002600082825403925050819055506119f0565b806000808473ffffffffffffffffffffffffffffffffffffffff1673ffffffffffffffffffffffffffffffffffffffff168152602001908152602001600020600082825401925050819055505b8173ffffffffffffffffffffffffffffffffffffffff168373ffffffffffffffffffffffffffffffffffffffff167fddf252ad1be2c89b69c2b068fc378daa952ba7f163c4a11628f55a4df523b3ef83604051611a4d9190611c2f565b60405180910390a3505050565b600081519050919050565b600082825260208201905092915050565b60005b83811015611a94578082015181840152602081019050611a79565b60008484015250505050565b6000601f19601f8301169050919050565b6000611abc82611a5a565b611ac68185611a65565b9350611ad6818560208601611a76565b611adf81611aa0565b840191505092915050565b60006020820190508181036000830152611b048184611ab1565b905092915050565b600080fd5b600080fd5b600073ffffffffffffffffffffffffffffffffffffffff82169050919050565b6000611b4182611b16565b9050919050565b611b5181611b36565b8114611b5c57600080fd5b50565b600081359050611b6e81611b48565b92915050565b6000819050919050565b611b8781611b74565b8114611b9257600080fd5b50565b600081359050611ba481611b7e565b92915050565b60008060408385031215611bc157611bc0611b0c565b5b6000611bcf85828601611b5f565b9250506020611be085828601611b95565b9150509250929050565b60008115159050919050565b611bff81611bea565b82525050565b6000602082019050611c1a6000830184611bf6565b92915050565b611c2981611b74565b82525050565b6000602082019050611c446000830184611c20565b92915050565b600080600060608486031215611c6357611c62611b0c565b5b6000611c7186828701611b5f565b9350506020611c8286828701611b5f565b9250506040611c9386828701611b95565b9150509250925092565b600060ff82169050919050565b611cb381611c9d565b82525050565b6000602082019050611cce6000830184611caa565b92915050565b600060208284031215611cea57611ce9611b0c565b5b6000611cf884828501611b95565b91505092915050565b600060208284031215611d1757611d16611b0c565b5b6000611d2584828501611b5f565b91505092915050565b600060e082019050611d43600083018a611c20565b611d506020830189611c20565b611d5d6040830188611c20565b611d6a6060830187611c20565b611d776080830186611c20565b611d8460a0830185611c20565b611d9160c0830184611c20565b98975050505050505050565b600b8110611daa57600080fd5b50565b600081359050611dbc81611d9d565b92915050565b600060208284031215611dd857611dd7611b0c565b5b6000611de684828501611dad565b91505092915050565b600060a082019050611e046000830188611c20565b611e116020830187611c20565b611e1e6040830186611c20565b611e2b6060830185611c20565b611e386080830184611c20565b9695505050505050565b611e4b81611b36565b82525050565b6000602082019050611e666000830184611e42565b92915050565b60008060408385031215611e8357611e82611b0c565b5b6000611e9185828601611b5f565b9250506020611ea285828601611b5f565b9150509250929050565b600080fd5b600080fd5b600080fd5b60008083601f840112611ed157611ed0611eac565b5b8235905067ffffffffffffffff811115611eee57611eed611eb1565b5b602083019150836020820283011115611f0a57611f09611eb6565b5b9250929050565b60008083601f840112611f2757611f26611eac565b5b8235905067ffffffffffffffff811115611f4457611f43611eb1565b5b602083019150836020820283011115611f6057611f5f611eb6565b5b9250929050565b600080600080600060608688031215611f8357611f82611b0c565b5b6000611f9188828901611dad565b955050602086013567ffffffffffffffff811115611fb257611fb1611b11565b5b611fbe88828901611ebb565b9450945050604086013567ffffffffffffffff811115611fe157611fe0611b11565b5b611fed88828901611f11565b92509250509295509295909350565b7f4e487b7100000000000000000000000000000000000000000000000000000000600052602260045260246000fd5b6000600282049050600182168061204357607f821691505b60208210810361205657612055611ffc565b5b50919050565b7f4747433a206e6f20616c6c6f636174696f6e0000000000000000000000000000600082015250565b6000612092601283611a65565b915061209d8261205c565b602082019050919050565b600060208201905081810360008301526120c181612085565b9050919050565b7f4747433a2076657374696e67206e6f7420737461727465640000000000000000600082015250565b60006120fe601883611a65565b9150612109826120c8565b602082019050919050565b6000602082019050818103600083015261212d816120f1565b9050919050565b7f4e487b7100000000000000000000000000000000000000000000000000000000600052601160045260246000fd5b600061216e82611b74565b915061217983611b74565b925082820390508181111561219157612190612134565b5b92915050565b60006121a282611b74565b91506121ad83611b74565b92508282026121bb81611b74565b915082820484148315176121d2576121d1612134565b5b5092915050565b60006121e482611b74565b91506121ef83611b74565b925082820190508082111561220757612206612134565b5b92915050565b7f4747433a206e6f7468696e6720746f20636c61696d0000000000000000000000600082015250565b6000612243601583611a65565b915061224e8261220d565b602082019050919050565b6000602082019050818103600083015261227281612236565b9050919050565b600060408201905061228e6000830185611c20565b61229b6020830184611c20565b9392505050565b7f4747433a206172726179206c656e677468206d69736d61746368000000000000600082015250565b60006122d8601a83611a65565b91506122e3826122a2565b602082019050919050565b60006020820190508181036000830152612307816122cb565b9050919050565b7f4e487b7100000000000000000000000000000000000000000000000000000000600052602160045260246000fd5b7f4e487b7100000000000000000000000000000000000000000000000000000000600052603260045260246000fd5b60008160011c9050919050565b6000808291508390505b60018511156123c35780860481111561239f5761239e612134565b5b60018516156123ae5780820291505b80810290506123bc8561236c565b9450612383565b94509492505050565b6000826123dc5760019050612498565b816123ea5760009050612498565b8160018114612400576002811461240a57612439565b6001915050612498565b60ff84111561241c5761241b612134565b5b8360020a91508482111561243357612432612134565b5b50612498565b5060208310610133831016604e8410600b841016171561246e5782820a90508381111561246957612468612134565b5b612498565b61247b8484846001612379565b9250905081840481111561249257612491612134565b5b81810290505b9392505050565b60006124aa82611b74565b91506124b583611c9d565b92506124e27fffffffffffffffffffffffffffffffffffffffffffffffffffffffffffffffff84846123cc565b905092915050565b7f4747433a207a65726f2062656e65666963696172790000000000000000000000600082015250565b6000612520601583611a65565b915061252b826124ea565b602082019050919050565b6000602082019050818103600083015261254f81612513565b9050919050565b7f4747433a20657863656564732063617465676f727920706f6f6c000000000000600082015250565b600061258c601a83611a65565b915061259782612556565b602082019050919050565b600060208201905081810360008301526125bb8161257f565b9050919050565b7f4747433a2062656e656669636961727920616c72656164792068617320616c6c60008201527f6f636174696f6e00000000000000000000000000000000000000000000000000602082015250565b600061261e602783611a65565b9150612629826125c2565b604082019050919050565b6000602082019050818103600083015261264d81612611565b9050919050565b7f4e487b7100000000000000000000000000000000000000000000000000000000600052601260045260246000fd5b600061268e82611b74565b915061269983611b74565b9250826126a9576126a8612654565b5b828204905092915050565b7f4747433a20696e76616c69642076657374696e67206475726174696f6e000000600082015250565b60006126ea601d83611a65565b91506126f5826126b4565b602082019050919050565b60006020820190508181036000830152612719816126dd565b9050919050565b600060c0820190506127356000830189611c20565b6127426020830188611c20565b61274f6040830187611c20565b61275c6060830186611c20565b6127696080830185611c20565b61277660a0830184611c20565b979650505050505050565b600061278c82611b74565b91507fffffffffffffffffffffffffffffffffffffffffffffffffffffffffffffffff82036127be576127bd612134565b5b600182019050919050565b7f4747433a206f6c64207a65726f00000000000000000000000000000000000000600082015250565b60006127ff600d83611a65565b915061280a826127c9565b602082019050919050565b6000602082019050818103600083015261282e816127f2565b9050919050565b7f4747433a206e6577207a65726f00000000000000000000000000000000000000600082015250565b600061286b600d83611a65565b915061287682612835565b602082019050919050565b6000602082019050818103600083015261289a8161285e565b9050919050565b7f4747433a206e6f20616c6c6f636174696f6e206f6c6400000000000000000000600082015250565b60006128d7601683611a65565b91506128e2826128a1565b602082019050919050565b60006020820190508181036000830152612906816128ca565b9050919050565b7f4747433a20616c6c6f636174696f6e20657869737473206e6577000000000000600082015250565b6000612943601a83611a65565b915061294e8261290d565b602082019050919050565b6000602082019050818103600083015261297281612936565b9050919050565b600060608201905061298e6000830186611e42565b61299b6020830185611c20565b6129a86040830184611c20565b94935050505056fea26469706673582212204bf10852c2bcc3e2771c59b104c545507ef82027a4a10557e70b4f6ec664350964736f6c63430008140033",
  "linkReferences": {},
  "deployedLinkReferences": {}
}