{"contracts/GGC.sol":{"GGC":{"abi":[{"inputs":[],"stateMutability":"nonpayable","type":"constructor"},{"inputs":[{"internalType":"address","name":"spender","type":"address"},{"internalType":"uint256","name":"allowance","type":"uint256"},{"internalType":"uint256","name":"needed","type":"uint256"}],"name":"ERC20InsufficientAllowance","type":"error"},{"inputs":[{"internalType":"address","name":"sender","type":"address"},{"internalType":"uint256","name":"balance","type":"uint256"},{"internalType":"uint256","name":"needed","type":"uint256"}],"name":"ERC20InsufficientBalance","type":"error"},{"inputs":[{"internalType":"address","name":"approver","type":"address"}],"name":"ERC20InvalidApprover","type":"error"},{"inputs":[{"internalType":"address","name":"receiver","type":"address"}],"name":"ERC20InvalidReceiver","type":"error"},{"inputs":[{"internalType":"address","name":"sender","type":"address"}],"name":"ERC20InvalidSender","type":"error"},{"inputs":[{"internalType":"address","name":"spender","type":"address"}],"name":"ERC20InvalidSpender","type":"error"},{"inputs":[{"internalType":"address","name":"owner","type":"address"}],"name":"OwnableInvalidOwner","type":"error"},{"inputs":[{"internalType":"address","name":"account","type":"address"}],"name":"OwnableUnauthorizedAccount","type":"error"},{"anonymous":false,"inputs":[{"indexed":true,"internalType":"address","name":"oldAddress","type":"address"},{"indexed":true,"internalType":"address","name":"newAddress","type":"address"}],"name":"AddressChanged","type":"event"},{"anonymous":false,"inputs":[{"indexed":true,"internalType":"enum GGC.Category","name":"category","type":"uint8"},{"indexed":true,"internalType":"address","name":"beneficiary","type":"address"},{"indexed":false,"internalType":"uint256","name":"totalAmount","type":"uint256"},{"indexed":false,"internalType":"uint256","name":"tgeUnlock","type":"uint256"},{"indexed":false,"internalType":"uint256","name":"cliffMonths","type":"uint256"},{"indexed":false,"internalType":"uint256","name":"vestingMonths","type":"uint256"},{"indexed":false,"internalType":"uint256","name":"claimPerSecond","type":"uint256"},{"indexed":false,"internalType":"uint256","name":"startTimestamp","type":"uint256"}],"name":"AllocationSet","type":"event"},{"anonymous":false,"inputs":[{"indexed":true,"internalType":"address","name":"owner","type":"address"},{"indexed":true,"internalType":"address","name":"spender","type":"address"},{"indexed":false,"internalType":"uint256","name":"value","type":"uint256"}],"name":"Approval","type":"event"},{"anonymous":false,"inputs":[{"indexed":true,"internalType":"enum GGC.Category","name":"category","type":"uint8"},{"indexed":false,"internalType":"uint256","name":"totalAmount","type":"uint256"},{"indexed":false,"internalType":"uint16","name":"tgeBps","type":"uint16"},{"indexed":false,"internalType":"uint256","name":"cliffMonths","type":"uint256"},{"indexed":false,"internalType":"uint256","name":"vestingMonths","type":"uint256"}],"name":"CategoryInitialized","type":"event"},{"anonymous":false,"inputs":[{"indexed":true,"internalType":"address","name":"previousOwner","type":"address"},{"indexed":true,"internalType":"address","name":"newOwner","type":"address"}],"name":"OwnershipTransferStarted","type":"event"},{"anonymous":false,"inputs":[{"indexed":true,"internalType":"address","name":"previousOwner","type":"address"},{"indexed":true,"internalType":"address","name":"newOwner","type":"address"}],"name":"OwnershipTransferred","type":"event"},{"anonymous":false,"inputs":[{"indexed":true,"internalType":"address","name":"beneficiary","type":"address"},{"indexed":false,"internalType":"uint256","name":"amount","type":"uint256"},{"indexed":false,"internalType":"uint256","name":"timestamp","type":"uint256"}],"name":"TokensClaimed","type":"event"},{"anonymous":false,"inputs":[{"indexed":true,"internalType":"address","name":"from","type":"address"},{"indexed":true,"internalType":"address","name":"to","type":"address"},{"indexed":false,"internalType":"uint256","name":"value","type":"uint256"}],"name":"Transfer","type":"event"},{"inputs":[],"name":"BPS_DENOMINATOR","outputs":[{"internalType":"uint16","name":"","type":"uint16"}],"stateMutability":"view","type":"function"},{"inputs":[],"name":"SECONDS_PER_MONTH","outputs":[{"internalType":"uint256","name":"","type":"uint256"}],"stateMutability":"view","type":"function"},{"inputs":[],"name":"acceptOwnership","outputs":[],"stateMutability":"nonpayable","type":"function"},{"inputs":[{"internalType":"address","name":"","type":"address"}],"name":"addressChangeApproved","outputs":[{"internalType":"bool","name":"","type":"bool"}],"stateMutability":"view","type":"function"},{"inputs":[{"internalType":"enum GGC.Category","name":"category","type":"uint8"},{"internalType":"address[]","name":"beneficiaries","type":"address[]"},{"internalType":"uint256[]","name":"amounts","type":"uint256[]"}],"name":"allocateBatch","outputs":[],"stateMutability":"nonpayable","type":"function"},{"inputs":[{"internalType":"address","name":"","type":"address"}],"name":"allocations","outputs":[{"internalType":"uint256","name":"total","type":"uint256"},{"internalType":"uint256","name":"tgeUnlock","type":"uint256"},{"internalType":"uint256","name":"cliffMonths","type":"uint256"},{"internalType":"uint256","name":"vestingMonths","type":"uint256"},{"internalType":"uint256","name":"claimPerSecond","type":"uint256"},{"internalType":"uint256","name":"claimed","type":"uint256"},{"internalType":"uint256","name":"startTimestamp","type":"uint256"}],"stateMutability":"view","type":"function"},{"inputs":[{"internalType":"address","name":"owner","type":"address"},{"internalType":"address","name":"spender","type":"address"}],"name":"allowance","outputs":[{"internalType":"uint256","name":"","type":"uint256"}],"stateMutability":"view","type":"function"},{"inputs":[{"internalType":"address","name":"spender","type":"address"},{"internalType":"uint256","name":"value","type":"uint256"}],"name":"approve","outputs":[{"internalType":"bool","name":"","type":"bool"}],"stateMutability":"nonpayable","type":"function"},{"inputs":[],"name":"approveAddressChange","outputs":[],"stateMutability":"nonpayable","type":"function"},{"inputs":[{"internalType":"address","name":"account","type":"address"}],"name":"balanceOf","outputs":[{"internalType":"uint256","name":"","type":"uint256"}],"stateMutability":"view","type":"function"},{"inputs":[{"internalType":"uint256","name":"value","type":"uint256"}],"name":"burn","outputs":[],"stateMutability":"nonpayable","type":"function"},{"inputs":[{"internalType":"address","name":"account","type":"address"},{"internalType":"uint256","name":"value","type":"uint256"}],"name":"burnFrom","outputs":[],"stateMutability":"nonpayable","type":"function"},{"inputs":[{"internalType":"enum GGC.Category","name":"","type":"uint8"}],"name":"categories","outputs":[{"internalType":"uint256","name":"totalAmount","type":"uint256"},{"internalType":"uint16","name":"tgeBps","type":"uint16"},{"internalType":"uint256","name":"cliffMonths","type":"uint256"},{"internalType":"uint256","name":"vestingMonths","type":"uint256"},{"internalType":"uint256","name":"allocated","type":"uint256"}],"stateMutability":"view","type":"function"},{"inputs":[{"internalType":"address","name":"oldAddr","type":"address"},{"internalType":"address","name":"newAddr","type":"address"}],"name":"changeAddress","outputs":[],"stateMutability":"nonpayable","type":"function"},{"inputs":[],"name":"claim","outputs":[],"stateMutability":"nonpayable","type":"function"},{"inputs":[],"name":"decimals","outputs":[{"internalType":"uint8","name":"","type":"uint8"}],"stateMutability":"view","type":"function"},{"inputs":[],"name":"name","outputs":[{"internalType":"string","name":"","type":"string"}],"stateMutability":"view","type":"function"},{"inputs":[],"name":"owner","outputs":[{"internalType":"address","name":"","type":"address"}],"stateMutability":"view","type":"function"},{"inputs":[],"name":"pendingOwner","outputs":[{"internalType":"address","name":"","type":"address"}],"stateMutability":"view","type":"function"},{"inputs":[],"name":"renounceOwnership","outputs":[],"stateMutability":"nonpayable","type":"function"},{"inputs":[],"name":"revokeAddressChangeApproval","outputs":[],"stateMutability":"nonpayable","type":"function"},{"inputs":[],"name":"symbol","outputs":[{"internalType":"string","name":"","type":"string"}],"stateMutability":"view","type":"function"},{"inputs":[],"name":"totalSupply","outputs":[{"internalType":"uint256","name":"","type":"uint256"}],"stateMutability":"view","type":"function"},{"inputs":[{"internalType":"address","name":"to","type":"address"},{"internalType":"uint256","name":"value","type":"uint256"}],"name":"transfer","outputs":[{"internalType":"bool","name":"","type":"bool"}],"stateMutability":"nonpayable","type":"function"},{"inputs":[{"internalType":"address","name":"from","type":"address"},{"internalType":"address","name":"to","type":"address"},{"internalType":"uint256","name":"value","type":"uint256"}],"name":"transferFrom","outputs":[{"internalType":"bool","name":"","type":"bool"}],"stateMutability":"nonpayable","type":"function"},{"inputs":[{"internalType":"address","name":"newOwner","type":"address"}],"name":"transferOwnership","outputs":[],"stateMutability":"nonpayable","type":"function"}],"evm":{"bytecode":{"linkReferences":{},"object":"60806040523480156200001157600080fd5b5033604051806040016040528060128152602001714772616e642047616e67737461204369747960701b8152506040518060400160405280600381526020016247474360e81b81525081600390816200006b91906200059e565b5060046200007a82826200059e565b5050506001600160a01b038116620000ad57604051631e4fbdf760e01b8152600060048201526024015b60405180910390fd5b620000b881620001e9565b50620000e230620000cc6012600a6200077f565b620000dc90633b9aca0062000797565b62000207565b620000fa600063098968006103e86003600c62000245565b6200011260016302faf0806105dc6003600c62000245565b6200012960026307bfa48061271060008062000245565b6200014060036305f5e10060006006602462000245565b62000157600463039387006101f482601862000245565b6200016f60056305f5e10061012c6003603062000245565b6200018760066301312d006103e86000600562000245565b6200019e60076301c9c38060006008604062000245565b620001b560086308f0d18061271060008062000245565b620001cc60096308f0d180600a6000604862000245565b620001e3600a6302faf08060006003602462000245565b620007dd565b600680546001600160a01b0319169055620002048162000374565b50565b6001600160a01b038216620002335760405163ec442f0560e01b815260006004820152602401620000a4565b6200024160008383620003c6565b5050565b6000620002556012600a6200077f565b62000261908662000797565b90506040518060a001604052808281526020018561ffff16815260200184815260200183815260200160008152506007600088600a811115620002a857620002a8620007b1565b600a811115620002bc57620002bc620007b1565b81526020808201929092526040908101600020835181559183015160018301805461ffff191661ffff90921691909117905582015160028201556060820151600382015560809091015160049091015585600a811115620003215762000321620007b1565b6040805183815261ffff87166020820152908101859052606081018490527f09f20332fb28d16bab33aad07b39e6ae6b2a696ee7dfba356a9e71ce59372f089060800160405180910390a2505050505050565b600580546001600160a01b038381166001600160a01b0319831681179093556040519116919082907f8be0079c531659141344cd1fd0a4f28419497f9722a3daafe3b4186f6b6457e090600090a35050565b6001600160a01b038316620003f5578060026000828254620003e99190620007c7565b90915550620004699050565b6001600160a01b038316600090815260208190526040902054818110156200044a5760405163391434e360e21b81526001600160a01b03851660048201526024810182905260448101839052606401620000a4565b6001600160a01b03841660009081526020819052604090209082900390555b6001600160a01b0382166200048757600280548290039055620004a6565b6001600160a01b03821660009081526020819052604090208054820190555b816001600160a01b0316836001600160a01b03167fddf252ad1be2c89b69c2b068fc378daa952ba7f163c4a11628f55a4df523b3ef83604051620004ec91815260200190565b60405180910390a3505050565b634e487b7160e01b600052604160045260246000fd5b600181811c908216806200052457607f821691505b6020821081036200054557634e487b7160e01b600052602260045260246000fd5b50919050565b601f8211156200059957600081815260208120601f850160051c81016020861015620005745750805b601f850160051c820191505b81811015620005955782815560010162000580565b5050505b505050565b81516001600160401b03811115620005ba57620005ba620004f9565b620005d281620005cb84546200050f565b846200054b565b602080601f8311600181146200060a5760008415620005f15750858301515b600019600386901b1c1916600185901b17855562000595565b600085815260208120601f198616915b828110156200063b578886015182559484019460019091019084016200061a565b50858210156200065a5787850151600019600388901b60f8161c191681555b5050505050600190811b01905550565b634e487b7160e01b600052601160045260246000fd5b600181815b80851115620006c1578160001904821115620006a557620006a56200066a565b80851615620006b357918102915b93841c939080029062000685565b509250929050565b600082620006da5750600162000779565b81620006e95750600062000779565b81600181146200070257600281146200070d576200072d565b600191505062000779565b60ff8411156200072157620007216200066a565b50506001821b62000779565b5060208310610133831016604e8410600b841016171562000752575081810a62000779565b6200075e838362000680565b80600019048211156200077557620007756200066a565b0290505b92915050565b60006200079060ff841683620006c9565b9392505050565b80820281158282048414176200077957620007796200066a565b634e487b7160e01b600052602160045260246000fd5b808201808211156200077957620007796200066a565b6117c880620007ed6000396000f3fe608060405234801561001057600080fd5b506004361061018e5760003560e01c806379ba5097116100de578063dd62ed3e11610097578063e821c39a11610071578063e821c39a1461043d578063eeb32e3d14610459578063efe08a7d1461046c578063f2fde38b1461047f57600080fd5b8063dd62ed3e146103d7578063e1a4521814610410578063e30c39781461042c57600080fd5b806379ba50971461030f57806379cc6790146103175780637be6277b1461032a5780638da5cb5b1461039757806395d89b41146103bc578063a9059cbb146103c457600080fd5b806342966c681161014b57806364f342ee1161012557806364f342ee146102b357806370a08231146102bb578063710315d6146102e4578063715018a61461030757600080fd5b806342966c68146102165780634e71d92d1461022b57806352a9039c1461023357600080fd5b806306fdde0314610193578063095ea7b3146101b157806310786deb146101d457806318160ddd146101ec57806323b872dd146101f4578063313ce56714610207575b600080fd5b61019b610492565b6040516101a89190611376565b60405180910390f35b6101c46101bf3660046113e0565b610524565b60405190151581526020016101a8565b6101de62278d0081565b6040519081526020016101a8565b6002546101de565b6101c461020236600461140a565b61053e565b604051601281526020016101a8565b610229610224366004611446565b610562565b005b61022961056f565b61027e61024136600461145f565b6008602052600090815260409020805460018201546002830154600384015460048501546005860154600690960154949593949293919290919087565b604080519788526020880196909652948601939093526060850191909152608084015260a083015260c082015260e0016101a8565b610229610786565b6101de6102c936600461145f565b6001600160a01b031660009081526020819052604090205490565b6101c46102f236600461145f565b60096020526000908152604090205460ff1681565b6102296107ee565b610229610802565b6102296103253660046113e0565b610843565b61036c610338366004611490565b60076020526000908152604090208054600182015460028301546003840154600490940154929361ffff9092169290919085565b6040805195865261ffff9094166020860152928401919091526060830152608082015260a0016101a8565b6005546001600160a01b03165b6040516001600160a01b0390911681526020016101a8565b61019b61085c565b6101c46103d23660046113e0565b61086b565b6101de6103e53660046114ab565b6001600160a01b03918216600090815260016020908152604080832093909416825291909152205490565b61041961271081565b60405161ffff90911681526020016101a8565b6006546001600160a01b03166103a4565b610229336000908152600960205260409020805460ff19169055565b61022961046736600461152a565b610879565b61022961047a3660046114ab565b610c2b565b61022961048d36600461145f565b610f48565b6060600380546104a1906115ab565b80601f01602080910402602001604051908101604052809291908181526020018280546104cd906115ab565b801561051a5780601f106104ef5761010080835404028352916020019161051a565b820191906000526020600020905b8154815290600101906020018083116104fd57829003601f168201915b5050505050905090565b600033610532818585610fb9565b60019150505b92915050565b60003361054c858285610fcb565b61055785858561104a565b506001949350505050565b61056c33826110a9565b50565b33600090815260086020526040902080546105c65760405162461bcd60e51b815260206004820152601260248201527123a3a19d1037379030b63637b1b0ba34b7b760711b60448201526064015b60405180910390fd5b6006810154429081101561060f5760405162461bcd60e51b815260206004820152601060248201526f11d1d0ce881b9bdd081cdd185c9d195960821b60448201526064016105bd565b600182015482546000906106249083906115fb565b9050600062278d00856002015461063b919061160e565b856006015461064a9190611625565b90508084106106b457600062278d008660030154610668919061160e565b6106729083611625565b905080851061068c576106858385611625565b93506106b2565b600486015461069b83876115fb565b6106a5919061160e565b6106af9085611625565b93505b505b84548311156106c257845492505b60008560050154846106d491906115fb565b90506000811161071e5760405162461bcd60e51b81526020600482015260156024820152744747433a206e6f7468696e6720746f20636c61696d60581b60448201526064016105bd565b808660050160008282546107329190611625565b90915550610743905030338361104a565b604080518281526020810187905233917f9923b4306c6c030f2bdfbf156517d5983b87e15b96176da122cd4f2effa4ba7b910160405180910390a2505050505050565b336000908152600860205260409020546107d25760405162461bcd60e51b815260206004820152600d60248201526c4747433a206e6f20616c6c6f6360981b60448201526064016105bd565b336000908152600960205260409020805460ff19166001179055565b6107f66110df565b610800600061110c565b565b60065433906001600160a01b0316811461083a5760405163118cdaa760e01b81526001600160a01b03821660048201526024016105bd565b61056c8161110c565b61084e823383610fcb565b61085882826110a9565b5050565b6060600480546104a1906115ab565b60003361053281858561104a565b6108816110df565b8281146108c75760405162461bcd60e51b815260206004820152601460248201527308e8e867440d8cadccee8d040dad2e6dac2e8c6d60631b60448201526064016105bd565b60006007600087600a8111156108df576108df611638565b600a8111156108f0576108f0611638565b8152602001908152602001600020905060005b84811015610c2257600086868381811061091f5761091f61164e565b9050602002016020810190610934919061145f565b90506001600160a01b0381166109805760405162461bcd60e51b81526020600482015260116024820152704747433a207a65726f206164647265737360781b60448201526064016105bd565b600061098e6012600a611748565b8686858181106109a0576109a061164e565b905060200201356109b1919061160e565b905083600001548185600401546109c89190611625565b1115610a0c5760405162461bcd60e51b815260206004820152601360248201527211d1d0ce881c1bdbdb08195e1a185d5cdd1959606a1b60448201526064016105bd565b6001600160a01b03821660009081526008602052604090205415610a6b5760405162461bcd60e51b81526020600482015260166024820152754747433a20616c72656164792068617320616c6c6f6360501b60448201526064016105bd565b80846004016000828254610a7f9190611625565b9091555050600184015460009061271090610a9e9061ffff168461160e565b610aa89190611757565b90506000610ab682846115fb565b905060008087600301541115610ae65762278d008760030154610ad9919061160e565b610ae39083611757565b90505b6040518060e001604052808581526020018481526020018860020154815260200188600301548152602001828152602001600081526020014281525060086000876001600160a01b03166001600160a01b03168152602001908152602001600020600082015181600001556020820151816001015560408201518160020155606082015181600301556080820151816004015560a0820151816005015560c08201518160060155905050846001600160a01b03168c600a811115610bac57610bac611638565b600289015460038a01546040805189815260208101899052908101929092526060820152608081018490524260a08201527f951a64fd3e10bdb0c1fe79c048549dbdbb2a891ee03ed559d71fb935d35d95f89060c00160405180910390a350505050508080610c1a90611779565b915050610903565b50505050505050565b610c336110df565b6001600160a01b03821615801590610c5357506001600160a01b03811615155b610c905760405162461bcd60e51b815260206004820152600e60248201526d23a3a19d103d32b9379030b2323960911b60448201526064016105bd565b6001600160a01b03821660009081526008602052604090208054610cea5760405162461bcd60e51b815260206004820152601160248201527011d1d0ce881b9bc8185b1b1bd8c81bdb19607a1b60448201526064016105bd565b6001600160a01b03821660009081526008602052604090205415610d485760405162461bcd60e51b81526020600482015260156024820152744747433a20616c6c6f6320657869737473206e657760581b60448201526064016105bd565b6001600160a01b03831660009081526009602052604090205460ff16610da85760405162461bcd60e51b815260206004820152601560248201527411d1d0ce881b9bc81d5cd95c88185c1c1c9bdd985b605a1b60448201526064016105bd565b6040518060e00160405280826000015481526020018260010154815260200182600201548152602001826003015481526020018260040154815260200182600501548152602001826006015481525060086000846001600160a01b03166001600160a01b03168152602001908152602001600020600082015181600001556020820151816001015560408201518160020155606082015181600301556080820151816004015560a0820151816005015560c0820151816006015590505060086000846001600160a01b03166001600160a01b031681526020019081526020016000206000808201600090556001820160009055600282016000905560038201600090556004820160009055600582016000905560068201600090555050600060096000856001600160a01b03166001600160a01b0316815260200190815260200160002060006101000a81548160ff021916908315150217905550816001600160a01b0316836001600160a01b03167f1552bf14c580c20e53a4227e9b76734da8e21905a818fdc5fa05dcb2891bb89e60405160405180910390a3505050565b610f506110df565b600680546001600160a01b0383166001600160a01b03199091168117909155610f816005546001600160a01b031690565b6001600160a01b03167f38d16b8cac22d99fc7c124b9cd0de2d3fa1faef420bfe791d8c362d765e2270060405160405180910390a350565b610fc68383836001611125565b505050565b6001600160a01b03838116600090815260016020908152604080832093861683529290522054600019811015611044578181101561103557604051637dc7a0d960e11b81526001600160a01b038416600482015260248101829052604481018390526064016105bd565b61104484848484036000611125565b50505050565b6001600160a01b03831661107457604051634b637e8f60e11b8152600060048201526024016105bd565b6001600160a01b03821661109e5760405163ec442f0560e01b8152600060048201526024016105bd565b610fc68383836111fa565b6001600160a01b0382166110d357604051634b637e8f60e11b8152600060048201526024016105bd565b610858826000836111fa565b6005546001600160a01b031633146108005760405163118cdaa760e01b81523360048201526024016105bd565b600680546001600160a01b031916905561056c81611324565b6001600160a01b03841661114f5760405163e602df0560e01b8152600060048201526024016105bd565b6001600160a01b03831661117957604051634a1406b160e11b8152600060048201526024016105bd565b6001600160a01b038085166000908152600160209081526040808320938716835292905220829055801561104457826001600160a01b0316846001600160a01b03167f8c5be1e5ebec7d5bd14f71427d1e84f3dd0314c0f7b2291e5b200ac8c7c3b925846040516111ec91815260200190565b60405180910390a350505050565b6001600160a01b03831661122557806002600082825461121a9190611625565b909155506112979050565b6001600160a01b038316600090815260208190526040902054818110156112785760405163391434e360e21b81526001600160a01b038516600482015260248101829052604481018390526064016105bd565b6001600160a01b03841660009081526020819052604090209082900390555b6001600160a01b0382166112b3576002805482900390556112d2565b6001600160a01b03821660009081526020819052604090208054820190555b816001600160a01b0316836001600160a01b03167fddf252ad1be2c89b69c2b068fc378daa952ba7f163c4a11628f55a4df523b3ef8360405161131791815260200190565b60405180910390a3505050565b600580546001600160a01b038381166001600160a01b0319831681179093556040519116919082907f8be0079c531659141344cd1fd0a4f28419497f9722a3daafe3b4186f6b6457e090600090a35050565b600060208083528351808285015260005b818110156113a357858101830151858201604001528201611387565b506000604082860101526040601f19601f8301168501019250505092915050565b80356001600160a01b03811681146113db57600080fd5b919050565b600080604083850312156113f357600080fd5b6113fc836113c4565b946020939093013593505050565b60008060006060848603121561141f57600080fd5b611428846113c4565b9250611436602085016113c4565b9150604084013590509250925092565b60006020828403121561145857600080fd5b5035919050565b60006020828403121561147157600080fd5b61147a826113c4565b9392505050565b8035600b81106113db57600080fd5b6000602082840312156114a257600080fd5b61147a82611481565b600080604083850312156114be57600080fd5b6114c7836113c4565b91506114d5602084016113c4565b90509250929050565b60008083601f8401126114f057600080fd5b50813567ffffffffffffffff81111561150857600080fd5b6020830191508360208260051b850101111561152357600080fd5b9250929050565b60008060008060006060868803121561154257600080fd5b61154b86611481565b9450602086013567ffffffffffffffff8082111561156857600080fd5b61157489838a016114de565b9096509450604088013591508082111561158d57600080fd5b5061159a888289016114de565b969995985093965092949392505050565b600181811c908216806115bf57607f821691505b6020821081036115df57634e487b7160e01b600052602260045260246000fd5b50919050565b634e487b7160e01b600052601160045260246000fd5b81810381811115610538576105386115e5565b8082028115828204841417610538576105386115e5565b80820180821115610538576105386115e5565b634e487b7160e01b600052602160045260246000fd5b634e487b7160e01b600052603260045260246000fd5b600181815b8085111561169f578160001904821115611685576116856115e5565b8085161561169257918102915b93841c9390800290611669565b509250929050565b6000826116b657506001610538565b816116c357506000610538565b81600181146116d957600281146116e3576116ff565b6001915050610538565b60ff8411156116f4576116f46115e5565b50506001821b610538565b5060208310610133831016604e8410600b8410161715611722575081810a610538565b61172c8383611664565b8060001904821115611740576117406115e5565b029392505050565b600061147a60ff8416836116a7565b60008261177457634e487b7160e01b600052601260045260246000fd5b500490565b60006001820161178b5761178b6115e5565b506001019056fea2646970667358221220be3304402e2f6915ba1363b316d173f96e4db1b417ae323defecde807557d6c364736f6c63430008140033","opcodes":"PUSH1 0x80 PUSH1 0x40 MSTORE CALLVALUE DUP1 ISZERO PUSH3 0x11 JUMPI PUSH1 0x0 DUP1 REVERT JUMPDEST POP CALLER PUSH1 0x40 MLOAD DUP1 PUSH1 0x40 ADD PUSH1 0x40 MSTORE DUP1 PUSH1 0x12 DUP2 MSTORE PUSH1 0x20 ADD PUSH18 0x4772616E642047616E677374612043697479 PUSH1 0x70 SHL DUP2 MSTORE POP PUSH1 0x40 MLOAD DUP1 PUSH1 0x40 ADD PUSH1 0x40 MSTORE DUP1 PUSH1 0x3 DUP2 MSTORE PUSH1 0x20 ADD PUSH3 0x474743 PUSH1 0xE8 SHL DUP2 MSTORE POP DUP2 PUSH1 0x3 SWAP1 DUP2 PUSH3 0x6B SWAP2 SWAP1 PUSH3 0x59E JUMP JUMPDEST POP PUSH1 0x4 PUSH3 0x7A DUP3 DUP3 PUSH3 0x59E JUMP JUMPDEST POP POP POP PUSH1 0x1 PUSH1 0x1 PUSH1 0xA0 SHL SUB DUP2 AND PUSH3 0xAD JUMPI PUSH1 0x40 MLOAD PUSH4 0x1E4FBDF7 PUSH1 0xE0 SHL DUP2 MSTORE PUSH1 0x0 PUSH1 0x4 DUP3 ADD MSTORE PUSH1 0x24 ADD JUMPDEST PUSH1 0x40 MLOAD DUP1 SWAP2 SUB SWAP1 REVERT JUMPDEST PUSH3 0xB8 DUP2 PUSH3 0x1E9 JUMP JUMPDEST POP PUSH3 0xE2 ADDRESS PUSH3 0xCC PUSH1 0x12 PUSH1 0xA PUSH3 0x77F JUMP JUMPDEST PUSH3 0xDC SWAP1 PUSH4 0x3B9ACA00 PUSH3 0x797 JUMP JUMPDEST PUSH3 0x207 JUMP JUMPDEST PUSH3 0xFA PUSH1 0x0 PUSH4 0x9896800 PUSH2 0x3E8 PUSH1 0x3 PUSH1 0xC PUSH3 0x245 JUMP JUMPDEST PUSH3 0x112 PUSH1 0x1 PUSH4 0x2FAF080 PUSH2 0x5DC PUSH1 0x3 PUSH1 0xC PUSH3 0x245 JUMP JUMPDEST PUSH3 0x129 PUSH1 0x2 PUSH4 0x7BFA480 PUSH2 0x2710 PUSH1 0x0 DUP1 PUSH3 0x245 JUMP JUMPDEST PUSH3 0x140 PUSH1 0x3 PUSH4 0x5F5E100 PUSH1 0x0 PUSH1 0x6 PUSH1 0x24 PUSH3 0x245 JUMP JUMPDEST PUSH3 0x157 PUSH1 0x4 PUSH4 0x3938700 PUSH2 0x1F4 DUP3 PUSH1 0x18 PUSH3 0x245 JUMP JUMPDEST PUSH3 0x16F PUSH1 0x5 PUSH4 0x5F5E100 PUSH2 0x12C PUSH1 0x3 PUSH1 0x30 PUSH3 0x245 JUMP JUMPDEST PUSH3 0x187 PUSH1 0x6 PUSH4 0x1312D00 PUSH2 0x3E8 PUSH1 0x0 PUSH1 0x5 PUSH3 0x245 JUMP JUMPDEST PUSH3 0x19E PUSH1 0x7 PUSH4 0x1C9C380 PUSH1 0x0 PUSH1 0x8 PUSH1 0x40 PUSH3 0x245 JUMP JUMPDEST PUSH3 0x1B5 PUSH1 0x8 PUSH4 0x8F0D180 PUSH2 0x2710 PUSH1 0x0 DUP1 PUSH3 0x245 JUMP JUMPDEST PUSH3 0x1CC PUSH1 0x9 PUSH4 0x8F0D180 PUSH1 0xA PUSH1 0x0 PUSH1 0x48 PUSH3 0x245 JUMP JUMPDEST PUSH3 0x1E3 PUSH1 0xA PUSH4 0x2FAF080 PUSH1 0x0 PUSH1 0x3 PUSH1 0x24 PUSH3 0x245 JUMP JUMPDEST PUSH3 0x7DD JUMP JUMPDEST PUSH1 0x6 DUP1 SLOAD PUSH1 0x1 PUSH1 0x1 PUSH1 0xA0 SHL SUB NOT AND SWAP1 SSTORE PUSH3 0x204 DUP2 PUSH3 0x374 JUMP JUMPDEST POP JUMP JUMPDEST PUSH1 0x1 PUSH1 0x1 PUSH1 0xA0 SHL SUB DUP3 AND PUSH3 0x233 JUMPI PUSH1 0x40 MLOAD PUSH4 0xEC442F05 PUSH1 0xE0 SHL DUP2 MSTORE PUSH1 0x0 PUSH1 0x4 DUP3 ADD MSTORE PUSH1 0x24 ADD PUSH3 0xA4 JUMP JUMPDEST PUSH3 0x241 PUSH1 0x0 DUP4 DUP4 PUSH3 0x3C6 JUMP JUMPDEST POP POP JUMP JUMPDEST PUSH1 0x0 PUSH3 0x255 PUSH1 0x12 PUSH1 0xA PUSH3 0x77F JUMP JUMPDEST PUSH3 0x261 SWAP1 DUP7 PUSH3 0x797 JUMP JUMPDEST SWAP1 POP PUSH1 0x40 MLOAD DUP1 PUSH1 0xA0 ADD PUSH1 0x40 MSTORE DUP1 DUP3 DUP2 MSTORE PUSH1 0x20 ADD DUP6 PUSH2 0xFFFF AND DUP2 MSTORE PUSH1 0x20 ADD DUP5 DUP2 MSTORE PUSH1 0x20 ADD DUP4 DUP2 MSTORE PUSH1 0x20 ADD PUSH1 0x0 DUP2 MSTORE POP PUSH1 0x7 PUSH1 0x0 DUP9 PUSH1 0xA DUP2 GT ISZERO PUSH3 0x2A8 JUMPI PUSH3 0x2A8 PUSH3 0x7B1 JUMP JUMPDEST PUSH1 0xA DUP2 GT ISZERO PUSH3 0x2BC JUMPI PUSH3 0x2BC PUSH3 0x7B1 JUMP JUMPDEST DUP2 MSTORE PUSH1 0x20 DUP1 DUP3 ADD SWAP3 SWAP1 SWAP3 MSTORE PUSH1 0x40 SWAP1 DUP2 ADD PUSH1 0x0 KECCAK256 DUP4 MLOAD DUP2 SSTORE SWAP2 DUP4 ADD MLOAD PUSH1 0x1 DUP4 ADD DUP1 SLOAD PUSH2 0xFFFF NOT AND PUSH2 0xFFFF SWAP1 SWAP3 AND SWAP2 SWAP1 SWAP2 OR SWAP1 SSTORE DUP3 ADD MLOAD PUSH1 0x2 DUP3 ADD SSTORE PUSH1 0x60 DUP3 ADD MLOAD PUSH1 0x3 DUP3 ADD SSTORE PUSH1 0x80 SWAP1 SWAP2 ADD MLOAD PUSH1 0x4 SWAP1 SWAP2 ADD SSTORE DUP6 PUSH1 0xA DUP2 GT ISZERO PUSH3 0x321 JUMPI PUSH3 0x321 PUSH3 0x7B1 JUMP JUMPDEST PUSH1 0x40 DUP1 MLOAD DUP4 DUP2 MSTORE PUSH2 0xFFFF DUP8 AND PUSH1 0x20 DUP3 ADD MSTORE SWAP1 DUP2 ADD DUP6 SWAP1 MSTORE PUSH1 0x60 DUP2 ADD DUP5 SWAP1 MSTORE PUSH32 0x9F20332FB28D16BAB33AAD07B39E6AE6B2A696EE7DFBA356A9E71CE59372F08 SWAP1 PUSH1 0x80 ADD PUSH1 0x40 MLOAD DUP1 SWAP2 SUB SWAP1 LOG2 POP POP POP POP POP POP JUMP JUMPDEST PUSH1 0x5 DUP1 SLOAD PUSH1 0x1 PUSH1 0x1 PUSH1 0xA0 SHL SUB DUP4 DUP2 AND PUSH1 0x1 PUSH1 0x1 PUSH1 0xA0 SHL SUB NOT DUP4 AND DUP2 OR SWAP1 SWAP4 SSTORE PUSH1 0x40 MLOAD SWAP2 AND SWAP2 SWAP1 DUP3 SWAP1 PUSH32 0x8BE0079C531659141344CD1FD0A4F28419497F9722A3DAAFE3B4186F6B6457E0 SWAP1 PUSH1 0x0 SWAP1 LOG3 POP POP JUMP JUMPDEST PUSH1 0x1 PUSH1 0x1 PUSH1 0xA0 SHL SUB DUP4 AND PUSH3 0x3F5 JUMPI DUP1 PUSH1 0x2 PUSH1 0x0 DUP3 DUP3 SLOAD PUSH3 0x3E9 SWAP2 SWAP1 PUSH3 0x7C7 JUMP JUMPDEST SWAP1 SWAP2 SSTORE POP PUSH3 0x469 SWAP1 POP JUMP JUMPDEST PUSH1 0x1 PUSH1 0x1 PUSH1 0xA0 SHL SUB DUP4 AND PUSH1 0x0 SWAP1 DUP2 MSTORE PUSH1 0x20 DUP2 SWAP1 MSTORE PUSH1 0x40 SWAP1 KECCAK256 SLOAD DUP2 DUP2 LT ISZERO PUSH3 0x44A JUMPI PUSH1 0x40 MLOAD PUSH4 0x391434E3 PUSH1 0xE2 SHL DUP2 MSTORE PUSH1 0x1 PUSH1 0x1 PUSH1 0xA0 SHL SUB DUP6 AND PUSH1 0x4 DUP3 ADD MSTORE PUSH1 0x24 DUP2 ADD DUP3 SWAP1 MSTORE PUSH1 0x44 DUP2 ADD DUP4 SWAP1 MSTORE PUSH1 0x64 ADD PUSH3 0xA4 JUMP JUMPDEST PUSH1 0x1 PUSH1 0x1 PUSH1 0xA0 SHL SUB DUP5 AND PUSH1 0x0 SWAP1 DUP2 MSTORE PUSH1 0x20 DUP2 SWAP1 MSTORE PUSH1 0x40 SWAP1 KECCAK256 SWAP1 DUP3 SWAP1 SUB SWAP1 SSTORE JUMPDEST PUSH1 0x1 PUSH1 0x1 PUSH1 0xA0 SHL SUB DUP3 AND PUSH3 0x487 JUMPI PUSH1 0x2 DUP1 SLOAD DUP3 SWAP1 SUB SWAP1 SSTORE PUSH3 0x4A6 JUMP JUMPDEST PUSH1 0x1 PUSH1 0x1 PUSH1 0xA0 SHL SUB DUP3 AND PUSH1 0x0 SWAP1 DUP2 MSTORE PUSH1 0x20 DUP2 SWAP1 MSTORE PUSH1 0x40 SWAP1 KECCAK256 DUP1 SLOAD DUP3 ADD SWAP1 SSTORE JUMPDEST DUP2 PUSH1 0x1 PUSH1 0x1 PUSH1 0xA0 SHL SUB AND DUP4 PUSH1 0x1 PUSH1 0x1 PUSH1 0xA0 SHL SUB AND PUSH32 0xDDF252AD1BE2C89B69C2B068FC378DAA952BA7F163C4A11628F55A4DF523B3EF DUP4 PUSH1 0x40 MLOAD PUSH3 0x4EC SWAP2 DUP2 MSTORE PUSH1 0x20 ADD SWAP1 JUMP JUMPDEST PUSH1 0x40 MLOAD DUP1 SWAP2 SUB SWAP1 LOG3 POP POP POP JUMP JUMPDEST PUSH4 0x4E487B71 PUSH1 0xE0 SHL PUSH1 0x0 MSTORE PUSH1 0x41 PUSH1 0x4 MSTORE PUSH1 0x24 PUSH1 0x0 REVERT JUMPDEST PUSH1 0x1 DUP2 DUP2 SHR SWAP1 DUP3 AND DUP1 PUSH3 0x524 JUMPI PUSH1 0x7F DUP3 AND SWAP2 POP JUMPDEST PUSH1 0x20 DUP3 LT DUP2 SUB PUSH3 0x545 JUMPI PUSH4 0x4E487B71 PUSH1 0xE0 SHL PUSH1 0x0 MSTORE PUSH1 0x22 PUSH1 0x4 MSTORE PUSH1 0x24 PUSH1 0x0 REVERT JUMPDEST POP SWAP2 SWAP1 POP JUMP JUMPDEST PUSH1 0x1F DUP3 GT ISZERO PUSH3 0x599 JUMPI PUSH1 0x0 DUP2 DUP2 MSTORE PUSH1 0x20 DUP2 KECCAK256 PUSH1 0x1F DUP6 ADD PUSH1 0x5 SHR DUP2 ADD PUSH1 0x20 DUP7 LT ISZERO PUSH3 0x574 JUMPI POP DUP1 JUMPDEST PUSH1 0x1F DUP6 ADD PUSH1 0x5 SHR DUP3 ADD SWAP2 POP JUMPDEST DUP2 DUP2 LT ISZERO PUSH3 0x595 JUMPI DUP3 DUP2 SSTORE PUSH1 0x1 ADD PUSH3 0x580 JUMP JUMPDEST POP POP POP JUMPDEST POP POP POP JUMP JUMPDEST DUP2 MLOAD PUSH1 0x1 PUSH1 0x1 PUSH1 0x40 SHL SUB DUP2 GT ISZERO PUSH3 0x5BA JUMPI PUSH3 0x5BA PUSH3 0x4F9 JUMP JUMPDEST PUSH3 0x5D2 DUP2 PUSH3 0x5CB DUP5 SLOAD PUSH3 0x50F JUMP JUMPDEST DUP5 PUSH3 0x54B JUMP JUMPDEST PUSH1 0x20 DUP1 PUSH1 0x1F DUP4 GT PUSH1 0x1 DUP2 EQ PUSH3 0x60A JUMPI PUSH1 0x0 DUP5 ISZERO PUSH3 0x5F1 JUMPI POP DUP6 DUP4 ADD MLOAD JUMPDEST PUSH1 0x0 NOT PUSH1 0x3 DUP7 SWAP1 SHL SHR NOT AND PUSH1 0x1 DUP6 SWAP1 SHL OR DUP6 SSTORE PUSH3 0x595 JUMP JUMPDEST PUSH1 0x0 DUP6 DUP2 MSTORE PUSH1 0x20 DUP2 KECCAK256 PUSH1 0x1F NOT DUP7 AND SWAP2 JUMPDEST DUP3 DUP2 LT ISZERO PUSH3 0x63B JUMPI DUP9 DUP7 ADD MLOAD DUP3 SSTORE SWAP5 DUP5 ADD SWAP5 PUSH1 0x1 SWAP1 SWAP2 ADD SWAP1 DUP5 ADD PUSH3 0x61A JUMP JUMPDEST POP DUP6 DUP3 LT ISZERO PUSH3 0x65A JUMPI DUP8 DUP6 ADD MLOAD PUSH1 0x0 NOT PUSH1 0x3 DUP9 SWAP1 SHL PUSH1 0xF8 AND SHR NOT AND DUP2 SSTORE JUMPDEST POP POP POP POP POP PUSH1 0x1 SWAP1 DUP2 SHL ADD SWAP1 SSTORE POP JUMP JUMPDEST PUSH4 0x4E487B71 PUSH1 0xE0 SHL PUSH1 0x0 MSTORE PUSH1 0x11 PUSH1 0x4 MSTORE PUSH1 0x24 PUSH1 0x0 REVERT JUMPDEST PUSH1 0x1 DUP2 DUP2 JUMPDEST DUP1 DUP6 GT ISZERO PUSH3 0x6C1 JUMPI DUP2 PUSH1 0x0 NOT DIV DUP3 GT ISZERO PUSH3 0x6A5 JUMPI PUSH3 0x6A5 PUSH3 0x66A JUMP JUMPDEST DUP1 DUP6 AND ISZERO PUSH3 0x6B3 JUMPI SWAP2 DUP2 MUL SWAP2 JUMPDEST SWAP4 DUP5 SHR SWAP4 SWAP1 DUP1 MUL SWAP1 PUSH3 0x685 JUMP JUMPDEST POP SWAP3 POP SWAP3 SWAP1 POP JUMP JUMPDEST PUSH1 0x0 DUP3 PUSH3 0x6DA JUMPI POP PUSH1 0x1 PUSH3 0x779 JUMP JUMPDEST DUP2 PUSH3 0x6E9 JUMPI POP PUSH1 0x0 PUSH3 0x779 JUMP JUMPDEST DUP2 PUSH1 0x1 DUP2 EQ PUSH3 0x702 JUMPI PUSH1 0x2 DUP2 EQ PUSH3 0x70D JUMPI PUSH3 0x72D JUMP JUMPDEST PUSH1 0x1 SWAP2 POP POP PUSH3 0x779 JUMP JUMPDEST PUSH1 0xFF DUP5 GT ISZERO PUSH3 0x721 JUMPI PUSH3 0x721 PUSH3 0x66A JUMP JUMPDEST POP POP PUSH1 0x1 DUP3 SHL PUSH3 0x779 JUMP JUMPDEST POP PUSH1 0x20 DUP4 LT PUSH2 0x133 DUP4 LT AND PUSH1 0x4E DUP5 LT PUSH1 0xB DUP5 LT AND OR ISZERO PUSH3 0x752 JUMPI POP DUP2 DUP2 EXP PUSH3 0x779 JUMP JUMPDEST PUSH3 0x75E DUP4 DUP4 PUSH3 0x680 JUMP JUMPDEST DUP1 PUSH1 0x0 NOT DIV DUP3 GT ISZERO PUSH3 0x775 JUMPI PUSH3 0x775 PUSH3 0x66A JUMP JUMPDEST MUL SWAP1 POP JUMPDEST SWAP3 SWAP2 POP POP JUMP JUMPDEST PUSH1 0x0 PUSH3 0x790 PUSH1 0xFF DUP5 AND DUP4 PUSH3 0x6C9 JUMP JUMPDEST SWAP4 SWAP3 POP POP POP JUMP JUMPDEST DUP1 DUP3 MUL DUP2 ISZERO DUP3 DUP3 DIV DUP5 EQ OR PUSH3 0x779 JUMPI PUSH3 0x779 PUSH3 0x66A JUMP JUMPDEST PUSH4 0x4E487B71 PUSH1 0xE0 SHL PUSH1 0x0 MSTORE PUSH1 0x21 PUSH1 0x4 MSTORE PUSH1 0x24 PUSH1 0x0 REVERT JUMPDEST DUP1 DUP3 ADD DUP1 DUP3 GT ISZERO PUSH3 0x779 JUMPI PUSH3 0x779 PUSH3 0x66A JUMP JUMPDEST PUSH2 0x17C8 DUP1 PUSH3 0x7ED PUSH1 0x0 CODECOPY PUSH1 0x0 RETURN INVALID PUSH1 0x80 PUSH1 0x40 MSTORE CALLVALUE DUP1 ISZERO PUSH2 0x10 JUMPI PUSH1 0x0 DUP1 REVERT JUMPDEST POP PUSH1 0x4 CALLDATASIZE LT PUSH2 0x18E JUMPI PUSH1 0x0 CALLDATALOAD PUSH1 0xE0 SHR DUP1 PUSH4 0x79BA5097 GT PUSH2 0xDE JUMPI DUP1 PUSH4 0xDD62ED3E GT PUSH2 0x97 JUMPI DUP1 PUSH4 0xE821C39A GT PUSH2 0x71 JUMPI DUP1 PUSH4 0xE821C39A EQ PUSH2 0x43D JUMPI DUP1 PUSH4 0xEEB32E3D EQ PUSH2 0x459 JUMPI DUP1 PUSH4 0xEFE08A7D EQ PUSH2 0x46C JUMPI DUP1 PUSH4 0xF2FDE38B EQ PUSH2 0x47F JUMPI PUSH1 0x0 DUP1 REVERT JUMPDEST DUP1 PUSH4 0xDD62ED3E EQ PUSH2 0x3D7 JUMPI DUP1 PUSH4 0xE1A45218 EQ PUSH2 0x410 JUMPI DUP1 PUSH4 0xE30C3978 EQ PUSH2 0x42C JUMPI PUSH1 0x0 DUP1 REVERT JUMPDEST DUP1 PUSH4 0x79BA5097 EQ PUSH2 0x30F JUMPI DUP1 PUSH4 0x79CC6790 EQ PUSH2 0x317 JUMPI DUP1 PUSH4 0x7BE6277B EQ PUSH2 0x32A JUMPI DUP1 PUSH4 0x8DA5CB5B EQ PUSH2 0x397 JUMPI DUP1 PUSH4 0x95D89B41 EQ PUSH2 0x3BC JUMPI DUP1 PUSH4 0xA9059CBB EQ PUSH2 0x3C4 JUMPI PUSH1 0x0 DUP1 REVERT JUMPDEST DUP1 PUSH4 0x42966C68 GT PUSH2 0x14B JUMPI DUP1 PUSH4 0x64F342EE GT PUSH2 0x125 JUMPI DUP1 PUSH4 0x64F342EE EQ PUSH2 0x2B3 JUMPI DUP1 PUSH4 0x70A08231 EQ PUSH2 0x2BB JUMPI DUP1 PUSH4 0x710315D6 EQ PUSH2 0x2E4 JUMPI DUP1 PUSH4 0x715018A6 EQ PUSH2 0x307 JUMPI PUSH1 0x0 DUP1 REVERT JUMPDEST DUP1 PUSH4 0x42966C68 EQ PUSH2 0x216 JUMPI DUP1 PUSH4 0x4E71D92D EQ PUSH2 0x22B JUMPI DUP1 PUSH4 0x52A9039C EQ PUSH2 0x233 JUMPI PUSH1 0x0 DUP1 REVERT JUMPDEST DUP1 PUSH4 0x6FDDE03 EQ PUSH2 0x193 JUMPI DUP1 PUSH4 0x95EA7B3 EQ PUSH2 0x1B1 JUMPI DUP1 PUSH4 0x10786DEB EQ PUSH2 0x1D4 JUMPI DUP1 PUSH4 0x18160DDD EQ PUSH2 0x1EC JUMPI DUP1 PUSH4 0x23B872DD EQ PUSH2 0x1F4 JUMPI DUP1 PUSH4 0x313CE567 EQ PUSH2 0x207 JUMPI JUMPDEST PUSH1 0x0 DUP1 REVERT JUMPDEST PUSH2 0x19B PUSH2 0x492 JUMP JUMPDEST PUSH1 0x40 MLOAD PUSH2 0x1A8 SWAP2 SWAP1 PUSH2 0x1376 JUMP JUMPDEST PUSH1 0x40 MLOAD DUP1 SWAP2 SUB SWAP1 RETURN JUMPDEST PUSH2 0x1C4 PUSH2 0x1BF CALLDATASIZE PUSH1 0x4 PUSH2 0x13E0 JUMP JUMPDEST PUSH2 0x524 JUMP JUMPDEST PUSH1 0x40 MLOAD SWAP1 ISZERO ISZERO DUP2 MSTORE PUSH1 0x20 ADD PUSH2 0x1A8 JUMP JUMPDEST PUSH2 0x1DE PUSH3 0x278D00 DUP2 JUMP JUMPDEST PUSH1 0x40 MLOAD SWAP1 DUP2 MSTORE PUSH1 0x20 ADD PUSH2 0x1A8 JUMP JUMPDEST PUSH1 0x2 SLOAD PUSH2 0x1DE JUMP JUMPDEST PUSH2 0x1C4 PUSH2 0x202 CALLDATASIZE PUSH1 0x4 PUSH2 0x140A JUMP JUMPDEST PUSH2 0x53E JUMP JUMPDEST PUSH1 0x40 MLOAD PUSH1 0x12 DUP2 MSTORE PUSH1 0x20 ADD PUSH2 0x1A8 JUMP JUMPDEST PUSH2 0x229 PUSH2 0x224 CALLDATASIZE PUSH1 0x4 PUSH2 0x1446 JUMP JUMPDEST PUSH2 0x562 JUMP JUMPDEST STOP JUMPDEST PUSH2 0x229 PUSH2 0x56F JUMP JUMPDEST PUSH2 0x27E PUSH2 0x241 CALLDATASIZE PUSH1 0x4 PUSH2 0x145F JUMP JUMPDEST PUSH1 0x8 PUSH1 0x20 MSTORE PUSH1 0x0 SWAP1 DUP2 MSTORE PUSH1 0x40 SWAP1 KECCAK256 DUP1 SLOAD PUSH1 0x1 DUP3 ADD SLOAD PUSH1 0x2 DUP4 ADD SLOAD PUSH1 0x3 DUP5 ADD SLOAD PUSH1 0x4 DUP6 ADD SLOAD PUSH1 0x5 DUP7 ADD SLOAD PUSH1 0x6 SWAP1 SWAP7 ADD SLOAD SWAP5 SWAP6 SWAP4 SWAP5 SWAP3 SWAP4 SWAP2 SWAP3 SWAP1 SWAP2 SWAP1 DUP8 JUMP JUMPDEST PUSH1 0x40 DUP1 MLOAD SWAP8 DUP9 MSTORE PUSH1 0x20 DUP9 ADD SWAP7 SWAP1 SWAP7 MSTORE SWAP5 DUP7 ADD SWAP4 SWAP1 SWAP4 MSTORE PUSH1 0x60 DUP6 ADD SWAP2 SWAP1 SWAP2 MSTORE PUSH1 0x80 DUP5 ADD MSTORE PUSH1 0xA0 DUP4 ADD MSTORE PUSH1 0xC0 DUP3 ADD MSTORE PUSH1 0xE0 ADD PUSH2 0x1A8 JUMP JUMPDEST PUSH2 0x229 PUSH2 0x786 JUMP JUMPDEST PUSH2 0x1DE PUSH2 0x2C9 CALLDATASIZE PUSH1 0x4 PUSH2 0x145F JUMP JUMPDEST PUSH1 0x1 PUSH1 0x1 PUSH1 0xA0 SHL SUB AND PUSH1 0x0 SWAP1 DUP2 MSTORE PUSH1 0x20 DUP2 SWAP1 MSTORE PUSH1 0x40 SWAP1 KECCAK256 SLOAD SWAP1 JUMP JUMPDEST PUSH2 0x1C4 PUSH2 0x2F2 CALLDATASIZE PUSH1 0x4 PUSH2 0x145F JUMP JUMPDEST PUSH1 0x9 PUSH1 0x20 MSTORE PUSH1 0x0 SWAP1 DUP2 MSTORE PUSH1 0x40 SWAP1 KECCAK256 SLOAD PUSH1 0xFF AND DUP2 JUMP JUMPDEST PUSH2 0x229 PUSH2 0x7EE JUMP JUMPDEST PUSH2 0x229 PUSH2 0x802 JUMP JUMPDEST PUSH2 0x229 PUSH2 0x325 CALLDATASIZE PUSH1 0x4 PUSH2 0x13E0 JUMP JUMPDEST PUSH2 0x843 JUMP JUMPDEST PUSH2 0x36C PUSH2 0x338 CALLDATASIZE PUSH1 0x4 PUSH2 0x1490 JUMP JUMPDEST PUSH1 0x7 PUSH1 0x20 MSTORE PUSH1 0x0 SWAP1 DUP2 MSTORE PUSH1 0x40 SWAP1 KECCAK256 DUP1 SLOAD PUSH1 0x1 DUP3 ADD SLOAD PUSH1 0x2 DUP4 ADD SLOAD PUSH1 0x3 DUP5 ADD SLOAD PUSH1 0x4 SWAP1 SWAP5 ADD SLOAD SWAP3 SWAP4 PUSH2 0xFFFF SWAP1 SWAP3 AND SWAP3 SWAP1 SWAP2 SWAP1 DUP6 JUMP JUMPDEST PUSH1 0x40 DUP1 MLOAD SWAP6 DUP7 MSTORE PUSH2 0xFFFF SWAP1 SWAP5 AND PUSH1 0x20 DUP7 ADD MSTORE SWAP3 DUP5 ADD SWAP2 SWAP1 SWAP2 MSTORE PUSH1 0x60 DUP4 ADD MSTORE PUSH1 0x80 DUP3 ADD MSTORE PUSH1 0xA0 ADD PUSH2 0x1A8 JUMP JUMPDEST PUSH1 0x5 SLOAD PUSH1 0x1 PUSH1 0x1 PUSH1 0xA0 SHL SUB AND JUMPDEST PUSH1 0x40 MLOAD PUSH1 0x1 PUSH1 0x1 PUSH1 0xA0 SHL SUB SWAP1 SWAP2 AND DUP2 MSTORE PUSH1 0x20 ADD PUSH2 0x1A8 JUMP JUMPDEST PUSH2 0x19B PUSH2 0x85C JUMP JUMPDEST PUSH2 0x1C4 PUSH2 0x3D2 CALLDATASIZE PUSH1 0x4 PUSH2 0x13E0 JUMP JUMPDEST PUSH2 0x86B JUMP JUMPDEST PUSH2 0x1DE PUSH2 0x3E5 CALLDATASIZE PUSH1 0x4 PUSH2 0x14AB JUMP JUMPDEST PUSH1 0x1 PUSH1 0x1 PUSH1 0xA0 SHL SUB SWAP2 DUP3 AND PUSH1 0x0 SWAP1 DUP2 MSTORE PUSH1 0x1 PUSH1 0x20 SWAP1 DUP2 MSTORE PUSH1 0x40 DUP1 DUP4 KECCAK256 SWAP4 SWAP1 SWAP5 AND DUP3 MSTORE SWAP2 SWAP1 SWAP2 MSTORE KECCAK256 SLOAD SWAP1 JUMP JUMPDEST PUSH2 0x419 PUSH2 0x2710 DUP2 JUMP JUMPDEST PUSH1 0x40 MLOAD PUSH2 0xFFFF SWAP1 SWAP2 AND DUP2 MSTORE PUSH1 0x20 ADD PUSH2 0x1A8 JUMP JUMPDEST PUSH1 0x6 SLOAD PUSH1 0x1 PUSH1 0x1 PUSH1 0xA0 SHL SUB AND PUSH2 0x3A4 JUMP JUMPDEST PUSH2 0x229 CALLER PUSH1 0x0 SWAP1 DUP2 MSTORE PUSH1 0x9 PUSH1 0x20 MSTORE PUSH1 0x40 SWAP1 KECCAK256 DUP1 SLOAD PUSH1 0xFF NOT AND SWAP1 SSTORE JUMP JUMPDEST PUSH2 0x229 PUSH2 0x467 CALLDATASIZE PUSH1 0x4 PUSH2 0x152A JUMP JUMPDEST PUSH2 0x879 JUMP JUMPDEST PUSH2 0x229 PUSH2 0x47A CALLDATASIZE PUSH1 0x4 PUSH2 0x14AB JUMP JUMPDEST PUSH2 0xC2B JUMP JUMPDEST PUSH2 0x229 PUSH2 0x48D CALLDATASIZE PUSH1 0x4 PUSH2 0x145F JUMP JUMPDEST PUSH2 0xF48 JUMP JUMPDEST PUSH1 0x60 PUSH1 0x3 DUP1 SLOAD PUSH2 0x4A1 SWAP1 PUSH2 0x15AB JUMP JUMPDEST DUP1 PUSH1 0x1F ADD PUSH1 0x20 DUP1 SWAP2 DIV MUL PUSH1 0x20 ADD PUSH1 0x40 MLOAD SWAP1 DUP2 ADD PUSH1 0x40 MSTORE DUP1 SWAP3 SWAP2 SWAP1 DUP2 DUP2 MSTORE PUSH1 0x20 ADD DUP3 DUP1 SLOAD PUSH2 0x4CD SWAP1 PUSH2 0x15AB JUMP JUMPDEST DUP1 ISZERO PUSH2 0x51A JUMPI DUP1 PUSH1 0x1F LT PUSH2 0x4EF JUMPI PUSH2 0x100 DUP1 DUP4 SLOAD DIV MUL DUP4 MSTORE SWAP2 PUSH1 0x20 ADD SWAP2 PUSH2 0x51A JUMP JUMPDEST DUP3 ADD SWAP2 SWAP1 PUSH1 0x0 MSTORE PUSH1 0x20 PUSH1 0x0 KECCAK256 SWAP1 JUMPDEST DUP2 SLOAD DUP2 MSTORE SWAP1 PUSH1 0x1 ADD SWAP1 PUSH1 0x20 ADD DUP1 DUP4 GT PUSH2 0x4FD JUMPI DUP3 SWAP1 SUB PUSH1 0x1F AND DUP3 ADD SWAP2 JUMPDEST POP POP POP POP POP SWAP1 POP SWAP1 JUMP JUMPDEST PUSH1 0x0 CALLER PUSH2 0x532 DUP2 DUP6 DUP6 PUSH2 0xFB9 JUMP JUMPDEST PUSH1 0x1 SWAP2 POP POP JUMPDEST SWAP3 SWAP2 POP POP JUMP JUMPDEST PUSH1 0x0 CALLER PUSH2 0x54C DUP6 DUP3 DUP6 PUSH2 0xFCB JUMP JUMPDEST PUSH2 0x557 DUP6 DUP6 DUP6 PUSH2 0x104A JUMP JUMPDEST POP PUSH1 0x1 SWAP5 SWAP4 POP POP POP POP JUMP JUMPDEST PUSH2 0x56C CALLER DUP3 PUSH2 0x10A9 JUMP JUMPDEST POP JUMP JUMPDEST CALLER PUSH1 0x0 SWAP1 DUP2 MSTORE PUSH1 0x8 PUSH1 0x20 MSTORE PUSH1 0x40 SWAP1 KECCAK256 DUP1 SLOAD PUSH2 0x5C6 JUMPI PUSH1 0x40 MLOAD PUSH3 0x461BCD PUSH1 0xE5 SHL DUP2 MSTORE PUSH1 0x20 PUSH1 0x4 DUP3 ADD MSTORE PUSH1 0x12 PUSH1 0x24 DUP3 ADD MSTORE PUSH18 0x23A3A19D1037379030B63637B1B0BA34B7B7 PUSH1 0x71 SHL PUSH1 0x44 DUP3 ADD MSTORE PUSH1 0x64 ADD JUMPDEST PUSH1 0x40 MLOAD DUP1 SWAP2 SUB SWAP1 REVERT JUMPDEST PUSH1 0x6 DUP2 ADD SLOAD TIMESTAMP SWAP1 DUP2 LT ISZERO PUSH2 0x60F JUMPI PUSH1 0x40 MLOAD PUSH3 0x461BCD PUSH1 0xE5 SHL DUP2 MSTORE PUSH1 0x20 PUSH1 0x4 DUP3 ADD MSTORE PUSH1 0x10 PUSH1 0x24 DUP3 ADD MSTORE PUSH16 0x11D1D0CE881B9BDD081CDD185C9D1959 PUSH1 0x82 SHL PUSH1 0x44 DUP3 ADD MSTORE PUSH1 0x64 ADD PUSH2 0x5BD JUMP JUMPDEST PUSH1 0x1 DUP3 ADD SLOAD DUP3 SLOAD PUSH1 0x0 SWAP1 PUSH2 0x624 SWAP1 DUP4 SWAP1 PUSH2 0x15FB JUMP JUMPDEST SWAP1 POP PUSH1 0x0 PUSH3 0x278D00 DUP6 PUSH1 0x2 ADD SLOAD PUSH2 0x63B SWAP2 SWAP1 PUSH2 0x160E JUMP JUMPDEST DUP6 PUSH1 0x6 ADD SLOAD PUSH2 0x64A SWAP2 SWAP1 PUSH2 0x1625 JUMP JUMPDEST SWAP1 POP DUP1 DUP5 LT PUSH2 0x6B4 JUMPI PUSH1 0x0 PUSH3 0x278D00 DUP7 PUSH1 0x3 ADD SLOAD PUSH2 0x668 SWAP2 SWAP1 PUSH2 0x160E JUMP JUMPDEST PUSH2 0x672 SWAP1 DUP4 PUSH2 0x1625 JUMP JUMPDEST SWAP1 POP DUP1 DUP6 LT PUSH2 0x68C JUMPI PUSH2 0x685 DUP4 DUP6 PUSH2 0x1625 JUMP JUMPDEST SWAP4 POP PUSH2 0x6B2 JUMP JUMPDEST PUSH1 0x4 DUP7 ADD SLOAD PUSH2 0x69B DUP4 DUP8 PUSH2 0x15FB JUMP JUMPDEST PUSH2 0x6A5 SWAP2 SWAP1 PUSH2 0x160E JUMP JUMPDEST PUSH2 0x6AF SWAP1 DUP6 PUSH2 0x1625 JUMP JUMPDEST SWAP4 POP JUMPDEST POP JUMPDEST DUP5 SLOAD DUP4 GT ISZERO PUSH2 0x6C2 JUMPI DUP5 SLOAD SWAP3 POP JUMPDEST PUSH1 0x0 DUP6 PUSH1 0x5 ADD SLOAD DUP5 PUSH2 0x6D4 SWAP2 SWAP1 PUSH2 0x15FB JUMP JUMPDEST SWAP1 POP PUSH1 0x0 DUP2 GT PUSH2 0x71E JUMPI PUSH1 0x40 MLOAD PUSH3 0x461BCD PUSH1 0xE5 SHL DUP2 MSTORE PUSH1 0x20 PUSH1 0x4 DUP3 ADD MSTORE PUSH1 0x15 PUSH1 0x24 DUP3 ADD MSTORE PUSH21 0x4747433A206E6F7468696E6720746F20636C61696D PUSH1 0x58 SHL PUSH1 0x44 DUP3 ADD MSTORE PUSH1 0x64 ADD PUSH2 0x5BD JUMP JUMPDEST DUP1 DUP7 PUSH1 0x5 ADD PUSH1 0x0 DUP3 DUP3 SLOAD PUSH2 0x732 SWAP2 SWAP1 PUSH2 0x1625 JUMP JUMPDEST SWAP1 SWAP2 SSTORE POP PUSH2 0x743 SWAP1 POP ADDRESS CALLER DUP4 PUSH2 0x104A JUMP JUMPDEST PUSH1 0x40 DUP1 MLOAD DUP3 DUP2 MSTORE PUSH1 0x20 DUP2 ADD DUP8 SWAP1 MSTORE CALLER SWAP2 PUSH32 0x9923B4306C6C030F2BDFBF156517D5983B87E15B96176DA122CD4F2EFFA4BA7B SWAP2 ADD PUSH1 0x40 MLOAD DUP1 SWAP2 SUB SWAP1 LOG2 POP POP POP POP POP POP JUMP JUMPDEST CALLER PUSH1 0x0 SWAP1 DUP2 MSTORE PUSH1 0x8 PUSH1 0x20 MSTORE PUSH1 0x40 SWAP1 KECCAK256 SLOAD PUSH2 0x7D2 JUMPI PUSH1 0x40 MLOAD PUSH3 0x461BCD PUSH1 0xE5 SHL DUP2 MSTORE PUSH1 0x20 PUSH1 0x4 DUP3 ADD MSTORE PUSH1 0xD PUSH1 0x24 DUP3 ADD MSTORE PUSH13 0x4747433A206E6F20616C6C6F63 PUSH1 0x98 SHL PUSH1 0x44 DUP3 ADD MSTORE PUSH1 0x64 ADD PUSH2 0x5BD JUMP JUMPDEST CALLER PUSH1 0x0 SWAP1 DUP2 MSTORE PUSH1 0x9 PUSH1 0x20 MSTORE PUSH1 0x40 SWAP1 KECCAK256 DUP1 SLOAD PUSH1 0xFF NOT AND PUSH1 0x1 OR SWAP1 SSTORE JUMP JUMPDEST PUSH2 0x7F6 PUSH2 0x10DF JUMP JUMPDEST PUSH2 0x800 PUSH1 0x0 PUSH2 0x110C JUMP JUMPDEST JUMP JUMPDEST PUSH1 0x6 SLOAD CALLER SWAP1 PUSH1 0x1 PUSH1 0x1 PUSH1 0xA0 SHL SUB AND DUP2 EQ PUSH2 0x83A JUMPI PUSH1 0x40 MLOAD PUSH4 0x118CDAA7 PUSH1 0xE0 SHL DUP2 MSTORE PUSH1 0x1 PUSH1 0x1 PUSH1 0xA0 SHL SUB DUP3 AND PUSH1 0x4 DUP3 ADD MSTORE PUSH1 0x24 ADD PUSH2 0x5BD JUMP JUMPDEST PUSH2 0x56C DUP2 PUSH2 0x110C JUMP JUMPDEST PUSH2 0x84E DUP3 CALLER DUP4 PUSH2 0xFCB JUMP JUMPDEST PUSH2 0x858 DUP3 DUP3 PUSH2 0x10A9 JUMP JUMPDEST POP POP JUMP JUMPDEST PUSH1 0x60 PUSH1 0x4 DUP1 SLOAD PUSH2 0x4A1 SWAP1 PUSH2 0x15AB JUMP JUMPDEST PUSH1 0x0 CALLER PUSH2 0x532 DUP2 DUP6 DUP6 PUSH2 0x104A JUMP JUMPDEST PUSH2 0x881 PUSH2 0x10DF JUMP JUMPDEST DUP3 DUP2 EQ PUSH2 0x8C7 JUMPI PUSH1 0x40 MLOAD PUSH3 0x461BCD PUSH1 0xE5 SHL DUP2 MSTORE PUSH1 0x20 PUSH1 0x4 DUP3 ADD MSTORE PUSH1 0x14 PUSH1 0x24 DUP3 ADD MSTORE PUSH20 0x8E8E867440D8CADCCEE8D040DAD2E6DAC2E8C6D PUSH1 0x63 SHL PUSH1 0x44 DUP3 ADD MSTORE PUSH1 0x64 ADD PUSH2 0x5BD JUMP JUMPDEST PUSH1 0x0 PUSH1 0x7 PUSH1 0x0 DUP8 PUSH1 0xA DUP2 GT ISZERO PUSH2 0x8DF JUMPI PUSH2 0x8DF PUSH2 0x1638 JUMP JUMPDEST PUSH1 0xA DUP2 GT ISZERO PUSH2 0x8F0 JUMPI PUSH2 0x8F0 PUSH2 0x1638 JUMP JUMPDEST DUP2 MSTORE PUSH1 0x20 ADD SWAP1 DUP2 MSTORE PUSH1 0x20 ADD PUSH1 0x0 KECCAK256 SWAP1 POP PUSH1 0x0 JUMPDEST DUP5 DUP2 LT ISZERO PUSH2 0xC22 JUMPI PUSH1 0x0 DUP7 DUP7 DUP4 DUP2 DUP2 LT PUSH2 0x91F JUMPI PUSH2 0x91F PUSH2 0x164E JUMP JUMPDEST SWAP1 POP PUSH1 0x20 MUL ADD PUSH1 0x20 DUP2 ADD SWAP1 PUSH2 0x934 SWAP2 SWAP1 PUSH2 0x145F JUMP JUMPDEST SWAP1 POP PUSH1 0x1 PUSH1 0x1 PUSH1 0xA0 SHL SUB DUP2 AND PUSH2 0x980 JUMPI PUSH1 0x40 MLOAD PUSH3 0x461BCD PUSH1 0xE5 SHL DUP2 MSTORE PUSH1 0x20 PUSH1 0x4 DUP3 ADD MSTORE PUSH1 0x11 PUSH1 0x24 DUP3 ADD MSTORE PUSH17 0x4747433A207A65726F2061646472657373 PUSH1 0x78 SHL PUSH1 0x44 DUP3 ADD MSTORE PUSH1 0x64 ADD PUSH2 0x5BD JUMP JUMPDEST PUSH1 0x0 PUSH2 0x98E PUSH1 0x12 PUSH1 0xA PUSH2 0x1748 JUMP JUMPDEST DUP7 DUP7 DUP6 DUP2 DUP2 LT PUSH2 0x9A0 JUMPI PUSH2 0x9A0 PUSH2 0x164E JUMP JUMPDEST SWAP1 POP PUSH1 0x20 MUL ADD CALLDATALOAD PUSH2 0x9B1 SWAP2 SWAP1 PUSH2 0x160E JUMP JUMPDEST SWAP1 POP DUP4 PUSH1 0x0 ADD SLOAD DUP2 DUP6 PUSH1 0x4 ADD SLOAD PUSH2 0x9C8 SWAP2 SWAP1 PUSH2 0x1625 JUMP JUMPDEST GT ISZERO PUSH2 0xA0C JUMPI PUSH1 0x40 MLOAD PUSH3 0x461BCD PUSH1 0xE5 SHL DUP2 MSTORE PUSH1 0x20 PUSH1 0x4 DUP3 ADD MSTORE PUSH1 0x13 PUSH1 0x24 DUP3 ADD MSTORE PUSH19 0x11D1D0CE881C1BDBDB08195E1A185D5CDD1959 PUSH1 0x6A SHL PUSH1 0x44 DUP3 ADD MSTORE PUSH1 0x64 ADD PUSH2 0x5BD JUMP JUMPDEST PUSH1 0x1 PUSH1 0x1 PUSH1 0xA0 SHL SUB DUP3 AND PUSH1 0x0 SWAP1 DUP2 MSTORE PUSH1 0x8 PUSH1 0x20 MSTORE PUSH1 0x40 SWAP1 KECCAK256 SLOAD ISZERO PUSH2 0xA6B JUMPI PUSH1 0x40 MLOAD PUSH3 0x461BCD PUSH1 0xE5 SHL DUP2 MSTORE PUSH1 0x20 PUSH1 0x4 DUP3 ADD MSTORE PUSH1 0x16 PUSH1 0x24 DUP3 ADD MSTORE PUSH22 0x4747433A20616C72656164792068617320616C6C6F63 PUSH1 0x50 SHL PUSH1 0x44 DUP3 ADD MSTORE PUSH1 0x64 ADD PUSH2 0x5BD JUMP JUMPDEST DUP1 DUP5 PUSH1 0x4 ADD PUSH1 0x0 DUP3 DUP3 SLOAD PUSH2 0xA7F SWAP2 SWAP1 PUSH2 0x1625 JUMP JUMPDEST SWAP1 SWAP2 SSTORE POP POP PUSH1 0x1 DUP5 ADD SLOAD PUSH1 0x0 SWAP1 PUSH2 0x2710 SWAP1 PUSH2 0xA9E SWAP1 PUSH2 0xFFFF AND DUP5 PUSH2 0x160E JUMP JUMPDEST PUSH2 0xAA8 SWAP2 SWAP1 PUSH2 0x1757 JUMP JUMPDEST SWAP1 POP PUSH1 0x0 PUSH2 0xAB6 DUP3 DUP5 PUSH2 0x15FB JUMP JUMPDEST SWAP1 POP PUSH1 0x0 DUP1 DUP8 PUSH1 0x3 ADD SLOAD GT ISZERO PUSH2 0xAE6 JUMPI PUSH3 0x278D00 DUP8 PUSH1 0x3 ADD SLOAD PUSH2 0xAD9 SWAP2 SWAP1 PUSH2 0x160E JUMP JUMPDEST PUSH2 0xAE3 SWAP1 DUP4 PUSH2 0x1757 JUMP JUMPDEST SWAP1 POP JUMPDEST PUSH1 0x40 MLOAD DUP1 PUSH1 0xE0 ADD PUSH1 0x40 MSTORE DUP1 DUP6 DUP2 MSTORE PUSH1 0x20 ADD DUP5 DUP2 MSTORE PUSH1 0x20 ADD DUP9 PUSH1 0x2 ADD SLOAD DUP2 MSTORE PUSH1 0x20 ADD DUP9 PUSH1 0x3 ADD SLOAD DUP2 MSTORE PUSH1 0x20 ADD DUP3 DUP2 MSTORE PUSH1 0x20 ADD PUSH1 0x0 DUP2 MSTORE PUSH1 0x20 ADD TIMESTAMP DUP2 MSTORE POP PUSH1 0x8 PUSH1 0x0 DUP8 PUSH1 0x1 PUSH1 0x1 PUSH1 0xA0 SHL SUB AND PUSH1 0x1 PUSH1 0x1 PUSH1 0xA0 SHL SUB AND DUP2 MSTORE PUSH1 0x20 ADD SWAP1 DUP2 MSTORE PUSH1 0x20 ADD PUSH1 0x0 KECCAK256 PUSH1 0x0 DUP3 ADD MLOAD DUP2 PUSH1 0x0 ADD SSTORE PUSH1 0x20 DUP3 ADD MLOAD DUP2 PUSH1 0x1 ADD SSTORE PUSH1 0x40 DUP3 ADD MLOAD DUP2 PUSH1 0x2 ADD SSTORE PUSH1 0x60 DUP3 ADD MLOAD DUP2 PUSH1 0x3 ADD SSTORE PUSH1 0x80 DUP3 ADD MLOAD DUP2 PUSH1 0x4 ADD SSTORE PUSH1 0xA0 DUP3 ADD MLOAD DUP2 PUSH1 0x5 ADD SSTORE PUSH1 0xC0 DUP3 ADD MLOAD DUP2 PUSH1 0x6 ADD SSTORE SWAP1 POP POP DUP5 PUSH1 0x1 PUSH1 0x1 PUSH1 0xA0 SHL SUB AND DUP13 PUSH1 0xA DUP2 GT ISZERO PUSH2 0xBAC JUMPI PUSH2 0xBAC PUSH2 0x1638 JUMP JUMPDEST PUSH1 0x2 DUP10 ADD SLOAD PUSH1 0x3 DUP11 ADD SLOAD PUSH1 0x40 DUP1 MLOAD DUP10 DUP2 MSTORE PUSH1 0x20 DUP2 ADD DUP10 SWAP1 MSTORE SWAP1 DUP2 ADD SWAP3 SWAP1 SWAP3 MSTORE PUSH1 0x60 DUP3 ADD MSTORE PUSH1 0x80 DUP2 ADD DUP5 SWAP1 MSTORE TIMESTAMP PUSH1 0xA0 DUP3 ADD MSTORE PUSH32 0x951A64FD3E10BDB0C1FE79C048549DBDBB2A891EE03ED559D71FB935D35D95F8 SWAP1 PUSH1 0xC0 ADD PUSH1 0x40 MLOAD DUP1 SWAP2 SUB SWAP1 LOG3 POP POP POP POP POP DUP1 DUP1 PUSH2 0xC1A SWAP1 PUSH2 0x1779 JUMP JUMPDEST SWAP2 POP POP PUSH2 0x903 JUMP JUMPDEST POP POP POP POP POP POP POP JUMP JUMPDEST PUSH2 0xC33 PUSH2 0x10DF JUMP JUMPDEST PUSH1 0x1 PUSH1 0x1 PUSH1 0xA0 SHL SUB DUP3 AND ISZERO DUP1 ISZERO SWAP1 PUSH2 0xC53 JUMPI POP PUSH1 0x1 PUSH1 0x1 PUSH1 0xA0 SHL SUB DUP2 AND ISZERO ISZERO JUMPDEST PUSH2 0xC90 JUMPI PUSH1 0x40 MLOAD PUSH3 0x461BCD PUSH1 0xE5 SHL DUP2 MSTORE PUSH1 0x20 PUSH1 0x4 DUP3 ADD MSTORE PUSH1 0xE PUSH1 0x24 DUP3 ADD MSTORE PUSH14 0x23A3A19D103D32B9379030B23239 PUSH1 0x91 SHL PUSH1 0x44 DUP3 ADD MSTORE PUSH1 0x64 ADD PUSH2 0x5BD JUMP JUMPDEST PUSH1 0x1 PUSH1 0x1 PUSH1 0xA0 SHL SUB DUP3 AND PUSH1 0x0 SWAP1 DUP2 MSTORE PUSH1 0x8 PUSH1 0x20 MSTORE PUSH1 0x40 SWAP1 KECCAK256 DUP1 SLOAD PUSH2 0xCEA JUMPI PUSH1 0x40 MLOAD PUSH3 0x461BCD PUSH1 0xE5 SHL DUP2 MSTORE PUSH1 0x20 PUSH1 0x4 DUP3 ADD MSTORE PUSH1 0x11 PUSH1 0x24 DUP3 ADD MSTORE PUSH17 0x11D1D0CE881B9BC8185B1B1BD8C81BDB19 PUSH1 0x7A SHL PUSH1 0x44 DUP3 ADD MSTORE PUSH1 0x64 ADD PUSH2 0x5BD JUMP JUMPDEST PUSH1 0x1 PUSH1 0x1 PUSH1 0xA0 SHL SUB DUP3 AND PUSH1 0x0 SWAP1 DUP2 MSTORE PUSH1 0x8 PUSH1 0x20 MSTORE PUSH1 0x40 SWAP1 KECCAK256 SLOAD ISZERO PUSH2 0xD48 JUMPI PUSH1 0x40 MLOAD PUSH3 0x461BCD PUSH1 0xE5 SHL DUP2 MSTORE PUSH1 0x20 PUSH1 0x4 DUP3 ADD MSTORE PUSH1 0x15 PUSH1 0x24 DUP3 ADD MSTORE PUSH21 0x4747433A20616C6C6F6320657869737473206E6577 PUSH1 0x58 SHL PUSH1 0x44 DUP3 ADD MSTORE PUSH1 0x64 ADD PUSH2 0x5BD JUMP JUMPDEST PUSH1 0x1 PUSH1 0x1 PUSH1 0xA0 SHL SUB DUP4 AND PUSH1 0x0 SWAP1 DUP2 MSTORE PUSH1 0x9 PUSH1 0x20 MSTORE PUSH1 0x40 SWAP1 KECCAK256 SLOAD PUSH1 0xFF AND PUSH2 0xDA8 JUMPI PUSH1 0x40 MLOAD PUSH3 0x461BCD PUSH1 0xE5 SHL DUP2 MSTORE PUSH1 0x20 PUSH1 0x4 DUP3 ADD MSTORE PUSH1 0x15 PUSH1 0x24 DUP3 ADD MSTORE PUSH21 0x11D1D0CE881B9BC81D5CD95C88185C1C1C9BDD985B PUSH1 0x5A SHL PUSH1 0x44 DUP3 ADD MSTORE PUSH1 0x64 ADD PUSH2 0x5BD JUMP JUMPDEST PUSH1 0x40 MLOAD DUP1 PUSH1 0xE0 ADD PUSH1 0x40 MSTORE DUP1 DUP3 PUSH1 0x0 ADD SLOAD DUP2 MSTORE PUSH1 0x20 ADD DUP3 PUSH1 0x1 ADD SLOAD DUP2 MSTORE PUSH1 0x20 ADD DUP3 PUSH1 0x2 ADD SLOAD DUP2 MSTORE PUSH1 0x20 ADD DUP3 PUSH1 0x3 ADD SLOAD DUP2 MSTORE PUSH1 0x20 ADD DUP3 PUSH1 0x4 ADD SLOAD DUP2 MSTORE PUSH1 0x20 ADD DUP3 PUSH1 0x5 ADD SLOAD DUP2 MSTORE PUSH1 0x20 ADD DUP3 PUSH1 0x6 ADD SLOAD DUP2 MSTORE POP PUSH1 0x8 PUSH1 0x0 DUP5 PUSH1 0x1 PUSH1 0x1 PUSH1 0xA0 SHL SUB AND PUSH1 0x1 PUSH1 0x1 PUSH1 0xA0 SHL SUB AND DUP2 MSTORE PUSH1 0x20 ADD SWAP1 DUP2 MSTORE PUSH1 0x20 ADD PUSH1 0x0 KECCAK256 PUSH1 0x0 DUP3 ADD MLOAD DUP2 PUSH1 0x0 ADD SSTORE PUSH1 0x20 DUP3 ADD MLOAD DUP2 PUSH1 0x1 ADD SSTORE PUSH1 0x40 DUP3 ADD MLOAD DUP2 PUSH1 0x2 ADD SSTORE PUSH1 0x60 DUP3 ADD MLOAD DUP2 PUSH1 0x3 ADD SSTORE PUSH1 0x80 DUP3 ADD MLOAD DUP2 PUSH1 0x4 ADD SSTORE PUSH1 0xA0 DUP3 ADD MLOAD DUP2 PUSH1 0x5 ADD SSTORE PUSH1 0xC0 DUP3 ADD MLOAD DUP2 PUSH1 0x6 ADD SSTORE SWAP1 POP POP PUSH1 0x8 PUSH1 0x0 DUP5 PUSH1 0x1 PUSH1 0x1 PUSH1 0xA0 SHL SUB AND PUSH1 0x1 PUSH1 0x1 PUSH1 0xA0 SHL SUB AND DUP2 MSTORE PUSH1 0x20 ADD SWAP1 DUP2 MSTORE PUSH1 0x20 ADD PUSH1 0x0 KECCAK256 PUSH1 0x0 DUP1 DUP3 ADD PUSH1 0x0 SWAP1 SSTORE PUSH1 0x1 DUP3 ADD PUSH1 0x0 SWAP1 SSTORE PUSH1 0x2 DUP3 ADD PUSH1 0x0 SWAP1 SSTORE PUSH1 0x3 DUP3 ADD PUSH1 0x0 SWAP1 SSTORE PUSH1 0x4 DUP3 ADD PUSH1 0x0 SWAP1 SSTORE PUSH1 0x5 DUP3 ADD PUSH1 0x0 SWAP1 SSTORE PUSH1 0x6 DUP3 ADD PUSH1 0x0 SWAP1 SSTORE POP POP PUSH1 0x0 PUSH1 0x9 PUSH1 0x0 DUP6 PUSH1 0x1 PUSH1 0x1 PUSH1 0xA0 SHL SUB AND PUSH1 0x1 PUSH1 0x1 PUSH1 0xA0 SHL SUB AND DUP2 MSTORE PUSH1 0x20 ADD SWAP1 DUP2 MSTORE PUSH1 0x20 ADD PUSH1 0x0 KECCAK256 PUSH1 0x0 PUSH2 0x100 EXP DUP2 SLOAD DUP2 PUSH1 0xFF MUL NOT AND SWAP1 DUP4 ISZERO ISZERO MUL OR SWAP1 SSTORE POP DUP2 PUSH1 0x1 PUSH1 0x1 PUSH1 0xA0 SHL SUB AND DUP4 PUSH1 0x1 PUSH1 0x1 PUSH1 0xA0 SHL SUB AND PUSH32 0x1552BF14C580C20E53A4227E9B76734DA8E21905A818FDC5FA05DCB2891BB89E PUSH1 0x40 MLOAD PUSH1 0x40 MLOAD DUP1 SWAP2 SUB SWAP1 LOG3 POP POP POP JUMP JUMPDEST PUSH2 0xF50 PUSH2 0x10DF JUMP JUMPDEST PUSH1 0x6 DUP1 SLOAD PUSH1 0x1 PUSH1 0x1 PUSH1 0xA0 SHL SUB DUP4 AND PUSH1 0x1 PUSH1 0x1 PUSH1 0xA0 SHL SUB NOT SWAP1 SWAP2 AND DUP2 OR SWAP1 SWAP2 SSTORE PUSH2 0xF81 PUSH1 0x5 SLOAD PUSH1 0x1 PUSH1 0x1 PUSH1 0xA0 SHL SUB AND SWAP1 JUMP JUMPDEST PUSH1 0x1 PUSH1 0x1 PUSH1 0xA0 SHL SUB AND PUSH32 0x38D16B8CAC22D99FC7C124B9CD0DE2D3FA1FAEF420BFE791D8C362D765E22700 PUSH1 0x40 MLOAD PUSH1 0x40 MLOAD DUP1 SWAP2 SUB SWAP1 LOG3 POP JUMP JUMPDEST PUSH2 0xFC6 DUP4 DUP4 DUP4 PUSH1 0x1 PUSH2 0x1125 JUMP JUMPDEST POP POP POP JUMP JUMPDEST PUSH1 0x1 PUSH1 0x1 PUSH1 0xA0 SHL SUB DUP4 DUP2 AND PUSH1 0x0 SWAP1 DUP2 MSTORE PUSH1 0x1 PUSH1 0x20 SWAP1 DUP2 MSTORE PUSH1 0x40 DUP1 DUP4 KECCAK256 SWAP4 DUP7 AND DUP4 MSTORE SWAP3 SWAP1 MSTORE KECCAK256 SLOAD PUSH1 0x0 NOT DUP2 LT ISZERO PUSH2 0x1044 JUMPI DUP2 DUP2 LT ISZERO PUSH2 0x1035 JUMPI PUSH1 0x40 MLOAD PUSH4 0x7DC7A0D9 PUSH1 0xE1 SHL DUP2 MSTORE PUSH1 0x1 PUSH1 0x1 PUSH1 0xA0 SHL SUB DUP5 AND PUSH1 0x4 DUP3 ADD MSTORE PUSH1 0x24 DUP2 ADD DUP3 SWAP1 MSTORE PUSH1 0x44 DUP2 ADD DUP4 SWAP1 MSTORE PUSH1 0x64 ADD PUSH2 0x5BD JUMP JUMPDEST PUSH2 0x1044 DUP5 DUP5 DUP5 DUP5 SUB PUSH1 0x0 PUSH2 0x1125 JUMP JUMPDEST POP POP POP POP JUMP JUMPDEST PUSH1 0x1 PUSH1 0x1 PUSH1 0xA0 SHL SUB DUP4 AND PUSH2 0x1074 JUMPI PUSH1 0x40 MLOAD PUSH4 0x4B637E8F PUSH1 0xE1 SHL DUP2 MSTORE PUSH1 0x0 PUSH1 0x4 DUP3 ADD MSTORE PUSH1 0x24 ADD PUSH2 0x5BD JUMP JUMPDEST PUSH1 0x1 PUSH1 0x1 PUSH1 0xA0 SHL SUB DUP3 AND PUSH2 0x109E JUMPI PUSH1 0x40 MLOAD PUSH4 0xEC442F05 PUSH1 0xE0 SHL DUP2 MSTORE PUSH1 0x0 PUSH1 0x4 DUP3 ADD MSTORE PUSH1 0x24 ADD PUSH2 0x5BD JUMP JUMPDEST PUSH2 0xFC6 DUP4 DUP4 DUP4 PUSH2 0x11FA JUMP JUMPDEST PUSH1 0x1 PUSH1 0x1 PUSH1 0xA0 SHL SUB DUP3 AND PUSH2 0x10D3 JUMPI PUSH1 0x40 MLOAD PUSH4 0x4B637E8F PUSH1 0xE1 SHL DUP2 MSTORE PUSH1 0x0 PUSH1 0x4 DUP3 ADD MSTORE PUSH1 0x24 ADD PUSH2 0x5BD JUMP JUMPDEST PUSH2 0x858 DUP3 PUSH1 0x0 DUP4 PUSH2 0x11FA JUMP JUMPDEST PUSH1 0x5 SLOAD PUSH1 0x1 PUSH1 0x1 PUSH1 0xA0 SHL SUB AND CALLER EQ PUSH2 0x800 JUMPI PUSH1 0x40 MLOAD PUSH4 0x118CDAA7 PUSH1 0xE0 SHL DUP2 MSTORE CALLER PUSH1 0x4 DUP3 ADD MSTORE PUSH1 0x24 ADD PUSH2 0x5BD JUMP JUMPDEST PUSH1 0x6 DUP1 SLOAD PUSH1 0x1 PUSH1 0x1 PUSH1 0xA0 SHL SUB NOT AND SWAP1 SSTORE PUSH2 0x56C DUP2 PUSH2 0x1324 JUMP JUMPDEST PUSH1 0x1 PUSH1 0x1 PUSH1 0xA0 SHL SUB DUP5 AND PUSH2 0x114F JUMPI PUSH1 0x40 MLOAD PUSH4 0xE602DF05 PUSH1 0xE0 SHL DUP2 MSTORE PUSH1 0x0 PUSH1 0x4 DUP3 ADD MSTORE PUSH1 0x24 ADD PUSH2 0x5BD JUMP JUMPDEST PUSH1 0x1 PUSH1 0x1 PUSH1 0xA0 SHL SUB DUP4 AND PUSH2 0x1179 JUMPI PUSH1 0x40 MLOAD PUSH4 0x4A1406B1 PUSH1 0xE1 SHL DUP2 MSTORE PUSH1 0x0 PUSH1 0x4 DUP3 ADD MSTORE PUSH1 0x24 ADD PUSH2 0x5BD JUMP JUMPDEST PUSH1 0x1 PUSH1 0x1 PUSH1 0xA0 SHL SUB DUP1 DUP6 AND PUSH1 0x0 SWAP1 DUP2 MSTORE PUSH1 0x1 PUSH1 0x20 SWAP1 DUP2 MSTORE PUSH1 0x40 DUP1 DUP4 KECCAK256 SWAP4 DUP8 AND DUP4 MSTORE SWAP3 SWAP1 MSTORE KECCAK256 DUP3 SWAP1 SSTORE DUP1 ISZERO PUSH2 0x1044 JUMPI DUP3 PUSH1 0x1 PUSH1 0x1 PUSH1 0xA0 SHL SUB AND DUP5 PUSH1 0x1 PUSH1 0x1 PUSH1 0xA0 SHL SUB AND PUSH32 0x8C5BE1E5EBEC7D5BD14F71427D1E84F3DD0314C0F7B2291E5B200AC8C7C3B925 DUP5 PUSH1 0x40 MLOAD PUSH2 0x11EC SWAP2 DUP2 MSTORE PUSH1 0x20 ADD SWAP1 JUMP JUMPDEST PUSH1 0x40 MLOAD DUP1 SWAP2 SUB SWAP1 LOG3 POP POP POP POP JUMP JUMPDEST PUSH1 0x1 PUSH1 0x1 PUSH1 0xA0 SHL SUB DUP4 AND PUSH2 0x1225 JUMPI DUP1 PUSH1 0x2 PUSH1 0x0 DUP3 DUP3 SLOAD PUSH2 0x121A SWAP2 SWAP1 PUSH2 0x1625 JUMP JUMPDEST SWAP1 SWAP2 SSTORE POP PUSH2 0x1297 SWAP1 POP JUMP JUMPDEST PUSH1 0x1 PUSH1 0x1 PUSH1 0xA0 SHL SUB DUP4 AND PUSH1 0x0 SWAP1 DUP2 MSTORE PUSH1 0x20 DUP2 SWAP1 MSTORE PUSH1 0x40 SWAP1 KECCAK256 SLOAD DUP2 DUP2 LT ISZERO PUSH2 0x1278 JUMPI PUSH1 0x40 MLOAD PUSH4 0x391434E3 PUSH1 0xE2 SHL DUP2 MSTORE PUSH1 0x1 PUSH1 0x1 PUSH1 0xA0 SHL SUB DUP6 AND PUSH1 0x4 DUP3 ADD MSTORE PUSH1 0x24 DUP2 ADD DUP3 SWAP1 MSTORE PUSH1 0x44 DUP2 ADD DUP4 SWAP1 MSTORE PUSH1 0x64 ADD PUSH2 0x5BD JUMP JUMPDEST PUSH1 0x1 PUSH1 0x1 PUSH1 0xA0 SHL SUB DUP5 AND PUSH1 0x0 SWAP1 DUP2 MSTORE PUSH1 0x20 DUP2 SWAP1 MSTORE PUSH1 0x40 SWAP1 KECCAK256 SWAP1 DUP3 SWAP1 SUB SWAP1 SSTORE JUMPDEST PUSH1 0x1 PUSH1 0x1 PUSH1 0xA0 SHL SUB DUP3 AND PUSH2 0x12B3 JUMPI PUSH1 0x2 DUP1 SLOAD DUP3 SWAP1 SUB SWAP1 SSTORE PUSH2 0x12D2 JUMP JUMPDEST PUSH1 0x1 PUSH1 0x1 PUSH1 0xA0 SHL SUB DUP3 AND PUSH1 0x0 SWAP1 DUP2 MSTORE PUSH1 0x20 DUP2 SWAP1 MSTORE PUSH1 0x40 SWAP1 KECCAK256 DUP1 SLOAD DUP3 ADD SWAP1 SSTORE JUMPDEST DUP2 PUSH1 0x1 PUSH1 0x1 PUSH1 0xA0 SHL SUB AND DUP4 PUSH1 0x1 PUSH1 0x1 PUSH1 0xA0 SHL SUB AND PUSH32 0xDDF252AD1BE2C89B69C2B068FC378DAA952BA7F163C4A11628F55A4DF523B3EF DUP4 PUSH1 0x40 MLOAD PUSH2 0x1317 SWAP2 DUP2 MSTORE PUSH1 0x20 ADD SWAP1 JUMP JUMPDEST PUSH1 0x40 MLOAD DUP1 SWAP2 SUB SWAP1 LOG3 POP POP POP JUMP JUMPDEST PUSH1 0x5 DUP1 SLOAD PUSH1 0x1 PUSH1 0x1 PUSH1 0xA0 SHL SUB DUP4 DUP2 AND PUSH1 0x1 PUSH1 0x1 PUSH1 0xA0 SHL SUB NOT DUP4 AND DUP2 OR SWAP1 SWAP4 SSTORE PUSH1 0x40 MLOAD SWAP2 AND SWAP2 SWAP1 DUP3 SWAP1 PUSH32 0x8BE0079C531659141344CD1FD0A4F28419497F9722A3DAAFE3B4186F6B6457E0 SWAP1 PUSH1 0x0 SWAP1 LOG3 POP POP JUMP JUMPDEST PUSH1 0x0 PUSH1 0x20 DUP1 DUP4 MSTORE DUP4 MLOAD DUP1 DUP3 DUP6 ADD MSTORE PUSH1 0x0 JUMPDEST DUP2 DUP2 LT ISZERO PUSH2 0x13A3 JUMPI DUP6 DUP2 ADD DUP4 ADD MLOAD DUP6 DUP3 ADD PUSH1 0x40 ADD MSTORE DUP3 ADD PUSH2 0x1387 JUMP JUMPDEST POP PUSH1 0x0 PUSH1 0x40 DUP3 DUP7 ADD ADD MSTORE PUSH1 0x40 PUSH1 0x1F NOT PUSH1 0x1F DUP4 ADD AND DUP6 ADD ADD SWAP3 POP POP POP SWAP3 SWAP2 POP POP JUMP JUMPDEST DUP1 CALLDATALOAD PUSH1 0x1 PUSH1 0x1 PUSH1 0xA0 SHL SUB DUP2 AND DUP2 EQ PUSH2 0x13DB JUMPI PUSH1 0x0 DUP1 REVERT JUMPDEST SWAP2 SWAP1 POP JUMP JUMPDEST PUSH1 0x0 DUP1 PUSH1 0x40 DUP4 DUP6 SUB SLT ISZERO PUSH2 0x13F3 JUMPI PUSH1 0x0 DUP1 REVERT JUMPDEST PUSH2 0x13FC DUP4 PUSH2 0x13C4 JUMP JUMPDEST SWAP5 PUSH1 0x20 SWAP4 SWAP1 SWAP4 ADD CALLDATALOAD SWAP4 POP POP POP JUMP JUMPDEST PUSH1 0x0 DUP1 PUSH1 0x0 PUSH1 0x60 DUP5 DUP7 SUB SLT ISZERO PUSH2 0x141F JUMPI PUSH1 0x0 DUP1 REVERT JUMPDEST PUSH2 0x1428 DUP5 PUSH2 0x13C4 JUMP JUMPDEST SWAP3 POP PUSH2 0x1436 PUSH1 0x20 DUP6 ADD PUSH2 0x13C4 JUMP JUMPDEST SWAP2 POP PUSH1 0x40 DUP5 ADD CALLDATALOAD SWAP1 POP SWAP3 POP SWAP3 POP SWAP3 JUMP JUMPDEST PUSH1 0x0 PUSH1 0x20 DUP3 DUP5 SUB SLT ISZERO PUSH2 0x1458 JUMPI PUSH1 0x0 DUP1 REVERT JUMPDEST POP CALLDATALOAD SWAP2 SWAP1 POP JUMP JUMPDEST PUSH1 0x0 PUSH1 0x20 DUP3 DUP5 SUB SLT ISZERO PUSH2 0x1471 JUMPI PUSH1 0x0 DUP1 REVERT JUMPDEST PUSH2 0x147A DUP3 PUSH2 0x13C4 JUMP JUMPDEST SWAP4 SWAP3 POP POP POP JUMP JUMPDEST DUP1 CALLDATALOAD PUSH1 0xB DUP2 LT PUSH2 0x13DB JUMPI PUSH1 0x0 DUP1 REVERT JUMPDEST PUSH1 0x0 PUSH1 0x20 DUP3 DUP5 SUB SLT ISZERO PUSH2 0x14A2 JUMPI PUSH1 0x0 DUP1 REVERT JUMPDEST PUSH2 0x147A DUP3 PUSH2 0x1481 JUMP JUMPDEST PUSH1 0x0 DUP1 PUSH1 0x40 DUP4 DUP6 SUB SLT ISZERO PUSH2 0x14BE JUMPI PUSH1 0x0 DUP1 REVERT JUMPDEST PUSH2 0x14C7 DUP4 PUSH2 0x13C4 JUMP JUMPDEST SWAP2 POP PUSH2 0x14D5 PUSH1 0x20 DUP5 ADD PUSH2 0x13C4 JUMP JUMPDEST SWAP1 POP SWAP3 POP SWAP3 SWAP1 POP JUMP JUMPDEST PUSH1 0x0 DUP1 DUP4 PUSH1 0x1F DUP5 ADD SLT PUSH2 0x14F0 JUMPI PUSH1 0x0 DUP1 REVERT JUMPDEST POP DUP2 CALLDATALOAD PUSH8 0xFFFFFFFFFFFFFFFF DUP2 GT ISZERO PUSH2 0x1508 JUMPI PUSH1 0x0 DUP1 REVERT JUMPDEST PUSH1 0x20 DUP4 ADD SWAP2 POP DUP4 PUSH1 0x20 DUP3 PUSH1 0x5 SHL DUP6 ADD ADD GT ISZERO PUSH2 0x1523 JUMPI PUSH1 0x0 DUP1 REVERT JUMPDEST SWAP3 POP SWAP3 SWAP1 POP JUMP JUMPDEST PUSH1 0x0 DUP1 PUSH1 0x0 DUP1 PUSH1 0x0 PUSH1 0x60 DUP7 DUP9 SUB SLT ISZERO PUSH2 0x1542 JUMPI PUSH1 0x0 DUP1 REVERT JUMPDEST PUSH2 0x154B DUP7 PUSH2 0x1481 JUMP JUMPDEST SWAP5 POP PUSH1 0x20 DUP7 ADD CALLDATALOAD PUSH8 0xFFFFFFFFFFFFFFFF DUP1 DUP3 GT ISZERO PUSH2 0x1568 JUMPI PUSH1 0x0 DUP1 REVERT JUMPDEST PUSH2 0x1574 DUP10 DUP4 DUP11 ADD PUSH2 0x14DE JUMP JUMPDEST SWAP1 SWAP7 POP SWAP5 POP PUSH1 0x40 DUP9 ADD CALLDATALOAD SWAP2 POP DUP1 DUP3 GT ISZERO PUSH2 0x158D JUMPI PUSH1 0x0 DUP1 REVERT JUMPDEST POP PUSH2 0x159A DUP9 DUP3 DUP10 ADD PUSH2 0x14DE JUMP JUMPDEST SWAP7 SWAP10 SWAP6 SWAP9 POP SWAP4 SWAP7 POP SWAP3 SWAP5 SWAP4 SWAP3 POP POP POP JUMP JUMPDEST PUSH1 0x1 DUP2 DUP2 SHR SWAP1 DUP3 AND DUP1 PUSH2 0x15BF JUMPI PUSH1 0x7F DUP3 AND SWAP2 POP JUMPDEST PUSH1 0x20 DUP3 LT DUP2 SUB PUSH2 0x15DF JUMPI PUSH4 0x4E487B71 PUSH1 0xE0 SHL PUSH1 0x0 MSTORE PUSH1 0x22 PUSH1 0x4 MSTORE PUSH1 0x24 PUSH1 0x0 REVERT JUMPDEST POP SWAP2 SWAP1 POP JUMP JUMPDEST PUSH4 0x4E487B71 PUSH1 0xE0 SHL PUSH1 0x0 MSTORE PUSH1 0x11 PUSH1 0x4 MSTORE PUSH1 0x24 PUSH1 0x0 REVERT JUMPDEST DUP2 DUP2 SUB DUP2 DUP2 GT ISZERO PUSH2 0x538 JUMPI PUSH2 0x538 PUSH2 0x15E5 JUMP JUMPDEST DUP1 DUP3 MUL DUP2 ISZERO DUP3 DUP3 DIV DUP5 EQ OR PUSH2 0x538 JUMPI PUSH2 0x538 PUSH2 0x15E5 JUMP JUMPDEST DUP1 DUP3 ADD DUP1 DUP3 GT ISZERO PUSH2 0x538 JUMPI PUSH2 0x538 PUSH2 0x15E5 JUMP JUMPDEST PUSH4 0x4E487B71 PUSH1 0xE0 SHL PUSH1 0x0 MSTORE PUSH1 0x21 PUSH1 0x4 MSTORE PUSH1 0x24 PUSH1 0x0 REVERT JUMPDEST PUSH4 0x4E487B71 PUSH1 0xE0 SHL PUSH1 0x0 MSTORE PUSH1 0x32 PUSH1 0x4 MSTORE PUSH1 0x24 PUSH1 0x0 REVERT JUMPDEST PUSH1 0x1 DUP2 DUP2 JUMPDEST DUP1 DUP6 GT ISZERO PUSH2 0x169F JUMPI DUP2 PUSH1 0x0 NOT DIV DUP3 GT ISZERO PUSH2 0x1685 JUMPI PUSH2 0x1685 PUSH2 0x15E5 JUMP JUMPDEST DUP1 DUP6 AND ISZERO PUSH2 0x1692 JUMPI SWAP2 DUP2 MUL SWAP2 JUMPDEST SWAP4 DUP5 SHR SWAP4 SWAP1 DUP1 MUL SWAP1 PUSH2 0x1669 JUMP JUMPDEST POP SWAP3 POP SWAP3 SWAP1 POP JUMP JUMPDEST PUSH1 0x0 DUP3 PUSH2 0x16B6 JUMPI POP PUSH1 0x1 PUSH2 0x538 JUMP JUMPDEST DUP2 PUSH2 0x16C3 JUMPI POP PUSH1 0x0 PUSH2 0x538 JUMP JUMPDEST DUP2 PUSH1 0x1 DUP2 EQ PUSH2 0x16D9 JUMPI PUSH1 0x2 DUP2 EQ PUSH2 0x16E3 JUMPI PUSH2 0x16FF JUMP JUMPDEST PUSH1 0x1 SWAP2 POP POP PUSH2 0x538 JUMP JUMPDEST PUSH1 0xFF DUP5 GT ISZERO PUSH2 0x16F4 JUMPI PUSH2 0x16F4 PUSH2 0x15E5 JUMP JUMPDEST POP POP PUSH1 0x1 DUP3 SHL PUSH2 0x538 JUMP JUMPDEST POP PUSH1 0x20 DUP4 LT PUSH2 0x133 DUP4 LT AND PUSH1 0x4E DUP5 LT PUSH1 0xB DUP5 LT AND OR ISZERO PUSH2 0x1722 JUMPI POP DUP2 DUP2 EXP PUSH2 0x538 JUMP JUMPDEST PUSH2 0x172C DUP4 DUP4 PUSH2 0x1664 JUMP JUMPDEST DUP1 PUSH1 0x0 NOT DIV DUP3 GT ISZERO PUSH2 0x1740 JUMPI PUSH2 0x1740 PUSH2 0x15E5 JUMP JUMPDEST MUL SWAP4 SWAP3 POP POP POP JUMP JUMPDEST PUSH1 0x0 PUSH2 0x147A PUSH1 0xFF DUP5 AND DUP4 PUSH2 0x16A7 JUMP JUMPDEST PUSH1 0x0 DUP3 PUSH2 0x1774 JUMPI PUSH4 0x4E487B71 PUSH1 0xE0 SHL PUSH1 0x0 MSTORE PUSH1 0x12 PUSH1 0x4 MSTORE PUSH1 0x24 PUSH1 0x0 REVERT JUMPDEST POP DIV SWAP1 JUMP JUMPDEST PUSH1 0x0 PUSH1 0x1 DUP3 ADD PUSH2 0x178B JUMPI PUSH2 0x178B PUSH2 0x15E5 JUMP JUMPDEST POP PUSH1 0x1 ADD SWAP1 JUMP INVALID LOG2 PUSH5 0x6970667358 0x22 SLT KECCAK256 0xBE CALLER DIV BLOCKHASH 0x2E 0x2F PUSH10 0x15BA1363B316D173F96E 0x4D 0xB1 0xB4 OR 0xAE ORIGIN RETURNDATASIZE 0xEF 0xEC 0xDE DUP1 PUSH22 0x57D6C364736F6C634300081400330000000000000000 "},"methodIdentifiers":{"BPS_DENOMINATOR()":"e1a45218","SECONDS_PER_MONTH()":"10786deb","acceptOwnership()":"79ba5097","addressChangeApproved(address)":"710315d6","allocateBatch(uint8,address[],uint256[])":"eeb32e3d","allocations(address)":"52a9039c","allowance(address,address)":"dd62ed3e","approve(address,uint256)":"095ea7b3","approveAddressChange()":"64f342ee","balanceOf(address)":"70a08231","burn(uint256)":"42966c68","burnFrom(address,uint256)":"79cc6790","categories(uint8)":"7be6277b","changeAddress(address,address)":"efe08a7d","claim()":"4e71d92d","decimals()":"313ce567","name()":"06fdde03","owner()":"8da5cb5b","pendingOwner()":"e30c3978","renounceOwnership()":"715018a6","revokeAddressChangeApproval()":"e821c39a","symbol()":"95d89b41","totalSupply()":"18160ddd","transfer(address,uint256)":"a9059cbb","transferFrom(address,address,uint256)":"23b872dd","transferOwnership(address)":"f2fde38b"}}}}}