{"contracts/GGC.sol":{"GGC":{"abi":[{"inputs":[],"stateMutability":"nonpayable","type":"constructor"},{"inputs":[{"internalType":"address","name":"spender","type":"address"},{"internalType":"uint256","name":"allowance","type":"uint256"},{"internalType":"uint256","name":"needed","type":"uint256"}],"name":"ERC20InsufficientAllowance","type":"error"},{"inputs":[{"internalType":"address","name":"sender","type":"address"},{"internalType":"uint256","name":"balance","type":"uint256"},{"internalType":"uint256","name":"needed","type":"uint256"}],"name":"ERC20InsufficientBalance","type":"error"},{"inputs":[{"internalType":"address","name":"approver","type":"address"}],"name":"ERC20InvalidApprover","type":"error"},{"inputs":[{"internalType":"address","name":"receiver","type":"address"}],"name":"ERC20InvalidReceiver","type":"error"},{"inputs":[{"internalType":"address","name":"sender","type":"address"}],"name":"ERC20InvalidSender","type":"error"},{"inputs":[{"internalType":"address","name":"spender","type":"address"}],"name":"ERC20InvalidSpender","type":"error"},{"inputs":[{"internalType":"address","name":"owner","type":"address"}],"name":"OwnableInvalidOwner","type":"error"},{"inputs":[{"internalType":"address","name":"account","type":"address"}],"name":"OwnableUnauthorizedAccount","type":"error"},{"inputs":[],"name":"ReentrancyGuardReentrantCall","type":"error"},{"anonymous":false,"inputs":[{"indexed":true,"internalType":"address","name":"oldAddress","type":"address"},{"indexed":true,"internalType":"address","name":"newAddress","type":"address"}],"name":"AddressChanged","type":"event"},{"anonymous":false,"inputs":[{"indexed":true,"internalType":"enum GGC.Category","name":"category","type":"uint8"},{"indexed":true,"internalType":"address","name":"beneficiary","type":"address"},{"indexed":false,"internalType":"uint256","name":"totalAmount","type":"uint256"},{"indexed":false,"internalType":"uint256","name":"tgeUnlock","type":"uint256"},{"indexed":false,"internalType":"uint256","name":"cliffMonths","type":"uint256"},{"indexed":false,"internalType":"uint256","name":"vestingMonths","type":"uint256"},{"indexed":false,"internalType":"uint256","name":"claimPerSecond","type":"uint256"},{"indexed":false,"internalType":"uint256","name":"startTimestamp","type":"uint256"}],"name":"AllocationSet","type":"event"},{"anonymous":false,"inputs":[{"indexed":true,"internalType":"address","name":"owner","type":"address"},{"indexed":true,"internalType":"address","name":"spender","type":"address"},{"indexed":false,"internalType":"uint256","name":"value","type":"uint256"}],"name":"Approval","type":"event"},{"anonymous":false,"inputs":[{"indexed":true,"internalType":"enum GGC.Category","name":"category","type":"uint8"},{"indexed":false,"internalType":"uint256","name":"totalAmount","type":"uint256"},{"indexed":false,"internalType":"uint256","name":"tgePercent","type":"uint256"},{"indexed":false,"internalType":"uint256","name":"cliffMonths","type":"uint256"},{"indexed":false,"internalType":"uint256","name":"vestingMonths","type":"uint256"}],"name":"CategoryInitialized","type":"event"},{"anonymous":false,"inputs":[{"indexed":true,"internalType":"address","name":"to","type":"address"},{"indexed":false,"internalType":"uint256","name":"amount","type":"uint256"}],"name":"EmergencyWithdraw","type":"event"},{"anonymous":false,"inputs":[{"indexed":true,"internalType":"address","name":"previousOwner","type":"address"},{"indexed":true,"internalType":"address","name":"newOwner","type":"address"}],"name":"OwnershipTransferred","type":"event"},{"anonymous":false,"inputs":[{"indexed":true,"internalType":"address","name":"beneficiary","type":"address"},{"indexed":false,"internalType":"uint256","name":"amount","type":"uint256"},{"indexed":false,"internalType":"uint256","name":"timestamp","type":"uint256"}],"name":"TokensClaimed","type":"event"},{"anonymous":false,"inputs":[{"indexed":true,"internalType":"address","name":"from","type":"address"},{"indexed":true,"internalType":"address","name":"to","type":"address"},{"indexed":false,"internalType":"uint256","name":"value","type":"uint256"}],"name":"Transfer","type":"event"},{"inputs":[],"name":"SECONDS_PER_MONTH","outputs":[{"internalType":"uint256","name":"","type":"uint256"}],"stateMutability":"view","type":"function"},{"inputs":[{"internalType":"enum GGC.Category","name":"category","type":"uint8"},{"internalType":"address[]","name":"beneficiaries","type":"address[]"},{"internalType":"uint256[]","name":"amounts","type":"uint256[]"}],"name":"allocateBatch","outputs":[],"stateMutability":"nonpayable","type":"function"},{"inputs":[{"internalType":"address","name":"","type":"address"}],"name":"allocations","outputs":[{"internalType":"uint256","name":"total","type":"uint256"},{"internalType":"uint256","name":"tgeUnlock","type":"uint256"},{"internalType":"uint256","name":"cliffMonths","type":"uint256"},{"internalType":"uint256","name":"vestingMonths","type":"uint256"},{"internalType":"uint256","name":"claimPerSecond","type":"uint256"},{"internalType":"uint256","name":"claimed","type":"uint256"},{"internalType":"uint256","name":"startTimestamp","type":"uint256"}],"stateMutability":"view","type":"function"},{"inputs":[{"internalType":"address","name":"owner","type":"address"},{"internalType":"address","name":"spender","type":"address"}],"name":"allowance","outputs":[{"internalType":"uint256","name":"","type":"uint256"}],"stateMutability":"view","type":"function"},{"inputs":[{"internalType":"address","name":"spender","type":"address"},{"internalType":"uint256","name":"value","type":"uint256"}],"name":"approve","outputs":[{"internalType":"bool","name":"","type":"bool"}],"stateMutability":"nonpayable","type":"function"},{"inputs":[{"internalType":"address","name":"account","type":"address"}],"name":"balanceOf","outputs":[{"internalType":"uint256","name":"","type":"uint256"}],"stateMutability":"view","type":"function"},{"inputs":[{"internalType":"uint256","name":"value","type":"uint256"}],"name":"burn","outputs":[],"stateMutability":"nonpayable","type":"function"},{"inputs":[{"internalType":"address","name":"account","type":"address"},{"internalType":"uint256","name":"value","type":"uint256"}],"name":"burnFrom","outputs":[],"stateMutability":"nonpayable","type":"function"},{"inputs":[{"internalType":"enum GGC.Category","name":"","type":"uint8"}],"name":"categories","outputs":[{"internalType":"uint256","name":"totalAmount","type":"uint256"},{"internalType":"uint256","name":"tgePercent","type":"uint256"},{"internalType":"uint256","name":"cliffMonths","type":"uint256"},{"internalType":"uint256","name":"vestingMonths","type":"uint256"},{"internalType":"uint256","name":"allocated","type":"uint256"}],"stateMutability":"view","type":"function"},{"inputs":[{"internalType":"address","name":"oldAddress","type":"address"},{"internalType":"address","name":"newAddress","type":"address"}],"name":"changeAddress","outputs":[],"stateMutability":"nonpayable","type":"function"},{"inputs":[],"name":"claim","outputs":[],"stateMutability":"nonpayable","type":"function"},{"inputs":[],"name":"decimals","outputs":[{"internalType":"uint8","name":"","type":"uint8"}],"stateMutability":"view","type":"function"},{"inputs":[],"name":"name","outputs":[{"internalType":"string","name":"","type":"string"}],"stateMutability":"view","type":"function"},{"inputs":[],"name":"owner","outputs":[{"internalType":"address","name":"","type":"address"}],"stateMutability":"view","type":"function"},{"inputs":[],"name":"renounceOwnership","outputs":[],"stateMutability":"nonpayable","type":"function"},{"inputs":[],"name":"symbol","outputs":[{"internalType":"string","name":"","type":"string"}],"stateMutability":"view","type":"function"},{"inputs":[],"name":"totalSupply","outputs":[{"internalType":"uint256","name":"","type":"uint256"}],"stateMutability":"view","type":"function"},{"inputs":[{"internalType":"address","name":"to","type":"address"},{"internalType":"uint256","name":"value","type":"uint256"}],"name":"transfer","outputs":[{"internalType":"bool","name":"","type":"bool"}],"stateMutability":"nonpayable","type":"function"},{"inputs":[{"internalType":"address","name":"from","type":"address"},{"internalType":"address","name":"to","type":"address"},{"internalType":"uint256","name":"value","type":"uint256"}],"name":"transferFrom","outputs":[{"internalType":"bool","name":"","type":"bool"}],"stateMutability":"nonpayable","type":"function"},{"inputs":[{"internalType":"address","name":"newOwner","type":"address"}],"name":"transferOwnership","outputs":[],"stateMutability":"nonpayable","type":"function"}],"evm":{"bytecode":{"linkReferences":{},"object":"60806040523480156200001157600080fd5b50336040518060400160405280601281526020017f4772616e642047616e67737461204369747900000000000000000000000000008152506040518060400160405280600381526020017f474743000000000000000000000000000000000000000000000000000000000081525081600390816200009091906200160b565b508060049081620000a291906200160b565b505050600073ffffffffffffffffffffffffffffffffffffffff168173ffffffffffffffffffffffffffffffffffffffff16036200011a5760006040517f1e4fbdf700000000000000000000000000000000000000000000000000000000815260040162000111919062001737565b60405180910390fd5b6200012b816200100560201b60201c565b506001600681905550620001743062000149620010cb60201b60201c565b600a620001579190620018e4565b633b9aca0062000168919062001935565b620010d460201b60201c565b6040518060a001604052806200018f620010cb60201b60201c565b600a6200019d9190620018e4565b6309896800620001ae919062001935565b8152602001600a815260200160038152602001600c815260200160008152506007600080600a811115620001e757620001e662001980565b5b600a811115620001fc57620001fb62001980565b5b815260200190815260200160002060008201518160000155602082015181600101556040820151816002015560608201518160030155608082015181600401559050506000600a81111562000256576200025562001980565b5b7f40350cfcce49fcb51c9bb71941687543f9cec3a0cb63a18a1f42e879c9cd66dc62000287620010cb60201b60201c565b600a620002959190620018e4565b6309896800620002a6919062001935565b600a6003600c604051620002be949392919062001a89565b60405180910390a26040518060a00160405280620002e1620010cb60201b60201c565b600a620002ef9190620018e4565b6302faf08062000300919062001935565b8152602001600f815260200160038152602001600c81526020016000815250600760006001600a8111156200033a576200033962001980565b5b600a8111156200034f576200034e62001980565b5b815260200190815260200160002060008201518160000155602082015181600101556040820151816002015560608201518160030155608082015181600401559050506001600a811115620003a957620003a862001980565b5b7f40350cfcce49fcb51c9bb71941687543f9cec3a0cb63a18a1f42e879c9cd66dc620003da620010cb60201b60201c565b600a620003e89190620018e4565b6302faf080620003f9919062001935565b600f6003600c60405162000411949392919062001b19565b60405180910390a26040518060a0016040528062000434620010cb60201b60201c565b600a620004429190620018e4565b6307bfa48062000453919062001935565b81526020016028815260200160018152602001600481526020016000815250600760006002600a8111156200048d576200048c62001980565b5b600a811115620004a257620004a162001980565b5b815260200190815260200160002060008201518160000155602082015181600101556040820151816002015560608201518160030155608082015181600401559050506002600a811115620004fc57620004fb62001980565b5b7f40350cfcce49fcb51c9bb71941687543f9cec3a0cb63a18a1f42e879c9cd66dc6200052d620010cb60201b60201c565b600a6200053b9190620018e4565b6307bfa4806200054c919062001935565b60286001600460405162000564949392919062001c2f565b60405180910390a26040518060a0016040528062000587620010cb60201b60201c565b600a620005959190620018e4565b6305f5e100620005a6919062001935565b81526020016000815260200160068152602001602481526020016000815250600760006003600a811115620005e057620005df62001980565b5b600a811115620005f557620005f462001980565b5b815260200190815260200160002060008201518160000155602082015181600101556040820151816002015560608201518160030155608082015181600401559050506003600a8111156200064f576200064e62001980565b5b7f40350cfcce49fcb51c9bb71941687543f9cec3a0cb63a18a1f42e879c9cd66dc62000680620010cb60201b60201c565b600a6200068e9190620018e4565b6305f5e1006200069f919062001935565b600060066024604051620006b7949392919062001d45565b60405180910390a26040518060a00160405280620006da620010cb60201b60201c565b600a620006e89190620018e4565b6303938700620006f9919062001935565b81526020016005815260200160048152602001601881526020016000815250600760006004600a81111562000733576200073262001980565b5b600a81111562000748576200074762001980565b5b815260200190815260200160002060008201518160000155602082015181600101556040820151816002015560608201518160030155608082015181600401559050506004600a811115620007a257620007a162001980565b5b7f40350cfcce49fcb51c9bb71941687543f9cec3a0cb63a18a1f42e879c9cd66dc620007d3620010cb60201b60201c565b600a620007e19190620018e4565b6303938700620007f2919062001935565b6005600460186040516200080a949392919062001e18565b60405180910390a26040518060a001604052806200082d620010cb60201b60201c565b600a6200083b9190620018e4565b6305f5e1006200084c919062001935565b81526020016003815260200160038152602001603081526020016000815250600760006005600a81111562000886576200088562001980565b5b600a8111156200089b576200089a62001980565b5b815260200190815260200160002060008201518160000155602082015181600101556040820151816002015560608201518160030155608082015181600401559050506005600a811115620008f557620008f462001980565b5b7f40350cfcce49fcb51c9bb71941687543f9cec3a0cb63a18a1f42e879c9cd66dc62000926620010cb60201b60201c565b600a620009349190620018e4565b6305f5e10062000945919062001935565b60038060306040516200095c949392919062001ea8565b60405180910390a26040518060a001604052806200097f620010cb60201b60201c565b600a6200098d9190620018e4565b6301312d006200099e919062001935565b8152602001600a815260200160008152602001600581526020016000815250600760006006600a811115620009d857620009d762001980565b5b600a811115620009ed57620009ec62001980565b5b815260200190815260200160002060008201518160000155602082015181600101556040820151816002015560608201518160030155608082015181600401559050506006600a81111562000a475762000a4662001980565b5b7f40350cfcce49fcb51c9bb71941687543f9cec3a0cb63a18a1f42e879c9cd66dc62000a78620010cb60201b60201c565b600a62000a869190620018e4565b6301312d0062000a97919062001935565b600a6000600560405162000aaf949392919062001ef5565b60405180910390a26040518060a0016040528062000ad2620010cb60201b60201c565b600a62000ae09190620018e4565b6301c9c38062000af1919062001935565b81526020016000815260200160088152602001604081526020016000815250600760006007600a81111562000b2b5762000b2a62001980565b5b600a81111562000b405762000b3f62001980565b5b815260200190815260200160002060008201518160000155602082015181600101556040820151816002015560608201518160030155608082015181600401559050506007600a81111562000b9a5762000b9962001980565b5b7f40350cfcce49fcb51c9bb71941687543f9cec3a0cb63a18a1f42e879c9cd66dc62000bcb620010cb60201b60201c565b600a62000bd99190620018e4565b6301c9c38062000bea919062001935565b600060086040805162000c01949392919062001fc8565b60405180910390a26040518060a0016040528062000c24620010cb60201b60201c565b600a62000c329190620018e4565b6308f0d18062000c43919062001935565b81526020016064815260200160008152602001600081526020016000815250600760006008600a81111562000c7d5762000c7c62001980565b5b600a81111562000c925762000c9162001980565b5b815260200190815260200160002060008201518160000155602082015181600101556040820151816002015560608201518160030155608082015181600401559050506008600a81111562000cec5762000ceb62001980565b5b7f40350cfcce49fcb51c9bb71941687543f9cec3a0cb63a18a1f42e879c9cd66dc62000d1d620010cb60201b60201c565b600a62000d2b9190620018e4565b6308f0d18062000d3c919062001935565b606460008060405162000d53949392919062002058565b60405180910390a26040518060a0016040528062000d76620010cb60201b60201c565b600a62000d849190620018e4565b6308f0d18062000d95919062001935565b81526020016001815260200160008152602001604881526020016000815250600760006009600a81111562000dcf5762000dce62001980565b5b600a81111562000de45762000de362001980565b5b815260200190815260200160002060008201518160000155602082015181600101556040820151816002015560608201518160030155608082015181600401559050506009600a81111562000e3e5762000e3d62001980565b5b7f40350cfcce49fcb51c9bb71941687543f9cec3a0cb63a18a1f42e879c9cd66dc62000e6f620010cb60201b60201c565b600a62000e7d9190620018e4565b6308f0d18062000e8e919062001935565b60016000604860405162000ea69493929190620020e8565b60405180910390a26040518060a0016040528062000ec9620010cb60201b60201c565b600a62000ed79190620018e4565b6302faf08062000ee8919062001935565b8152602001600081526020016003815260200160248152602001600081525060076000600a8081111562000f215762000f2062001980565b5b600a81111562000f365762000f3562001980565b5b81526020019081526020016000206000820151816000015560208201518160010155604082015181600201556060820151816003015560808201518160040155905050600a8081111562000f8f5762000f8e62001980565b5b7f40350cfcce49fcb51c9bb71941687543f9cec3a0cb63a18a1f42e879c9cd66dc62000fc0620010cb60201b60201c565b600a62000fce9190620018e4565b6302faf08062000fdf919062001935565b60006003602460405162000ff7949392919062002135565b60405180910390a262002217565b6000600560009054906101000a900473ffffffffffffffffffffffffffffffffffffffff16905081600560006101000a81548173ffffffffffffffffffffffffffffffffffffffff021916908373ffffffffffffffffffffffffffffffffffffffff1602179055508173ffffffffffffffffffffffffffffffffffffffff168173ffffffffffffffffffffffffffffffffffffffff167f8be0079c531659141344cd1fd0a4f28419497f9722a3daafe3b4186f6b6457e060405160405180910390a35050565b60006012905090565b600073ffffffffffffffffffffffffffffffffffffffff168273ffffffffffffffffffffffffffffffffffffffff1603620011495760006040517fec442f0500000000000000000000000000000000000000000000000000000000815260040162001140919062001737565b60405180910390fd5b6200115d600083836200116160201b60201c565b5050565b600073ffffffffffffffffffffffffffffffffffffffff168373ffffffffffffffffffffffffffffffffffffffff1603620011b7578060026000828254620011aa919062002182565b925050819055506200128d565b60008060008573ffffffffffffffffffffffffffffffffffffffff1673ffffffffffffffffffffffffffffffffffffffff1681526020019081526020016000205490508181101562001246578381836040517fe450d38c0000000000000000000000000000000000000000000000000000000081526004016200123d93929190620021bd565b60405180910390fd5b8181036000808673ffffffffffffffffffffffffffffffffffffffff1673ffffffffffffffffffffffffffffffffffffffff16815260200190815260200160002081905550505b600073ffffffffffffffffffffffffffffffffffffffff168273ffffffffffffffffffffffffffffffffffffffff1603620012d8578060026000828254039250508190555062001325565b806000808473ffffffffffffffffffffffffffffffffffffffff1673ffffffffffffffffffffffffffffffffffffffff168152602001908152602001600020600082825401925050819055505b8173ffffffffffffffffffffffffffffffffffffffff168373ffffffffffffffffffffffffffffffffffffffff167fddf252ad1be2c89b69c2b068fc378daa952ba7f163c4a11628f55a4df523b3ef83604051620013849190620021fa565b60405180910390a3505050565b600081519050919050565b7f4e487b7100000000000000000000000000000000000000000000000000000000600052604160045260246000fd5b7f4e487b7100000000000000000000000000000000000000000000000000000000600052602260045260246000fd5b600060028204905060018216806200141357607f821691505b602082108103620014295762001428620013cb565b5b50919050565b60008190508160005260206000209050919050565b60006020601f8301049050919050565b600082821b905092915050565b600060088302620014937fffffffffffffffffffffffffffffffffffffffffffffffffffffffffffffffff8262001454565b6200149f868362001454565b95508019841693508086168417925050509392505050565b6000819050919050565b6000819050919050565b6000620014ec620014e6620014e084620014b7565b620014c1565b620014b7565b9050919050565b6000819050919050565b6200150883620014cb565b620015206200151782620014f3565b84845462001461565b825550505050565b600090565b6200153762001528565b62001544818484620014fd565b505050565b5b818110156200156c57620015606000826200152d565b6001810190506200154a565b5050565b601f821115620015bb5762001585816200142f565b620015908462001444565b81016020851015620015a0578190505b620015b8620015af8562001444565b83018262001549565b50505b505050565b600082821c905092915050565b6000620015e060001984600802620015c0565b1980831691505092915050565b6000620015fb8383620015cd565b9150826002028217905092915050565b620016168262001391565b67ffffffffffffffff8111156200163257620016316200139c565b5b6200163e8254620013fa565b6200164b82828562001570565b600060209050601f8311600181146200168357600084156200166e578287015190505b6200167a8582620015ed565b865550620016ea565b601f19841662001693866200142f565b60005b82811015620016bd5784890151825560018201915060208501945060208101905062001696565b86831015620016dd5784890151620016d9601f891682620015cd565b8355505b6001600288020188555050505b505050505050565b600073ffffffffffffffffffffffffffffffffffffffff82169050919050565b60006200171f82620016f2565b9050919050565b620017318162001712565b82525050565b60006020820190506200174e600083018462001726565b92915050565b7f4e487b7100000000000000000000000000000000000000000000000000000000600052601160045260246000fd5b60008160011c9050919050565b6000808291508390505b6001851115620017e257808604811115620017ba57620017b962001754565b5b6001851615620017ca5780820291505b8081029050620017da8562001783565b94506200179a565b94509492505050565b600082620017fd5760019050620018d0565b816200180d5760009050620018d0565b8160018114620018265760028114620018315762001867565b6001915050620018d0565b60ff84111562001846576200184562001754565b5b8360020a91508482111562001860576200185f62001754565b5b50620018d0565b5060208310610133831016604e8410600b8410161715620018a15782820a9050838111156200189b576200189a62001754565b5b620018d0565b620018b0848484600162001790565b92509050818404811115620018ca57620018c962001754565b5b81810290505b9392505050565b600060ff82169050919050565b6000620018f182620014b7565b9150620018fe83620018d7565b92506200192d7fffffffffffffffffffffffffffffffffffffffffffffffffffffffffffffffff8484620017eb565b905092915050565b60006200194282620014b7565b91506200194f83620014b7565b92508282026200195f81620014b7565b9150828204841483151762001979576200197862001754565b5b5092915050565b7f4e487b7100000000000000000000000000000000000000000000000000000000600052602160045260246000fd5b620019ba81620014b7565b82525050565b6000819050919050565b6000620019eb620019e5620019df84620019c0565b620014c1565b620014b7565b9050919050565b620019fd81620019ca565b82525050565b6000819050919050565b600062001a2e62001a2862001a228462001a03565b620014c1565b620014b7565b9050919050565b62001a408162001a0d565b82525050565b6000819050919050565b600062001a7162001a6b62001a658462001a46565b620014c1565b620014b7565b9050919050565b62001a838162001a50565b82525050565b600060808201905062001aa06000830187620019af565b62001aaf6020830186620019f2565b62001abe604083018562001a35565b62001acd606083018462001a78565b95945050505050565b6000819050919050565b600062001b0162001afb62001af58462001ad6565b620014c1565b620014b7565b9050919050565b62001b138162001ae0565b82525050565b600060808201905062001b306000830187620019af565b62001b3f602083018662001b08565b62001b4e604083018562001a35565b62001b5d606083018462001a78565b95945050505050565b6000819050919050565b600062001b9162001b8b62001b858462001b66565b620014c1565b620014b7565b9050919050565b62001ba38162001b70565b82525050565b6000819050919050565b600062001bd462001bce62001bc88462001ba9565b620014c1565b620014b7565b9050919050565b62001be68162001bb3565b82525050565b6000819050919050565b600062001c1762001c1162001c0b8462001bec565b620014c1565b620014b7565b9050919050565b62001c298162001bf6565b82525050565b600060808201905062001c466000830187620019af565b62001c55602083018662001b98565b62001c64604083018562001bdb565b62001c73606083018462001c1e565b95945050505050565b6000819050919050565b600062001ca762001ca162001c9b8462001c7c565b620014c1565b620014b7565b9050919050565b62001cb98162001c86565b82525050565b6000819050919050565b600062001cea62001ce462001cde8462001cbf565b620014c1565b620014b7565b9050919050565b62001cfc8162001cc9565b82525050565b6000819050919050565b600062001d2d62001d2762001d218462001d02565b620014c1565b620014b7565b9050919050565b62001d3f8162001d0c565b82525050565b600060808201905062001d5c6000830187620019af565b62001d6b602083018662001cae565b62001d7a604083018562001cf1565b62001d89606083018462001d34565b95945050505050565b6000819050919050565b600062001dbd62001db762001db18462001d92565b620014c1565b620014b7565b9050919050565b62001dcf8162001d9c565b82525050565b6000819050919050565b600062001e0062001dfa62001df48462001dd5565b620014c1565b620014b7565b9050919050565b62001e128162001ddf565b82525050565b600060808201905062001e2f6000830187620019af565b62001e3e602083018662001dc4565b62001e4d604083018562001c1e565b62001e5c606083018462001e07565b95945050505050565b6000819050919050565b600062001e9062001e8a62001e848462001e65565b620014c1565b620014b7565b9050919050565b62001ea28162001e6f565b82525050565b600060808201905062001ebf6000830187620019af565b62001ece602083018662001a35565b62001edd604083018562001a35565b62001eec606083018462001e97565b95945050505050565b600060808201905062001f0c6000830187620019af565b62001f1b6020830186620019f2565b62001f2a604083018562001cae565b62001f39606083018462001dc4565b95945050505050565b6000819050919050565b600062001f6d62001f6762001f618462001f42565b620014c1565b620014b7565b9050919050565b62001f7f8162001f4c565b82525050565b6000819050919050565b600062001fb062001faa62001fa48462001f85565b620014c1565b620014b7565b9050919050565b62001fc28162001f8f565b82525050565b600060808201905062001fdf6000830187620019af565b62001fee602083018662001cae565b62001ffd604083018562001f74565b6200200c606083018462001fb7565b95945050505050565b6000819050919050565b6000620020406200203a620020348462002015565b620014c1565b620014b7565b9050919050565b62002052816200201f565b82525050565b60006080820190506200206f6000830187620019af565b6200207e602083018662002047565b6200208d604083018562001cae565b6200209c606083018462001cae565b95945050505050565b6000819050919050565b6000620020d0620020ca620020c484620020a5565b620014c1565b620014b7565b9050919050565b620020e281620020af565b82525050565b6000608082019050620020ff6000830187620019af565b6200210e602083018662001bdb565b6200211d604083018562001cae565b6200212c6060830184620020d7565b95945050505050565b60006080820190506200214c6000830187620019af565b6200215b602083018662001cae565b6200216a604083018562001a35565b62002179606083018462001d34565b95945050505050565b60006200218f82620014b7565b91506200219c83620014b7565b9250828201905080821115620021b757620021b662001754565b5b92915050565b6000606082019050620021d4600083018662001726565b620021e36020830185620019af565b620021f26040830184620019af565b949350505050565b6000602082019050620022116000830184620019af565b92915050565b6129e680620022276000396000f3fe608060405234801561001057600080fd5b506004361061012c5760003560e01c8063715018a6116100ad578063a9059cbb11610071578063a9059cbb1461032b578063dd62ed3e1461035b578063eeb32e3d1461038b578063efe08a7d146103a7578063f2fde38b146103c35761012c565b8063715018a61461029557806379cc67901461029f5780637be6277b146102bb5780638da5cb5b146102ef57806395d89b411461030d5761012c565b8063313ce567116100f4578063313ce567146101eb57806342966c68146102095780634e71d92d1461022557806352a9039c1461022f57806370a08231146102655761012c565b806306fdde0314610131578063095ea7b31461014f57806310786deb1461017f57806318160ddd1461019d57806323b872dd146101bb575b600080fd5b6101396103df565b6040516101469190611aea565b60405180910390f35b61016960048036038101906101649190611baa565b610471565b6040516101769190611c05565b60405180910390f35b610187610494565b6040516101949190611c2f565b60405180910390f35b6101a5610499565b6040516101b29190611c2f565b60405180910390f35b6101d560048036038101906101d09190611c4a565b6104a3565b6040516101e29190611c05565b60405180910390f35b6101f36104d2565b6040516102009190611cb9565b60405180910390f35b610223600480360381019061021e9190611cd4565b6104db565b005b61022d6104ef565b005b61024960048036038101906102449190611d01565b610766565b60405161025c9796959493929190611d2e565b60405180910390f35b61027f600480360381019061027a9190611d01565b6107a8565b60405161028c9190611c2f565b60405180910390f35b61029d6107f0565b005b6102b960048036038101906102b49190611baa565b610804565b005b6102d560048036038101906102d09190611dc2565b610824565b6040516102e6959493929190611def565b60405180910390f35b6102f761085a565b6040516103049190611e51565b60405180910390f35b610315610884565b6040516103229190611aea565b60405180910390f35b61034560048036038101906103409190611baa565b610916565b6040516103529190611c05565b60405180910390f35b61037560048036038101906103709190611e6c565b610939565b6040516103829190611c2f565b60405180910390f35b6103a560048036038101906103a09190611f67565b6109c0565b005b6103c160048036038101906103bc9190611e6c565b610e71565b005b6103dd60048036038101906103d89190611d01565b611216565b005b6060600380546103ee9061202b565b80601f016020809104026020016040519081016040528092919081815260200182805461041a9061202b565b80156104675780601f1061043c57610100808354040283529160200191610467565b820191906000526020600020905b81548152906001019060200180831161044a57829003601f168201915b5050505050905090565b60008061047c61129c565b90506104898185856112a4565b600191505092915050565b603c81565b6000600254905090565b6000806104ae61129c565b90506104bb8582856112b6565b6104c685858561134b565b60019150509392505050565b60006012905090565b6104ec6104e661129c565b8261143f565b50565b6104f76114c1565b6000600860003373ffffffffffffffffffffffffffffffffffffffff1673ffffffffffffffffffffffffffffffffffffffff16815260200190815260200160002090506000816000015411610581576040517f08c379a0000000000000000000000000000000000000000000000000000000008152600401610578906120a8565b60405180910390fd5b600042905081600601548110156105cd576040517f08c379a00000000000000000000000000000000000000000000000000000000081526004016105c490612114565b60405180910390fd5b60008260010154905060008184600001546105e89190612163565b9050600080603c86600201546105fe9190612197565b866006015461060d91906121d9565b9050808510610677576000603c87600301546106299190612197565b8261063491906121d9565b905080861061064557839250610675565b600082876106539190612163565b90508760040154816106659190612197565b935084841115610673578493505b505b505b6000828561068591906121d9565b905060008760050154826106999190612163565b9050600081116106de576040517f08c379a00000000000000000000000000000000000000000000000000000000081526004016106d590612259565b60405180910390fd5b808860050160008282546106f291906121d9565b9250508190555061070430338361134b565b3373ffffffffffffffffffffffffffffffffffffffff167f9923b4306c6c030f2bdfbf156517d5983b87e15b96176da122cd4f2effa4ba7b828960405161074c929190612279565b60405180910390a25050505050505050610764611507565b565b60086020528060005260406000206000915090508060000154908060010154908060020154908060030154908060040154908060050154908060060154905087565b60008060008373ffffffffffffffffffffffffffffffffffffffff1673ffffffffffffffffffffffffffffffffffffffff168152602001908152602001600020549050919050565b6107f8611511565b6108026000611598565b565b6108168261081061129c565b836112b6565b610820828261143f565b5050565b60076020528060005260406000206000915090508060000154908060010154908060020154908060030154908060040154905085565b6000600560009054906101000a900473ffffffffffffffffffffffffffffffffffffffff16905090565b6060600480546108939061202b565b80601f01602080910402602001604051908101604052809291908181526020018280546108bf9061202b565b801561090c5780601f106108e15761010080835404028352916020019161090c565b820191906000526020600020905b8154815290600101906020018083116108ef57829003601f168201915b5050505050905090565b60008061092161129c565b905061092e81858561134b565b600191505092915050565b6000600160008473ffffffffffffffffffffffffffffffffffffffff1673ffffffffffffffffffffffffffffffffffffffff16815260200190815260200160002060008373ffffffffffffffffffffffffffffffffffffffff1673ffffffffffffffffffffffffffffffffffffffff16815260200190815260200160002054905092915050565b6109c8611511565b818190508484905014610a10576040517f08c379a0000000000000000000000000000000000000000000000000000000008152600401610a07906122ee565b60405180910390fd5b60006007600087600a811115610a2957610a2861230e565b5b600a811115610a3b57610a3a61230e565b5b8152602001908152602001600020905060005b85859050811015610e68576000868683818110610a6e57610a6d61233d565b5b9050602002016020810190610a839190611d01565b90506000610a8f6104d2565b600a610a9b919061249f565b868685818110610aae57610aad61233d565b5b90506020020135610abf9190612197565b9050600073ffffffffffffffffffffffffffffffffffffffff168273ffffffffffffffffffffffffffffffffffffffff1603610b30576040517f08c379a0000000000000000000000000000000000000000000000000000000008152600401610b2790612536565b60405180910390fd5b8360000154818560040154610b4591906121d9565b1115610b86576040517f08c379a0000000000000000000000000000000000000000000000000000000008152600401610b7d906125a2565b60405180910390fd5b6000600860008473ffffffffffffffffffffffffffffffffffffffff1673ffffffffffffffffffffffffffffffffffffffff1681526020019081526020016000206000015414610c0b576040517f08c379a0000000000000000000000000000000000000000000000000000000008152600401610c0290612634565b60405180910390fd5b80846004016000828254610c1f91906121d9565b9250508190555060006009600a811115610c3c57610c3b61230e565b5b8a600a811115610c4f57610c4e61230e565b5b03610c78576103e8856001015483610c679190612197565b610c719190612683565b9050610c97565b6064856001015483610c8a9190612197565b610c949190612683565b90505b60008560020154905060008660030154905060008385610cb79190612163565b9050600080831115610d27576000603c84610cd29190612197565b905060008111610d17576040517f08c379a0000000000000000000000000000000000000000000000000000000008152600401610d0e90612700565b60405180910390fd5b8083610d239190612683565b9150505b6040518060e001604052808781526020018681526020018581526020018481526020018281526020016000815260200142815250600860008973ffffffffffffffffffffffffffffffffffffffff1673ffffffffffffffffffffffffffffffffffffffff168152602001908152602001600020600082015181600001556020820151816001015560408201518160020155606082015181600301556080820151816004015560a0820151816005015560c082015181600601559050508673ffffffffffffffffffffffffffffffffffffffff168e600a811115610e0d57610e0c61230e565b5b7f951a64fd3e10bdb0c1fe79c048549dbdbb2a891ee03ed559d71fb935d35d95f8888888888742604051610e4696959493929190612720565b60405180910390a3505050505050508080610e6090612781565b915050610a4e565b50505050505050565b610e79611511565b600073ffffffffffffffffffffffffffffffffffffffff168273ffffffffffffffffffffffffffffffffffffffff1603610ee8576040517f08c379a0000000000000000000000000000000000000000000000000000000008152600401610edf90612815565b60405180910390fd5b600073ffffffffffffffffffffffffffffffffffffffff168173ffffffffffffffffffffffffffffffffffffffff1603610f57576040517f08c379a0000000000000000000000000000000000000000000000000000000008152600401610f4e90612881565b60405180910390fd5b6000600860008473ffffffffffffffffffffffffffffffffffffffff1673ffffffffffffffffffffffffffffffffffffffff16815260200190815260200160002090506000816000015411610fe1576040517f08c379a0000000000000000000000000000000000000000000000000000000008152600401610fd8906128ed565b60405180910390fd5b6000600860008473ffffffffffffffffffffffffffffffffffffffff1673ffffffffffffffffffffffffffffffffffffffff1681526020019081526020016000206000015414611066576040517f08c379a000000000000000000000000000000000000000000000000000000000815260040161105d90612959565b60405180910390fd5b6040518060e001604052808260000154815260200182600101548152602001826002015481526020018260030154815260200182600401548152602001826005015481526020018260060154815250600860008473ffffffffffffffffffffffffffffffffffffffff1673ffffffffffffffffffffffffffffffffffffffff168152602001908152602001600020600082015181600001556020820151816001015560408201518160020155606082015181600301556080820151816004015560a0820151816005015560c08201518160060155905050600860008473ffffffffffffffffffffffffffffffffffffffff1673ffffffffffffffffffffffffffffffffffffffff16815260200190815260200160002060008082016000905560018201600090556002820160009055600382016000905560048201600090556005820160009055600682016000905550508173ffffffffffffffffffffffffffffffffffffffff168373ffffffffffffffffffffffffffffffffffffffff167f1552bf14c580c20e53a4227e9b76734da8e21905a818fdc5fa05dcb2891bb89e60405160405180910390a3505050565b61121e611511565b600073ffffffffffffffffffffffffffffffffffffffff168173ffffffffffffffffffffffffffffffffffffffff16036112905760006040517f1e4fbdf70000000000000000000000000000000000000000000000000000000081526004016112879190611e51565b60405180910390fd5b61129981611598565b50565b600033905090565b6112b1838383600161165e565b505050565b60006112c28484610939565b90507fffffffffffffffffffffffffffffffffffffffffffffffffffffffffffffffff8110156113455781811015611335578281836040517ffb8f41b200000000000000000000000000000000000000000000000000000000815260040161132c93929190612979565b60405180910390fd5b6113448484848403600061165e565b5b50505050565b600073ffffffffffffffffffffffffffffffffffffffff168373ffffffffffffffffffffffffffffffffffffffff16036113bd5760006040517f96c6fd1e0000000000000000000000000000000000000000000000000000000081526004016113b49190611e51565b60405180910390fd5b600073ffffffffffffffffffffffffffffffffffffffff168273ffffffffffffffffffffffffffffffffffffffff160361142f5760006040517fec442f050000000000000000000000000000000000000000000000000000000081526004016114269190611e51565b60405180910390fd5b61143a838383611835565b505050565b600073ffffffffffffffffffffffffffffffffffffffff168273ffffffffffffffffffffffffffffffffffffffff16036114b15760006040517f96c6fd1e0000000000000000000000000000000000000000000000000000000081526004016114a89190611e51565b60405180910390fd5b6114bd82600083611835565b5050565b6002600654036114fd576040517f3ee5aeb500000000000000000000000000000000000000000000000000000000815260040160405180910390fd5b6002600681905550565b6001600681905550565b61151961129c565b73ffffffffffffffffffffffffffffffffffffffff1661153761085a565b73ffffffffffffffffffffffffffffffffffffffff16146115965761155a61129c565b6040517f118cdaa700000000000000000000000000000000000000000000000000000000815260040161158d9190611e51565b60405180910390fd5b565b6000600560009054906101000a900473ffffffffffffffffffffffffffffffffffffffff16905081600560006101000a81548173ffffffffffffffffffffffffffffffffffffffff021916908373ffffffffffffffffffffffffffffffffffffffff1602179055508173ffffffffffffffffffffffffffffffffffffffff168173ffffffffffffffffffffffffffffffffffffffff167f8be0079c531659141344cd1fd0a4f28419497f9722a3daafe3b4186f6b6457e060405160405180910390a35050565b600073ffffffffffffffffffffffffffffffffffffffff168473ffffffffffffffffffffffffffffffffffffffff16036116d05760006040517fe602df050000000000000000000000000000000000000000000000000000000081526004016116c79190611e51565b60405180910390fd5b600073ffffffffffffffffffffffffffffffffffffffff168373ffffffffffffffffffffffffffffffffffffffff16036117425760006040517f94280d620000000000000000000000000000000000000000000000000000000081526004016117399190611e51565b60405180910390fd5b81600160008673ffffffffffffffffffffffffffffffffffffffff1673ffffffffffffffffffffffffffffffffffffffff16815260200190815260200160002060008573ffffffffffffffffffffffffffffffffffffffff1673ffffffffffffffffffffffffffffffffffffffff16815260200190815260200160002081905550801561182f578273ffffffffffffffffffffffffffffffffffffffff168473ffffffffffffffffffffffffffffffffffffffff167f8c5be1e5ebec7d5bd14f71427d1e84f3dd0314c0f7b2291e5b200ac8c7c3b925846040516118269190611c2f565b60405180910390a35b50505050565b600073ffffffffffffffffffffffffffffffffffffffff168373ffffffffffffffffffffffffffffffffffffffff160361188757806002600082825461187b91906121d9565b9250508190555061195a565b60008060008573ffffffffffffffffffffffffffffffffffffffff1673ffffffffffffffffffffffffffffffffffffffff16815260200190815260200160002054905081811015611913578381836040517fe450d38c00000000000000000000000000000000000000000000000000000000815260040161190a93929190612979565b60405180910390fd5b8181036000808673ffffffffffffffffffffffffffffffffffffffff1673ffffffffffffffffffffffffffffffffffffffff16815260200190815260200160002081905550505b600073ffffffffffffffffffffffffffffffffffffffff168273ffffffffffffffffffffffffffffffffffffffff16036119a357806002600082825403925050819055506119f0565b806000808473ffffffffffffffffffffffffffffffffffffffff1673ffffffffffffffffffffffffffffffffffffffff168152602001908152602001600020600082825401925050819055505b8173ffffffffffffffffffffffffffffffffffffffff168373ffffffffffffffffffffffffffffffffffffffff167fddf252ad1be2c89b69c2b068fc378daa952ba7f163c4a11628f55a4df523b3ef83604051611a4d9190611c2f565b60405180910390a3505050565b600081519050919050565b600082825260208201905092915050565b60005b83811015611a94578082015181840152602081019050611a79565b60008484015250505050565b6000601f19601f8301169050919050565b6000611abc82611a5a565b611ac68185611a65565b9350611ad6818560208601611a76565b611adf81611aa0565b840191505092915050565b60006020820190508181036000830152611b048184611ab1565b905092915050565b600080fd5b600080fd5b600073ffffffffffffffffffffffffffffffffffffffff82169050919050565b6000611b4182611b16565b9050919050565b611b5181611b36565b8114611b5c57600080fd5b50565b600081359050611b6e81611b48565b92915050565b6000819050919050565b611b8781611b74565b8114611b9257600080fd5b50565b600081359050611ba481611b7e565b92915050565b60008060408385031215611bc157611bc0611b0c565b5b6000611bcf85828601611b5f565b9250506020611be085828601611b95565b9150509250929050565b60008115159050919050565b611bff81611bea565b82525050565b6000602082019050611c1a6000830184611bf6565b92915050565b611c2981611b74565b82525050565b6000602082019050611c446000830184611c20565b92915050565b600080600060608486031215611c6357611c62611b0c565b5b6000611c7186828701611b5f565b9350506020611c8286828701611b5f565b9250506040611c9386828701611b95565b9150509250925092565b600060ff82169050919050565b611cb381611c9d565b82525050565b6000602082019050611cce6000830184611caa565b92915050565b600060208284031215611cea57611ce9611b0c565b5b6000611cf884828501611b95565b91505092915050565b600060208284031215611d1757611d16611b0c565b5b6000611d2584828501611b5f565b91505092915050565b600060e082019050611d43600083018a611c20565b611d506020830189611c20565b611d5d6040830188611c20565b611d6a6060830187611c20565b611d776080830186611c20565b611d8460a0830185611c20565b611d9160c0830184611c20565b98975050505050505050565b600b8110611daa57600080fd5b50565b600081359050611dbc81611d9d565b92915050565b600060208284031215611dd857611dd7611b0c565b5b6000611de684828501611dad565b91505092915050565b600060a082019050611e046000830188611c20565b611e116020830187611c20565b611e1e6040830186611c20565b611e2b6060830185611c20565b611e386080830184611c20565b9695505050505050565b611e4b81611b36565b82525050565b6000602082019050611e666000830184611e42565b92915050565b60008060408385031215611e8357611e82611b0c565b5b6000611e9185828601611b5f565b9250506020611ea285828601611b5f565b9150509250929050565b600080fd5b600080fd5b600080fd5b60008083601f840112611ed157611ed0611eac565b5b8235905067ffffffffffffffff811115611eee57611eed611eb1565b5b602083019150836020820283011115611f0a57611f09611eb6565b5b9250929050565b60008083601f840112611f2757611f26611eac565b5b8235905067ffffffffffffffff811115611f4457611f43611eb1565b5b602083019150836020820283011115611f6057611f5f611eb6565b5b9250929050565b600080600080600060608688031215611f8357611f82611b0c565b5b6000611f9188828901611dad565b955050602086013567ffffffffffffffff811115611fb257611fb1611b11565b5b611fbe88828901611ebb565b9450945050604086013567ffffffffffffffff811115611fe157611fe0611b11565b5b611fed88828901611f11565b92509250509295509295909350565b7f4e487b7100000000000000000000000000000000000000000000000000000000600052602260045260246000fd5b6000600282049050600182168061204357607f821691505b60208210810361205657612055611ffc565b5b50919050565b7f4747433a206e6f20616c6c6f636174696f6e0000000000000000000000000000600082015250565b6000612092601283611a65565b915061209d8261205c565b602082019050919050565b600060208201905081810360008301526120c181612085565b9050919050565b7f4747433a2076657374696e67206e6f7420737461727465640000000000000000600082015250565b60006120fe601883611a65565b9150612109826120c8565b602082019050919050565b6000602082019050818103600083015261212d816120f1565b9050919050565b7f4e487b7100000000000000000000000000000000000000000000000000000000600052601160045260246000fd5b600061216e82611b74565b915061217983611b74565b925082820390508181111561219157612190612134565b5b92915050565b60006121a282611b74565b91506121ad83611b74565b92508282026121bb81611b74565b915082820484148315176121d2576121d1612134565b5b5092915050565b60006121e482611b74565b91506121ef83611b74565b925082820190508082111561220757612206612134565b5b92915050565b7f4747433a206e6f7468696e6720746f20636c61696d0000000000000000000000600082015250565b6000612243601583611a65565b915061224e8261220d565b602082019050919050565b6000602082019050818103600083015261227281612236565b9050919050565b600060408201905061228e6000830185611c20565b61229b6020830184611c20565b9392505050565b7f4747433a206172726179206c656e677468206d69736d61746368000000000000600082015250565b60006122d8601a83611a65565b91506122e3826122a2565b602082019050919050565b60006020820190508181036000830152612307816122cb565b9050919050565b7f4e487b7100000000000000000000000000000000000000000000000000000000600052602160045260246000fd5b7f4e487b7100000000000000000000000000000000000000000000000000000000600052603260045260246000fd5b60008160011c9050919050565b6000808291508390505b60018511156123c35780860481111561239f5761239e612134565b5b60018516156123ae5780820291505b80810290506123bc8561236c565b9450612383565b94509492505050565b6000826123dc5760019050612498565b816123ea5760009050612498565b8160018114612400576002811461240a57612439565b6001915050612498565b60ff84111561241c5761241b612134565b5b8360020a91508482111561243357612432612134565b5b50612498565b5060208310610133831016604e8410600b841016171561246e5782820a90508381111561246957612468612134565b5b612498565b61247b8484846001612379565b9250905081840481111561249257612491612134565b5b81810290505b9392505050565b60006124aa82611b74565b91506124b583611c9d565b92506124e27fffffffffffffffffffffffffffffffffffffffffffffffffffffffffffffffff84846123cc565b905092915050565b7f4747433a207a65726f2062656e65666963696172790000000000000000000000600082015250565b6000612520601583611a65565b915061252b826124ea565b602082019050919050565b6000602082019050818103600083015261254f81612513565b9050919050565b7f4747433a20657863656564732063617465676f727920706f6f6c000000000000600082015250565b600061258c601a83611a65565b915061259782612556565b602082019050919050565b600060208201905081810360008301526125bb8161257f565b9050919050565b7f4747433a2062656e656669636961727920616c72656164792068617320616c6c60008201527f6f636174696f6e00000000000000000000000000000000000000000000000000602082015250565b600061261e602783611a65565b9150612629826125c2565b604082019050919050565b6000602082019050818103600083015261264d81612611565b9050919050565b7f4e487b7100000000000000000000000000000000000000000000000000000000600052601260045260246000fd5b600061268e82611b74565b915061269983611b74565b9250826126a9576126a8612654565b5b828204905092915050565b7f4747433a20696e76616c69642076657374696e67206475726174696f6e000000600082015250565b60006126ea601d83611a65565b91506126f5826126b4565b602082019050919050565b60006020820190508181036000830152612719816126dd565b9050919050565b600060c0820190506127356000830189611c20565b6127426020830188611c20565b61274f6040830187611c20565b61275c6060830186611c20565b6127696080830185611c20565b61277660a0830184611c20565b979650505050505050565b600061278c82611b74565b91507fffffffffffffffffffffffffffffffffffffffffffffffffffffffffffffffff82036127be576127bd612134565b5b600182019050919050565b7f4747433a206f6c64207a65726f00000000000000000000000000000000000000600082015250565b60006127ff600d83611a65565b915061280a826127c9565b602082019050919050565b6000602082019050818103600083015261282e816127f2565b9050919050565b7f4747433a206e6577207a65726f00000000000000000000000000000000000000600082015250565b600061286b600d83611a65565b915061287682612835565b602082019050919050565b6000602082019050818103600083015261289a8161285e565b9050919050565b7f4747433a206e6f20616c6c6f636174696f6e206f6c6400000000000000000000600082015250565b60006128d7601683611a65565b91506128e2826128a1565b602082019050919050565b60006020820190508181036000830152612906816128ca565b9050919050565b7f4747433a20616c6c6f636174696f6e20657869737473206e6577000000000000600082015250565b6000612943601a83611a65565b915061294e8261290d565b602082019050919050565b6000602082019050818103600083015261297281612936565b9050919050565b600060608201905061298e6000830186611e42565b61299b6020830185611c20565b6129a86040830184611c20565b94935050505056fea26469706673582212204bf10852c2bcc3e2771c59b104c545507ef82027a4a10557e70b4f6ec664350964736f6c63430008140033","opcodes":"PUSH1 0x80 PUSH1 0x40 MSTORE CALLVALUE DUP1 ISZERO PUSH3 0x11 JUMPI PUSH1 0x0 DUP1 REVERT JUMPDEST POP CALLER PUSH1 0x40 MLOAD DUP1 PUSH1 0x40 ADD PUSH1 0x40 MSTORE DUP1 PUSH1 0x12 DUP2 MSTORE PUSH1 0x20 ADD PUSH32 0x4772616E642047616E6773746120436974790000000000000000000000000000 DUP2 MSTORE POP PUSH1 0x40 MLOAD DUP1 PUSH1 0x40 ADD PUSH1 0x40 MSTORE DUP1 PUSH1 0x3 DUP2 MSTORE PUSH1 0x20 ADD PUSH32 0x4747430000000000000000000000000000000000000000000000000000000000 DUP2 MSTORE POP DUP2 PUSH1 0x3 SWAP1 DUP2 PUSH3 0x90 SWAP2 SWAP1 PUSH3 0x160B JUMP JUMPDEST POP DUP1 PUSH1 0x4 SWAP1 DUP2 PUSH3 0xA2 SWAP2 SWAP1 PUSH3 0x160B JUMP JUMPDEST POP POP POP PUSH1 0x0 PUSH20 0xFFFFFFFFFFFFFFFFFFFFFFFFFFFFFFFFFFFFFFFF AND DUP2 PUSH20 0xFFFFFFFFFFFFFFFFFFFFFFFFFFFFFFFFFFFFFFFF AND SUB PUSH3 0x11A JUMPI PUSH1 0x0 PUSH1 0x40 MLOAD PUSH32 0x1E4FBDF700000000000000000000000000000000000000000000000000000000 DUP2 MSTORE PUSH1 0x4 ADD PUSH3 0x111 SWAP2 SWAP1 PUSH3 0x1737 JUMP JUMPDEST PUSH1 0x40 MLOAD DUP1 SWAP2 SUB SWAP1 REVERT JUMPDEST PUSH3 0x12B DUP2 PUSH3 0x1005 PUSH1 0x20 SHL PUSH1 0x20 SHR JUMP JUMPDEST POP PUSH1 0x1 PUSH1 0x6 DUP2 SWAP1 SSTORE POP PUSH3 0x174 ADDRESS PUSH3 0x149 PUSH3 0x10CB PUSH1 0x20 SHL PUSH1 0x20 SHR JUMP JUMPDEST PUSH1 0xA PUSH3 0x157 SWAP2 SWAP1 PUSH3 0x18E4 JUMP JUMPDEST PUSH4 0x3B9ACA00 PUSH3 0x168 SWAP2 SWAP1 PUSH3 0x1935 JUMP JUMPDEST PUSH3 0x10D4 PUSH1 0x20 SHL PUSH1 0x20 SHR JUMP JUMPDEST PUSH1 0x40 MLOAD DUP1 PUSH1 0xA0 ADD PUSH1 0x40 MSTORE DUP1 PUSH3 0x18F PUSH3 0x10CB PUSH1 0x20 SHL PUSH1 0x20 SHR JUMP JUMPDEST PUSH1 0xA PUSH3 0x19D SWAP2 SWAP1 PUSH3 0x18E4 JUMP JUMPDEST PUSH4 0x9896800 PUSH3 0x1AE SWAP2 SWAP1 PUSH3 0x1935 JUMP JUMPDEST DUP2 MSTORE PUSH1 0x20 ADD PUSH1 0xA DUP2 MSTORE PUSH1 0x20 ADD PUSH1 0x3 DUP2 MSTORE PUSH1 0x20 ADD PUSH1 0xC DUP2 MSTORE PUSH1 0x20 ADD PUSH1 0x0 DUP2 MSTORE POP PUSH1 0x7 PUSH1 0x0 DUP1 PUSH1 0xA DUP2 GT ISZERO PUSH3 0x1E7 JUMPI PUSH3 0x1E6 PUSH3 0x1980 JUMP JUMPDEST JUMPDEST PUSH1 0xA DUP2 GT ISZERO PUSH3 0x1FC JUMPI PUSH3 0x1FB PUSH3 0x1980 JUMP JUMPDEST JUMPDEST DUP2 MSTORE PUSH1 0x20 ADD SWAP1 DUP2 MSTORE PUSH1 0x20 ADD PUSH1 0x0 KECCAK256 PUSH1 0x0 DUP3 ADD MLOAD DUP2 PUSH1 0x0 ADD SSTORE PUSH1 0x20 DUP3 ADD MLOAD DUP2 PUSH1 0x1 ADD SSTORE PUSH1 0x40 DUP3 ADD MLOAD DUP2 PUSH1 0x2 ADD SSTORE PUSH1 0x60 DUP3 ADD MLOAD DUP2 PUSH1 0x3 ADD SSTORE PUSH1 0x80 DUP3 ADD MLOAD DUP2 PUSH1 0x4 ADD SSTORE SWAP1 POP POP PUSH1 0x0 PUSH1 0xA DUP2 GT ISZERO PUSH3 0x256 JUMPI PUSH3 0x255 PUSH3 0x1980 JUMP JUMPDEST JUMPDEST PUSH32 0x40350CFCCE49FCB51C9BB71941687543F9CEC3A0CB63A18A1F42E879C9CD66DC PUSH3 0x287 PUSH3 0x10CB PUSH1 0x20 SHL PUSH1 0x20 SHR JUMP JUMPDEST PUSH1 0xA PUSH3 0x295 SWAP2 SWAP1 PUSH3 0x18E4 JUMP JUMPDEST PUSH4 0x9896800 PUSH3 0x2A6 SWAP2 SWAP1 PUSH3 0x1935 JUMP JUMPDEST PUSH1 0xA PUSH1 0x3 PUSH1 0xC PUSH1 0x40 MLOAD PUSH3 0x2BE SWAP5 SWAP4 SWAP3 SWAP2 SWAP1 PUSH3 0x1A89 JUMP JUMPDEST PUSH1 0x40 MLOAD DUP1 SWAP2 SUB SWAP1 LOG2 PUSH1 0x40 MLOAD DUP1 PUSH1 0xA0 ADD PUSH1 0x40 MSTORE DUP1 PUSH3 0x2E1 PUSH3 0x10CB PUSH1 0x20 SHL PUSH1 0x20 SHR JUMP JUMPDEST PUSH1 0xA PUSH3 0x2EF SWAP2 SWAP1 PUSH3 0x18E4 JUMP JUMPDEST PUSH4 0x2FAF080 PUSH3 0x300 SWAP2 SWAP1 PUSH3 0x1935 JUMP JUMPDEST DUP2 MSTORE PUSH1 0x20 ADD PUSH1 0xF DUP2 MSTORE PUSH1 0x20 ADD PUSH1 0x3 DUP2 MSTORE PUSH1 0x20 ADD PUSH1 0xC DUP2 MSTORE PUSH1 0x20 ADD PUSH1 0x0 DUP2 MSTORE POP PUSH1 0x7 PUSH1 0x0 PUSH1 0x1 PUSH1 0xA DUP2 GT ISZERO PUSH3 0x33A JUMPI PUSH3 0x339 PUSH3 0x1980 JUMP JUMPDEST JUMPDEST PUSH1 0xA DUP2 GT ISZERO PUSH3 0x34F JUMPI PUSH3 0x34E PUSH3 0x1980 JUMP JUMPDEST JUMPDEST DUP2 MSTORE PUSH1 0x20 ADD SWAP1 DUP2 MSTORE PUSH1 0x20 ADD PUSH1 0x0 KECCAK256 PUSH1 0x0 DUP3 ADD MLOAD DUP2 PUSH1 0x0 ADD SSTORE PUSH1 0x20 DUP3 ADD MLOAD DUP2 PUSH1 0x1 ADD SSTORE PUSH1 0x40 DUP3 ADD MLOAD DUP2 PUSH1 0x2 ADD SSTORE PUSH1 0x60 DUP3 ADD MLOAD DUP2 PUSH1 0x3 ADD SSTORE PUSH1 0x80 DUP3 ADD MLOAD DUP2 PUSH1 0x4 ADD SSTORE SWAP1 POP POP PUSH1 0x1 PUSH1 0xA DUP2 GT ISZERO PUSH3 0x3A9 JUMPI PUSH3 0x3A8 PUSH3 0x1980 JUMP JUMPDEST JUMPDEST PUSH32 0x40350CFCCE49FCB51C9BB71941687543F9CEC3A0CB63A18A1F42E879C9CD66DC PUSH3 0x3DA PUSH3 0x10CB PUSH1 0x20 SHL PUSH1 0x20 SHR JUMP JUMPDEST PUSH1 0xA PUSH3 0x3E8 SWAP2 SWAP1 PUSH3 0x18E4 JUMP JUMPDEST PUSH4 0x2FAF080 PUSH3 0x3F9 SWAP2 SWAP1 PUSH3 0x1935 JUMP JUMPDEST PUSH1 0xF PUSH1 0x3 PUSH1 0xC PUSH1 0x40 MLOAD PUSH3 0x411 SWAP5 SWAP4 SWAP3 SWAP2 SWAP1 PUSH3 0x1B19 JUMP JUMPDEST PUSH1 0x40 MLOAD DUP1 SWAP2 SUB SWAP1 LOG2 PUSH1 0x40 MLOAD DUP1 PUSH1 0xA0 ADD PUSH1 0x40 MSTORE DUP1 PUSH3 0x434 PUSH3 0x10CB PUSH1 0x20 SHL PUSH1 0x20 SHR JUMP JUMPDEST PUSH1 0xA PUSH3 0x442 SWAP2 SWAP1 PUSH3 0x18E4 JUMP JUMPDEST PUSH4 0x7BFA480 PUSH3 0x453 SWAP2 SWAP1 PUSH3 0x1935 JUMP JUMPDEST DUP2 MSTORE PUSH1 0x20 ADD PUSH1 0x28 DUP2 MSTORE PUSH1 0x20 ADD PUSH1 0x1 DUP2 MSTORE PUSH1 0x20 ADD PUSH1 0x4 DUP2 MSTORE PUSH1 0x20 ADD PUSH1 0x0 DUP2 MSTORE POP PUSH1 0x7 PUSH1 0x0 PUSH1 0x2 PUSH1 0xA DUP2 GT ISZERO PUSH3 0x48D JUMPI PUSH3 0x48C PUSH3 0x1980 JUMP JUMPDEST JUMPDEST PUSH1 0xA DUP2 GT ISZERO PUSH3 0x4A2 JUMPI PUSH3 0x4A1 PUSH3 0x1980 JUMP JUMPDEST JUMPDEST DUP2 MSTORE PUSH1 0x20 ADD SWAP1 DUP2 MSTORE PUSH1 0x20 ADD PUSH1 0x0 KECCAK256 PUSH1 0x0 DUP3 ADD MLOAD DUP2 PUSH1 0x0 ADD SSTORE PUSH1 0x20 DUP3 ADD MLOAD DUP2 PUSH1 0x1 ADD SSTORE PUSH1 0x40 DUP3 ADD MLOAD DUP2 PUSH1 0x2 ADD SSTORE PUSH1 0x60 DUP3 ADD MLOAD DUP2 PUSH1 0x3 ADD SSTORE PUSH1 0x80 DUP3 ADD MLOAD DUP2 PUSH1 0x4 ADD SSTORE SWAP1 POP POP PUSH1 0x2 PUSH1 0xA DUP2 GT ISZERO PUSH3 0x4FC JUMPI PUSH3 0x4FB PUSH3 0x1980 JUMP JUMPDEST JUMPDEST PUSH32 0x40350CFCCE49FCB51C9BB71941687543F9CEC3A0CB63A18A1F42E879C9CD66DC PUSH3 0x52D PUSH3 0x10CB PUSH1 0x20 SHL PUSH1 0x20 SHR JUMP JUMPDEST PUSH1 0xA PUSH3 0x53B SWAP2 SWAP1 PUSH3 0x18E4 JUMP JUMPDEST PUSH4 0x7BFA480 PUSH3 0x54C SWAP2 SWAP1 PUSH3 0x1935 JUMP JUMPDEST PUSH1 0x28 PUSH1 0x1 PUSH1 0x4 PUSH1 0x40 MLOAD PUSH3 0x564 SWAP5 SWAP4 SWAP3 SWAP2 SWAP1 PUSH3 0x1C2F JUMP JUMPDEST PUSH1 0x40 MLOAD DUP1 SWAP2 SUB SWAP1 LOG2 PUSH1 0x40 MLOAD DUP1 PUSH1 0xA0 ADD PUSH1 0x40 MSTORE DUP1 PUSH3 0x587 PUSH3 0x10CB PUSH1 0x20 SHL PUSH1 0x20 SHR JUMP JUMPDEST PUSH1 0xA PUSH3 0x595 SWAP2 SWAP1 PUSH3 0x18E4 JUMP JUMPDEST PUSH4 0x5F5E100 PUSH3 0x5A6 SWAP2 SWAP1 PUSH3 0x1935 JUMP JUMPDEST DUP2 MSTORE PUSH1 0x20 ADD PUSH1 0x0 DUP2 MSTORE PUSH1 0x20 ADD PUSH1 0x6 DUP2 MSTORE PUSH1 0x20 ADD PUSH1 0x24 DUP2 MSTORE PUSH1 0x20 ADD PUSH1 0x0 DUP2 MSTORE POP PUSH1 0x7 PUSH1 0x0 PUSH1 0x3 PUSH1 0xA DUP2 GT ISZERO PUSH3 0x5E0 JUMPI PUSH3 0x5DF PUSH3 0x1980 JUMP JUMPDEST JUMPDEST PUSH1 0xA DUP2 GT ISZERO PUSH3 0x5F5 JUMPI PUSH3 0x5F4 PUSH3 0x1980 JUMP JUMPDEST JUMPDEST DUP2 MSTORE PUSH1 0x20 ADD SWAP1 DUP2 MSTORE PUSH1 0x20 ADD PUSH1 0x0 KECCAK256 PUSH1 0x0 DUP3 ADD MLOAD DUP2 PUSH1 0x0 ADD SSTORE PUSH1 0x20 DUP3 ADD MLOAD DUP2 PUSH1 0x1 ADD SSTORE PUSH1 0x40 DUP3 ADD MLOAD DUP2 PUSH1 0x2 ADD SSTORE PUSH1 0x60 DUP3 ADD MLOAD DUP2 PUSH1 0x3 ADD SSTORE PUSH1 0x80 DUP3 ADD MLOAD DUP2 PUSH1 0x4 ADD SSTORE SWAP1 POP POP PUSH1 0x3 PUSH1 0xA DUP2 GT ISZERO PUSH3 0x64F JUMPI PUSH3 0x64E PUSH3 0x1980 JUMP JUMPDEST JUMPDEST PUSH32 0x40350CFCCE49FCB51C9BB71941687543F9CEC3A0CB63A18A1F42E879C9CD66DC PUSH3 0x680 PUSH3 0x10CB PUSH1 0x20 SHL PUSH1 0x20 SHR JUMP JUMPDEST PUSH1 0xA PUSH3 0x68E SWAP2 SWAP1 PUSH3 0x18E4 JUMP JUMPDEST PUSH4 0x5F5E100 PUSH3 0x69F SWAP2 SWAP1 PUSH3 0x1935 JUMP JUMPDEST PUSH1 0x0 PUSH1 0x6 PUSH1 0x24 PUSH1 0x40 MLOAD PUSH3 0x6B7 SWAP5 SWAP4 SWAP3 SWAP2 SWAP1 PUSH3 0x1D45 JUMP JUMPDEST PUSH1 0x40 MLOAD DUP1 SWAP2 SUB SWAP1 LOG2 PUSH1 0x40 MLOAD DUP1 PUSH1 0xA0 ADD PUSH1 0x40 MSTORE DUP1 PUSH3 0x6DA PUSH3 0x10CB PUSH1 0x20 SHL PUSH1 0x20 SHR JUMP JUMPDEST PUSH1 0xA PUSH3 0x6E8 SWAP2 SWAP1 PUSH3 0x18E4 JUMP JUMPDEST PUSH4 0x3938700 PUSH3 0x6F9 SWAP2 SWAP1 PUSH3 0x1935 JUMP JUMPDEST DUP2 MSTORE PUSH1 0x20 ADD PUSH1 0x5 DUP2 MSTORE PUSH1 0x20 ADD PUSH1 0x4 DUP2 MSTORE PUSH1 0x20 ADD PUSH1 0x18 DUP2 MSTORE PUSH1 0x20 ADD PUSH1 0x0 DUP2 MSTORE POP PUSH1 0x7 PUSH1 0x0 PUSH1 0x4 PUSH1 0xA DUP2 GT ISZERO PUSH3 0x733 JUMPI PUSH3 0x732 PUSH3 0x1980 JUMP JUMPDEST JUMPDEST PUSH1 0xA DUP2 GT ISZERO PUSH3 0x748 JUMPI PUSH3 0x747 PUSH3 0x1980 JUMP JUMPDEST JUMPDEST DUP2 MSTORE PUSH1 0x20 ADD SWAP1 DUP2 MSTORE PUSH1 0x20 ADD PUSH1 0x0 KECCAK256 PUSH1 0x0 DUP3 ADD MLOAD DUP2 PUSH1 0x0 ADD SSTORE PUSH1 0x20 DUP3 ADD MLOAD DUP2 PUSH1 0x1 ADD SSTORE PUSH1 0x40 DUP3 ADD MLOAD DUP2 PUSH1 0x2 ADD SSTORE PUSH1 0x60 DUP3 ADD MLOAD DUP2 PUSH1 0x3 ADD SSTORE PUSH1 0x80 DUP3 ADD MLOAD DUP2 PUSH1 0x4 ADD SSTORE SWAP1 POP POP PUSH1 0x4 PUSH1 0xA DUP2 GT ISZERO PUSH3 0x7A2 JUMPI PUSH3 0x7A1 PUSH3 0x1980 JUMP JUMPDEST JUMPDEST PUSH32 0x40350CFCCE49FCB51C9BB71941687543F9CEC3A0CB63A18A1F42E879C9CD66DC PUSH3 0x7D3 PUSH3 0x10CB PUSH1 0x20 SHL PUSH1 0x20 SHR JUMP JUMPDEST PUSH1 0xA PUSH3 0x7E1 SWAP2 SWAP1 PUSH3 0x18E4 JUMP JUMPDEST PUSH4 0x3938700 PUSH3 0x7F2 SWAP2 SWAP1 PUSH3 0x1935 JUMP JUMPDEST PUSH1 0x5 PUSH1 0x4 PUSH1 0x18 PUSH1 0x40 MLOAD PUSH3 0x80A SWAP5 SWAP4 SWAP3 SWAP2 SWAP1 PUSH3 0x1E18 JUMP JUMPDEST PUSH1 0x40 MLOAD DUP1 SWAP2 SUB SWAP1 LOG2 PUSH1 0x40 MLOAD DUP1 PUSH1 0xA0 ADD PUSH1 0x40 MSTORE DUP1 PUSH3 0x82D PUSH3 0x10CB PUSH1 0x20 SHL PUSH1 0x20 SHR JUMP JUMPDEST PUSH1 0xA PUSH3 0x83B SWAP2 SWAP1 PUSH3 0x18E4 JUMP JUMPDEST PUSH4 0x5F5E100 PUSH3 0x84C SWAP2 SWAP1 PUSH3 0x1935 JUMP JUMPDEST DUP2 MSTORE PUSH1 0x20 ADD PUSH1 0x3 DUP2 MSTORE PUSH1 0x20 ADD PUSH1 0x3 DUP2 MSTORE PUSH1 0x20 ADD PUSH1 0x30 DUP2 MSTORE PUSH1 0x20 ADD PUSH1 0x0 DUP2 MSTORE POP PUSH1 0x7 PUSH1 0x0 PUSH1 0x5 PUSH1 0xA DUP2 GT ISZERO PUSH3 0x886 JUMPI PUSH3 0x885 PUSH3 0x1980 JUMP JUMPDEST JUMPDEST PUSH1 0xA DUP2 GT ISZERO PUSH3 0x89B JUMPI PUSH3 0x89A PUSH3 0x1980 JUMP JUMPDEST JUMPDEST DUP2 MSTORE PUSH1 0x20 ADD SWAP1 DUP2 MSTORE PUSH1 0x20 ADD PUSH1 0x0 KECCAK256 PUSH1 0x0 DUP3 ADD MLOAD DUP2 PUSH1 0x0 ADD SSTORE PUSH1 0x20 DUP3 ADD MLOAD DUP2 PUSH1 0x1 ADD SSTORE PUSH1 0x40 DUP3 ADD MLOAD DUP2 PUSH1 0x2 ADD SSTORE PUSH1 0x60 DUP3 ADD MLOAD DUP2 PUSH1 0x3 ADD SSTORE PUSH1 0x80 DUP3 ADD MLOAD DUP2 PUSH1 0x4 ADD SSTORE SWAP1 POP POP PUSH1 0x5 PUSH1 0xA DUP2 GT ISZERO PUSH3 0x8F5 JUMPI PUSH3 0x8F4 PUSH3 0x1980 JUMP JUMPDEST JUMPDEST PUSH32 0x40350CFCCE49FCB51C9BB71941687543F9CEC3A0CB63A18A1F42E879C9CD66DC PUSH3 0x926 PUSH3 0x10CB PUSH1 0x20 SHL PUSH1 0x20 SHR JUMP JUMPDEST PUSH1 0xA PUSH3 0x934 SWAP2 SWAP1 PUSH3 0x18E4 JUMP JUMPDEST PUSH4 0x5F5E100 PUSH3 0x945 SWAP2 SWAP1 PUSH3 0x1935 JUMP JUMPDEST PUSH1 0x3 DUP1 PUSH1 0x30 PUSH1 0x40 MLOAD PUSH3 0x95C SWAP5 SWAP4 SWAP3 SWAP2 SWAP1 PUSH3 0x1EA8 JUMP JUMPDEST PUSH1 0x40 MLOAD DUP1 SWAP2 SUB SWAP1 LOG2 PUSH1 0x40 MLOAD DUP1 PUSH1 0xA0 ADD PUSH1 0x40 MSTORE DUP1 PUSH3 0x97F PUSH3 0x10CB PUSH1 0x20 SHL PUSH1 0x20 SHR JUMP JUMPDEST PUSH1 0xA PUSH3 0x98D SWAP2 SWAP1 PUSH3 0x18E4 JUMP JUMPDEST PUSH4 0x1312D00 PUSH3 0x99E SWAP2 SWAP1 PUSH3 0x1935 JUMP JUMPDEST DUP2 MSTORE PUSH1 0x20 ADD PUSH1 0xA DUP2 MSTORE PUSH1 0x20 ADD PUSH1 0x0 DUP2 MSTORE PUSH1 0x20 ADD PUSH1 0x5 DUP2 MSTORE PUSH1 0x20 ADD PUSH1 0x0 DUP2 MSTORE POP PUSH1 0x7 PUSH1 0x0 PUSH1 0x6 PUSH1 0xA DUP2 GT ISZERO PUSH3 0x9D8 JUMPI PUSH3 0x9D7 PUSH3 0x1980 JUMP JUMPDEST JUMPDEST PUSH1 0xA DUP2 GT ISZERO PUSH3 0x9ED JUMPI PUSH3 0x9EC PUSH3 0x1980 JUMP JUMPDEST JUMPDEST DUP2 MSTORE PUSH1 0x20 ADD SWAP1 DUP2 MSTORE PUSH1 0x20 ADD PUSH1 0x0 KECCAK256 PUSH1 0x0 DUP3 ADD MLOAD DUP2 PUSH1 0x0 ADD SSTORE PUSH1 0x20 DUP3 ADD MLOAD DUP2 PUSH1 0x1 ADD SSTORE PUSH1 0x40 DUP3 ADD MLOAD DUP2 PUSH1 0x2 ADD SSTORE PUSH1 0x60 DUP3 ADD MLOAD DUP2 PUSH1 0x3 ADD SSTORE PUSH1 0x80 DUP3 ADD MLOAD DUP2 PUSH1 0x4 ADD SSTORE SWAP1 POP POP PUSH1 0x6 PUSH1 0xA DUP2 GT ISZERO PUSH3 0xA47 JUMPI PUSH3 0xA46 PUSH3 0x1980 JUMP JUMPDEST JUMPDEST PUSH32 0x40350CFCCE49FCB51C9BB71941687543F9CEC3A0CB63A18A1F42E879C9CD66DC PUSH3 0xA78 PUSH3 0x10CB PUSH1 0x20 SHL PUSH1 0x20 SHR JUMP JUMPDEST PUSH1 0xA PUSH3 0xA86 SWAP2 SWAP1 PUSH3 0x18E4 JUMP JUMPDEST PUSH4 0x1312D00 PUSH3 0xA97 SWAP2 SWAP1 PUSH3 0x1935 JUMP JUMPDEST PUSH1 0xA PUSH1 0x0 PUSH1 0x5 PUSH1 0x40 MLOAD PUSH3 0xAAF SWAP5 SWAP4 SWAP3 SWAP2 SWAP1 PUSH3 0x1EF5 JUMP JUMPDEST PUSH1 0x40 MLOAD DUP1 SWAP2 SUB SWAP1 LOG2 PUSH1 0x40 MLOAD DUP1 PUSH1 0xA0 ADD PUSH1 0x40 MSTORE DUP1 PUSH3 0xAD2 PUSH3 0x10CB PUSH1 0x20 SHL PUSH1 0x20 SHR JUMP JUMPDEST PUSH1 0xA PUSH3 0xAE0 SWAP2 SWAP1 PUSH3 0x18E4 JUMP JUMPDEST PUSH4 0x1C9C380 PUSH3 0xAF1 SWAP2 SWAP1 PUSH3 0x1935 JUMP JUMPDEST DUP2 MSTORE PUSH1 0x20 ADD PUSH1 0x0 DUP2 MSTORE PUSH1 0x20 ADD PUSH1 0x8 DUP2 MSTORE PUSH1 0x20 ADD PUSH1 0x40 DUP2 MSTORE PUSH1 0x20 ADD PUSH1 0x0 DUP2 MSTORE POP PUSH1 0x7 PUSH1 0x0 PUSH1 0x7 PUSH1 0xA DUP2 GT ISZERO PUSH3 0xB2B JUMPI PUSH3 0xB2A PUSH3 0x1980 JUMP JUMPDEST JUMPDEST PUSH1 0xA DUP2 GT ISZERO PUSH3 0xB40 JUMPI PUSH3 0xB3F PUSH3 0x1980 JUMP JUMPDEST JUMPDEST DUP2 MSTORE PUSH1 0x20 ADD SWAP1 DUP2 MSTORE PUSH1 0x20 ADD PUSH1 0x0 KECCAK256 PUSH1 0x0 DUP3 ADD MLOAD DUP2 PUSH1 0x0 ADD SSTORE PUSH1 0x20 DUP3 ADD MLOAD DUP2 PUSH1 0x1 ADD SSTORE PUSH1 0x40 DUP3 ADD MLOAD DUP2 PUSH1 0x2 ADD SSTORE PUSH1 0x60 DUP3 ADD MLOAD DUP2 PUSH1 0x3 ADD SSTORE PUSH1 0x80 DUP3 ADD MLOAD DUP2 PUSH1 0x4 ADD SSTORE SWAP1 POP POP PUSH1 0x7 PUSH1 0xA DUP2 GT ISZERO PUSH3 0xB9A JUMPI PUSH3 0xB99 PUSH3 0x1980 JUMP JUMPDEST JUMPDEST PUSH32 0x40350CFCCE49FCB51C9BB71941687543F9CEC3A0CB63A18A1F42E879C9CD66DC PUSH3 0xBCB PUSH3 0x10CB PUSH1 0x20 SHL PUSH1 0x20 SHR JUMP JUMPDEST PUSH1 0xA PUSH3 0xBD9 SWAP2 SWAP1 PUSH3 0x18E4 JUMP JUMPDEST PUSH4 0x1C9C380 PUSH3 0xBEA SWAP2 SWAP1 PUSH3 0x1935 JUMP JUMPDEST PUSH1 0x0 PUSH1 0x8 PUSH1 0x40 DUP1 MLOAD PUSH3 0xC01 SWAP5 SWAP4 SWAP3 SWAP2 SWAP1 PUSH3 0x1FC8 JUMP JUMPDEST PUSH1 0x40 MLOAD DUP1 SWAP2 SUB SWAP1 LOG2 PUSH1 0x40 MLOAD DUP1 PUSH1 0xA0 ADD PUSH1 0x40 MSTORE DUP1 PUSH3 0xC24 PUSH3 0x10CB PUSH1 0x20 SHL PUSH1 0x20 SHR JUMP JUMPDEST PUSH1 0xA PUSH3 0xC32 SWAP2 SWAP1 PUSH3 0x18E4 JUMP JUMPDEST PUSH4 0x8F0D180 PUSH3 0xC43 SWAP2 SWAP1 PUSH3 0x1935 JUMP JUMPDEST DUP2 MSTORE PUSH1 0x20 ADD PUSH1 0x64 DUP2 MSTORE PUSH1 0x20 ADD PUSH1 0x0 DUP2 MSTORE PUSH1 0x20 ADD PUSH1 0x0 DUP2 MSTORE PUSH1 0x20 ADD PUSH1 0x0 DUP2 MSTORE POP PUSH1 0x7 PUSH1 0x0 PUSH1 0x8 PUSH1 0xA DUP2 GT ISZERO PUSH3 0xC7D JUMPI PUSH3 0xC7C PUSH3 0x1980 JUMP JUMPDEST JUMPDEST PUSH1 0xA DUP2 GT ISZERO PUSH3 0xC92 JUMPI PUSH3 0xC91 PUSH3 0x1980 JUMP JUMPDEST JUMPDEST DUP2 MSTORE PUSH1 0x20 ADD SWAP1 DUP2 MSTORE PUSH1 0x20 ADD PUSH1 0x0 KECCAK256 PUSH1 0x0 DUP3 ADD MLOAD DUP2 PUSH1 0x0 ADD SSTORE PUSH1 0x20 DUP3 ADD MLOAD DUP2 PUSH1 0x1 ADD SSTORE PUSH1 0x40 DUP3 ADD MLOAD DUP2 PUSH1 0x2 ADD SSTORE PUSH1 0x60 DUP3 ADD MLOAD DUP2 PUSH1 0x3 ADD SSTORE PUSH1 0x80 DUP3 ADD MLOAD DUP2 PUSH1 0x4 ADD SSTORE SWAP1 POP POP PUSH1 0x8 PUSH1 0xA DUP2 GT ISZERO PUSH3 0xCEC JUMPI PUSH3 0xCEB PUSH3 0x1980 JUMP JUMPDEST JUMPDEST PUSH32 0x40350CFCCE49FCB51C9BB71941687543F9CEC3A0CB63A18A1F42E879C9CD66DC PUSH3 0xD1D PUSH3 0x10CB PUSH1 0x20 SHL PUSH1 0x20 SHR JUMP JUMPDEST PUSH1 0xA PUSH3 0xD2B SWAP2 SWAP1 PUSH3 0x18E4 JUMP JUMPDEST PUSH4 0x8F0D180 PUSH3 0xD3C SWAP2 SWAP1 PUSH3 0x1935 JUMP JUMPDEST PUSH1 0x64 PUSH1 0x0 DUP1 PUSH1 0x40 MLOAD PUSH3 0xD53 SWAP5 SWAP4 SWAP3 SWAP2 SWAP1 PUSH3 0x2058 JUMP JUMPDEST PUSH1 0x40 MLOAD DUP1 SWAP2 SUB SWAP1 LOG2 PUSH1 0x40 MLOAD DUP1 PUSH1 0xA0 ADD PUSH1 0x40 MSTORE DUP1 PUSH3 0xD76 PUSH3 0x10CB PUSH1 0x20 SHL PUSH1 0x20 SHR JUMP JUMPDEST PUSH1 0xA PUSH3 0xD84 SWAP2 SWAP1 PUSH3 0x18E4 JUMP JUMPDEST PUSH4 0x8F0D180 PUSH3 0xD95 SWAP2 SWAP1 PUSH3 0x1935 JUMP JUMPDEST DUP2 MSTORE PUSH1 0x20 ADD PUSH1 0x1 DUP2 MSTORE PUSH1 0x20 ADD PUSH1 0x0 DUP2 MSTORE PUSH1 0x20 ADD PUSH1 0x48 DUP2 MSTORE PUSH1 0x20 ADD PUSH1 0x0 DUP2 MSTORE POP PUSH1 0x7 PUSH1 0x0 PUSH1 0x9 PUSH1 0xA DUP2 GT ISZERO PUSH3 0xDCF JUMPI PUSH3 0xDCE PUSH3 0x1980 JUMP JUMPDEST JUMPDEST PUSH1 0xA DUP2 GT ISZERO PUSH3 0xDE4 JUMPI PUSH3 0xDE3 PUSH3 0x1980 JUMP JUMPDEST JUMPDEST DUP2 MSTORE PUSH1 0x20 ADD SWAP1 DUP2 MSTORE PUSH1 0x20 ADD PUSH1 0x0 KECCAK256 PUSH1 0x0 DUP3 ADD MLOAD DUP2 PUSH1 0x0 ADD SSTORE PUSH1 0x20 DUP3 ADD MLOAD DUP2 PUSH1 0x1 ADD SSTORE PUSH1 0x40 DUP3 ADD MLOAD DUP2 PUSH1 0x2 ADD SSTORE PUSH1 0x60 DUP3 ADD MLOAD DUP2 PUSH1 0x3 ADD SSTORE PUSH1 0x80 DUP3 ADD MLOAD DUP2 PUSH1 0x4 ADD SSTORE SWAP1 POP POP PUSH1 0x9 PUSH1 0xA DUP2 GT ISZERO PUSH3 0xE3E JUMPI PUSH3 0xE3D PUSH3 0x1980 JUMP JUMPDEST JUMPDEST PUSH32 0x40350CFCCE49FCB51C9BB71941687543F9CEC3A0CB63A18A1F42E879C9CD66DC PUSH3 0xE6F PUSH3 0x10CB PUSH1 0x20 SHL PUSH1 0x20 SHR JUMP JUMPDEST PUSH1 0xA PUSH3 0xE7D SWAP2 SWAP1 PUSH3 0x18E4 JUMP JUMPDEST PUSH4 0x8F0D180 PUSH3 0xE8E SWAP2 SWAP1 PUSH3 0x1935 JUMP JUMPDEST PUSH1 0x1 PUSH1 0x0 PUSH1 0x48 PUSH1 0x40 MLOAD PUSH3 0xEA6 SWAP5 SWAP4 SWAP3 SWAP2 SWAP1 PUSH3 0x20E8 JUMP JUMPDEST PUSH1 0x40 MLOAD DUP1 SWAP2 SUB SWAP1 LOG2 PUSH1 0x40 MLOAD DUP1 PUSH1 0xA0 ADD PUSH1 0x40 MSTORE DUP1 PUSH3 0xEC9 PUSH3 0x10CB PUSH1 0x20 SHL PUSH1 0x20 SHR JUMP JUMPDEST PUSH1 0xA PUSH3 0xED7 SWAP2 SWAP1 PUSH3 0x18E4 JUMP JUMPDEST PUSH4 0x2FAF080 PUSH3 0xEE8 SWAP2 SWAP1 PUSH3 0x1935 JUMP JUMPDEST DUP2 MSTORE PUSH1 0x20 ADD PUSH1 0x0 DUP2 MSTORE PUSH1 0x20 ADD PUSH1 0x3 DUP2 MSTORE PUSH1 0x20 ADD PUSH1 0x24 DUP2 MSTORE PUSH1 0x20 ADD PUSH1 0x0 DUP2 MSTORE POP PUSH1 0x7 PUSH1 0x0 PUSH1 0xA DUP1 DUP2 GT ISZERO PUSH3 0xF21 JUMPI PUSH3 0xF20 PUSH3 0x1980 JUMP JUMPDEST JUMPDEST PUSH1 0xA DUP2 GT ISZERO PUSH3 0xF36 JUMPI PUSH3 0xF35 PUSH3 0x1980 JUMP JUMPDEST JUMPDEST DUP2 MSTORE PUSH1 0x20 ADD SWAP1 DUP2 MSTORE PUSH1 0x20 ADD PUSH1 0x0 KECCAK256 PUSH1 0x0 DUP3 ADD MLOAD DUP2 PUSH1 0x0 ADD SSTORE PUSH1 0x20 DUP3 ADD MLOAD DUP2 PUSH1 0x1 ADD SSTORE PUSH1 0x40 DUP3 ADD MLOAD DUP2 PUSH1 0x2 ADD SSTORE PUSH1 0x60 DUP3 ADD MLOAD DUP2 PUSH1 0x3 ADD SSTORE PUSH1 0x80 DUP3 ADD MLOAD DUP2 PUSH1 0x4 ADD SSTORE SWAP1 POP POP PUSH1 0xA DUP1 DUP2 GT ISZERO PUSH3 0xF8F JUMPI PUSH3 0xF8E PUSH3 0x1980 JUMP JUMPDEST JUMPDEST PUSH32 0x40350CFCCE49FCB51C9BB71941687543F9CEC3A0CB63A18A1F42E879C9CD66DC PUSH3 0xFC0 PUSH3 0x10CB PUSH1 0x20 SHL PUSH1 0x20 SHR JUMP JUMPDEST PUSH1 0xA PUSH3 0xFCE SWAP2 SWAP1 PUSH3 0x18E4 JUMP JUMPDEST PUSH4 0x2FAF080 PUSH3 0xFDF SWAP2 SWAP1 PUSH3 0x1935 JUMP JUMPDEST PUSH1 0x0 PUSH1 0x3 PUSH1 0x24 PUSH1 0x40 MLOAD PUSH3 0xFF7 SWAP5 SWAP4 SWAP3 SWAP2 SWAP1 PUSH3 0x2135 JUMP JUMPDEST PUSH1 0x40 MLOAD DUP1 SWAP2 SUB SWAP1 LOG2 PUSH3 0x2217 JUMP JUMPDEST PUSH1 0x0 PUSH1 0x5 PUSH1 0x0 SWAP1 SLOAD SWAP1 PUSH2 0x100 EXP SWAP1 DIV PUSH20 0xFFFFFFFFFFFFFFFFFFFFFFFFFFFFFFFFFFFFFFFF AND SWAP1 POP DUP2 PUSH1 0x5 PUSH1 0x0 PUSH2 0x100 EXP DUP2 SLOAD DUP2 PUSH20 0xFFFFFFFFFFFFFFFFFFFFFFFFFFFFFFFFFFFFFFFF MUL NOT AND SWAP1 DUP4 PUSH20 0xFFFFFFFFFFFFFFFFFFFFFFFFFFFFFFFFFFFFFFFF AND MUL OR SWAP1 SSTORE POP DUP2 PUSH20 0xFFFFFFFFFFFFFFFFFFFFFFFFFFFFFFFFFFFFFFFF AND DUP2 PUSH20 0xFFFFFFFFFFFFFFFFFFFFFFFFFFFFFFFFFFFFFFFF AND PUSH32 0x8BE0079C531659141344CD1FD0A4F28419497F9722A3DAAFE3B4186F6B6457E0 PUSH1 0x40 MLOAD PUSH1 0x40 MLOAD DUP1 SWAP2 SUB SWAP1 LOG3 POP POP JUMP JUMPDEST PUSH1 0x0 PUSH1 0x12 SWAP1 POP SWAP1 JUMP JUMPDEST PUSH1 0x0 PUSH20 0xFFFFFFFFFFFFFFFFFFFFFFFFFFFFFFFFFFFFFFFF AND DUP3 PUSH20 0xFFFFFFFFFFFFFFFFFFFFFFFFFFFFFFFFFFFFFFFF AND SUB PUSH3 0x1149 JUMPI PUSH1 0x0 PUSH1 0x40 MLOAD PUSH32 0xEC442F0500000000000000000000000000000000000000000000000000000000 DUP2 MSTORE PUSH1 0x4 ADD PUSH3 0x1140 SWAP2 SWAP1 PUSH3 0x1737 JUMP JUMPDEST PUSH1 0x40 MLOAD DUP1 SWAP2 SUB SWAP1 REVERT JUMPDEST PUSH3 0x115D PUSH1 0x0 DUP4 DUP4 PUSH3 0x1161 PUSH1 0x20 SHL PUSH1 0x20 SHR JUMP JUMPDEST POP POP JUMP JUMPDEST PUSH1 0x0 PUSH20 0xFFFFFFFFFFFFFFFFFFFFFFFFFFFFFFFFFFFFFFFF AND DUP4 PUSH20 0xFFFFFFFFFFFFFFFFFFFFFFFFFFFFFFFFFFFFFFFF AND SUB PUSH3 0x11B7 JUMPI DUP1 PUSH1 0x2 PUSH1 0x0 DUP3 DUP3 SLOAD PUSH3 0x11AA SWAP2 SWAP1 PUSH3 0x2182 JUMP JUMPDEST SWAP3 POP POP DUP2 SWAP1 SSTORE POP PUSH3 0x128D JUMP JUMPDEST PUSH1 0x0 DUP1 PUSH1 0x0 DUP6 PUSH20 0xFFFFFFFFFFFFFFFFFFFFFFFFFFFFFFFFFFFFFFFF AND PUSH20 0xFFFFFFFFFFFFFFFFFFFFFFFFFFFFFFFFFFFFFFFF AND DUP2 MSTORE PUSH1 0x20 ADD SWAP1 DUP2 MSTORE PUSH1 0x20 ADD PUSH1 0x0 KECCAK256 SLOAD SWAP1 POP DUP2 DUP2 LT ISZERO PUSH3 0x1246 JUMPI DUP4 DUP2 DUP4 PUSH1 0x40 MLOAD PUSH32 0xE450D38C00000000000000000000000000000000000000000000000000000000 DUP2 MSTORE PUSH1 0x4 ADD PUSH3 0x123D SWAP4 SWAP3 SWAP2 SWAP1 PUSH3 0x21BD JUMP JUMPDEST PUSH1 0x40 MLOAD DUP1 SWAP2 SUB SWAP1 REVERT JUMPDEST DUP2 DUP2 SUB PUSH1 0x0 DUP1 DUP7 PUSH20 0xFFFFFFFFFFFFFFFFFFFFFFFFFFFFFFFFFFFFFFFF AND PUSH20 0xFFFFFFFFFFFFFFFFFFFFFFFFFFFFFFFFFFFFFFFF AND DUP2 MSTORE PUSH1 0x20 ADD SWAP1 DUP2 MSTORE PUSH1 0x20 ADD PUSH1 0x0 KECCAK256 DUP2 SWAP1 SSTORE POP POP JUMPDEST PUSH1 0x0 PUSH20 0xFFFFFFFFFFFFFFFFFFFFFFFFFFFFFFFFFFFFFFFF AND DUP3 PUSH20 0xFFFFFFFFFFFFFFFFFFFFFFFFFFFFFFFFFFFFFFFF AND SUB PUSH3 0x12D8 JUMPI DUP1 PUSH1 0x2 PUSH1 0x0 DUP3 DUP3 SLOAD SUB SWAP3 POP POP DUP2 SWAP1 SSTORE POP PUSH3 0x1325 JUMP JUMPDEST DUP1 PUSH1 0x0 DUP1 DUP5 PUSH20 0xFFFFFFFFFFFFFFFFFFFFFFFFFFFFFFFFFFFFFFFF AND PUSH20 0xFFFFFFFFFFFFFFFFFFFFFFFFFFFFFFFFFFFFFFFF AND DUP2 MSTORE PUSH1 0x20 ADD SWAP1 DUP2 MSTORE PUSH1 0x20 ADD PUSH1 0x0 KECCAK256 PUSH1 0x0 DUP3 DUP3 SLOAD ADD SWAP3 POP POP DUP2 SWAP1 SSTORE POP JUMPDEST DUP2 PUSH20 0xFFFFFFFFFFFFFFFFFFFFFFFFFFFFFFFFFFFFFFFF AND DUP4 PUSH20 0xFFFFFFFFFFFFFFFFFFFFFFFFFFFFFFFFFFFFFFFF AND PUSH32 0xDDF252AD1BE2C89B69C2B068FC378DAA952BA7F163C4A11628F55A4DF523B3EF DUP4 PUSH1 0x40 MLOAD PUSH3 0x1384 SWAP2 SWAP1 PUSH3 0x21FA JUMP JUMPDEST PUSH1 0x40 MLOAD DUP1 SWAP2 SUB SWAP1 LOG3 POP POP POP JUMP JUMPDEST PUSH1 0x0 DUP2 MLOAD SWAP1 POP SWAP2 SWAP1 POP JUMP JUMPDEST PUSH32 0x4E487B7100000000000000000000000000000000000000000000000000000000 PUSH1 0x0 MSTORE PUSH1 0x41 PUSH1 0x4 MSTORE PUSH1 0x24 PUSH1 0x0 REVERT JUMPDEST PUSH32 0x4E487B7100000000000000000000000000000000000000000000000000000000 PUSH1 0x0 MSTORE PUSH1 0x22 PUSH1 0x4 MSTORE PUSH1 0x24 PUSH1 0x0 REVERT JUMPDEST PUSH1 0x0 PUSH1 0x2 DUP3 DIV SWAP1 POP PUSH1 0x1 DUP3 AND DUP1 PUSH3 0x1413 JUMPI PUSH1 0x7F DUP3 AND SWAP2 POP JUMPDEST PUSH1 0x20 DUP3 LT DUP2 SUB PUSH3 0x1429 JUMPI PUSH3 0x1428 PUSH3 0x13CB JUMP JUMPDEST JUMPDEST POP SWAP2 SWAP1 POP JUMP JUMPDEST PUSH1 0x0 DUP2 SWAP1 POP DUP2 PUSH1 0x0 MSTORE PUSH1 0x20 PUSH1 0x0 KECCAK256 SWAP1 POP SWAP2 SWAP1 POP JUMP JUMPDEST PUSH1 0x0 PUSH1 0x20 PUSH1 0x1F DUP4 ADD DIV SWAP1 POP SWAP2 SWAP1 POP JUMP JUMPDEST PUSH1 0x0 DUP3 DUP3 SHL SWAP1 POP SWAP3 SWAP2 POP POP JUMP JUMPDEST PUSH1 0x0 PUSH1 0x8 DUP4 MUL PUSH3 0x1493 PUSH32 0xFFFFFFFFFFFFFFFFFFFFFFFFFFFFFFFFFFFFFFFFFFFFFFFFFFFFFFFFFFFFFFFF DUP3 PUSH3 0x1454 JUMP JUMPDEST PUSH3 0x149F DUP7 DUP4 PUSH3 0x1454 JUMP JUMPDEST SWAP6 POP DUP1 NOT DUP5 AND SWAP4 POP DUP1 DUP7 AND DUP5 OR SWAP3 POP POP POP SWAP4 SWAP3 POP POP POP JUMP JUMPDEST PUSH1 0x0 DUP2 SWAP1 POP SWAP2 SWAP1 POP JUMP JUMPDEST PUSH1 0x0 DUP2 SWAP1 POP SWAP2 SWAP1 POP JUMP JUMPDEST PUSH1 0x0 PUSH3 0x14EC PUSH3 0x14E6 PUSH3 0x14E0 DUP5 PUSH3 0x14B7 JUMP JUMPDEST PUSH3 0x14C1 JUMP JUMPDEST PUSH3 0x14B7 JUMP JUMPDEST SWAP1 POP SWAP2 SWAP1 POP JUMP JUMPDEST PUSH1 0x0 DUP2 SWAP1 POP SWAP2 SWAP1 POP JUMP JUMPDEST PUSH3 0x1508 DUP4 PUSH3 0x14CB JUMP JUMPDEST PUSH3 0x1520 PUSH3 0x1517 DUP3 PUSH3 0x14F3 JUMP JUMPDEST DUP5 DUP5 SLOAD PUSH3 0x1461 JUMP JUMPDEST DUP3 SSTORE POP POP POP POP JUMP JUMPDEST PUSH1 0x0 SWAP1 JUMP JUMPDEST PUSH3 0x1537 PUSH3 0x1528 JUMP JUMPDEST PUSH3 0x1544 DUP2 DUP5 DUP5 PUSH3 0x14FD JUMP JUMPDEST POP POP POP JUMP JUMPDEST JUMPDEST DUP2 DUP2 LT ISZERO PUSH3 0x156C JUMPI PUSH3 0x1560 PUSH1 0x0 DUP3 PUSH3 0x152D JUMP JUMPDEST PUSH1 0x1 DUP2 ADD SWAP1 POP PUSH3 0x154A JUMP JUMPDEST POP POP JUMP JUMPDEST PUSH1 0x1F DUP3 GT ISZERO PUSH3 0x15BB JUMPI PUSH3 0x1585 DUP2 PUSH3 0x142F JUMP JUMPDEST PUSH3 0x1590 DUP5 PUSH3 0x1444 JUMP JUMPDEST DUP2 ADD PUSH1 0x20 DUP6 LT ISZERO PUSH3 0x15A0 JUMPI DUP2 SWAP1 POP JUMPDEST PUSH3 0x15B8 PUSH3 0x15AF DUP6 PUSH3 0x1444 JUMP JUMPDEST DUP4 ADD DUP3 PUSH3 0x1549 JUMP JUMPDEST POP POP JUMPDEST POP POP POP JUMP JUMPDEST PUSH1 0x0 DUP3 DUP3 SHR SWAP1 POP SWAP3 SWAP2 POP POP JUMP JUMPDEST PUSH1 0x0 PUSH3 0x15E0 PUSH1 0x0 NOT DUP5 PUSH1 0x8 MUL PUSH3 0x15C0 JUMP JUMPDEST NOT DUP1 DUP4 AND SWAP2 POP POP SWAP3 SWAP2 POP POP JUMP JUMPDEST PUSH1 0x0 PUSH3 0x15FB DUP4 DUP4 PUSH3 0x15CD JUMP JUMPDEST SWAP2 POP DUP3 PUSH1 0x2 MUL DUP3 OR SWAP1 POP SWAP3 SWAP2 POP POP JUMP JUMPDEST PUSH3 0x1616 DUP3 PUSH3 0x1391 JUMP JUMPDEST PUSH8 0xFFFFFFFFFFFFFFFF DUP2 GT ISZERO PUSH3 0x1632 JUMPI PUSH3 0x1631 PUSH3 0x139C JUMP JUMPDEST JUMPDEST PUSH3 0x163E DUP3 SLOAD PUSH3 0x13FA JUMP JUMPDEST PUSH3 0x164B DUP3 DUP3 DUP6 PUSH3 0x1570 JUMP JUMPDEST PUSH1 0x0 PUSH1 0x20 SWAP1 POP PUSH1 0x1F DUP4 GT PUSH1 0x1 DUP2 EQ PUSH3 0x1683 JUMPI PUSH1 0x0 DUP5 ISZERO PUSH3 0x166E JUMPI DUP3 DUP8 ADD MLOAD SWAP1 POP JUMPDEST PUSH3 0x167A DUP6 DUP3 PUSH3 0x15ED JUMP JUMPDEST DUP7 SSTORE POP PUSH3 0x16EA JUMP JUMPDEST PUSH1 0x1F NOT DUP5 AND PUSH3 0x1693 DUP7 PUSH3 0x142F JUMP JUMPDEST PUSH1 0x0 JUMPDEST DUP3 DUP2 LT ISZERO PUSH3 0x16BD JUMPI DUP5 DUP10 ADD MLOAD DUP3 SSTORE PUSH1 0x1 DUP3 ADD SWAP2 POP PUSH1 0x20 DUP6 ADD SWAP5 POP PUSH1 0x20 DUP2 ADD SWAP1 POP PUSH3 0x1696 JUMP JUMPDEST DUP7 DUP4 LT ISZERO PUSH3 0x16DD JUMPI DUP5 DUP10 ADD MLOAD PUSH3 0x16D9 PUSH1 0x1F DUP10 AND DUP3 PUSH3 0x15CD JUMP JUMPDEST DUP4 SSTORE POP JUMPDEST PUSH1 0x1 PUSH1 0x2 DUP9 MUL ADD DUP9 SSTORE POP POP POP JUMPDEST POP POP POP POP POP POP JUMP JUMPDEST PUSH1 0x0 PUSH20 0xFFFFFFFFFFFFFFFFFFFFFFFFFFFFFFFFFFFFFFFF DUP3 AND SWAP1 POP SWAP2 SWAP1 POP JUMP JUMPDEST PUSH1 0x0 PUSH3 0x171F DUP3 PUSH3 0x16F2 JUMP JUMPDEST SWAP1 POP SWAP2 SWAP1 POP JUMP JUMPDEST PUSH3 0x1731 DUP2 PUSH3 0x1712 JUMP JUMPDEST DUP3 MSTORE POP POP JUMP JUMPDEST PUSH1 0x0 PUSH1 0x20 DUP3 ADD SWAP1 POP PUSH3 0x174E PUSH1 0x0 DUP4 ADD DUP5 PUSH3 0x1726 JUMP JUMPDEST SWAP3 SWAP2 POP POP JUMP JUMPDEST PUSH32 0x4E487B7100000000000000000000000000000000000000000000000000000000 PUSH1 0x0 MSTORE PUSH1 0x11 PUSH1 0x4 MSTORE PUSH1 0x24 PUSH1 0x0 REVERT JUMPDEST PUSH1 0x0 DUP2 PUSH1 0x1 SHR SWAP1 POP SWAP2 SWAP1 POP JUMP JUMPDEST PUSH1 0x0 DUP1 DUP3 SWAP2 POP DUP4 SWAP1 POP JUMPDEST PUSH1 0x1 DUP6 GT ISZERO PUSH3 0x17E2 JUMPI DUP1 DUP7 DIV DUP2 GT ISZERO PUSH3 0x17BA JUMPI PUSH3 0x17B9 PUSH3 0x1754 JUMP JUMPDEST JUMPDEST PUSH1 0x1 DUP6 AND ISZERO PUSH3 0x17CA JUMPI DUP1 DUP3 MUL SWAP2 POP JUMPDEST DUP1 DUP2 MUL SWAP1 POP PUSH3 0x17DA DUP6 PUSH3 0x1783 JUMP JUMPDEST SWAP5 POP PUSH3 0x179A JUMP JUMPDEST SWAP5 POP SWAP5 SWAP3 POP POP POP JUMP JUMPDEST PUSH1 0x0 DUP3 PUSH3 0x17FD JUMPI PUSH1 0x1 SWAP1 POP PUSH3 0x18D0 JUMP JUMPDEST DUP2 PUSH3 0x180D JUMPI PUSH1 0x0 SWAP1 POP PUSH3 0x18D0 JUMP JUMPDEST DUP2 PUSH1 0x1 DUP2 EQ PUSH3 0x1826 JUMPI PUSH1 0x2 DUP2 EQ PUSH3 0x1831 JUMPI PUSH3 0x1867 JUMP JUMPDEST PUSH1 0x1 SWAP2 POP POP PUSH3 0x18D0 JUMP JUMPDEST PUSH1 0xFF DUP5 GT ISZERO PUSH3 0x1846 JUMPI PUSH3 0x1845 PUSH3 0x1754 JUMP JUMPDEST JUMPDEST DUP4 PUSH1 0x2 EXP SWAP2 POP DUP5 DUP3 GT ISZERO PUSH3 0x1860 JUMPI PUSH3 0x185F PUSH3 0x1754 JUMP JUMPDEST JUMPDEST POP PUSH3 0x18D0 JUMP JUMPDEST POP PUSH1 0x20 DUP4 LT PUSH2 0x133 DUP4 LT AND PUSH1 0x4E DUP5 LT PUSH1 0xB DUP5 LT AND OR ISZERO PUSH3 0x18A1 JUMPI DUP3 DUP3 EXP SWAP1 POP DUP4 DUP2 GT ISZERO PUSH3 0x189B JUMPI PUSH3 0x189A PUSH3 0x1754 JUMP JUMPDEST JUMPDEST PUSH3 0x18D0 JUMP JUMPDEST PUSH3 0x18B0 DUP5 DUP5 DUP5 PUSH1 0x1 PUSH3 0x1790 JUMP JUMPDEST SWAP3 POP SWAP1 POP DUP2 DUP5 DIV DUP2 GT ISZERO PUSH3 0x18CA JUMPI PUSH3 0x18C9 PUSH3 0x1754 JUMP JUMPDEST JUMPDEST DUP2 DUP2 MUL SWAP1 POP JUMPDEST SWAP4 SWAP3 POP POP POP JUMP JUMPDEST PUSH1 0x0 PUSH1 0xFF DUP3 AND SWAP1 POP SWAP2 SWAP1 POP JUMP JUMPDEST PUSH1 0x0 PUSH3 0x18F1 DUP3 PUSH3 0x14B7 JUMP JUMPDEST SWAP2 POP PUSH3 0x18FE DUP4 PUSH3 0x18D7 JUMP JUMPDEST SWAP3 POP PUSH3 0x192D PUSH32 0xFFFFFFFFFFFFFFFFFFFFFFFFFFFFFFFFFFFFFFFFFFFFFFFFFFFFFFFFFFFFFFFF DUP5 DUP5 PUSH3 0x17EB JUMP JUMPDEST SWAP1 POP SWAP3 SWAP2 POP POP JUMP JUMPDEST PUSH1 0x0 PUSH3 0x1942 DUP3 PUSH3 0x14B7 JUMP JUMPDEST SWAP2 POP PUSH3 0x194F DUP4 PUSH3 0x14B7 JUMP JUMPDEST SWAP3 POP DUP3 DUP3 MUL PUSH3 0x195F DUP2 PUSH3 0x14B7 JUMP JUMPDEST SWAP2 POP DUP3 DUP3 DIV DUP5 EQ DUP4 ISZERO OR PUSH3 0x1979 JUMPI PUSH3 0x1978 PUSH3 0x1754 JUMP JUMPDEST JUMPDEST POP SWAP3 SWAP2 POP POP JUMP JUMPDEST PUSH32 0x4E487B7100000000000000000000000000000000000000000000000000000000 PUSH1 0x0 MSTORE PUSH1 0x21 PUSH1 0x4 MSTORE PUSH1 0x24 PUSH1 0x0 REVERT JUMPDEST PUSH3 0x19BA DUP2 PUSH3 0x14B7 JUMP JUMPDEST DUP3 MSTORE POP POP JUMP JUMPDEST PUSH1 0x0 DUP2 SWAP1 POP SWAP2 SWAP1 POP JUMP JUMPDEST PUSH1 0x0 PUSH3 0x19EB PUSH3 0x19E5 PUSH3 0x19DF DUP5 PUSH3 0x19C0 JUMP JUMPDEST PUSH3 0x14C1 JUMP JUMPDEST PUSH3 0x14B7 JUMP JUMPDEST SWAP1 POP SWAP2 SWAP1 POP JUMP JUMPDEST PUSH3 0x19FD DUP2 PUSH3 0x19CA JUMP JUMPDEST DUP3 MSTORE POP POP JUMP JUMPDEST PUSH1 0x0 DUP2 SWAP1 POP SWAP2 SWAP1 POP JUMP JUMPDEST PUSH1 0x0 PUSH3 0x1A2E PUSH3 0x1A28 PUSH3 0x1A22 DUP5 PUSH3 0x1A03 JUMP JUMPDEST PUSH3 0x14C1 JUMP JUMPDEST PUSH3 0x14B7 JUMP JUMPDEST SWAP1 POP SWAP2 SWAP1 POP JUMP JUMPDEST PUSH3 0x1A40 DUP2 PUSH3 0x1A0D JUMP JUMPDEST DUP3 MSTORE POP POP JUMP JUMPDEST PUSH1 0x0 DUP2 SWAP1 POP SWAP2 SWAP1 POP JUMP JUMPDEST PUSH1 0x0 PUSH3 0x1A71 PUSH3 0x1A6B PUSH3 0x1A65 DUP5 PUSH3 0x1A46 JUMP JUMPDEST PUSH3 0x14C1 JUMP JUMPDEST PUSH3 0x14B7 JUMP JUMPDEST SWAP1 POP SWAP2 SWAP1 POP JUMP JUMPDEST PUSH3 0x1A83 DUP2 PUSH3 0x1A50 JUMP JUMPDEST DUP3 MSTORE POP POP JUMP JUMPDEST PUSH1 0x0 PUSH1 0x80 DUP3 ADD SWAP1 POP PUSH3 0x1AA0 PUSH1 0x0 DUP4 ADD DUP8 PUSH3 0x19AF JUMP JUMPDEST PUSH3 0x1AAF PUSH1 0x20 DUP4 ADD DUP7 PUSH3 0x19F2 JUMP JUMPDEST PUSH3 0x1ABE PUSH1 0x40 DUP4 ADD DUP6 PUSH3 0x1A35 JUMP JUMPDEST PUSH3 0x1ACD PUSH1 0x60 DUP4 ADD DUP5 PUSH3 0x1A78 JUMP JUMPDEST SWAP6 SWAP5 POP POP POP POP POP JUMP JUMPDEST PUSH1 0x0 DUP2 SWAP1 POP SWAP2 SWAP1 POP JUMP JUMPDEST PUSH1 0x0 PUSH3 0x1B01 PUSH3 0x1AFB PUSH3 0x1AF5 DUP5 PUSH3 0x1AD6 JUMP JUMPDEST PUSH3 0x14C1 JUMP JUMPDEST PUSH3 0x14B7 JUMP JUMPDEST SWAP1 POP SWAP2 SWAP1 POP JUMP JUMPDEST PUSH3 0x1B13 DUP2 PUSH3 0x1AE0 JUMP JUMPDEST DUP3 MSTORE POP POP JUMP JUMPDEST PUSH1 0x0 PUSH1 0x80 DUP3 ADD SWAP1 POP PUSH3 0x1B30 PUSH1 0x0 DUP4 ADD DUP8 PUSH3 0x19AF JUMP JUMPDEST PUSH3 0x1B3F PUSH1 0x20 DUP4 ADD DUP7 PUSH3 0x1B08 JUMP JUMPDEST PUSH3 0x1B4E PUSH1 0x40 DUP4 ADD DUP6 PUSH3 0x1A35 JUMP JUMPDEST PUSH3 0x1B5D PUSH1 0x60 DUP4 ADD DUP5 PUSH3 0x1A78 JUMP JUMPDEST SWAP6 SWAP5 POP POP POP POP POP JUMP JUMPDEST PUSH1 0x0 DUP2 SWAP1 POP SWAP2 SWAP1 POP JUMP JUMPDEST PUSH1 0x0 PUSH3 0x1B91 PUSH3 0x1B8B PUSH3 0x1B85 DUP5 PUSH3 0x1B66 JUMP JUMPDEST PUSH3 0x14C1 JUMP JUMPDEST PUSH3 0x14B7 JUMP JUMPDEST SWAP1 POP SWAP2 SWAP1 POP JUMP JUMPDEST PUSH3 0x1BA3 DUP2 PUSH3 0x1B70 JUMP JUMPDEST DUP3 MSTORE POP POP JUMP JUMPDEST PUSH1 0x0 DUP2 SWAP1 POP SWAP2 SWAP1 POP JUMP JUMPDEST PUSH1 0x0 PUSH3 0x1BD4 PUSH3 0x1BCE PUSH3 0x1BC8 DUP5 PUSH3 0x1BA9 JUMP JUMPDEST PUSH3 0x14C1 JUMP JUMPDEST PUSH3 0x14B7 JUMP JUMPDEST SWAP1 POP SWAP2 SWAP1 POP JUMP JUMPDEST PUSH3 0x1BE6 DUP2 PUSH3 0x1BB3 JUMP JUMPDEST DUP3 MSTORE POP POP JUMP JUMPDEST PUSH1 0x0 DUP2 SWAP1 POP SWAP2 SWAP1 POP JUMP JUMPDEST PUSH1 0x0 PUSH3 0x1C17 PUSH3 0x1C11 PUSH3 0x1C0B DUP5 PUSH3 0x1BEC JUMP JUMPDEST PUSH3 0x14C1 JUMP JUMPDEST PUSH3 0x14B7 JUMP JUMPDEST SWAP1 POP SWAP2 SWAP1 POP JUMP JUMPDEST PUSH3 0x1C29 DUP2 PUSH3 0x1BF6 JUMP JUMPDEST DUP3 MSTORE POP POP JUMP JUMPDEST PUSH1 0x0 PUSH1 0x80 DUP3 ADD SWAP1 POP PUSH3 0x1C46 PUSH1 0x0 DUP4 ADD DUP8 PUSH3 0x19AF JUMP JUMPDEST PUSH3 0x1C55 PUSH1 0x20 DUP4 ADD DUP7 PUSH3 0x1B98 JUMP JUMPDEST PUSH3 0x1C64 PUSH1 0x40 DUP4 ADD DUP6 PUSH3 0x1BDB JUMP JUMPDEST PUSH3 0x1C73 PUSH1 0x60 DUP4 ADD DUP5 PUSH3 0x1C1E JUMP JUMPDEST SWAP6 SWAP5 POP POP POP POP POP JUMP JUMPDEST PUSH1 0x0 DUP2 SWAP1 POP SWAP2 SWAP1 POP JUMP JUMPDEST PUSH1 0x0 PUSH3 0x1CA7 PUSH3 0x1CA1 PUSH3 0x1C9B DUP5 PUSH3 0x1C7C JUMP JUMPDEST PUSH3 0x14C1 JUMP JUMPDEST PUSH3 0x14B7 JUMP JUMPDEST SWAP1 POP SWAP2 SWAP1 POP JUMP JUMPDEST PUSH3 0x1CB9 DUP2 PUSH3 0x1C86 JUMP JUMPDEST DUP3 MSTORE POP POP JUMP JUMPDEST PUSH1 0x0 DUP2 SWAP1 POP SWAP2 SWAP1 POP JUMP JUMPDEST PUSH1 0x0 PUSH3 0x1CEA PUSH3 0x1CE4 PUSH3 0x1CDE DUP5 PUSH3 0x1CBF JUMP JUMPDEST PUSH3 0x14C1 JUMP JUMPDEST PUSH3 0x14B7 JUMP JUMPDEST SWAP1 POP SWAP2 SWAP1 POP JUMP JUMPDEST PUSH3 0x1CFC DUP2 PUSH3 0x1CC9 JUMP JUMPDEST DUP3 MSTORE POP POP JUMP JUMPDEST PUSH1 0x0 DUP2 SWAP1 POP SWAP2 SWAP1 POP JUMP JUMPDEST PUSH1 0x0 PUSH3 0x1D2D PUSH3 0x1D27 PUSH3 0x1D21 DUP5 PUSH3 0x1D02 JUMP JUMPDEST PUSH3 0x14C1 JUMP JUMPDEST PUSH3 0x14B7 JUMP JUMPDEST SWAP1 POP SWAP2 SWAP1 POP JUMP JUMPDEST PUSH3 0x1D3F DUP2 PUSH3 0x1D0C JUMP JUMPDEST DUP3 MSTORE POP POP JUMP JUMPDEST PUSH1 0x0 PUSH1 0x80 DUP3 ADD SWAP1 POP PUSH3 0x1D5C PUSH1 0x0 DUP4 ADD DUP8 PUSH3 0x19AF JUMP JUMPDEST PUSH3 0x1D6B PUSH1 0x20 DUP4 ADD DUP7 PUSH3 0x1CAE JUMP JUMPDEST PUSH3 0x1D7A PUSH1 0x40 DUP4 ADD DUP6 PUSH3 0x1CF1 JUMP JUMPDEST PUSH3 0x1D89 PUSH1 0x60 DUP4 ADD DUP5 PUSH3 0x1D34 JUMP JUMPDEST SWAP6 SWAP5 POP POP POP POP POP JUMP JUMPDEST PUSH1 0x0 DUP2 SWAP1 POP SWAP2 SWAP1 POP JUMP JUMPDEST PUSH1 0x0 PUSH3 0x1DBD PUSH3 0x1DB7 PUSH3 0x1DB1 DUP5 PUSH3 0x1D92 JUMP JUMPDEST PUSH3 0x14C1 JUMP JUMPDEST PUSH3 0x14B7 JUMP JUMPDEST SWAP1 POP SWAP2 SWAP1 POP JUMP JUMPDEST PUSH3 0x1DCF DUP2 PUSH3 0x1D9C JUMP JUMPDEST DUP3 MSTORE POP POP JUMP JUMPDEST PUSH1 0x0 DUP2 SWAP1 POP SWAP2 SWAP1 POP JUMP JUMPDEST PUSH1 0x0 PUSH3 0x1E00 PUSH3 0x1DFA PUSH3 0x1DF4 DUP5 PUSH3 0x1DD5 JUMP JUMPDEST PUSH3 0x14C1 JUMP JUMPDEST PUSH3 0x14B7 JUMP JUMPDEST SWAP1 POP SWAP2 SWAP1 POP JUMP JUMPDEST PUSH3 0x1E12 DUP2 PUSH3 0x1DDF JUMP JUMPDEST DUP3 MSTORE POP POP JUMP JUMPDEST PUSH1 0x0 PUSH1 0x80 DUP3 ADD SWAP1 POP PUSH3 0x1E2F PUSH1 0x0 DUP4 ADD DUP8 PUSH3 0x19AF JUMP JUMPDEST PUSH3 0x1E3E PUSH1 0x20 DUP4 ADD DUP7 PUSH3 0x1DC4 JUMP JUMPDEST PUSH3 0x1E4D PUSH1 0x40 DUP4 ADD DUP6 PUSH3 0x1C1E JUMP JUMPDEST PUSH3 0x1E5C PUSH1 0x60 DUP4 ADD DUP5 PUSH3 0x1E07 JUMP JUMPDEST SWAP6 SWAP5 POP POP POP POP POP JUMP JUMPDEST PUSH1 0x0 DUP2 SWAP1 POP SWAP2 SWAP1 POP JUMP JUMPDEST PUSH1 0x0 PUSH3 0x1E90 PUSH3 0x1E8A PUSH3 0x1E84 DUP5 PUSH3 0x1E65 JUMP JUMPDEST PUSH3 0x14C1 JUMP JUMPDEST PUSH3 0x14B7 JUMP JUMPDEST SWAP1 POP SWAP2 SWAP1 POP JUMP JUMPDEST PUSH3 0x1EA2 DUP2 PUSH3 0x1E6F JUMP JUMPDEST DUP3 MSTORE POP POP JUMP JUMPDEST PUSH1 0x0 PUSH1 0x80 DUP3 ADD SWAP1 POP PUSH3 0x1EBF PUSH1 0x0 DUP4 ADD DUP8 PUSH3 0x19AF JUMP JUMPDEST PUSH3 0x1ECE PUSH1 0x20 DUP4 ADD DUP7 PUSH3 0x1A35 JUMP JUMPDEST PUSH3 0x1EDD PUSH1 0x40 DUP4 ADD DUP6 PUSH3 0x1A35 JUMP JUMPDEST PUSH3 0x1EEC PUSH1 0x60 DUP4 ADD DUP5 PUSH3 0x1E97 JUMP JUMPDEST SWAP6 SWAP5 POP POP POP POP POP JUMP JUMPDEST PUSH1 0x0 PUSH1 0x80 DUP3 ADD SWAP1 POP PUSH3 0x1F0C PUSH1 0x0 DUP4 ADD DUP8 PUSH3 0x19AF JUMP JUMPDEST PUSH3 0x1F1B PUSH1 0x20 DUP4 ADD DUP7 PUSH3 0x19F2 JUMP JUMPDEST PUSH3 0x1F2A PUSH1 0x40 DUP4 ADD DUP6 PUSH3 0x1CAE JUMP JUMPDEST PUSH3 0x1F39 PUSH1 0x60 DUP4 ADD DUP5 PUSH3 0x1DC4 JUMP JUMPDEST SWAP6 SWAP5 POP POP POP POP POP JUMP JUMPDEST PUSH1 0x0 DUP2 SWAP1 POP SWAP2 SWAP1 POP JUMP JUMPDEST PUSH1 0x0 PUSH3 0x1F6D PUSH3 0x1F67 PUSH3 0x1F61 DUP5 PUSH3 0x1F42 JUMP JUMPDEST PUSH3 0x14C1 JUMP JUMPDEST PUSH3 0x14B7 JUMP JUMPDEST SWAP1 POP SWAP2 SWAP1 POP JUMP JUMPDEST PUSH3 0x1F7F DUP2 PUSH3 0x1F4C JUMP JUMPDEST DUP3 MSTORE POP POP JUMP JUMPDEST PUSH1 0x0 DUP2 SWAP1 POP SWAP2 SWAP1 POP JUMP JUMPDEST PUSH1 0x0 PUSH3 0x1FB0 PUSH3 0x1FAA PUSH3 0x1FA4 DUP5 PUSH3 0x1F85 JUMP JUMPDEST PUSH3 0x14C1 JUMP JUMPDEST PUSH3 0x14B7 JUMP JUMPDEST SWAP1 POP SWAP2 SWAP1 POP JUMP JUMPDEST PUSH3 0x1FC2 DUP2 PUSH3 0x1F8F JUMP JUMPDEST DUP3 MSTORE POP POP JUMP JUMPDEST PUSH1 0x0 PUSH1 0x80 DUP3 ADD SWAP1 POP PUSH3 0x1FDF PUSH1 0x0 DUP4 ADD DUP8 PUSH3 0x19AF JUMP JUMPDEST PUSH3 0x1FEE PUSH1 0x20 DUP4 ADD DUP7 PUSH3 0x1CAE JUMP JUMPDEST PUSH3 0x1FFD PUSH1 0x40 DUP4 ADD DUP6 PUSH3 0x1F74 JUMP JUMPDEST PUSH3 0x200C PUSH1 0x60 DUP4 ADD DUP5 PUSH3 0x1FB7 JUMP JUMPDEST SWAP6 SWAP5 POP POP POP POP POP JUMP JUMPDEST PUSH1 0x0 DUP2 SWAP1 POP SWAP2 SWAP1 POP JUMP JUMPDEST PUSH1 0x0 PUSH3 0x2040 PUSH3 0x203A PUSH3 0x2034 DUP5 PUSH3 0x2015 JUMP JUMPDEST PUSH3 0x14C1 JUMP JUMPDEST PUSH3 0x14B7 JUMP JUMPDEST SWAP1 POP SWAP2 SWAP1 POP JUMP JUMPDEST PUSH3 0x2052 DUP2 PUSH3 0x201F JUMP JUMPDEST DUP3 MSTORE POP POP JUMP JUMPDEST PUSH1 0x0 PUSH1 0x80 DUP3 ADD SWAP1 POP PUSH3 0x206F PUSH1 0x0 DUP4 ADD DUP8 PUSH3 0x19AF JUMP JUMPDEST PUSH3 0x207E PUSH1 0x20 DUP4 ADD DUP7 PUSH3 0x2047 JUMP JUMPDEST PUSH3 0x208D PUSH1 0x40 DUP4 ADD DUP6 PUSH3 0x1CAE JUMP JUMPDEST PUSH3 0x209C PUSH1 0x60 DUP4 ADD DUP5 PUSH3 0x1CAE JUMP JUMPDEST SWAP6 SWAP5 POP POP POP POP POP JUMP JUMPDEST PUSH1 0x0 DUP2 SWAP1 POP SWAP2 SWAP1 POP JUMP JUMPDEST PUSH1 0x0 PUSH3 0x20D0 PUSH3 0x20CA PUSH3 0x20C4 DUP5 PUSH3 0x20A5 JUMP JUMPDEST PUSH3 0x14C1 JUMP JUMPDEST PUSH3 0x14B7 JUMP JUMPDEST SWAP1 POP SWAP2 SWAP1 POP JUMP JUMPDEST PUSH3 0x20E2 DUP2 PUSH3 0x20AF JUMP JUMPDEST DUP3 MSTORE POP POP JUMP JUMPDEST PUSH1 0x0 PUSH1 0x80 DUP3 ADD SWAP1 POP PUSH3 0x20FF PUSH1 0x0 DUP4 ADD DUP8 PUSH3 0x19AF JUMP JUMPDEST PUSH3 0x210E PUSH1 0x20 DUP4 ADD DUP7 PUSH3 0x1BDB JUMP JUMPDEST PUSH3 0x211D PUSH1 0x40 DUP4 ADD DUP6 PUSH3 0x1CAE JUMP JUMPDEST PUSH3 0x212C PUSH1 0x60 DUP4 ADD DUP5 PUSH3 0x20D7 JUMP JUMPDEST SWAP6 SWAP5 POP POP POP POP POP JUMP JUMPDEST PUSH1 0x0 PUSH1 0x80 DUP3 ADD SWAP1 POP PUSH3 0x214C PUSH1 0x0 DUP4 ADD DUP8 PUSH3 0x19AF JUMP JUMPDEST PUSH3 0x215B PUSH1 0x20 DUP4 ADD DUP7 PUSH3 0x1CAE JUMP JUMPDEST PUSH3 0x216A PUSH1 0x40 DUP4 ADD DUP6 PUSH3 0x1A35 JUMP JUMPDEST PUSH3 0x2179 PUSH1 0x60 DUP4 ADD DUP5 PUSH3 0x1D34 JUMP JUMPDEST SWAP6 SWAP5 POP POP POP POP POP JUMP JUMPDEST PUSH1 0x0 PUSH3 0x218F DUP3 PUSH3 0x14B7 JUMP JUMPDEST SWAP2 POP PUSH3 0x219C DUP4 PUSH3 0x14B7 JUMP JUMPDEST SWAP3 POP DUP3 DUP3 ADD SWAP1 POP DUP1 DUP3 GT ISZERO PUSH3 0x21B7 JUMPI PUSH3 0x21B6 PUSH3 0x1754 JUMP JUMPDEST JUMPDEST SWAP3 SWAP2 POP POP JUMP JUMPDEST PUSH1 0x0 PUSH1 0x60 DUP3 ADD SWAP1 POP PUSH3 0x21D4 PUSH1 0x0 DUP4 ADD DUP7 PUSH3 0x1726 JUMP JUMPDEST PUSH3 0x21E3 PUSH1 0x20 DUP4 ADD DUP6 PUSH3 0x19AF JUMP JUMPDEST PUSH3 0x21F2 PUSH1 0x40 DUP4 ADD DUP5 PUSH3 0x19AF JUMP JUMPDEST SWAP5 SWAP4 POP POP POP POP JUMP JUMPDEST PUSH1 0x0 PUSH1 0x20 DUP3 ADD SWAP1 POP PUSH3 0x2211 PUSH1 0x0 DUP4 ADD DUP5 PUSH3 0x19AF JUMP JUMPDEST SWAP3 SWAP2 POP POP JUMP JUMPDEST PUSH2 0x29E6 DUP1 PUSH3 0x2227 PUSH1 0x0 CODECOPY PUSH1 0x0 RETURN INVALID PUSH1 0x80 PUSH1 0x40 MSTORE CALLVALUE DUP1 ISZERO PUSH2 0x10 JUMPI PUSH1 0x0 DUP1 REVERT JUMPDEST POP PUSH1 0x4 CALLDATASIZE LT PUSH2 0x12C JUMPI PUSH1 0x0 CALLDATALOAD PUSH1 0xE0 SHR DUP1 PUSH4 0x715018A6 GT PUSH2 0xAD JUMPI DUP1 PUSH4 0xA9059CBB GT PUSH2 0x71 JUMPI DUP1 PUSH4 0xA9059CBB EQ PUSH2 0x32B JUMPI DUP1 PUSH4 0xDD62ED3E EQ PUSH2 0x35B JUMPI DUP1 PUSH4 0xEEB32E3D EQ PUSH2 0x38B JUMPI DUP1 PUSH4 0xEFE08A7D EQ PUSH2 0x3A7 JUMPI DUP1 PUSH4 0xF2FDE38B EQ PUSH2 0x3C3 JUMPI PUSH2 0x12C JUMP JUMPDEST DUP1 PUSH4 0x715018A6 EQ PUSH2 0x295 JUMPI DUP1 PUSH4 0x79CC6790 EQ PUSH2 0x29F JUMPI DUP1 PUSH4 0x7BE6277B EQ PUSH2 0x2BB JUMPI DUP1 PUSH4 0x8DA5CB5B EQ PUSH2 0x2EF JUMPI DUP1 PUSH4 0x95D89B41 EQ PUSH2 0x30D JUMPI PUSH2 0x12C JUMP JUMPDEST DUP1 PUSH4 0x313CE567 GT PUSH2 0xF4 JUMPI DUP1 PUSH4 0x313CE567 EQ PUSH2 0x1EB JUMPI DUP1 PUSH4 0x42966C68 EQ PUSH2 0x209 JUMPI DUP1 PUSH4 0x4E71D92D EQ PUSH2 0x225 JUMPI DUP1 PUSH4 0x52A9039C EQ PUSH2 0x22F JUMPI DUP1 PUSH4 0x70A08231 EQ PUSH2 0x265 JUMPI PUSH2 0x12C JUMP JUMPDEST DUP1 PUSH4 0x6FDDE03 EQ PUSH2 0x131 JUMPI DUP1 PUSH4 0x95EA7B3 EQ PUSH2 0x14F JUMPI DUP1 PUSH4 0x10786DEB EQ PUSH2 0x17F JUMPI DUP1 PUSH4 0x18160DDD EQ PUSH2 0x19D JUMPI DUP1 PUSH4 0x23B872DD EQ PUSH2 0x1BB JUMPI JUMPDEST PUSH1 0x0 DUP1 REVERT JUMPDEST PUSH2 0x139 PUSH2 0x3DF JUMP JUMPDEST PUSH1 0x40 MLOAD PUSH2 0x146 SWAP2 SWAP1 PUSH2 0x1AEA JUMP JUMPDEST PUSH1 0x40 MLOAD DUP1 SWAP2 SUB SWAP1 RETURN JUMPDEST PUSH2 0x169 PUSH1 0x4 DUP1 CALLDATASIZE SUB DUP2 ADD SWAP1 PUSH2 0x164 SWAP2 SWAP1 PUSH2 0x1BAA JUMP JUMPDEST PUSH2 0x471 JUMP JUMPDEST PUSH1 0x40 MLOAD PUSH2 0x176 SWAP2 SWAP1 PUSH2 0x1C05 JUMP JUMPDEST PUSH1 0x40 MLOAD DUP1 SWAP2 SUB SWAP1 RETURN JUMPDEST PUSH2 0x187 PUSH2 0x494 JUMP JUMPDEST PUSH1 0x40 MLOAD PUSH2 0x194 SWAP2 SWAP1 PUSH2 0x1C2F JUMP JUMPDEST PUSH1 0x40 MLOAD DUP1 SWAP2 SUB SWAP1 RETURN JUMPDEST PUSH2 0x1A5 PUSH2 0x499 JUMP JUMPDEST PUSH1 0x40 MLOAD PUSH2 0x1B2 SWAP2 SWAP1 PUSH2 0x1C2F JUMP JUMPDEST PUSH1 0x40 MLOAD DUP1 SWAP2 SUB SWAP1 RETURN JUMPDEST PUSH2 0x1D5 PUSH1 0x4 DUP1 CALLDATASIZE SUB DUP2 ADD SWAP1 PUSH2 0x1D0 SWAP2 SWAP1 PUSH2 0x1C4A JUMP JUMPDEST PUSH2 0x4A3 JUMP JUMPDEST PUSH1 0x40 MLOAD PUSH2 0x1E2 SWAP2 SWAP1 PUSH2 0x1C05 JUMP JUMPDEST PUSH1 0x40 MLOAD DUP1 SWAP2 SUB SWAP1 RETURN JUMPDEST PUSH2 0x1F3 PUSH2 0x4D2 JUMP JUMPDEST PUSH1 0x40 MLOAD PUSH2 0x200 SWAP2 SWAP1 PUSH2 0x1CB9 JUMP JUMPDEST PUSH1 0x40 MLOAD DUP1 SWAP2 SUB SWAP1 RETURN JUMPDEST PUSH2 0x223 PUSH1 0x4 DUP1 CALLDATASIZE SUB DUP2 ADD SWAP1 PUSH2 0x21E SWAP2 SWAP1 PUSH2 0x1CD4 JUMP JUMPDEST PUSH2 0x4DB JUMP JUMPDEST STOP JUMPDEST PUSH2 0x22D PUSH2 0x4EF JUMP JUMPDEST STOP JUMPDEST PUSH2 0x249 PUSH1 0x4 DUP1 CALLDATASIZE SUB DUP2 ADD SWAP1 PUSH2 0x244 SWAP2 SWAP1 PUSH2 0x1D01 JUMP JUMPDEST PUSH2 0x766 JUMP JUMPDEST PUSH1 0x40 MLOAD PUSH2 0x25C SWAP8 SWAP7 SWAP6 SWAP5 SWAP4 SWAP3 SWAP2 SWAP1 PUSH2 0x1D2E JUMP JUMPDEST PUSH1 0x40 MLOAD DUP1 SWAP2 SUB SWAP1 RETURN JUMPDEST PUSH2 0x27F PUSH1 0x4 DUP1 CALLDATASIZE SUB DUP2 ADD SWAP1 PUSH2 0x27A SWAP2 SWAP1 PUSH2 0x1D01 JUMP JUMPDEST PUSH2 0x7A8 JUMP JUMPDEST PUSH1 0x40 MLOAD PUSH2 0x28C SWAP2 SWAP1 PUSH2 0x1C2F JUMP JUMPDEST PUSH1 0x40 MLOAD DUP1 SWAP2 SUB SWAP1 RETURN JUMPDEST PUSH2 0x29D PUSH2 0x7F0 JUMP JUMPDEST STOP JUMPDEST PUSH2 0x2B9 PUSH1 0x4 DUP1 CALLDATASIZE SUB DUP2 ADD SWAP1 PUSH2 0x2B4 SWAP2 SWAP1 PUSH2 0x1BAA JUMP JUMPDEST PUSH2 0x804 JUMP JUMPDEST STOP JUMPDEST PUSH2 0x2D5 PUSH1 0x4 DUP1 CALLDATASIZE SUB DUP2 ADD SWAP1 PUSH2 0x2D0 SWAP2 SWAP1 PUSH2 0x1DC2 JUMP JUMPDEST PUSH2 0x824 JUMP JUMPDEST PUSH1 0x40 MLOAD PUSH2 0x2E6 SWAP6 SWAP5 SWAP4 SWAP3 SWAP2 SWAP1 PUSH2 0x1DEF JUMP JUMPDEST PUSH1 0x40 MLOAD DUP1 SWAP2 SUB SWAP1 RETURN JUMPDEST PUSH2 0x2F7 PUSH2 0x85A JUMP JUMPDEST PUSH1 0x40 MLOAD PUSH2 0x304 SWAP2 SWAP1 PUSH2 0x1E51 JUMP JUMPDEST PUSH1 0x40 MLOAD DUP1 SWAP2 SUB SWAP1 RETURN JUMPDEST PUSH2 0x315 PUSH2 0x884 JUMP JUMPDEST PUSH1 0x40 MLOAD PUSH2 0x322 SWAP2 SWAP1 PUSH2 0x1AEA JUMP JUMPDEST PUSH1 0x40 MLOAD DUP1 SWAP2 SUB SWAP1 RETURN JUMPDEST PUSH2 0x345 PUSH1 0x4 DUP1 CALLDATASIZE SUB DUP2 ADD SWAP1 PUSH2 0x340 SWAP2 SWAP1 PUSH2 0x1BAA JUMP JUMPDEST PUSH2 0x916 JUMP JUMPDEST PUSH1 0x40 MLOAD PUSH2 0x352 SWAP2 SWAP1 PUSH2 0x1C05 JUMP JUMPDEST PUSH1 0x40 MLOAD DUP1 SWAP2 SUB SWAP1 RETURN JUMPDEST PUSH2 0x375 PUSH1 0x4 DUP1 CALLDATASIZE SUB DUP2 ADD SWAP1 PUSH2 0x370 SWAP2 SWAP1 PUSH2 0x1E6C JUMP JUMPDEST PUSH2 0x939 JUMP JUMPDEST PUSH1 0x40 MLOAD PUSH2 0x382 SWAP2 SWAP1 PUSH2 0x1C2F JUMP JUMPDEST PUSH1 0x40 MLOAD DUP1 SWAP2 SUB SWAP1 RETURN JUMPDEST PUSH2 0x3A5 PUSH1 0x4 DUP1 CALLDATASIZE SUB DUP2 ADD SWAP1 PUSH2 0x3A0 SWAP2 SWAP1 PUSH2 0x1F67 JUMP JUMPDEST PUSH2 0x9C0 JUMP JUMPDEST STOP JUMPDEST PUSH2 0x3C1 PUSH1 0x4 DUP1 CALLDATASIZE SUB DUP2 ADD SWAP1 PUSH2 0x3BC SWAP2 SWAP1 PUSH2 0x1E6C JUMP JUMPDEST PUSH2 0xE71 JUMP JUMPDEST STOP JUMPDEST PUSH2 0x3DD PUSH1 0x4 DUP1 CALLDATASIZE SUB DUP2 ADD SWAP1 PUSH2 0x3D8 SWAP2 SWAP1 PUSH2 0x1D01 JUMP JUMPDEST PUSH2 0x1216 JUMP JUMPDEST STOP JUMPDEST PUSH1 0x60 PUSH1 0x3 DUP1 SLOAD PUSH2 0x3EE SWAP1 PUSH2 0x202B JUMP JUMPDEST DUP1 PUSH1 0x1F ADD PUSH1 0x20 DUP1 SWAP2 DIV MUL PUSH1 0x20 ADD PUSH1 0x40 MLOAD SWAP1 DUP2 ADD PUSH1 0x40 MSTORE DUP1 SWAP3 SWAP2 SWAP1 DUP2 DUP2 MSTORE PUSH1 0x20 ADD DUP3 DUP1 SLOAD PUSH2 0x41A SWAP1 PUSH2 0x202B JUMP JUMPDEST DUP1 ISZERO PUSH2 0x467 JUMPI DUP1 PUSH1 0x1F LT PUSH2 0x43C JUMPI PUSH2 0x100 DUP1 DUP4 SLOAD DIV MUL DUP4 MSTORE SWAP2 PUSH1 0x20 ADD SWAP2 PUSH2 0x467 JUMP JUMPDEST DUP3 ADD SWAP2 SWAP1 PUSH1 0x0 MSTORE PUSH1 0x20 PUSH1 0x0 KECCAK256 SWAP1 JUMPDEST DUP2 SLOAD DUP2 MSTORE SWAP1 PUSH1 0x1 ADD SWAP1 PUSH1 0x20 ADD DUP1 DUP4 GT PUSH2 0x44A JUMPI DUP3 SWAP1 SUB PUSH1 0x1F AND DUP3 ADD SWAP2 JUMPDEST POP POP POP POP POP SWAP1 POP SWAP1 JUMP JUMPDEST PUSH1 0x0 DUP1 PUSH2 0x47C PUSH2 0x129C JUMP JUMPDEST SWAP1 POP PUSH2 0x489 DUP2 DUP6 DUP6 PUSH2 0x12A4 JUMP JUMPDEST PUSH1 0x1 SWAP2 POP POP SWAP3 SWAP2 POP POP JUMP JUMPDEST PUSH1 0x3C DUP2 JUMP JUMPDEST PUSH1 0x0 PUSH1 0x2 SLOAD SWAP1 POP SWAP1 JUMP JUMPDEST PUSH1 0x0 DUP1 PUSH2 0x4AE PUSH2 0x129C JUMP JUMPDEST SWAP1 POP PUSH2 0x4BB DUP6 DUP3 DUP6 PUSH2 0x12B6 JUMP JUMPDEST PUSH2 0x4C6 DUP6 DUP6 DUP6 PUSH2 0x134B JUMP JUMPDEST PUSH1 0x1 SWAP2 POP POP SWAP4 SWAP3 POP POP POP JUMP JUMPDEST PUSH1 0x0 PUSH1 0x12 SWAP1 POP SWAP1 JUMP JUMPDEST PUSH2 0x4EC PUSH2 0x4E6 PUSH2 0x129C JUMP JUMPDEST DUP3 PUSH2 0x143F JUMP JUMPDEST POP JUMP JUMPDEST PUSH2 0x4F7 PUSH2 0x14C1 JUMP JUMPDEST PUSH1 0x0 PUSH1 0x8 PUSH1 0x0 CALLER PUSH20 0xFFFFFFFFFFFFFFFFFFFFFFFFFFFFFFFFFFFFFFFF AND PUSH20 0xFFFFFFFFFFFFFFFFFFFFFFFFFFFFFFFFFFFFFFFF AND DUP2 MSTORE PUSH1 0x20 ADD SWAP1 DUP2 MSTORE PUSH1 0x20 ADD PUSH1 0x0 KECCAK256 SWAP1 POP PUSH1 0x0 DUP2 PUSH1 0x0 ADD SLOAD GT PUSH2 0x581 JUMPI PUSH1 0x40 MLOAD PUSH32 0x8C379A000000000000000000000000000000000000000000000000000000000 DUP2 MSTORE PUSH1 0x4 ADD PUSH2 0x578 SWAP1 PUSH2 0x20A8 JUMP JUMPDEST PUSH1 0x40 MLOAD DUP1 SWAP2 SUB SWAP1 REVERT JUMPDEST PUSH1 0x0 TIMESTAMP SWAP1 POP DUP2 PUSH1 0x6 ADD SLOAD DUP2 LT ISZERO PUSH2 0x5CD JUMPI PUSH1 0x40 MLOAD PUSH32 0x8C379A000000000000000000000000000000000000000000000000000000000 DUP2 MSTORE PUSH1 0x4 ADD PUSH2 0x5C4 SWAP1 PUSH2 0x2114 JUMP JUMPDEST PUSH1 0x40 MLOAD DUP1 SWAP2 SUB SWAP1 REVERT JUMPDEST PUSH1 0x0 DUP3 PUSH1 0x1 ADD SLOAD SWAP1 POP PUSH1 0x0 DUP2 DUP5 PUSH1 0x0 ADD SLOAD PUSH2 0x5E8 SWAP2 SWAP1 PUSH2 0x2163 JUMP JUMPDEST SWAP1 POP PUSH1 0x0 DUP1 PUSH1 0x3C DUP7 PUSH1 0x2 ADD SLOAD PUSH2 0x5FE SWAP2 SWAP1 PUSH2 0x2197 JUMP JUMPDEST DUP7 PUSH1 0x6 ADD SLOAD PUSH2 0x60D SWAP2 SWAP1 PUSH2 0x21D9 JUMP JUMPDEST SWAP1 POP DUP1 DUP6 LT PUSH2 0x677 JUMPI PUSH1 0x0 PUSH1 0x3C DUP8 PUSH1 0x3 ADD SLOAD PUSH2 0x629 SWAP2 SWAP1 PUSH2 0x2197 JUMP JUMPDEST DUP3 PUSH2 0x634 SWAP2 SWAP1 PUSH2 0x21D9 JUMP JUMPDEST SWAP1 POP DUP1 DUP7 LT PUSH2 0x645 JUMPI DUP4 SWAP3 POP PUSH2 0x675 JUMP JUMPDEST PUSH1 0x0 DUP3 DUP8 PUSH2 0x653 SWAP2 SWAP1 PUSH2 0x2163 JUMP JUMPDEST SWAP1 POP DUP8 PUSH1 0x4 ADD SLOAD DUP2 PUSH2 0x665 SWAP2 SWAP1 PUSH2 0x2197 JUMP JUMPDEST SWAP4 POP DUP5 DUP5 GT ISZERO PUSH2 0x673 JUMPI DUP5 SWAP4 POP JUMPDEST POP JUMPDEST POP JUMPDEST PUSH1 0x0 DUP3 DUP6 PUSH2 0x685 SWAP2 SWAP1 PUSH2 0x21D9 JUMP JUMPDEST SWAP1 POP PUSH1 0x0 DUP8 PUSH1 0x5 ADD SLOAD DUP3 PUSH2 0x699 SWAP2 SWAP1 PUSH2 0x2163 JUMP JUMPDEST SWAP1 POP PUSH1 0x0 DUP2 GT PUSH2 0x6DE JUMPI PUSH1 0x40 MLOAD PUSH32 0x8C379A000000000000000000000000000000000000000000000000000000000 DUP2 MSTORE PUSH1 0x4 ADD PUSH2 0x6D5 SWAP1 PUSH2 0x2259 JUMP JUMPDEST PUSH1 0x40 MLOAD DUP1 SWAP2 SUB SWAP1 REVERT JUMPDEST DUP1 DUP9 PUSH1 0x5 ADD PUSH1 0x0 DUP3 DUP3 SLOAD PUSH2 0x6F2 SWAP2 SWAP1 PUSH2 0x21D9 JUMP JUMPDEST SWAP3 POP POP DUP2 SWAP1 SSTORE POP PUSH2 0x704 ADDRESS CALLER DUP4 PUSH2 0x134B JUMP JUMPDEST CALLER PUSH20 0xFFFFFFFFFFFFFFFFFFFFFFFFFFFFFFFFFFFFFFFF AND PUSH32 0x9923B4306C6C030F2BDFBF156517D5983B87E15B96176DA122CD4F2EFFA4BA7B DUP3 DUP10 PUSH1 0x40 MLOAD PUSH2 0x74C SWAP3 SWAP2 SWAP1 PUSH2 0x2279 JUMP JUMPDEST PUSH1 0x40 MLOAD DUP1 SWAP2 SUB SWAP1 LOG2 POP POP POP POP POP POP POP POP PUSH2 0x764 PUSH2 0x1507 JUMP JUMPDEST JUMP JUMPDEST PUSH1 0x8 PUSH1 0x20 MSTORE DUP1 PUSH1 0x0 MSTORE PUSH1 0x40 PUSH1 0x0 KECCAK256 PUSH1 0x0 SWAP2 POP SWAP1 POP DUP1 PUSH1 0x0 ADD SLOAD SWAP1 DUP1 PUSH1 0x1 ADD SLOAD SWAP1 DUP1 PUSH1 0x2 ADD SLOAD SWAP1 DUP1 PUSH1 0x3 ADD SLOAD SWAP1 DUP1 PUSH1 0x4 ADD SLOAD SWAP1 DUP1 PUSH1 0x5 ADD SLOAD SWAP1 DUP1 PUSH1 0x6 ADD SLOAD SWAP1 POP DUP8 JUMP JUMPDEST PUSH1 0x0 DUP1 PUSH1 0x0 DUP4 PUSH20 0xFFFFFFFFFFFFFFFFFFFFFFFFFFFFFFFFFFFFFFFF AND PUSH20 0xFFFFFFFFFFFFFFFFFFFFFFFFFFFFFFFFFFFFFFFF AND DUP2 MSTORE PUSH1 0x20 ADD SWAP1 DUP2 MSTORE PUSH1 0x20 ADD PUSH1 0x0 KECCAK256 SLOAD SWAP1 POP SWAP2 SWAP1 POP JUMP JUMPDEST PUSH2 0x7F8 PUSH2 0x1511 JUMP JUMPDEST PUSH2 0x802 PUSH1 0x0 PUSH2 0x1598 JUMP JUMPDEST JUMP JUMPDEST PUSH2 0x816 DUP3 PUSH2 0x810 PUSH2 0x129C JUMP JUMPDEST DUP4 PUSH2 0x12B6 JUMP JUMPDEST PUSH2 0x820 DUP3 DUP3 PUSH2 0x143F JUMP JUMPDEST POP POP JUMP JUMPDEST PUSH1 0x7 PUSH1 0x20 MSTORE DUP1 PUSH1 0x0 MSTORE PUSH1 0x40 PUSH1 0x0 KECCAK256 PUSH1 0x0 SWAP2 POP SWAP1 POP DUP1 PUSH1 0x0 ADD SLOAD SWAP1 DUP1 PUSH1 0x1 ADD SLOAD SWAP1 DUP1 PUSH1 0x2 ADD SLOAD SWAP1 DUP1 PUSH1 0x3 ADD SLOAD SWAP1 DUP1 PUSH1 0x4 ADD SLOAD SWAP1 POP DUP6 JUMP JUMPDEST PUSH1 0x0 PUSH1 0x5 PUSH1 0x0 SWAP1 SLOAD SWAP1 PUSH2 0x100 EXP SWAP1 DIV PUSH20 0xFFFFFFFFFFFFFFFFFFFFFFFFFFFFFFFFFFFFFFFF AND SWAP1 POP SWAP1 JUMP JUMPDEST PUSH1 0x60 PUSH1 0x4 DUP1 SLOAD PUSH2 0x893 SWAP1 PUSH2 0x202B JUMP JUMPDEST DUP1 PUSH1 0x1F ADD PUSH1 0x20 DUP1 SWAP2 DIV MUL PUSH1 0x20 ADD PUSH1 0x40 MLOAD SWAP1 DUP2 ADD PUSH1 0x40 MSTORE DUP1 SWAP3 SWAP2 SWAP1 DUP2 DUP2 MSTORE PUSH1 0x20 ADD DUP3 DUP1 SLOAD PUSH2 0x8BF SWAP1 PUSH2 0x202B JUMP JUMPDEST DUP1 ISZERO PUSH2 0x90C JUMPI DUP1 PUSH1 0x1F LT PUSH2 0x8E1 JUMPI PUSH2 0x100 DUP1 DUP4 SLOAD DIV MUL DUP4 MSTORE SWAP2 PUSH1 0x20 ADD SWAP2 PUSH2 0x90C JUMP JUMPDEST DUP3 ADD SWAP2 SWAP1 PUSH1 0x0 MSTORE PUSH1 0x20 PUSH1 0x0 KECCAK256 SWAP1 JUMPDEST DUP2 SLOAD DUP2 MSTORE SWAP1 PUSH1 0x1 ADD SWAP1 PUSH1 0x20 ADD DUP1 DUP4 GT PUSH2 0x8EF JUMPI DUP3 SWAP1 SUB PUSH1 0x1F AND DUP3 ADD SWAP2 JUMPDEST POP POP POP POP POP SWAP1 POP SWAP1 JUMP JUMPDEST PUSH1 0x0 DUP1 PUSH2 0x921 PUSH2 0x129C JUMP JUMPDEST SWAP1 POP PUSH2 0x92E DUP2 DUP6 DUP6 PUSH2 0x134B JUMP JUMPDEST PUSH1 0x1 SWAP2 POP POP SWAP3 SWAP2 POP POP JUMP JUMPDEST PUSH1 0x0 PUSH1 0x1 PUSH1 0x0 DUP5 PUSH20 0xFFFFFFFFFFFFFFFFFFFFFFFFFFFFFFFFFFFFFFFF AND PUSH20 0xFFFFFFFFFFFFFFFFFFFFFFFFFFFFFFFFFFFFFFFF AND DUP2 MSTORE PUSH1 0x20 ADD SWAP1 DUP2 MSTORE PUSH1 0x20 ADD PUSH1 0x0 KECCAK256 PUSH1 0x0 DUP4 PUSH20 0xFFFFFFFFFFFFFFFFFFFFFFFFFFFFFFFFFFFFFFFF AND PUSH20 0xFFFFFFFFFFFFFFFFFFFFFFFFFFFFFFFFFFFFFFFF AND DUP2 MSTORE PUSH1 0x20 ADD SWAP1 DUP2 MSTORE PUSH1 0x20 ADD PUSH1 0x0 KECCAK256 SLOAD SWAP1 POP SWAP3 SWAP2 POP POP JUMP JUMPDEST PUSH2 0x9C8 PUSH2 0x1511 JUMP JUMPDEST DUP2 DUP2 SWAP1 POP DUP5 DUP5 SWAP1 POP EQ PUSH2 0xA10 JUMPI PUSH1 0x40 MLOAD PUSH32 0x8C379A000000000000000000000000000000000000000000000000000000000 DUP2 MSTORE PUSH1 0x4 ADD PUSH2 0xA07 SWAP1 PUSH2 0x22EE JUMP JUMPDEST PUSH1 0x40 MLOAD DUP1 SWAP2 SUB SWAP1 REVERT JUMPDEST PUSH1 0x0 PUSH1 0x7 PUSH1 0x0 DUP8 PUSH1 0xA DUP2 GT ISZERO PUSH2 0xA29 JUMPI PUSH2 0xA28 PUSH2 0x230E JUMP JUMPDEST JUMPDEST PUSH1 0xA DUP2 GT ISZERO PUSH2 0xA3B JUMPI PUSH2 0xA3A PUSH2 0x230E JUMP JUMPDEST JUMPDEST DUP2 MSTORE PUSH1 0x20 ADD SWAP1 DUP2 MSTORE PUSH1 0x20 ADD PUSH1 0x0 KECCAK256 SWAP1 POP PUSH1 0x0 JUMPDEST DUP6 DUP6 SWAP1 POP DUP2 LT ISZERO PUSH2 0xE68 JUMPI PUSH1 0x0 DUP7 DUP7 DUP4 DUP2 DUP2 LT PUSH2 0xA6E JUMPI PUSH2 0xA6D PUSH2 0x233D JUMP JUMPDEST JUMPDEST SWAP1 POP PUSH1 0x20 MUL ADD PUSH1 0x20 DUP2 ADD SWAP1 PUSH2 0xA83 SWAP2 SWAP1 PUSH2 0x1D01 JUMP JUMPDEST SWAP1 POP PUSH1 0x0 PUSH2 0xA8F PUSH2 0x4D2 JUMP JUMPDEST PUSH1 0xA PUSH2 0xA9B SWAP2 SWAP1 PUSH2 0x249F JUMP JUMPDEST DUP7 DUP7 DUP6 DUP2 DUP2 LT PUSH2 0xAAE JUMPI PUSH2 0xAAD PUSH2 0x233D JUMP JUMPDEST JUMPDEST SWAP1 POP PUSH1 0x20 MUL ADD CALLDATALOAD PUSH2 0xABF SWAP2 SWAP1 PUSH2 0x2197 JUMP JUMPDEST SWAP1 POP PUSH1 0x0 PUSH20 0xFFFFFFFFFFFFFFFFFFFFFFFFFFFFFFFFFFFFFFFF AND DUP3 PUSH20 0xFFFFFFFFFFFFFFFFFFFFFFFFFFFFFFFFFFFFFFFF AND SUB PUSH2 0xB30 JUMPI PUSH1 0x40 MLOAD PUSH32 0x8C379A000000000000000000000000000000000000000000000000000000000 DUP2 MSTORE PUSH1 0x4 ADD PUSH2 0xB27 SWAP1 PUSH2 0x2536 JUMP JUMPDEST PUSH1 0x40 MLOAD DUP1 SWAP2 SUB SWAP1 REVERT JUMPDEST DUP4 PUSH1 0x0 ADD SLOAD DUP2 DUP6 PUSH1 0x4 ADD SLOAD PUSH2 0xB45 SWAP2 SWAP1 PUSH2 0x21D9 JUMP JUMPDEST GT ISZERO PUSH2 0xB86 JUMPI PUSH1 0x40 MLOAD PUSH32 0x8C379A000000000000000000000000000000000000000000000000000000000 DUP2 MSTORE PUSH1 0x4 ADD PUSH2 0xB7D SWAP1 PUSH2 0x25A2 JUMP JUMPDEST PUSH1 0x40 MLOAD DUP1 SWAP2 SUB SWAP1 REVERT JUMPDEST PUSH1 0x0 PUSH1 0x8 PUSH1 0x0 DUP5 PUSH20 0xFFFFFFFFFFFFFFFFFFFFFFFFFFFFFFFFFFFFFFFF AND PUSH20 0xFFFFFFFFFFFFFFFFFFFFFFFFFFFFFFFFFFFFFFFF AND DUP2 MSTORE PUSH1 0x20 ADD SWAP1 DUP2 MSTORE PUSH1 0x20 ADD PUSH1 0x0 KECCAK256 PUSH1 0x0 ADD SLOAD EQ PUSH2 0xC0B JUMPI PUSH1 0x40 MLOAD PUSH32 0x8C379A000000000000000000000000000000000000000000000000000000000 DUP2 MSTORE PUSH1 0x4 ADD PUSH2 0xC02 SWAP1 PUSH2 0x2634 JUMP JUMPDEST PUSH1 0x40 MLOAD DUP1 SWAP2 SUB SWAP1 REVERT JUMPDEST DUP1 DUP5 PUSH1 0x4 ADD PUSH1 0x0 DUP3 DUP3 SLOAD PUSH2 0xC1F SWAP2 SWAP1 PUSH2 0x21D9 JUMP JUMPDEST SWAP3 POP POP DUP2 SWAP1 SSTORE POP PUSH1 0x0 PUSH1 0x9 PUSH1 0xA DUP2 GT ISZERO PUSH2 0xC3C JUMPI PUSH2 0xC3B PUSH2 0x230E JUMP JUMPDEST JUMPDEST DUP11 PUSH1 0xA DUP2 GT ISZERO PUSH2 0xC4F JUMPI PUSH2 0xC4E PUSH2 0x230E JUMP JUMPDEST JUMPDEST SUB PUSH2 0xC78 JUMPI PUSH2 0x3E8 DUP6 PUSH1 0x1 ADD SLOAD DUP4 PUSH2 0xC67 SWAP2 SWAP1 PUSH2 0x2197 JUMP JUMPDEST PUSH2 0xC71 SWAP2 SWAP1 PUSH2 0x2683 JUMP JUMPDEST SWAP1 POP PUSH2 0xC97 JUMP JUMPDEST PUSH1 0x64 DUP6 PUSH1 0x1 ADD SLOAD DUP4 PUSH2 0xC8A SWAP2 SWAP1 PUSH2 0x2197 JUMP JUMPDEST PUSH2 0xC94 SWAP2 SWAP1 PUSH2 0x2683 JUMP JUMPDEST SWAP1 POP JUMPDEST PUSH1 0x0 DUP6 PUSH1 0x2 ADD SLOAD SWAP1 POP PUSH1 0x0 DUP7 PUSH1 0x3 ADD SLOAD SWAP1 POP PUSH1 0x0 DUP4 DUP6 PUSH2 0xCB7 SWAP2 SWAP1 PUSH2 0x2163 JUMP JUMPDEST SWAP1 POP PUSH1 0x0 DUP1 DUP4 GT ISZERO PUSH2 0xD27 JUMPI PUSH1 0x0 PUSH1 0x3C DUP5 PUSH2 0xCD2 SWAP2 SWAP1 PUSH2 0x2197 JUMP JUMPDEST SWAP1 POP PUSH1 0x0 DUP2 GT PUSH2 0xD17 JUMPI PUSH1 0x40 MLOAD PUSH32 0x8C379A000000000000000000000000000000000000000000000000000000000 DUP2 MSTORE PUSH1 0x4 ADD PUSH2 0xD0E SWAP1 PUSH2 0x2700 JUMP JUMPDEST PUSH1 0x40 MLOAD DUP1 SWAP2 SUB SWAP1 REVERT JUMPDEST DUP1 DUP4 PUSH2 0xD23 SWAP2 SWAP1 PUSH2 0x2683 JUMP JUMPDEST SWAP2 POP POP JUMPDEST PUSH1 0x40 MLOAD DUP1 PUSH1 0xE0 ADD PUSH1 0x40 MSTORE DUP1 DUP8 DUP2 MSTORE PUSH1 0x20 ADD DUP7 DUP2 MSTORE PUSH1 0x20 ADD DUP6 DUP2 MSTORE PUSH1 0x20 ADD DUP5 DUP2 MSTORE PUSH1 0x20 ADD DUP3 DUP2 MSTORE PUSH1 0x20 ADD PUSH1 0x0 DUP2 MSTORE PUSH1 0x20 ADD TIMESTAMP DUP2 MSTORE POP PUSH1 0x8 PUSH1 0x0 DUP10 PUSH20 0xFFFFFFFFFFFFFFFFFFFFFFFFFFFFFFFFFFFFFFFF AND PUSH20 0xFFFFFFFFFFFFFFFFFFFFFFFFFFFFFFFFFFFFFFFF AND DUP2 MSTORE PUSH1 0x20 ADD SWAP1 DUP2 MSTORE PUSH1 0x20 ADD PUSH1 0x0 KECCAK256 PUSH1 0x0 DUP3 ADD MLOAD DUP2 PUSH1 0x0 ADD SSTORE PUSH1 0x20 DUP3 ADD MLOAD DUP2 PUSH1 0x1 ADD SSTORE PUSH1 0x40 DUP3 ADD MLOAD DUP2 PUSH1 0x2 ADD SSTORE PUSH1 0x60 DUP3 ADD MLOAD DUP2 PUSH1 0x3 ADD SSTORE PUSH1 0x80 DUP3 ADD MLOAD DUP2 PUSH1 0x4 ADD SSTORE PUSH1 0xA0 DUP3 ADD MLOAD DUP2 PUSH1 0x5 ADD SSTORE PUSH1 0xC0 DUP3 ADD MLOAD DUP2 PUSH1 0x6 ADD SSTORE SWAP1 POP POP DUP7 PUSH20 0xFFFFFFFFFFFFFFFFFFFFFFFFFFFFFFFFFFFFFFFF AND DUP15 PUSH1 0xA DUP2 GT ISZERO PUSH2 0xE0D JUMPI PUSH2 0xE0C PUSH2 0x230E JUMP JUMPDEST JUMPDEST PUSH32 0x951A64FD3E10BDB0C1FE79C048549DBDBB2A891EE03ED559D71FB935D35D95F8 DUP9 DUP9 DUP9 DUP9 DUP8 TIMESTAMP PUSH1 0x40 MLOAD PUSH2 0xE46 SWAP7 SWAP6 SWAP5 SWAP4 SWAP3 SWAP2 SWAP1 PUSH2 0x2720 JUMP JUMPDEST PUSH1 0x40 MLOAD DUP1 SWAP2 SUB SWAP1 LOG3 POP POP POP POP POP POP POP DUP1 DUP1 PUSH2 0xE60 SWAP1 PUSH2 0x2781 JUMP JUMPDEST SWAP2 POP POP PUSH2 0xA4E JUMP JUMPDEST POP POP POP POP POP POP POP JUMP JUMPDEST PUSH2 0xE79 PUSH2 0x1511 JUMP JUMPDEST PUSH1 0x0 PUSH20 0xFFFFFFFFFFFFFFFFFFFFFFFFFFFFFFFFFFFFFFFF AND DUP3 PUSH20 0xFFFFFFFFFFFFFFFFFFFFFFFFFFFFFFFFFFFFFFFF AND SUB PUSH2 0xEE8 JUMPI PUSH1 0x40 MLOAD PUSH32 0x8C379A000000000000000000000000000000000000000000000000000000000 DUP2 MSTORE PUSH1 0x4 ADD PUSH2 0xEDF SWAP1 PUSH2 0x2815 JUMP JUMPDEST PUSH1 0x40 MLOAD DUP1 SWAP2 SUB SWAP1 REVERT JUMPDEST PUSH1 0x0 PUSH20 0xFFFFFFFFFFFFFFFFFFFFFFFFFFFFFFFFFFFFFFFF AND DUP2 PUSH20 0xFFFFFFFFFFFFFFFFFFFFFFFFFFFFFFFFFFFFFFFF AND SUB PUSH2 0xF57 JUMPI PUSH1 0x40 MLOAD PUSH32 0x8C379A000000000000000000000000000000000000000000000000000000000 DUP2 MSTORE PUSH1 0x4 ADD PUSH2 0xF4E SWAP1 PUSH2 0x2881 JUMP JUMPDEST PUSH1 0x40 MLOAD DUP1 SWAP2 SUB SWAP1 REVERT JUMPDEST PUSH1 0x0 PUSH1 0x8 PUSH1 0x0 DUP5 PUSH20 0xFFFFFFFFFFFFFFFFFFFFFFFFFFFFFFFFFFFFFFFF AND PUSH20 0xFFFFFFFFFFFFFFFFFFFFFFFFFFFFFFFFFFFFFFFF AND DUP2 MSTORE PUSH1 0x20 ADD SWAP1 DUP2 MSTORE PUSH1 0x20 ADD PUSH1 0x0 KECCAK256 SWAP1 POP PUSH1 0x0 DUP2 PUSH1 0x0 ADD SLOAD GT PUSH2 0xFE1 JUMPI PUSH1 0x40 MLOAD PUSH32 0x8C379A000000000000000000000000000000000000000000000000000000000 DUP2 MSTORE PUSH1 0x4 ADD PUSH2 0xFD8 SWAP1 PUSH2 0x28ED JUMP JUMPDEST PUSH1 0x40 MLOAD DUP1 SWAP2 SUB SWAP1 REVERT JUMPDEST PUSH1 0x0 PUSH1 0x8 PUSH1 0x0 DUP5 PUSH20 0xFFFFFFFFFFFFFFFFFFFFFFFFFFFFFFFFFFFFFFFF AND PUSH20 0xFFFFFFFFFFFFFFFFFFFFFFFFFFFFFFFFFFFFFFFF AND DUP2 MSTORE PUSH1 0x20 ADD SWAP1 DUP2 MSTORE PUSH1 0x20 ADD PUSH1 0x0 KECCAK256 PUSH1 0x0 ADD SLOAD EQ PUSH2 0x1066 JUMPI PUSH1 0x40 MLOAD PUSH32 0x8C379A000000000000000000000000000000000000000000000000000000000 DUP2 MSTORE PUSH1 0x4 ADD PUSH2 0x105D SWAP1 PUSH2 0x2959 JUMP JUMPDEST PUSH1 0x40 MLOAD DUP1 SWAP2 SUB SWAP1 REVERT JUMPDEST PUSH1 0x40 MLOAD DUP1 PUSH1 0xE0 ADD PUSH1 0x40 MSTORE DUP1 DUP3 PUSH1 0x0 ADD SLOAD DUP2 MSTORE PUSH1 0x20 ADD DUP3 PUSH1 0x1 ADD SLOAD DUP2 MSTORE PUSH1 0x20 ADD DUP3 PUSH1 0x2 ADD SLOAD DUP2 MSTORE PUSH1 0x20 ADD DUP3 PUSH1 0x3 ADD SLOAD DUP2 MSTORE PUSH1 0x20 ADD DUP3 PUSH1 0x4 ADD SLOAD DUP2 MSTORE PUSH1 0x20 ADD DUP3 PUSH1 0x5 ADD SLOAD DUP2 MSTORE PUSH1 0x20 ADD DUP3 PUSH1 0x6 ADD SLOAD DUP2 MSTORE POP PUSH1 0x8 PUSH1 0x0 DUP5 PUSH20 0xFFFFFFFFFFFFFFFFFFFFFFFFFFFFFFFFFFFFFFFF AND PUSH20 0xFFFFFFFFFFFFFFFFFFFFFFFFFFFFFFFFFFFFFFFF AND DUP2 MSTORE PUSH1 0x20 ADD SWAP1 DUP2 MSTORE PUSH1 0x20 ADD PUSH1 0x0 KECCAK256 PUSH1 0x0 DUP3 ADD MLOAD DUP2 PUSH1 0x0 ADD SSTORE PUSH1 0x20 DUP3 ADD MLOAD DUP2 PUSH1 0x1 ADD SSTORE PUSH1 0x40 DUP3 ADD MLOAD DUP2 PUSH1 0x2 ADD SSTORE PUSH1 0x60 DUP3 ADD MLOAD DUP2 PUSH1 0x3 ADD SSTORE PUSH1 0x80 DUP3 ADD MLOAD DUP2 PUSH1 0x4 ADD SSTORE PUSH1 0xA0 DUP3 ADD MLOAD DUP2 PUSH1 0x5 ADD SSTORE PUSH1 0xC0 DUP3 ADD MLOAD DUP2 PUSH1 0x6 ADD SSTORE SWAP1 POP POP PUSH1 0x8 PUSH1 0x0 DUP5 PUSH20 0xFFFFFFFFFFFFFFFFFFFFFFFFFFFFFFFFFFFFFFFF AND PUSH20 0xFFFFFFFFFFFFFFFFFFFFFFFFFFFFFFFFFFFFFFFF AND DUP2 MSTORE PUSH1 0x20 ADD SWAP1 DUP2 MSTORE PUSH1 0x20 ADD PUSH1 0x0 KECCAK256 PUSH1 0x0 DUP1 DUP3 ADD PUSH1 0x0 SWAP1 SSTORE PUSH1 0x1 DUP3 ADD PUSH1 0x0 SWAP1 SSTORE PUSH1 0x2 DUP3 ADD PUSH1 0x0 SWAP1 SSTORE PUSH1 0x3 DUP3 ADD PUSH1 0x0 SWAP1 SSTORE PUSH1 0x4 DUP3 ADD PUSH1 0x0 SWAP1 SSTORE PUSH1 0x5 DUP3 ADD PUSH1 0x0 SWAP1 SSTORE PUSH1 0x6 DUP3 ADD PUSH1 0x0 SWAP1 SSTORE POP POP DUP2 PUSH20 0xFFFFFFFFFFFFFFFFFFFFFFFFFFFFFFFFFFFFFFFF AND DUP4 PUSH20 0xFFFFFFFFFFFFFFFFFFFFFFFFFFFFFFFFFFFFFFFF AND PUSH32 0x1552BF14C580C20E53A4227E9B76734DA8E21905A818FDC5FA05DCB2891BB89E PUSH1 0x40 MLOAD PUSH1 0x40 MLOAD DUP1 SWAP2 SUB SWAP1 LOG3 POP POP POP JUMP JUMPDEST PUSH2 0x121E PUSH2 0x1511 JUMP JUMPDEST PUSH1 0x0 PUSH20 0xFFFFFFFFFFFFFFFFFFFFFFFFFFFFFFFFFFFFFFFF AND DUP2 PUSH20 0xFFFFFFFFFFFFFFFFFFFFFFFFFFFFFFFFFFFFFFFF AND SUB PUSH2 0x1290 JUMPI PUSH1 0x0 PUSH1 0x40 MLOAD PUSH32 0x1E4FBDF700000000000000000000000000000000000000000000000000000000 DUP2 MSTORE PUSH1 0x4 ADD PUSH2 0x1287 SWAP2 SWAP1 PUSH2 0x1E51 JUMP JUMPDEST PUSH1 0x40 MLOAD DUP1 SWAP2 SUB SWAP1 REVERT JUMPDEST PUSH2 0x1299 DUP2 PUSH2 0x1598 JUMP JUMPDEST POP JUMP JUMPDEST PUSH1 0x0 CALLER SWAP1 POP SWAP1 JUMP JUMPDEST PUSH2 0x12B1 DUP4 DUP4 DUP4 PUSH1 0x1 PUSH2 0x165E JUMP JUMPDEST POP POP POP JUMP JUMPDEST PUSH1 0x0 PUSH2 0x12C2 DUP5 DUP5 PUSH2 0x939 JUMP JUMPDEST SWAP1 POP PUSH32 0xFFFFFFFFFFFFFFFFFFFFFFFFFFFFFFFFFFFFFFFFFFFFFFFFFFFFFFFFFFFFFFFF DUP2 LT ISZERO PUSH2 0x1345 JUMPI DUP2 DUP2 LT ISZERO PUSH2 0x1335 JUMPI DUP3 DUP2 DUP4 PUSH1 0x40 MLOAD PUSH32 0xFB8F41B200000000000000000000000000000000000000000000000000000000 DUP2 MSTORE PUSH1 0x4 ADD PUSH2 0x132C SWAP4 SWAP3 SWAP2 SWAP1 PUSH2 0x2979 JUMP JUMPDEST PUSH1 0x40 MLOAD DUP1 SWAP2 SUB SWAP1 REVERT JUMPDEST PUSH2 0x1344 DUP5 DUP5 DUP5 DUP5 SUB PUSH1 0x0 PUSH2 0x165E JUMP JUMPDEST JUMPDEST POP POP POP POP JUMP JUMPDEST PUSH1 0x0 PUSH20 0xFFFFFFFFFFFFFFFFFFFFFFFFFFFFFFFFFFFFFFFF AND DUP4 PUSH20 0xFFFFFFFFFFFFFFFFFFFFFFFFFFFFFFFFFFFFFFFF AND SUB PUSH2 0x13BD JUMPI PUSH1 0x0 PUSH1 0x40 MLOAD PUSH32 0x96C6FD1E00000000000000000000000000000000000000000000000000000000 DUP2 MSTORE PUSH1 0x4 ADD PUSH2 0x13B4 SWAP2 SWAP1 PUSH2 0x1E51 JUMP JUMPDEST PUSH1 0x40 MLOAD DUP1 SWAP2 SUB SWAP1 REVERT JUMPDEST PUSH1 0x0 PUSH20 0xFFFFFFFFFFFFFFFFFFFFFFFFFFFFFFFFFFFFFFFF AND DUP3 PUSH20 0xFFFFFFFFFFFFFFFFFFFFFFFFFFFFFFFFFFFFFFFF AND SUB PUSH2 0x142F JUMPI PUSH1 0x0 PUSH1 0x40 MLOAD PUSH32 0xEC442F0500000000000000000000000000000000000000000000000000000000 DUP2 MSTORE PUSH1 0x4 ADD PUSH2 0x1426 SWAP2 SWAP1 PUSH2 0x1E51 JUMP JUMPDEST PUSH1 0x40 MLOAD DUP1 SWAP2 SUB SWAP1 REVERT JUMPDEST PUSH2 0x143A DUP4 DUP4 DUP4 PUSH2 0x1835 JUMP JUMPDEST POP POP POP JUMP JUMPDEST PUSH1 0x0 PUSH20 0xFFFFFFFFFFFFFFFFFFFFFFFFFFFFFFFFFFFFFFFF AND DUP3 PUSH20 0xFFFFFFFFFFFFFFFFFFFFFFFFFFFFFFFFFFFFFFFF AND SUB PUSH2 0x14B1 JUMPI PUSH1 0x0 PUSH1 0x40 MLOAD PUSH32 0x96C6FD1E00000000000000000000000000000000000000000000000000000000 DUP2 MSTORE PUSH1 0x4 ADD PUSH2 0x14A8 SWAP2 SWAP1 PUSH2 0x1E51 JUMP JUMPDEST PUSH1 0x40 MLOAD DUP1 SWAP2 SUB SWAP1 REVERT JUMPDEST PUSH2 0x14BD DUP3 PUSH1 0x0 DUP4 PUSH2 0x1835 JUMP JUMPDEST POP POP JUMP JUMPDEST PUSH1 0x2 PUSH1 0x6 SLOAD SUB PUSH2 0x14FD JUMPI PUSH1 0x40 MLOAD PUSH32 0x3EE5AEB500000000000000000000000000000000000000000000000000000000 DUP2 MSTORE PUSH1 0x4 ADD PUSH1 0x40 MLOAD DUP1 SWAP2 SUB SWAP1 REVERT JUMPDEST PUSH1 0x2 PUSH1 0x6 DUP2 SWAP1 SSTORE POP JUMP JUMPDEST PUSH1 0x1 PUSH1 0x6 DUP2 SWAP1 SSTORE POP JUMP JUMPDEST PUSH2 0x1519 PUSH2 0x129C JUMP JUMPDEST PUSH20 0xFFFFFFFFFFFFFFFFFFFFFFFFFFFFFFFFFFFFFFFF AND PUSH2 0x1537 PUSH2 0x85A JUMP JUMPDEST PUSH20 0xFFFFFFFFFFFFFFFFFFFFFFFFFFFFFFFFFFFFFFFF AND EQ PUSH2 0x1596 JUMPI PUSH2 0x155A PUSH2 0x129C JUMP JUMPDEST PUSH1 0x40 MLOAD PUSH32 0x118CDAA700000000000000000000000000000000000000000000000000000000 DUP2 MSTORE PUSH1 0x4 ADD PUSH2 0x158D SWAP2 SWAP1 PUSH2 0x1E51 JUMP JUMPDEST PUSH1 0x40 MLOAD DUP1 SWAP2 SUB SWAP1 REVERT JUMPDEST JUMP JUMPDEST PUSH1 0x0 PUSH1 0x5 PUSH1 0x0 SWAP1 SLOAD SWAP1 PUSH2 0x100 EXP SWAP1 DIV PUSH20 0xFFFFFFFFFFFFFFFFFFFFFFFFFFFFFFFFFFFFFFFF AND SWAP1 POP DUP2 PUSH1 0x5 PUSH1 0x0 PUSH2 0x100 EXP DUP2 SLOAD DUP2 PUSH20 0xFFFFFFFFFFFFFFFFFFFFFFFFFFFFFFFFFFFFFFFF MUL NOT AND SWAP1 DUP4 PUSH20 0xFFFFFFFFFFFFFFFFFFFFFFFFFFFFFFFFFFFFFFFF AND MUL OR SWAP1 SSTORE POP DUP2 PUSH20 0xFFFFFFFFFFFFFFFFFFFFFFFFFFFFFFFFFFFFFFFF AND DUP2 PUSH20 0xFFFFFFFFFFFFFFFFFFFFFFFFFFFFFFFFFFFFFFFF AND PUSH32 0x8BE0079C531659141344CD1FD0A4F28419497F9722A3DAAFE3B4186F6B6457E0 PUSH1 0x40 MLOAD PUSH1 0x40 MLOAD DUP1 SWAP2 SUB SWAP1 LOG3 POP POP JUMP JUMPDEST PUSH1 0x0 PUSH20 0xFFFFFFFFFFFFFFFFFFFFFFFFFFFFFFFFFFFFFFFF AND DUP5 PUSH20 0xFFFFFFFFFFFFFFFFFFFFFFFFFFFFFFFFFFFFFFFF AND SUB PUSH2 0x16D0 JUMPI PUSH1 0x0 PUSH1 0x40 MLOAD PUSH32 0xE602DF0500000000000000000000000000000000000000000000000000000000 DUP2 MSTORE PUSH1 0x4 ADD PUSH2 0x16C7 SWAP2 SWAP1 PUSH2 0x1E51 JUMP JUMPDEST PUSH1 0x40 MLOAD DUP1 SWAP2 SUB SWAP1 REVERT JUMPDEST PUSH1 0x0 PUSH20 0xFFFFFFFFFFFFFFFFFFFFFFFFFFFFFFFFFFFFFFFF AND DUP4 PUSH20 0xFFFFFFFFFFFFFFFFFFFFFFFFFFFFFFFFFFFFFFFF AND SUB PUSH2 0x1742 JUMPI PUSH1 0x0 PUSH1 0x40 MLOAD PUSH32 0x94280D6200000000000000000000000000000000000000000000000000000000 DUP2 MSTORE PUSH1 0x4 ADD PUSH2 0x1739 SWAP2 SWAP1 PUSH2 0x1E51 JUMP JUMPDEST PUSH1 0x40 MLOAD DUP1 SWAP2 SUB SWAP1 REVERT JUMPDEST DUP2 PUSH1 0x1 PUSH1 0x0 DUP7 PUSH20 0xFFFFFFFFFFFFFFFFFFFFFFFFFFFFFFFFFFFFFFFF AND PUSH20 0xFFFFFFFFFFFFFFFFFFFFFFFFFFFFFFFFFFFFFFFF AND DUP2 MSTORE PUSH1 0x20 ADD SWAP1 DUP2 MSTORE PUSH1 0x20 ADD PUSH1 0x0 KECCAK256 PUSH1 0x0 DUP6 PUSH20 0xFFFFFFFFFFFFFFFFFFFFFFFFFFFFFFFFFFFFFFFF AND PUSH20 0xFFFFFFFFFFFFFFFFFFFFFFFFFFFFFFFFFFFFFFFF AND DUP2 MSTORE PUSH1 0x20 ADD SWAP1 DUP2 MSTORE PUSH1 0x20 ADD PUSH1 0x0 KECCAK256 DUP2 SWAP1 SSTORE POP DUP1 ISZERO PUSH2 0x182F JUMPI DUP3 PUSH20 0xFFFFFFFFFFFFFFFFFFFFFFFFFFFFFFFFFFFFFFFF AND DUP5 PUSH20 0xFFFFFFFFFFFFFFFFFFFFFFFFFFFFFFFFFFFFFFFF AND PUSH32 0x8C5BE1E5EBEC7D5BD14F71427D1E84F3DD0314C0F7B2291E5B200AC8C7C3B925 DUP5 PUSH1 0x40 MLOAD PUSH2 0x1826 SWAP2 SWAP1 PUSH2 0x1C2F JUMP JUMPDEST PUSH1 0x40 MLOAD DUP1 SWAP2 SUB SWAP1 LOG3 JUMPDEST POP POP POP POP JUMP JUMPDEST PUSH1 0x0 PUSH20 0xFFFFFFFFFFFFFFFFFFFFFFFFFFFFFFFFFFFFFFFF AND DUP4 PUSH20 0xFFFFFFFFFFFFFFFFFFFFFFFFFFFFFFFFFFFFFFFF AND SUB PUSH2 0x1887 JUMPI DUP1 PUSH1 0x2 PUSH1 0x0 DUP3 DUP3 SLOAD PUSH2 0x187B SWAP2 SWAP1 PUSH2 0x21D9 JUMP JUMPDEST SWAP3 POP POP DUP2 SWAP1 SSTORE POP PUSH2 0x195A JUMP JUMPDEST PUSH1 0x0 DUP1 PUSH1 0x0 DUP6 PUSH20 0xFFFFFFFFFFFFFFFFFFFFFFFFFFFFFFFFFFFFFFFF AND PUSH20 0xFFFFFFFFFFFFFFFFFFFFFFFFFFFFFFFFFFFFFFFF AND DUP2 MSTORE PUSH1 0x20 ADD SWAP1 DUP2 MSTORE PUSH1 0x20 ADD PUSH1 0x0 KECCAK256 SLOAD SWAP1 POP DUP2 DUP2 LT ISZERO PUSH2 0x1913 JUMPI DUP4 DUP2 DUP4 PUSH1 0x40 MLOAD PUSH32 0xE450D38C00000000000000000000000000000000000000000000000000000000 DUP2 MSTORE PUSH1 0x4 ADD PUSH2 0x190A SWAP4 SWAP3 SWAP2 SWAP1 PUSH2 0x2979 JUMP JUMPDEST PUSH1 0x40 MLOAD DUP1 SWAP2 SUB SWAP1 REVERT JUMPDEST DUP2 DUP2 SUB PUSH1 0x0 DUP1 DUP7 PUSH20 0xFFFFFFFFFFFFFFFFFFFFFFFFFFFFFFFFFFFFFFFF AND PUSH20 0xFFFFFFFFFFFFFFFFFFFFFFFFFFFFFFFFFFFFFFFF AND DUP2 MSTORE PUSH1 0x20 ADD SWAP1 DUP2 MSTORE PUSH1 0x20 ADD PUSH1 0x0 KECCAK256 DUP2 SWAP1 SSTORE POP POP JUMPDEST PUSH1 0x0 PUSH20 0xFFFFFFFFFFFFFFFFFFFFFFFFFFFFFFFFFFFFFFFF AND DUP3 PUSH20 0xFFFFFFFFFFFFFFFFFFFFFFFFFFFFFFFFFFFFFFFF AND SUB PUSH2 0x19A3 JUMPI DUP1 PUSH1 0x2 PUSH1 0x0 DUP3 DUP3 SLOAD SUB SWAP3 POP POP DUP2 SWAP1 SSTORE POP PUSH2 0x19F0 JUMP JUMPDEST DUP1 PUSH1 0x0 DUP1 DUP5 PUSH20 0xFFFFFFFFFFFFFFFFFFFFFFFFFFFFFFFFFFFFFFFF AND PUSH20 0xFFFFFFFFFFFFFFFFFFFFFFFFFFFFFFFFFFFFFFFF AND DUP2 MSTORE PUSH1 0x20 ADD SWAP1 DUP2 MSTORE PUSH1 0x20 ADD PUSH1 0x0 KECCAK256 PUSH1 0x0 DUP3 DUP3 SLOAD ADD SWAP3 POP POP DUP2 SWAP1 SSTORE POP JUMPDEST DUP2 PUSH20 0xFFFFFFFFFFFFFFFFFFFFFFFFFFFFFFFFFFFFFFFF AND DUP4 PUSH20 0xFFFFFFFFFFFFFFFFFFFFFFFFFFFFFFFFFFFFFFFF AND PUSH32 0xDDF252AD1BE2C89B69C2B068FC378DAA952BA7F163C4A11628F55A4DF523B3EF DUP4 PUSH1 0x40 MLOAD PUSH2 0x1A4D SWAP2 SWAP1 PUSH2 0x1C2F JUMP JUMPDEST PUSH1 0x40 MLOAD DUP1 SWAP2 SUB SWAP1 LOG3 POP POP POP JUMP JUMPDEST PUSH1 0x0 DUP2 MLOAD SWAP1 POP SWAP2 SWAP1 POP JUMP JUMPDEST PUSH1 0x0 DUP3 DUP3 MSTORE PUSH1 0x20 DUP3 ADD SWAP1 POP SWAP3 SWAP2 POP POP JUMP JUMPDEST PUSH1 0x0 JUMPDEST DUP4 DUP2 LT ISZERO PUSH2 0x1A94 JUMPI DUP1 DUP3 ADD MLOAD DUP2 DUP5 ADD MSTORE PUSH1 0x20 DUP2 ADD SWAP1 POP PUSH2 0x1A79 JUMP JUMPDEST PUSH1 0x0 DUP5 DUP5 ADD MSTORE POP POP POP POP JUMP JUMPDEST PUSH1 0x0 PUSH1 0x1F NOT PUSH1 0x1F DUP4 ADD AND SWAP1 POP SWAP2 SWAP1 POP JUMP JUMPDEST PUSH1 0x0 PUSH2 0x1ABC DUP3 PUSH2 0x1A5A JUMP JUMPDEST PUSH2 0x1AC6 DUP2 DUP6 PUSH2 0x1A65 JUMP JUMPDEST SWAP4 POP PUSH2 0x1AD6 DUP2 DUP6 PUSH1 0x20 DUP7 ADD PUSH2 0x1A76 JUMP JUMPDEST PUSH2 0x1ADF DUP2 PUSH2 0x1AA0 JUMP JUMPDEST DUP5 ADD SWAP2 POP POP SWAP3 SWAP2 POP POP JUMP JUMPDEST PUSH1 0x0 PUSH1 0x20 DUP3 ADD SWAP1 POP DUP2 DUP2 SUB PUSH1 0x0 DUP4 ADD MSTORE PUSH2 0x1B04 DUP2 DUP5 PUSH2 0x1AB1 JUMP JUMPDEST SWAP1 POP SWAP3 SWAP2 POP POP JUMP JUMPDEST PUSH1 0x0 DUP1 REVERT JUMPDEST PUSH1 0x0 DUP1 REVERT JUMPDEST PUSH1 0x0 PUSH20 0xFFFFFFFFFFFFFFFFFFFFFFFFFFFFFFFFFFFFFFFF DUP3 AND SWAP1 POP SWAP2 SWAP1 POP JUMP JUMPDEST PUSH1 0x0 PUSH2 0x1B41 DUP3 PUSH2 0x1B16 JUMP JUMPDEST SWAP1 POP SWAP2 SWAP1 POP JUMP JUMPDEST PUSH2 0x1B51 DUP2 PUSH2 0x1B36 JUMP JUMPDEST DUP2 EQ PUSH2 0x1B5C JUMPI PUSH1 0x0 DUP1 REVERT JUMPDEST POP JUMP JUMPDEST PUSH1 0x0 DUP2 CALLDATALOAD SWAP1 POP PUSH2 0x1B6E DUP2 PUSH2 0x1B48 JUMP JUMPDEST SWAP3 SWAP2 POP POP JUMP JUMPDEST PUSH1 0x0 DUP2 SWAP1 POP SWAP2 SWAP1 POP JUMP JUMPDEST PUSH2 0x1B87 DUP2 PUSH2 0x1B74 JUMP JUMPDEST DUP2 EQ PUSH2 0x1B92 JUMPI PUSH1 0x0 DUP1 REVERT JUMPDEST POP JUMP JUMPDEST PUSH1 0x0 DUP2 CALLDATALOAD SWAP1 POP PUSH2 0x1BA4 DUP2 PUSH2 0x1B7E JUMP JUMPDEST SWAP3 SWAP2 POP POP JUMP JUMPDEST PUSH1 0x0 DUP1 PUSH1 0x40 DUP4 DUP6 SUB SLT ISZERO PUSH2 0x1BC1 JUMPI PUSH2 0x1BC0 PUSH2 0x1B0C JUMP JUMPDEST JUMPDEST PUSH1 0x0 PUSH2 0x1BCF DUP6 DUP3 DUP7 ADD PUSH2 0x1B5F JUMP JUMPDEST SWAP3 POP POP PUSH1 0x20 PUSH2 0x1BE0 DUP6 DUP3 DUP7 ADD PUSH2 0x1B95 JUMP JUMPDEST SWAP2 POP POP SWAP3 POP SWAP3 SWAP1 POP JUMP JUMPDEST PUSH1 0x0 DUP2 ISZERO ISZERO SWAP1 POP SWAP2 SWAP1 POP JUMP JUMPDEST PUSH2 0x1BFF DUP2 PUSH2 0x1BEA JUMP JUMPDEST DUP3 MSTORE POP POP JUMP JUMPDEST PUSH1 0x0 PUSH1 0x20 DUP3 ADD SWAP1 POP PUSH2 0x1C1A PUSH1 0x0 DUP4 ADD DUP5 PUSH2 0x1BF6 JUMP JUMPDEST SWAP3 SWAP2 POP POP JUMP JUMPDEST PUSH2 0x1C29 DUP2 PUSH2 0x1B74 JUMP JUMPDEST DUP3 MSTORE POP POP JUMP JUMPDEST PUSH1 0x0 PUSH1 0x20 DUP3 ADD SWAP1 POP PUSH2 0x1C44 PUSH1 0x0 DUP4 ADD DUP5 PUSH2 0x1C20 JUMP JUMPDEST SWAP3 SWAP2 POP POP JUMP JUMPDEST PUSH1 0x0 DUP1 PUSH1 0x0 PUSH1 0x60 DUP5 DUP7 SUB SLT ISZERO PUSH2 0x1C63 JUMPI PUSH2 0x1C62 PUSH2 0x1B0C JUMP JUMPDEST JUMPDEST PUSH1 0x0 PUSH2 0x1C71 DUP7 DUP3 DUP8 ADD PUSH2 0x1B5F JUMP JUMPDEST SWAP4 POP POP PUSH1 0x20 PUSH2 0x1C82 DUP7 DUP3 DUP8 ADD PUSH2 0x1B5F JUMP JUMPDEST SWAP3 POP POP PUSH1 0x40 PUSH2 0x1C93 DUP7 DUP3 DUP8 ADD PUSH2 0x1B95 JUMP JUMPDEST SWAP2 POP POP SWAP3 POP SWAP3 POP SWAP3 JUMP JUMPDEST PUSH1 0x0 PUSH1 0xFF DUP3 AND SWAP1 POP SWAP2 SWAP1 POP JUMP JUMPDEST PUSH2 0x1CB3 DUP2 PUSH2 0x1C9D JUMP JUMPDEST DUP3 MSTORE POP POP JUMP JUMPDEST PUSH1 0x0 PUSH1 0x20 DUP3 ADD SWAP1 POP PUSH2 0x1CCE PUSH1 0x0 DUP4 ADD DUP5 PUSH2 0x1CAA JUMP JUMPDEST SWAP3 SWAP2 POP POP JUMP JUMPDEST PUSH1 0x0 PUSH1 0x20 DUP3 DUP5 SUB SLT ISZERO PUSH2 0x1CEA JUMPI PUSH2 0x1CE9 PUSH2 0x1B0C JUMP JUMPDEST JUMPDEST PUSH1 0x0 PUSH2 0x1CF8 DUP5 DUP3 DUP6 ADD PUSH2 0x1B95 JUMP JUMPDEST SWAP2 POP POP SWAP3 SWAP2 POP POP JUMP JUMPDEST PUSH1 0x0 PUSH1 0x20 DUP3 DUP5 SUB SLT ISZERO PUSH2 0x1D17 JUMPI PUSH2 0x1D16 PUSH2 0x1B0C JUMP JUMPDEST JUMPDEST PUSH1 0x0 PUSH2 0x1D25 DUP5 DUP3 DUP6 ADD PUSH2 0x1B5F JUMP JUMPDEST SWAP2 POP POP SWAP3 SWAP2 POP POP JUMP JUMPDEST PUSH1 0x0 PUSH1 0xE0 DUP3 ADD SWAP1 POP PUSH2 0x1D43 PUSH1 0x0 DUP4 ADD DUP11 PUSH2 0x1C20 JUMP JUMPDEST PUSH2 0x1D50 PUSH1 0x20 DUP4 ADD DUP10 PUSH2 0x1C20 JUMP JUMPDEST PUSH2 0x1D5D PUSH1 0x40 DUP4 ADD DUP9 PUSH2 0x1C20 JUMP JUMPDEST PUSH2 0x1D6A PUSH1 0x60 DUP4 ADD DUP8 PUSH2 0x1C20 JUMP JUMPDEST PUSH2 0x1D77 PUSH1 0x80 DUP4 ADD DUP7 PUSH2 0x1C20 JUMP JUMPDEST PUSH2 0x1D84 PUSH1 0xA0 DUP4 ADD DUP6 PUSH2 0x1C20 JUMP JUMPDEST PUSH2 0x1D91 PUSH1 0xC0 DUP4 ADD DUP5 PUSH2 0x1C20 JUMP JUMPDEST SWAP9 SWAP8 POP POP POP POP POP POP POP POP JUMP JUMPDEST PUSH1 0xB DUP2 LT PUSH2 0x1DAA JUMPI PUSH1 0x0 DUP1 REVERT JUMPDEST POP JUMP JUMPDEST PUSH1 0x0 DUP2 CALLDATALOAD SWAP1 POP PUSH2 0x1DBC DUP2 PUSH2 0x1D9D JUMP JUMPDEST SWAP3 SWAP2 POP POP JUMP JUMPDEST PUSH1 0x0 PUSH1 0x20 DUP3 DUP5 SUB SLT ISZERO PUSH2 0x1DD8 JUMPI PUSH2 0x1DD7 PUSH2 0x1B0C JUMP JUMPDEST JUMPDEST PUSH1 0x0 PUSH2 0x1DE6 DUP5 DUP3 DUP6 ADD PUSH2 0x1DAD JUMP JUMPDEST SWAP2 POP POP SWAP3 SWAP2 POP POP JUMP JUMPDEST PUSH1 0x0 PUSH1 0xA0 DUP3 ADD SWAP1 POP PUSH2 0x1E04 PUSH1 0x0 DUP4 ADD DUP9 PUSH2 0x1C20 JUMP JUMPDEST PUSH2 0x1E11 PUSH1 0x20 DUP4 ADD DUP8 PUSH2 0x1C20 JUMP JUMPDEST PUSH2 0x1E1E PUSH1 0x40 DUP4 ADD DUP7 PUSH2 0x1C20 JUMP JUMPDEST PUSH2 0x1E2B PUSH1 0x60 DUP4 ADD DUP6 PUSH2 0x1C20 JUMP JUMPDEST PUSH2 0x1E38 PUSH1 0x80 DUP4 ADD DUP5 PUSH2 0x1C20 JUMP JUMPDEST SWAP7 SWAP6 POP POP POP POP POP POP JUMP JUMPDEST PUSH2 0x1E4B DUP2 PUSH2 0x1B36 JUMP JUMPDEST DUP3 MSTORE POP POP JUMP JUMPDEST PUSH1 0x0 PUSH1 0x20 DUP3 ADD SWAP1 POP PUSH2 0x1E66 PUSH1 0x0 DUP4 ADD DUP5 PUSH2 0x1E42 JUMP JUMPDEST SWAP3 SWAP2 POP POP JUMP JUMPDEST PUSH1 0x0 DUP1 PUSH1 0x40 DUP4 DUP6 SUB SLT ISZERO PUSH2 0x1E83 JUMPI PUSH2 0x1E82 PUSH2 0x1B0C JUMP JUMPDEST JUMPDEST PUSH1 0x0 PUSH2 0x1E91 DUP6 DUP3 DUP7 ADD PUSH2 0x1B5F JUMP JUMPDEST SWAP3 POP POP PUSH1 0x20 PUSH2 0x1EA2 DUP6 DUP3 DUP7 ADD PUSH2 0x1B5F JUMP JUMPDEST SWAP2 POP POP SWAP3 POP SWAP3 SWAP1 POP JUMP JUMPDEST PUSH1 0x0 DUP1 REVERT JUMPDEST PUSH1 0x0 DUP1 REVERT JUMPDEST PUSH1 0x0 DUP1 REVERT JUMPDEST PUSH1 0x0 DUP1 DUP4 PUSH1 0x1F DUP5 ADD SLT PUSH2 0x1ED1 JUMPI PUSH2 0x1ED0 PUSH2 0x1EAC JUMP JUMPDEST JUMPDEST DUP3 CALLDATALOAD SWAP1 POP PUSH8 0xFFFFFFFFFFFFFFFF DUP2 GT ISZERO PUSH2 0x1EEE JUMPI PUSH2 0x1EED PUSH2 0x1EB1 JUMP JUMPDEST JUMPDEST PUSH1 0x20 DUP4 ADD SWAP2 POP DUP4 PUSH1 0x20 DUP3 MUL DUP4 ADD GT ISZERO PUSH2 0x1F0A JUMPI PUSH2 0x1F09 PUSH2 0x1EB6 JUMP JUMPDEST JUMPDEST SWAP3 POP SWAP3 SWAP1 POP JUMP JUMPDEST PUSH1 0x0 DUP1 DUP4 PUSH1 0x1F DUP5 ADD SLT PUSH2 0x1F27 JUMPI PUSH2 0x1F26 PUSH2 0x1EAC JUMP JUMPDEST JUMPDEST DUP3 CALLDATALOAD SWAP1 POP PUSH8 0xFFFFFFFFFFFFFFFF DUP2 GT ISZERO PUSH2 0x1F44 JUMPI PUSH2 0x1F43 PUSH2 0x1EB1 JUMP JUMPDEST JUMPDEST PUSH1 0x20 DUP4 ADD SWAP2 POP DUP4 PUSH1 0x20 DUP3 MUL DUP4 ADD GT ISZERO PUSH2 0x1F60 JUMPI PUSH2 0x1F5F PUSH2 0x1EB6 JUMP JUMPDEST JUMPDEST SWAP3 POP SWAP3 SWAP1 POP JUMP JUMPDEST PUSH1 0x0 DUP1 PUSH1 0x0 DUP1 PUSH1 0x0 PUSH1 0x60 DUP7 DUP9 SUB SLT ISZERO PUSH2 0x1F83 JUMPI PUSH2 0x1F82 PUSH2 0x1B0C JUMP JUMPDEST JUMPDEST PUSH1 0x0 PUSH2 0x1F91 DUP9 DUP3 DUP10 ADD PUSH2 0x1DAD JUMP JUMPDEST SWAP6 POP POP PUSH1 0x20 DUP7 ADD CALLDATALOAD PUSH8 0xFFFFFFFFFFFFFFFF DUP2 GT ISZERO PUSH2 0x1FB2 JUMPI PUSH2 0x1FB1 PUSH2 0x1B11 JUMP JUMPDEST JUMPDEST PUSH2 0x1FBE DUP9 DUP3 DUP10 ADD PUSH2 0x1EBB JUMP JUMPDEST SWAP5 POP SWAP5 POP POP PUSH1 0x40 DUP7 ADD CALLDATALOAD PUSH8 0xFFFFFFFFFFFFFFFF DUP2 GT ISZERO PUSH2 0x1FE1 JUMPI PUSH2 0x1FE0 PUSH2 0x1B11 JUMP JUMPDEST JUMPDEST PUSH2 0x1FED DUP9 DUP3 DUP10 ADD PUSH2 0x1F11 JUMP JUMPDEST SWAP3 POP SWAP3 POP POP SWAP3 SWAP6 POP SWAP3 SWAP6 SWAP1 SWAP4 POP JUMP JUMPDEST PUSH32 0x4E487B7100000000000000000000000000000000000000000000000000000000 PUSH1 0x0 MSTORE PUSH1 0x22 PUSH1 0x4 MSTORE PUSH1 0x24 PUSH1 0x0 REVERT JUMPDEST PUSH1 0x0 PUSH1 0x2 DUP3 DIV SWAP1 POP PUSH1 0x1 DUP3 AND DUP1 PUSH2 0x2043 JUMPI PUSH1 0x7F DUP3 AND SWAP2 POP JUMPDEST PUSH1 0x20 DUP3 LT DUP2 SUB PUSH2 0x2056 JUMPI PUSH2 0x2055 PUSH2 0x1FFC JUMP JUMPDEST JUMPDEST POP SWAP2 SWAP1 POP JUMP JUMPDEST PUSH32 0x4747433A206E6F20616C6C6F636174696F6E0000000000000000000000000000 PUSH1 0x0 DUP3 ADD MSTORE POP JUMP JUMPDEST PUSH1 0x0 PUSH2 0x2092 PUSH1 0x12 DUP4 PUSH2 0x1A65 JUMP JUMPDEST SWAP2 POP PUSH2 0x209D DUP3 PUSH2 0x205C JUMP JUMPDEST PUSH1 0x20 DUP3 ADD SWAP1 POP SWAP2 SWAP1 POP JUMP JUMPDEST PUSH1 0x0 PUSH1 0x20 DUP3 ADD SWAP1 POP DUP2 DUP2 SUB PUSH1 0x0 DUP4 ADD MSTORE PUSH2 0x20C1 DUP2 PUSH2 0x2085 JUMP JUMPDEST SWAP1 POP SWAP2 SWAP1 POP JUMP JUMPDEST PUSH32 0x4747433A2076657374696E67206E6F7420737461727465640000000000000000 PUSH1 0x0 DUP3 ADD MSTORE POP JUMP JUMPDEST PUSH1 0x0 PUSH2 0x20FE PUSH1 0x18 DUP4 PUSH2 0x1A65 JUMP JUMPDEST SWAP2 POP PUSH2 0x2109 DUP3 PUSH2 0x20C8 JUMP JUMPDEST PUSH1 0x20 DUP3 ADD SWAP1 POP SWAP2 SWAP1 POP JUMP JUMPDEST PUSH1 0x0 PUSH1 0x20 DUP3 ADD SWAP1 POP DUP2 DUP2 SUB PUSH1 0x0 DUP4 ADD MSTORE PUSH2 0x212D DUP2 PUSH2 0x20F1 JUMP JUMPDEST SWAP1 POP SWAP2 SWAP1 POP JUMP JUMPDEST PUSH32 0x4E487B7100000000000000000000000000000000000000000000000000000000 PUSH1 0x0 MSTORE PUSH1 0x11 PUSH1 0x4 MSTORE PUSH1 0x24 PUSH1 0x0 REVERT JUMPDEST PUSH1 0x0 PUSH2 0x216E DUP3 PUSH2 0x1B74 JUMP JUMPDEST SWAP2 POP PUSH2 0x2179 DUP4 PUSH2 0x1B74 JUMP JUMPDEST SWAP3 POP DUP3 DUP3 SUB SWAP1 POP DUP2 DUP2 GT ISZERO PUSH2 0x2191 JUMPI PUSH2 0x2190 PUSH2 0x2134 JUMP JUMPDEST JUMPDEST SWAP3 SWAP2 POP POP JUMP JUMPDEST PUSH1 0x0 PUSH2 0x21A2 DUP3 PUSH2 0x1B74 JUMP JUMPDEST SWAP2 POP PUSH2 0x21AD DUP4 PUSH2 0x1B74 JUMP JUMPDEST SWAP3 POP DUP3 DUP3 MUL PUSH2 0x21BB DUP2 PUSH2 0x1B74 JUMP JUMPDEST SWAP2 POP DUP3 DUP3 DIV DUP5 EQ DUP4 ISZERO OR PUSH2 0x21D2 JUMPI PUSH2 0x21D1 PUSH2 0x2134 JUMP JUMPDEST JUMPDEST POP SWAP3 SWAP2 POP POP JUMP JUMPDEST PUSH1 0x0 PUSH2 0x21E4 DUP3 PUSH2 0x1B74 JUMP JUMPDEST SWAP2 POP PUSH2 0x21EF DUP4 PUSH2 0x1B74 JUMP JUMPDEST SWAP3 POP DUP3 DUP3 ADD SWAP1 POP DUP1 DUP3 GT ISZERO PUSH2 0x2207 JUMPI PUSH2 0x2206 PUSH2 0x2134 JUMP JUMPDEST JUMPDEST SWAP3 SWAP2 POP POP JUMP JUMPDEST PUSH32 0x4747433A206E6F7468696E6720746F20636C61696D0000000000000000000000 PUSH1 0x0 DUP3 ADD MSTORE POP JUMP JUMPDEST PUSH1 0x0 PUSH2 0x2243 PUSH1 0x15 DUP4 PUSH2 0x1A65 JUMP JUMPDEST SWAP2 POP PUSH2 0x224E DUP3 PUSH2 0x220D JUMP JUMPDEST PUSH1 0x20 DUP3 ADD SWAP1 POP SWAP2 SWAP1 POP JUMP JUMPDEST PUSH1 0x0 PUSH1 0x20 DUP3 ADD SWAP1 POP DUP2 DUP2 SUB PUSH1 0x0 DUP4 ADD MSTORE PUSH2 0x2272 DUP2 PUSH2 0x2236 JUMP JUMPDEST SWAP1 POP SWAP2 SWAP1 POP JUMP JUMPDEST PUSH1 0x0 PUSH1 0x40 DUP3 ADD SWAP1 POP PUSH2 0x228E PUSH1 0x0 DUP4 ADD DUP6 PUSH2 0x1C20 JUMP JUMPDEST PUSH2 0x229B PUSH1 0x20 DUP4 ADD DUP5 PUSH2 0x1C20 JUMP JUMPDEST SWAP4 SWAP3 POP POP POP JUMP JUMPDEST PUSH32 0x4747433A206172726179206C656E677468206D69736D61746368000000000000 PUSH1 0x0 DUP3 ADD MSTORE POP JUMP JUMPDEST PUSH1 0x0 PUSH2 0x22D8 PUSH1 0x1A DUP4 PUSH2 0x1A65 JUMP JUMPDEST SWAP2 POP PUSH2 0x22E3 DUP3 PUSH2 0x22A2 JUMP JUMPDEST PUSH1 0x20 DUP3 ADD SWAP1 POP SWAP2 SWAP1 POP JUMP JUMPDEST PUSH1 0x0 PUSH1 0x20 DUP3 ADD SWAP1 POP DUP2 DUP2 SUB PUSH1 0x0 DUP4 ADD MSTORE PUSH2 0x2307 DUP2 PUSH2 0x22CB JUMP JUMPDEST SWAP1 POP SWAP2 SWAP1 POP JUMP JUMPDEST PUSH32 0x4E487B7100000000000000000000000000000000000000000000000000000000 PUSH1 0x0 MSTORE PUSH1 0x21 PUSH1 0x4 MSTORE PUSH1 0x24 PUSH1 0x0 REVERT JUMPDEST PUSH32 0x4E487B7100000000000000000000000000000000000000000000000000000000 PUSH1 0x0 MSTORE PUSH1 0x32 PUSH1 0x4 MSTORE PUSH1 0x24 PUSH1 0x0 REVERT JUMPDEST PUSH1 0x0 DUP2 PUSH1 0x1 SHR SWAP1 POP SWAP2 SWAP1 POP JUMP JUMPDEST PUSH1 0x0 DUP1 DUP3 SWAP2 POP DUP4 SWAP1 POP JUMPDEST PUSH1 0x1 DUP6 GT ISZERO PUSH2 0x23C3 JUMPI DUP1 DUP7 DIV DUP2 GT ISZERO PUSH2 0x239F JUMPI PUSH2 0x239E PUSH2 0x2134 JUMP JUMPDEST JUMPDEST PUSH1 0x1 DUP6 AND ISZERO PUSH2 0x23AE JUMPI DUP1 DUP3 MUL SWAP2 POP JUMPDEST DUP1 DUP2 MUL SWAP1 POP PUSH2 0x23BC DUP6 PUSH2 0x236C JUMP JUMPDEST SWAP5 POP PUSH2 0x2383 JUMP JUMPDEST SWAP5 POP SWAP5 SWAP3 POP POP POP JUMP JUMPDEST PUSH1 0x0 DUP3 PUSH2 0x23DC JUMPI PUSH1 0x1 SWAP1 POP PUSH2 0x2498 JUMP JUMPDEST DUP2 PUSH2 0x23EA JUMPI PUSH1 0x0 SWAP1 POP PUSH2 0x2498 JUMP JUMPDEST DUP2 PUSH1 0x1 DUP2 EQ PUSH2 0x2400 JUMPI PUSH1 0x2 DUP2 EQ PUSH2 0x240A JUMPI PUSH2 0x2439 JUMP JUMPDEST PUSH1 0x1 SWAP2 POP POP PUSH2 0x2498 JUMP JUMPDEST PUSH1 0xFF DUP5 GT ISZERO PUSH2 0x241C JUMPI PUSH2 0x241B PUSH2 0x2134 JUMP JUMPDEST JUMPDEST DUP4 PUSH1 0x2 EXP SWAP2 POP DUP5 DUP3 GT ISZERO PUSH2 0x2433 JUMPI PUSH2 0x2432 PUSH2 0x2134 JUMP JUMPDEST JUMPDEST POP PUSH2 0x2498 JUMP JUMPDEST POP PUSH1 0x20 DUP4 LT PUSH2 0x133 DUP4 LT AND PUSH1 0x4E DUP5 LT PUSH1 0xB DUP5 LT AND OR ISZERO PUSH2 0x246E JUMPI DUP3 DUP3 EXP SWAP1 POP DUP4 DUP2 GT ISZERO PUSH2 0x2469 JUMPI PUSH2 0x2468 PUSH2 0x2134 JUMP JUMPDEST JUMPDEST PUSH2 0x2498 JUMP JUMPDEST PUSH2 0x247B DUP5 DUP5 DUP5 PUSH1 0x1 PUSH2 0x2379 JUMP JUMPDEST SWAP3 POP SWAP1 POP DUP2 DUP5 DIV DUP2 GT ISZERO PUSH2 0x2492 JUMPI PUSH2 0x2491 PUSH2 0x2134 JUMP JUMPDEST JUMPDEST DUP2 DUP2 MUL SWAP1 POP JUMPDEST SWAP4 SWAP3 POP POP POP JUMP JUMPDEST PUSH1 0x0 PUSH2 0x24AA DUP3 PUSH2 0x1B74 JUMP JUMPDEST SWAP2 POP PUSH2 0x24B5 DUP4 PUSH2 0x1C9D JUMP JUMPDEST SWAP3 POP PUSH2 0x24E2 PUSH32 0xFFFFFFFFFFFFFFFFFFFFFFFFFFFFFFFFFFFFFFFFFFFFFFFFFFFFFFFFFFFFFFFF DUP5 DUP5 PUSH2 0x23CC JUMP JUMPDEST SWAP1 POP SWAP3 SWAP2 POP POP JUMP JUMPDEST PUSH32 0x4747433A207A65726F2062656E65666963696172790000000000000000000000 PUSH1 0x0 DUP3 ADD MSTORE POP JUMP JUMPDEST PUSH1 0x0 PUSH2 0x2520 PUSH1 0x15 DUP4 PUSH2 0x1A65 JUMP JUMPDEST SWAP2 POP PUSH2 0x252B DUP3 PUSH2 0x24EA JUMP JUMPDEST PUSH1 0x20 DUP3 ADD SWAP1 POP SWAP2 SWAP1 POP JUMP JUMPDEST PUSH1 0x0 PUSH1 0x20 DUP3 ADD SWAP1 POP DUP2 DUP2 SUB PUSH1 0x0 DUP4 ADD MSTORE PUSH2 0x254F DUP2 PUSH2 0x2513 JUMP JUMPDEST SWAP1 POP SWAP2 SWAP1 POP JUMP JUMPDEST PUSH32 0x4747433A20657863656564732063617465676F727920706F6F6C000000000000 PUSH1 0x0 DUP3 ADD MSTORE POP JUMP JUMPDEST PUSH1 0x0 PUSH2 0x258C PUSH1 0x1A DUP4 PUSH2 0x1A65 JUMP JUMPDEST SWAP2 POP PUSH2 0x2597 DUP3 PUSH2 0x2556 JUMP JUMPDEST PUSH1 0x20 DUP3 ADD SWAP1 POP SWAP2 SWAP1 POP JUMP JUMPDEST PUSH1 0x0 PUSH1 0x20 DUP3 ADD SWAP1 POP DUP2 DUP2 SUB PUSH1 0x0 DUP4 ADD MSTORE PUSH2 0x25BB DUP2 PUSH2 0x257F JUMP JUMPDEST SWAP1 POP SWAP2 SWAP1 POP JUMP JUMPDEST PUSH32 0x4747433A2062656E656669636961727920616C72656164792068617320616C6C PUSH1 0x0 DUP3 ADD MSTORE PUSH32 0x6F636174696F6E00000000000000000000000000000000000000000000000000 PUSH1 0x20 DUP3 ADD MSTORE POP JUMP JUMPDEST PUSH1 0x0 PUSH2 0x261E PUSH1 0x27 DUP4 PUSH2 0x1A65 JUMP JUMPDEST SWAP2 POP PUSH2 0x2629 DUP3 PUSH2 0x25C2 JUMP JUMPDEST PUSH1 0x40 DUP3 ADD SWAP1 POP SWAP2 SWAP1 POP JUMP JUMPDEST PUSH1 0x0 PUSH1 0x20 DUP3 ADD SWAP1 POP DUP2 DUP2 SUB PUSH1 0x0 DUP4 ADD MSTORE PUSH2 0x264D DUP2 PUSH2 0x2611 JUMP JUMPDEST SWAP1 POP SWAP2 SWAP1 POP JUMP JUMPDEST PUSH32 0x4E487B7100000000000000000000000000000000000000000000000000000000 PUSH1 0x0 MSTORE PUSH1 0x12 PUSH1 0x4 MSTORE PUSH1 0x24 PUSH1 0x0 REVERT JUMPDEST PUSH1 0x0 PUSH2 0x268E DUP3 PUSH2 0x1B74 JUMP JUMPDEST SWAP2 POP PUSH2 0x2699 DUP4 PUSH2 0x1B74 JUMP JUMPDEST SWAP3 POP DUP3 PUSH2 0x26A9 JUMPI PUSH2 0x26A8 PUSH2 0x2654 JUMP JUMPDEST JUMPDEST DUP3 DUP3 DIV SWAP1 POP SWAP3 SWAP2 POP POP JUMP JUMPDEST PUSH32 0x4747433A20696E76616C69642076657374696E67206475726174696F6E000000 PUSH1 0x0 DUP3 ADD MSTORE POP JUMP JUMPDEST PUSH1 0x0 PUSH2 0x26EA PUSH1 0x1D DUP4 PUSH2 0x1A65 JUMP JUMPDEST SWAP2 POP PUSH2 0x26F5 DUP3 PUSH2 0x26B4 JUMP JUMPDEST PUSH1 0x20 DUP3 ADD SWAP1 POP SWAP2 SWAP1 POP JUMP JUMPDEST PUSH1 0x0 PUSH1 0x20 DUP3 ADD SWAP1 POP DUP2 DUP2 SUB PUSH1 0x0 DUP4 ADD MSTORE PUSH2 0x2719 DUP2 PUSH2 0x26DD JUMP JUMPDEST SWAP1 POP SWAP2 SWAP1 POP JUMP JUMPDEST PUSH1 0x0 PUSH1 0xC0 DUP3 ADD SWAP1 POP PUSH2 0x2735 PUSH1 0x0 DUP4 ADD DUP10 PUSH2 0x1C20 JUMP JUMPDEST PUSH2 0x2742 PUSH1 0x20 DUP4 ADD DUP9 PUSH2 0x1C20 JUMP JUMPDEST PUSH2 0x274F PUSH1 0x40 DUP4 ADD DUP8 PUSH2 0x1C20 JUMP JUMPDEST PUSH2 0x275C PUSH1 0x60 DUP4 ADD DUP7 PUSH2 0x1C20 JUMP JUMPDEST PUSH2 0x2769 PUSH1 0x80 DUP4 ADD DUP6 PUSH2 0x1C20 JUMP JUMPDEST PUSH2 0x2776 PUSH1 0xA0 DUP4 ADD DUP5 PUSH2 0x1C20 JUMP JUMPDEST SWAP8 SWAP7 POP POP POP POP POP POP POP JUMP JUMPDEST PUSH1 0x0 PUSH2 0x278C DUP3 PUSH2 0x1B74 JUMP JUMPDEST SWAP2 POP PUSH32 0xFFFFFFFFFFFFFFFFFFFFFFFFFFFFFFFFFFFFFFFFFFFFFFFFFFFFFFFFFFFFFFFF DUP3 SUB PUSH2 0x27BE JUMPI PUSH2 0x27BD PUSH2 0x2134 JUMP JUMPDEST JUMPDEST PUSH1 0x1 DUP3 ADD SWAP1 POP SWAP2 SWAP1 POP JUMP JUMPDEST PUSH32 0x4747433A206F6C64207A65726F00000000000000000000000000000000000000 PUSH1 0x0 DUP3 ADD MSTORE POP JUMP JUMPDEST PUSH1 0x0 PUSH2 0x27FF PUSH1 0xD DUP4 PUSH2 0x1A65 JUMP JUMPDEST SWAP2 POP PUSH2 0x280A DUP3 PUSH2 0x27C9 JUMP JUMPDEST PUSH1 0x20 DUP3 ADD SWAP1 POP SWAP2 SWAP1 POP JUMP JUMPDEST PUSH1 0x0 PUSH1 0x20 DUP3 ADD SWAP1 POP DUP2 DUP2 SUB PUSH1 0x0 DUP4 ADD MSTORE PUSH2 0x282E DUP2 PUSH2 0x27F2 JUMP JUMPDEST SWAP1 POP SWAP2 SWAP1 POP JUMP JUMPDEST PUSH32 0x4747433A206E6577207A65726F00000000000000000000000000000000000000 PUSH1 0x0 DUP3 ADD MSTORE POP JUMP JUMPDEST PUSH1 0x0 PUSH2 0x286B PUSH1 0xD DUP4 PUSH2 0x1A65 JUMP JUMPDEST SWAP2 POP PUSH2 0x2876 DUP3 PUSH2 0x2835 JUMP JUMPDEST PUSH1 0x20 DUP3 ADD SWAP1 POP SWAP2 SWAP1 POP JUMP JUMPDEST PUSH1 0x0 PUSH1 0x20 DUP3 ADD SWAP1 POP DUP2 DUP2 SUB PUSH1 0x0 DUP4 ADD MSTORE PUSH2 0x289A DUP2 PUSH2 0x285E JUMP JUMPDEST SWAP1 POP SWAP2 SWAP1 POP JUMP JUMPDEST PUSH32 0x4747433A206E6F20616C6C6F636174696F6E206F6C6400000000000000000000 PUSH1 0x0 DUP3 ADD MSTORE POP JUMP JUMPDEST PUSH1 0x0 PUSH2 0x28D7 PUSH1 0x16 DUP4 PUSH2 0x1A65 JUMP JUMPDEST SWAP2 POP PUSH2 0x28E2 DUP3 PUSH2 0x28A1 JUMP JUMPDEST PUSH1 0x20 DUP3 ADD SWAP1 POP SWAP2 SWAP1 POP JUMP JUMPDEST PUSH1 0x0 PUSH1 0x20 DUP3 ADD SWAP1 POP DUP2 DUP2 SUB PUSH1 0x0 DUP4 ADD MSTORE PUSH2 0x2906 DUP2 PUSH2 0x28CA JUMP JUMPDEST SWAP1 POP SWAP2 SWAP1 POP JUMP JUMPDEST PUSH32 0x4747433A20616C6C6F636174696F6E20657869737473206E6577000000000000 PUSH1 0x0 DUP3 ADD MSTORE POP JUMP JUMPDEST PUSH1 0x0 PUSH2 0x2943 PUSH1 0x1A DUP4 PUSH2 0x1A65 JUMP JUMPDEST SWAP2 POP PUSH2 0x294E DUP3 PUSH2 0x290D JUMP JUMPDEST PUSH1 0x20 DUP3 ADD SWAP1 POP SWAP2 SWAP1 POP JUMP JUMPDEST PUSH1 0x0 PUSH1 0x20 DUP3 ADD SWAP1 POP DUP2 DUP2 SUB PUSH1 0x0 DUP4 ADD MSTORE PUSH2 0x2972 DUP2 PUSH2 0x2936 JUMP JUMPDEST SWAP1 POP SWAP2 SWAP1 POP JUMP JUMPDEST PUSH1 0x0 PUSH1 0x60 DUP3 ADD SWAP1 POP PUSH2 0x298E PUSH1 0x0 DUP4 ADD DUP7 PUSH2 0x1E42 JUMP JUMPDEST PUSH2 0x299B PUSH1 0x20 DUP4 ADD DUP6 PUSH2 0x1C20 JUMP JUMPDEST PUSH2 0x29A8 PUSH1 0x40 DUP4 ADD DUP5 PUSH2 0x1C20 JUMP JUMPDEST SWAP5 SWAP4 POP POP POP POP JUMP INVALID LOG2 PUSH5 0x6970667358 0x22 SLT KECCAK256 0x4B CALL ADDMOD MSTORE 0xC2 0xBC 0xC3 0xE2 PUSH24 0x1C59B104C545507EF82027A4A10557E70B4F6EC664350964 PUSH20 0x6F6C634300081400330000000000000000000000 "},"methodIdentifiers":{"SECONDS_PER_MONTH()":"10786deb","allocateBatch(uint8,address[],uint256[])":"eeb32e3d","allocations(address)":"52a9039c","allowance(address,address)":"dd62ed3e","approve(address,uint256)":"095ea7b3","balanceOf(address)":"70a08231","burn(uint256)":"42966c68","burnFrom(address,uint256)":"79cc6790","categories(uint8)":"7be6277b","changeAddress(address,address)":"efe08a7d","claim()":"4e71d92d","decimals()":"313ce567","name()":"06fdde03","owner()":"8da5cb5b","renounceOwnership()":"715018a6","symbol()":"95d89b41","totalSupply()":"18160ddd","transfer(address,uint256)":"a9059cbb","transferFrom(address,address,uint256)":"23b872dd","transferOwnership(address)":"f2fde38b"}}}}}