{"contracts/GGC.sol":{"GGC":{"abi":[{"inputs":[],"stateMutability":"nonpayable","type":"constructor"},{"inputs":[{"internalType":"address","name":"spender","type":"address"},{"internalType":"uint256","name":"allowance","type":"uint256"},{"internalType":"uint256","name":"needed","type":"uint256"}],"name":"ERC20InsufficientAllowance","type":"error"},{"inputs":[{"internalType":"address","name":"sender","type":"address"},{"internalType":"uint256","name":"balance","type":"uint256"},{"internalType":"uint256","name":"needed","type":"uint256"}],"name":"ERC20InsufficientBalance","type":"error"},{"inputs":[{"internalType":"address","name":"approver","type":"address"}],"name":"ERC20InvalidApprover","type":"error"},{"inputs":[{"internalType":"address","name":"receiver","type":"address"}],"name":"ERC20InvalidReceiver","type":"error"},{"inputs":[{"internalType":"address","name":"sender","type":"address"}],"name":"ERC20InvalidSender","type":"error"},{"inputs":[{"internalType":"address","name":"spender","type":"address"}],"name":"ERC20InvalidSpender","type":"error"},{"inputs":[{"internalType":"address","name":"owner","type":"address"}],"name":"OwnableInvalidOwner","type":"error"},{"inputs":[{"internalType":"address","name":"account","type":"address"}],"name":"OwnableUnauthorizedAccount","type":"error"},{"anonymous":false,"inputs":[{"indexed":true,"internalType":"address","name":"oldAddress","type":"address"},{"indexed":true,"internalType":"address","name":"newAddress","type":"address"}],"name":"AddressChanged","type":"event"},{"anonymous":false,"inputs":[{"indexed":true,"internalType":"address","name":"beneficiary","type":"address"},{"indexed":false,"internalType":"uint256","name":"unclaimed","type":"uint256"},{"indexed":false,"internalType":"enum GGC.Category","name":"category","type":"uint8"}],"name":"AllocationRevoked","type":"event"},{"anonymous":false,"inputs":[{"indexed":true,"internalType":"enum GGC.Category","name":"category","type":"uint8"},{"indexed":true,"internalType":"address","name":"beneficiary","type":"address"},{"indexed":false,"internalType":"uint256","name":"totalAmount","type":"uint256"},{"indexed":false,"internalType":"uint256","name":"tgeUnlock","type":"uint256"},{"indexed":false,"internalType":"uint256","name":"cliffMonths","type":"uint256"},{"indexed":false,"internalType":"uint256","name":"vestingMonths","type":"uint256"},{"indexed":false,"internalType":"uint256","name":"claimPerSecond","type":"uint256"},{"indexed":false,"internalType":"uint256","name":"startTimestamp","type":"uint256"}],"name":"AllocationSet","type":"event"},{"anonymous":false,"inputs":[{"indexed":true,"internalType":"address","name":"owner","type":"address"},{"indexed":true,"internalType":"address","name":"spender","type":"address"},{"indexed":false,"internalType":"uint256","name":"value","type":"uint256"}],"name":"Approval","type":"event"},{"anonymous":false,"inputs":[{"indexed":true,"internalType":"enum GGC.Category","name":"category","type":"uint8"},{"indexed":false,"internalType":"uint256","name":"totalAmount","type":"uint256"},{"indexed":false,"internalType":"uint16","name":"tgeBps","type":"uint16"},{"indexed":false,"internalType":"uint256","name":"cliffMonths","type":"uint256"},{"indexed":false,"internalType":"uint256","name":"vestingMonths","type":"uint256"}],"name":"CategoryInitialized","type":"event"},{"anonymous":false,"inputs":[{"indexed":true,"internalType":"address","name":"previousOwner","type":"address"},{"indexed":true,"internalType":"address","name":"newOwner","type":"address"}],"name":"OwnershipTransferStarted","type":"event"},{"anonymous":false,"inputs":[{"indexed":true,"internalType":"address","name":"previousOwner","type":"address"},{"indexed":true,"internalType":"address","name":"newOwner","type":"address"}],"name":"OwnershipTransferred","type":"event"},{"anonymous":false,"inputs":[{"indexed":true,"internalType":"address","name":"beneficiary","type":"address"},{"indexed":false,"internalType":"uint256","name":"amount","type":"uint256"},{"indexed":false,"internalType":"uint256","name":"timestamp","type":"uint256"}],"name":"TokensClaimed","type":"event"},{"anonymous":false,"inputs":[{"indexed":true,"internalType":"address","name":"from","type":"address"},{"indexed":true,"internalType":"address","name":"to","type":"address"},{"indexed":false,"internalType":"uint256","name":"value","type":"uint256"}],"name":"Transfer","type":"event"},{"inputs":[],"name":"BPS_DENOMINATOR","outputs":[{"internalType":"uint16","name":"","type":"uint16"}],"stateMutability":"view","type":"function"},{"inputs":[],"name":"SECONDS_PER_MONTH","outputs":[{"internalType":"uint256","name":"","type":"uint256"}],"stateMutability":"view","type":"function"},{"inputs":[],"name":"acceptOwnership","outputs":[],"stateMutability":"nonpayable","type":"function"},{"inputs":[{"internalType":"address","name":"","type":"address"}],"name":"addressChangeApproved","outputs":[{"internalType":"bool","name":"","type":"bool"}],"stateMutability":"view","type":"function"},{"inputs":[{"internalType":"enum GGC.Category","name":"category","type":"uint8"},{"internalType":"address[]","name":"beneficiaries","type":"address[]"},{"internalType":"uint256[]","name":"amounts","type":"uint256[]"}],"name":"allocateBatch","outputs":[],"stateMutability":"nonpayable","type":"function"},{"inputs":[{"internalType":"address","name":"","type":"address"}],"name":"allocations","outputs":[{"internalType":"enum GGC.Category","name":"category","type":"uint8"},{"internalType":"uint256","name":"total","type":"uint256"},{"internalType":"uint256","name":"tgeUnlock","type":"uint256"},{"internalType":"uint256","name":"cliffMonths","type":"uint256"},{"internalType":"uint256","name":"vestingMonths","type":"uint256"},{"internalType":"uint256","name":"claimPerSecond","type":"uint256"},{"internalType":"uint256","name":"claimed","type":"uint256"},{"internalType":"uint256","name":"startTimestamp","type":"uint256"}],"stateMutability":"view","type":"function"},{"inputs":[{"internalType":"address","name":"owner","type":"address"},{"internalType":"address","name":"spender","type":"address"}],"name":"allowance","outputs":[{"internalType":"uint256","name":"","type":"uint256"}],"stateMutability":"view","type":"function"},{"inputs":[{"internalType":"address","name":"spender","type":"address"},{"internalType":"uint256","name":"value","type":"uint256"}],"name":"approve","outputs":[{"internalType":"bool","name":"","type":"bool"}],"stateMutability":"nonpayable","type":"function"},{"inputs":[],"name":"approveAddressChange","outputs":[],"stateMutability":"nonpayable","type":"function"},{"inputs":[{"internalType":"address","name":"account","type":"address"}],"name":"balanceOf","outputs":[{"internalType":"uint256","name":"","type":"uint256"}],"stateMutability":"view","type":"function"},{"inputs":[{"internalType":"uint256","name":"value","type":"uint256"}],"name":"burn","outputs":[],"stateMutability":"nonpayable","type":"function"},{"inputs":[{"internalType":"address","name":"account","type":"address"},{"internalType":"uint256","name":"value","type":"uint256"}],"name":"burnFrom","outputs":[],"stateMutability":"nonpayable","type":"function"},{"inputs":[{"internalType":"enum GGC.Category","name":"","type":"uint8"}],"name":"categories","outputs":[{"internalType":"uint256","name":"totalAmount","type":"uint256"},{"internalType":"uint16","name":"tgeBps","type":"uint16"},{"internalType":"uint256","name":"cliffMonths","type":"uint256"},{"internalType":"uint256","name":"vestingMonths","type":"uint256"},{"internalType":"uint256","name":"allocated","type":"uint256"}],"stateMutability":"view","type":"function"},{"inputs":[{"internalType":"address","name":"oldAddr","type":"address"},{"internalType":"address","name":"newAddr","type":"address"}],"name":"changeAddress","outputs":[],"stateMutability":"nonpayable","type":"function"},{"inputs":[],"name":"claim","outputs":[],"stateMutability":"nonpayable","type":"function"},{"inputs":[],"name":"decimals","outputs":[{"internalType":"uint8","name":"","type":"uint8"}],"stateMutability":"view","type":"function"},{"inputs":[],"name":"name","outputs":[{"internalType":"string","name":"","type":"string"}],"stateMutability":"view","type":"function"},{"inputs":[],"name":"owner","outputs":[{"internalType":"address","name":"","type":"address"}],"stateMutability":"view","type":"function"},{"inputs":[],"name":"pendingOwner","outputs":[{"internalType":"address","name":"","type":"address"}],"stateMutability":"view","type":"function"},{"inputs":[],"name":"renounceOwnership","outputs":[],"stateMutability":"nonpayable","type":"function"},{"inputs":[],"name":"revokeAddressChangeApproval","outputs":[],"stateMutability":"nonpayable","type":"function"},{"inputs":[{"internalType":"address","name":"beneficiary","type":"address"}],"name":"revokeAllocation","outputs":[],"stateMutability":"nonpayable","type":"function"},{"inputs":[],"name":"symbol","outputs":[{"internalType":"string","name":"","type":"string"}],"stateMutability":"view","type":"function"},{"inputs":[],"name":"totalSupply","outputs":[{"internalType":"uint256","name":"","type":"uint256"}],"stateMutability":"view","type":"function"},{"inputs":[{"internalType":"address","name":"to","type":"address"},{"internalType":"uint256","name":"value","type":"uint256"}],"name":"transfer","outputs":[{"internalType":"bool","name":"","type":"bool"}],"stateMutability":"nonpayable","type":"function"},{"inputs":[{"internalType":"address","name":"from","type":"address"},{"internalType":"address","name":"to","type":"address"},{"internalType":"uint256","name":"value","type":"uint256"}],"name":"transferFrom","outputs":[{"internalType":"bool","name":"","type":"bool"}],"stateMutability":"nonpayable","type":"function"},{"inputs":[{"internalType":"address","name":"newOwner","type":"address"}],"name":"transferOwnership","outputs":[],"stateMutability":"nonpayable","type":"function"}],"evm":{"bytecode":{"linkReferences":{},"object":"60806040523480156200001157600080fd5b5033604051806040016040528060128152602001714772616e642047616e67737461204369747960701b8152506040518060400160405280600381526020016247474360e81b81525081600390816200006b91906200059e565b5060046200007a82826200059e565b5050506001600160a01b038116620000ad57604051631e4fbdf760e01b8152600060048201526024015b60405180910390fd5b620000b881620001e9565b50620000e230620000cc6012600a6200077f565b620000dc90633b9aca0062000797565b62000207565b620000fa600063098968006103e86003600c62000245565b6200011260016302faf0806105dc6003600c62000245565b6200012960026307bfa48061271060008062000245565b6200014060036305f5e10060006006602462000245565b62000157600463039387006101f482601862000245565b6200016f60056305f5e10061012c6003603062000245565b6200018760066301312d006103e86000600562000245565b6200019e60076301c9c38060006008604062000245565b620001b560086308f0d18061271060008062000245565b620001cc60096308f0d180600a6000604862000245565b620001e3600a6302faf08060006003602462000245565b620007dd565b600680546001600160a01b0319169055620002048162000374565b50565b6001600160a01b038216620002335760405163ec442f0560e01b815260006004820152602401620000a4565b6200024160008383620003c6565b5050565b6000620002556012600a6200077f565b62000261908662000797565b90506040518060a001604052808281526020018561ffff16815260200184815260200183815260200160008152506007600088600a811115620002a857620002a8620007b1565b600a811115620002bc57620002bc620007b1565b81526020808201929092526040908101600020835181559183015160018301805461ffff191661ffff90921691909117905582015160028201556060820151600382015560809091015160049091015585600a811115620003215762000321620007b1565b6040805183815261ffff87166020820152908101859052606081018490527f09f20332fb28d16bab33aad07b39e6ae6b2a696ee7dfba356a9e71ce59372f089060800160405180910390a2505050505050565b600580546001600160a01b038381166001600160a01b0319831681179093556040519116919082907f8be0079c531659141344cd1fd0a4f28419497f9722a3daafe3b4186f6b6457e090600090a35050565b6001600160a01b038316620003f5578060026000828254620003e99190620007c7565b90915550620004699050565b6001600160a01b038316600090815260208190526040902054818110156200044a5760405163391434e360e21b81526001600160a01b03851660048201526024810182905260448101839052606401620000a4565b6001600160a01b03841660009081526020819052604090209082900390555b6001600160a01b0382166200048757600280548290039055620004a6565b6001600160a01b03821660009081526020819052604090208054820190555b816001600160a01b0316836001600160a01b03167fddf252ad1be2c89b69c2b068fc378daa952ba7f163c4a11628f55a4df523b3ef83604051620004ec91815260200190565b60405180910390a3505050565b634e487b7160e01b600052604160045260246000fd5b600181811c908216806200052457607f821691505b6020821081036200054557634e487b7160e01b600052602260045260246000fd5b50919050565b601f8211156200059957600081815260208120601f850160051c81016020861015620005745750805b601f850160051c820191505b81811015620005955782815560010162000580565b5050505b505050565b81516001600160401b03811115620005ba57620005ba620004f9565b620005d281620005cb84546200050f565b846200054b565b602080601f8311600181146200060a5760008415620005f15750858301515b600019600386901b1c1916600185901b17855562000595565b600085815260208120601f198616915b828110156200063b578886015182559484019460019091019084016200061a565b50858210156200065a5787850151600019600388901b60f8161c191681555b5050505050600190811b01905550565b634e487b7160e01b600052601160045260246000fd5b600181815b80851115620006c1578160001904821115620006a557620006a56200066a565b80851615620006b357918102915b93841c939080029062000685565b509250929050565b600082620006da5750600162000779565b81620006e95750600062000779565b81600181146200070257600281146200070d576200072d565b600191505062000779565b60ff8411156200072157620007216200066a565b50506001821b62000779565b5060208310610133831016604e8410600b841016171562000752575081810a62000779565b6200075e838362000680565b80600019048211156200077557620007756200066a565b0290505b92915050565b60006200079060ff841683620006c9565b9392505050565b80820281158282048414176200077957620007796200066a565b634e487b7160e01b600052602160045260246000fd5b808201808211156200077957620007796200066a565b611a6780620007ed6000396000f3fe608060405234801561001057600080fd5b50600436106101a95760003560e01c806379ba5097116100f9578063e1a4521811610097578063e821c39a11610071578063e821c39a14610454578063eeb32e3d14610470578063efe08a7d14610483578063f2fde38b1461049657600080fd5b8063e1a4521814610414578063e30c397814610430578063e70b11df1461044157600080fd5b80638da5cb5b116100d35780638da5cb5b1461039b57806395d89b41146103c0578063a9059cbb146103c8578063dd62ed3e146103db57600080fd5b806379ba50971461031357806379cc67901461031b5780637be6277b1461032e57600080fd5b806342966c681161016657806364f342ee1161014057806364f342ee146102b757806370a08231146102bf578063710315d6146102e8578063715018a61461030b57600080fd5b806342966c68146102315780634e71d92d1461024657806352a9039c1461024e57600080fd5b806306fdde03146101ae578063095ea7b3146101cc57806310786deb146101ef57806318160ddd1461020757806323b872dd1461020f578063313ce56714610222575b600080fd5b6101b66104a9565b6040516101c391906115a2565b60405180910390f35b6101df6101da36600461160c565b61053b565b60405190151581526020016101c3565b6101f962278d0081565b6040519081526020016101c3565b6002546101f9565b6101df61021d366004611636565b610555565b604051601281526020016101c3565b61024461023f366004611672565b61057b565b005b610244610588565b6102a361025c36600461168b565b6008602052600090815260409020805460018201546002830154600384015460048501546005860154600687015460079097015460ff909616969495939492939192909188565b6040516101c39897969594939291906116de565b6102446107ab565b6101f96102cd36600461168b565b6001600160a01b031660009081526020819052604090205490565b6101df6102f636600461168b565b60096020526000908152604090205460ff1681565b610244610816565b61024461082a565b61024461032936600461160c565b61086b565b61037061033c366004611731565b60076020526000908152604090208054600182015460028301546003840154600490940154929361ffff9092169290919085565b6040805195865261ffff9094166020860152928401919091526060830152608082015260a0016101c3565b6005546001600160a01b03165b6040516001600160a01b0390911681526020016101c3565b6101b6610884565b6101df6103d636600461160c565b610893565b6101f96103e936600461174c565b6001600160a01b03918216600090815260016020908152604080832093909416825291909152205490565b61041d61271081565b60405161ffff90911681526020016101c3565b6006546001600160a01b03166103a8565b61024461044f36600461168b565b6108a1565b610244336000908152600960205260409020805460ff19169055565b61024461047e3660046117cb565b610a5c565b61024461049136600461174c565b610e43565b6102446104a436600461168b565b611174565b6060600380546104b89061184c565b80601f01602080910402602001604051908101604052809291908181526020018280546104e49061184c565b80156105315780601f1061050657610100808354040283529160200191610531565b820191906000526020600020905b81548152906001019060200180831161051457829003601f168201915b5050505050905090565b6000336105498185856111e5565b60019150505b92915050565b6000336105638582856111f7565b61056e858585611276565b60019150505b9392505050565b61058533826112d5565b50565b33600090815260086020526040902060018101546105e25760405162461bcd60e51b815260206004820152601260248201527123a3a19d1037379030b63637b1b0ba34b7b760711b60448201526064015b60405180910390fd5b6007810154429081101561062b5760405162461bcd60e51b815260206004820152601060248201526f11d1d0ce881b9bdd081cdd185c9d195960821b60448201526064016105d9565b6002820154600183015460009061064390839061189c565b9050600062278d00856003015461065a91906118af565b856007015461066991906118c6565b90508084106106d357600062278d00866004015461068791906118af565b61069190836118c6565b90508085106106ab576106a483856118c6565b93506106d1565b60058601546106ba838761189c565b6106c491906118af565b6106ce90856118c6565b93505b505b84600101548311156106e757846001015492505b60008560060154846106f9919061189c565b9050600081116107435760405162461bcd60e51b81526020600482015260156024820152744747433a206e6f7468696e6720746f20636c61696d60581b60448201526064016105d9565b8086600601600082825461075791906118c6565b909155506107689050303383611276565b604080518281526020810187905233917f9923b4306c6c030f2bdfbf156517d5983b87e15b96176da122cd4f2effa4ba7b910160405180910390a2505050505050565b336000908152600860205260409020600101546107fa5760405162461bcd60e51b815260206004820152600d60248201526c4747433a206e6f20616c6c6f6360981b60448201526064016105d9565b336000908152600960205260409020805460ff19166001179055565b61081e61130b565b6108286000611338565b565b60065433906001600160a01b031681146108625760405163118cdaa760e01b81526001600160a01b03821660048201526024016105d9565b61058581611338565b6108768233836111f7565b61088082826112d5565b5050565b6060600480546104b89061184c565b600033610549818585611276565b6108a961130b565b6001600160a01b038116600090815260086020526040902060018101546109075760405162461bcd60e51b815260206004820152601260248201527123a3a19d1037379030b63637b1b0ba34b7b760711b60448201526064016105d9565b60008160060154826001015461091d919061189c565b90506000811161096f5760405162461bcd60e51b815260206004820181905260248201527f4747433a206e6f7468696e6720756e636c61696d656420746f207265766f6b6560448201526064016105d9565b8154600090600790829060ff16600a81111561098d5761098d6116a6565b600a81111561099e5761099e6116a6565b81526020019081526020016000209050818160040160008282546109c2919061189c565b90915550506001600160a01b038416600081815260086020526040808220805460ff1916815560018101839055600281018390556003810183905560048101839055600581018390556006810183905560070191909155845490517f2a00296a8bb64e722a7d641b29b1b11efde441c98cf2ce2e75c7ff866da7c72391610a4e91869160ff16906118d9565b60405180910390a250505050565b610a6461130b565b828114610aaa5760405162461bcd60e51b815260206004820152601460248201527308e8e867440d8cadccee8d040dad2e6dac2e8c6d60631b60448201526064016105d9565b60006007600087600a811115610ac257610ac26116a6565b600a811115610ad357610ad36116a6565b8152602001908152602001600020905060005b84811015610e3a576000868683818110610b0257610b026118ed565b9050602002016020810190610b17919061168b565b90506001600160a01b038116610b635760405162461bcd60e51b81526020600482015260116024820152704747433a207a65726f206164647265737360781b60448201526064016105d9565b6000610b716012600a6119e7565b868685818110610b8357610b836118ed565b90506020020135610b9491906118af565b90508360000154818560040154610bab91906118c6565b1115610bef5760405162461bcd60e51b815260206004820152601360248201527211d1d0ce881c1bdbdb08195e1a185d5cdd1959606a1b60448201526064016105d9565b6001600160a01b03821660009081526008602052604090206001015415610c515760405162461bcd60e51b81526020600482015260166024820152754747433a20616c72656164792068617320616c6c6f6360501b60448201526064016105d9565b80846004016000828254610c6591906118c6565b9091555050600184015460009061271090610c849061ffff16846118af565b610c8e91906119f6565b90506000610c9c828461189c565b905060008087600301541115610ccc5762278d008760030154610cbf91906118af565b610cc990836119f6565b90505b6040518061010001604052808d600a811115610cea57610cea6116a6565b81526020808201879052604080830187905260028b0154606084015260038b0154608084015260a08301859052600060c084018190524260e0909401939093526001600160a01b03891683526008909152902081518154829060ff1916600183600a811115610d5b57610d5b6116a6565b02179055506020820151600182015560408201516002820155606082015160038201556080820151600482015560a0820151600582015560c0820151600682015560e0909101516007909101556001600160a01b0385168c600a811115610dc457610dc46116a6565b600289015460038a01546040805189815260208101899052908101929092526060820152608081018490524260a08201527f951a64fd3e10bdb0c1fe79c048549dbdbb2a891ee03ed559d71fb935d35d95f89060c00160405180910390a350505050508080610e3290611a18565b915050610ae6565b50505050505050565b610e4b61130b565b6001600160a01b03821615801590610e6b57506001600160a01b03811615155b610ea85760405162461bcd60e51b815260206004820152600e60248201526d23a3a19d103d32b9379030b2323960911b60448201526064016105d9565b6001600160a01b03821660009081526008602052604090206001810154610f055760405162461bcd60e51b815260206004820152601160248201527011d1d0ce881b9bc8185b1b1bd8c81bdb19607a1b60448201526064016105d9565b6001600160a01b03821660009081526008602052604090206001015415610f665760405162461bcd60e51b81526020600482015260156024820152744747433a20616c6c6f6320657869737473206e657760581b60448201526064016105d9565b6001600160a01b03831660009081526009602052604090205460ff16610fc65760405162461bcd60e51b815260206004820152601560248201527411d1d0ce881b9bc81d5cd95c88185c1c1c9bdd985b605a1b60448201526064016105d9565b6040805161010081019091528154819060ff16600a811115610fea57610fea6116a6565b8152602001826001015481526020018260020154815260200182600301548152602001826004015481526020018260050154815260200182600601548152602001826007015481525060086000846001600160a01b03166001600160a01b0316815260200190815260200160002060008201518160000160006101000a81548160ff0219169083600a811115611082576110826116a6565b02179055506020828101516001808401919091556040808501516002808601919091556060860151600380870191909155608087015160048088019190915560a088015160058089019190915560c08901516006808a019190915560e0909901516007988901556001600160a01b03808d16600081815260088a52878120805460ff1990811682559981018290559687018190559486018590559285018490559084018390559783018290559190950185905560099093528084208054909216909155519285169290917f1552bf14c580c20e53a4227e9b76734da8e21905a818fdc5fa05dcb2891bb89e91a3505050565b61117c61130b565b600680546001600160a01b0383166001600160a01b031990911681179091556111ad6005546001600160a01b031690565b6001600160a01b03167f38d16b8cac22d99fc7c124b9cd0de2d3fa1faef420bfe791d8c362d765e2270060405160405180910390a350565b6111f28383836001611351565b505050565b6001600160a01b03838116600090815260016020908152604080832093861683529290522054600019811015611270578181101561126157604051637dc7a0d960e11b81526001600160a01b038416600482015260248101829052604481018390526064016105d9565b61127084848484036000611351565b50505050565b6001600160a01b0383166112a057604051634b637e8f60e11b8152600060048201526024016105d9565b6001600160a01b0382166112ca5760405163ec442f0560e01b8152600060048201526024016105d9565b6111f2838383611426565b6001600160a01b0382166112ff57604051634b637e8f60e11b8152600060048201526024016105d9565b61088082600083611426565b6005546001600160a01b031633146108285760405163118cdaa760e01b81523360048201526024016105d9565b600680546001600160a01b031916905561058581611550565b6001600160a01b03841661137b5760405163e602df0560e01b8152600060048201526024016105d9565b6001600160a01b0383166113a557604051634a1406b160e11b8152600060048201526024016105d9565b6001600160a01b038085166000908152600160209081526040808320938716835292905220829055801561127057826001600160a01b0316846001600160a01b03167f8c5be1e5ebec7d5bd14f71427d1e84f3dd0314c0f7b2291e5b200ac8c7c3b9258460405161141891815260200190565b60405180910390a350505050565b6001600160a01b03831661145157806002600082825461144691906118c6565b909155506114c39050565b6001600160a01b038316600090815260208190526040902054818110156114a45760405163391434e360e21b81526001600160a01b038516600482015260248101829052604481018390526064016105d9565b6001600160a01b03841660009081526020819052604090209082900390555b6001600160a01b0382166114df576002805482900390556114fe565b6001600160a01b03821660009081526020819052604090208054820190555b816001600160a01b0316836001600160a01b03167fddf252ad1be2c89b69c2b068fc378daa952ba7f163c4a11628f55a4df523b3ef8360405161154391815260200190565b60405180910390a3505050565b600580546001600160a01b038381166001600160a01b0319831681179093556040519116919082907f8be0079c531659141344cd1fd0a4f28419497f9722a3daafe3b4186f6b6457e090600090a35050565b600060208083528351808285015260005b818110156115cf578581018301518582016040015282016115b3565b506000604082860101526040601f19601f8301168501019250505092915050565b80356001600160a01b038116811461160757600080fd5b919050565b6000806040838503121561161f57600080fd5b611628836115f0565b946020939093013593505050565b60008060006060848603121561164b57600080fd5b611654846115f0565b9250611662602085016115f0565b9150604084013590509250925092565b60006020828403121561168457600080fd5b5035919050565b60006020828403121561169d57600080fd5b610574826115f0565b634e487b7160e01b600052602160045260246000fd5b600b81106116da57634e487b7160e01b600052602160045260246000fd5b9052565b61010081016116ed828b6116bc565b602082019890985260408101969096526060860194909452608085019290925260a084015260c083015260e090910152919050565b8035600b811061160757600080fd5b60006020828403121561174357600080fd5b61057482611722565b6000806040838503121561175f57600080fd5b611768836115f0565b9150611776602084016115f0565b90509250929050565b60008083601f84011261179157600080fd5b50813567ffffffffffffffff8111156117a957600080fd5b6020830191508360208260051b85010111156117c457600080fd5b9250929050565b6000806000806000606086880312156117e357600080fd5b6117ec86611722565b9450602086013567ffffffffffffffff8082111561180957600080fd5b61181589838a0161177f565b9096509450604088013591508082111561182e57600080fd5b5061183b8882890161177f565b969995985093965092949392505050565b600181811c9082168061186057607f821691505b60208210810361188057634e487b7160e01b600052602260045260246000fd5b50919050565b634e487b7160e01b600052601160045260246000fd5b8181038181111561054f5761054f611886565b808202811582820484141761054f5761054f611886565b8082018082111561054f5761054f611886565b8281526040810161057460208301846116bc565b634e487b7160e01b600052603260045260246000fd5b600181815b8085111561193e57816000190482111561192457611924611886565b8085161561193157918102915b93841c9390800290611908565b509250929050565b6000826119555750600161054f565b816119625750600061054f565b816001811461197857600281146119825761199e565b600191505061054f565b60ff84111561199357611993611886565b50506001821b61054f565b5060208310610133831016604e8410600b84101617156119c1575081810a61054f565b6119cb8383611903565b80600019048211156119df576119df611886565b029392505050565b600061057460ff841683611946565b600082611a1357634e487b7160e01b600052601260045260246000fd5b500490565b600060018201611a2a57611a2a611886565b506001019056fea26469706673582212208bc9d91a286d1c2093a32fd3da9f4a2a43f2dcfb36a4a500ec5a0f48eddf7bae64736f6c63430008140033","opcodes":"PUSH1 0x80 PUSH1 0x40 MSTORE CALLVALUE DUP1 ISZERO PUSH3 0x11 JUMPI PUSH1 0x0 DUP1 REVERT JUMPDEST POP CALLER PUSH1 0x40 MLOAD DUP1 PUSH1 0x40 ADD PUSH1 0x40 MSTORE DUP1 PUSH1 0x12 DUP2 MSTORE PUSH1 0x20 ADD PUSH18 0x4772616E642047616E677374612043697479 PUSH1 0x70 SHL DUP2 MSTORE POP PUSH1 0x40 MLOAD DUP1 PUSH1 0x40 ADD PUSH1 0x40 MSTORE DUP1 PUSH1 0x3 DUP2 MSTORE PUSH1 0x20 ADD PUSH3 0x474743 PUSH1 0xE8 SHL DUP2 MSTORE POP DUP2 PUSH1 0x3 SWAP1 DUP2 PUSH3 0x6B SWAP2 SWAP1 PUSH3 0x59E JUMP JUMPDEST POP PUSH1 0x4 PUSH3 0x7A DUP3 DUP3 PUSH3 0x59E JUMP JUMPDEST POP POP POP PUSH1 0x1 PUSH1 0x1 PUSH1 0xA0 SHL SUB DUP2 AND PUSH3 0xAD JUMPI PUSH1 0x40 MLOAD PUSH4 0x1E4FBDF7 PUSH1 0xE0 SHL DUP2 MSTORE PUSH1 0x0 PUSH1 0x4 DUP3 ADD MSTORE PUSH1 0x24 ADD JUMPDEST PUSH1 0x40 MLOAD DUP1 SWAP2 SUB SWAP1 REVERT JUMPDEST PUSH3 0xB8 DUP2 PUSH3 0x1E9 JUMP JUMPDEST POP PUSH3 0xE2 ADDRESS PUSH3 0xCC PUSH1 0x12 PUSH1 0xA PUSH3 0x77F JUMP JUMPDEST PUSH3 0xDC SWAP1 PUSH4 0x3B9ACA00 PUSH3 0x797 JUMP JUMPDEST PUSH3 0x207 JUMP JUMPDEST PUSH3 0xFA PUSH1 0x0 PUSH4 0x9896800 PUSH2 0x3E8 PUSH1 0x3 PUSH1 0xC PUSH3 0x245 JUMP JUMPDEST PUSH3 0x112 PUSH1 0x1 PUSH4 0x2FAF080 PUSH2 0x5DC PUSH1 0x3 PUSH1 0xC PUSH3 0x245 JUMP JUMPDEST PUSH3 0x129 PUSH1 0x2 PUSH4 0x7BFA480 PUSH2 0x2710 PUSH1 0x0 DUP1 PUSH3 0x245 JUMP JUMPDEST PUSH3 0x140 PUSH1 0x3 PUSH4 0x5F5E100 PUSH1 0x0 PUSH1 0x6 PUSH1 0x24 PUSH3 0x245 JUMP JUMPDEST PUSH3 0x157 PUSH1 0x4 PUSH4 0x3938700 PUSH2 0x1F4 DUP3 PUSH1 0x18 PUSH3 0x245 JUMP JUMPDEST PUSH3 0x16F PUSH1 0x5 PUSH4 0x5F5E100 PUSH2 0x12C PUSH1 0x3 PUSH1 0x30 PUSH3 0x245 JUMP JUMPDEST PUSH3 0x187 PUSH1 0x6 PUSH4 0x1312D00 PUSH2 0x3E8 PUSH1 0x0 PUSH1 0x5 PUSH3 0x245 JUMP JUMPDEST PUSH3 0x19E PUSH1 0x7 PUSH4 0x1C9C380 PUSH1 0x0 PUSH1 0x8 PUSH1 0x40 PUSH3 0x245 JUMP JUMPDEST PUSH3 0x1B5 PUSH1 0x8 PUSH4 0x8F0D180 PUSH2 0x2710 PUSH1 0x0 DUP1 PUSH3 0x245 JUMP JUMPDEST PUSH3 0x1CC PUSH1 0x9 PUSH4 0x8F0D180 PUSH1 0xA PUSH1 0x0 PUSH1 0x48 PUSH3 0x245 JUMP JUMPDEST PUSH3 0x1E3 PUSH1 0xA PUSH4 0x2FAF080 PUSH1 0x0 PUSH1 0x3 PUSH1 0x24 PUSH3 0x245 JUMP JUMPDEST PUSH3 0x7DD JUMP JUMPDEST PUSH1 0x6 DUP1 SLOAD PUSH1 0x1 PUSH1 0x1 PUSH1 0xA0 SHL SUB NOT AND SWAP1 SSTORE PUSH3 0x204 DUP2 PUSH3 0x374 JUMP JUMPDEST POP JUMP JUMPDEST PUSH1 0x1 PUSH1 0x1 PUSH1 0xA0 SHL SUB DUP3 AND PUSH3 0x233 JUMPI PUSH1 0x40 MLOAD PUSH4 0xEC442F05 PUSH1 0xE0 SHL DUP2 MSTORE PUSH1 0x0 PUSH1 0x4 DUP3 ADD MSTORE PUSH1 0x24 ADD PUSH3 0xA4 JUMP JUMPDEST PUSH3 0x241 PUSH1 0x0 DUP4 DUP4 PUSH3 0x3C6 JUMP JUMPDEST POP POP JUMP JUMPDEST PUSH1 0x0 PUSH3 0x255 PUSH1 0x12 PUSH1 0xA PUSH3 0x77F JUMP JUMPDEST PUSH3 0x261 SWAP1 DUP7 PUSH3 0x797 JUMP JUMPDEST SWAP1 POP PUSH1 0x40 MLOAD DUP1 PUSH1 0xA0 ADD PUSH1 0x40 MSTORE DUP1 DUP3 DUP2 MSTORE PUSH1 0x20 ADD DUP6 PUSH2 0xFFFF AND DUP2 MSTORE PUSH1 0x20 ADD DUP5 DUP2 MSTORE PUSH1 0x20 ADD DUP4 DUP2 MSTORE PUSH1 0x20 ADD PUSH1 0x0 DUP2 MSTORE POP PUSH1 0x7 PUSH1 0x0 DUP9 PUSH1 0xA DUP2 GT ISZERO PUSH3 0x2A8 JUMPI PUSH3 0x2A8 PUSH3 0x7B1 JUMP JUMPDEST PUSH1 0xA DUP2 GT ISZERO PUSH3 0x2BC JUMPI PUSH3 0x2BC PUSH3 0x7B1 JUMP JUMPDEST DUP2 MSTORE PUSH1 0x20 DUP1 DUP3 ADD SWAP3 SWAP1 SWAP3 MSTORE PUSH1 0x40 SWAP1 DUP2 ADD PUSH1 0x0 KECCAK256 DUP4 MLOAD DUP2 SSTORE SWAP2 DUP4 ADD MLOAD PUSH1 0x1 DUP4 ADD DUP1 SLOAD PUSH2 0xFFFF NOT AND PUSH2 0xFFFF SWAP1 SWAP3 AND SWAP2 SWAP1 SWAP2 OR SWAP1 SSTORE DUP3 ADD MLOAD PUSH1 0x2 DUP3 ADD SSTORE PUSH1 0x60 DUP3 ADD MLOAD PUSH1 0x3 DUP3 ADD SSTORE PUSH1 0x80 SWAP1 SWAP2 ADD MLOAD PUSH1 0x4 SWAP1 SWAP2 ADD SSTORE DUP6 PUSH1 0xA DUP2 GT ISZERO PUSH3 0x321 JUMPI PUSH3 0x321 PUSH3 0x7B1 JUMP JUMPDEST PUSH1 0x40 DUP1 MLOAD DUP4 DUP2 MSTORE PUSH2 0xFFFF DUP8 AND PUSH1 0x20 DUP3 ADD MSTORE SWAP1 DUP2 ADD DUP6 SWAP1 MSTORE PUSH1 0x60 DUP2 ADD DUP5 SWAP1 MSTORE PUSH32 0x9F20332FB28D16BAB33AAD07B39E6AE6B2A696EE7DFBA356A9E71CE59372F08 SWAP1 PUSH1 0x80 ADD PUSH1 0x40 MLOAD DUP1 SWAP2 SUB SWAP1 LOG2 POP POP POP POP POP POP JUMP JUMPDEST PUSH1 0x5 DUP1 SLOAD PUSH1 0x1 PUSH1 0x1 PUSH1 0xA0 SHL SUB DUP4 DUP2 AND PUSH1 0x1 PUSH1 0x1 PUSH1 0xA0 SHL SUB NOT DUP4 AND DUP2 OR SWAP1 SWAP4 SSTORE PUSH1 0x40 MLOAD SWAP2 AND SWAP2 SWAP1 DUP3 SWAP1 PUSH32 0x8BE0079C531659141344CD1FD0A4F28419497F9722A3DAAFE3B4186F6B6457E0 SWAP1 PUSH1 0x0 SWAP1 LOG3 POP POP JUMP JUMPDEST PUSH1 0x1 PUSH1 0x1 PUSH1 0xA0 SHL SUB DUP4 AND PUSH3 0x3F5 JUMPI DUP1 PUSH1 0x2 PUSH1 0x0 DUP3 DUP3 SLOAD PUSH3 0x3E9 SWAP2 SWAP1 PUSH3 0x7C7 JUMP JUMPDEST SWAP1 SWAP2 SSTORE POP PUSH3 0x469 SWAP1 POP JUMP JUMPDEST PUSH1 0x1 PUSH1 0x1 PUSH1 0xA0 SHL SUB DUP4 AND PUSH1 0x0 SWAP1 DUP2 MSTORE PUSH1 0x20 DUP2 SWAP1 MSTORE PUSH1 0x40 SWAP1 KECCAK256 SLOAD DUP2 DUP2 LT ISZERO PUSH3 0x44A JUMPI PUSH1 0x40 MLOAD PUSH4 0x391434E3 PUSH1 0xE2 SHL DUP2 MSTORE PUSH1 0x1 PUSH1 0x1 PUSH1 0xA0 SHL SUB DUP6 AND PUSH1 0x4 DUP3 ADD MSTORE PUSH1 0x24 DUP2 ADD DUP3 SWAP1 MSTORE PUSH1 0x44 DUP2 ADD DUP4 SWAP1 MSTORE PUSH1 0x64 ADD PUSH3 0xA4 JUMP JUMPDEST PUSH1 0x1 PUSH1 0x1 PUSH1 0xA0 SHL SUB DUP5 AND PUSH1 0x0 SWAP1 DUP2 MSTORE PUSH1 0x20 DUP2 SWAP1 MSTORE PUSH1 0x40 SWAP1 KECCAK256 SWAP1 DUP3 SWAP1 SUB SWAP1 SSTORE JUMPDEST PUSH1 0x1 PUSH1 0x1 PUSH1 0xA0 SHL SUB DUP3 AND PUSH3 0x487 JUMPI PUSH1 0x2 DUP1 SLOAD DUP3 SWAP1 SUB SWAP1 SSTORE PUSH3 0x4A6 JUMP JUMPDEST PUSH1 0x1 PUSH1 0x1 PUSH1 0xA0 SHL SUB DUP3 AND PUSH1 0x0 SWAP1 DUP2 MSTORE PUSH1 0x20 DUP2 SWAP1 MSTORE PUSH1 0x40 SWAP1 KECCAK256 DUP1 SLOAD DUP3 ADD SWAP1 SSTORE JUMPDEST DUP2 PUSH1 0x1 PUSH1 0x1 PUSH1 0xA0 SHL SUB AND DUP4 PUSH1 0x1 PUSH1 0x1 PUSH1 0xA0 SHL SUB AND PUSH32 0xDDF252AD1BE2C89B69C2B068FC378DAA952BA7F163C4A11628F55A4DF523B3EF DUP4 PUSH1 0x40 MLOAD PUSH3 0x4EC SWAP2 DUP2 MSTORE PUSH1 0x20 ADD SWAP1 JUMP JUMPDEST PUSH1 0x40 MLOAD DUP1 SWAP2 SUB SWAP1 LOG3 POP POP POP JUMP JUMPDEST PUSH4 0x4E487B71 PUSH1 0xE0 SHL PUSH1 0x0 MSTORE PUSH1 0x41 PUSH1 0x4 MSTORE PUSH1 0x24 PUSH1 0x0 REVERT JUMPDEST PUSH1 0x1 DUP2 DUP2 SHR SWAP1 DUP3 AND DUP1 PUSH3 0x524 JUMPI PUSH1 0x7F DUP3 AND SWAP2 POP JUMPDEST PUSH1 0x20 DUP3 LT DUP2 SUB PUSH3 0x545 JUMPI PUSH4 0x4E487B71 PUSH1 0xE0 SHL PUSH1 0x0 MSTORE PUSH1 0x22 PUSH1 0x4 MSTORE PUSH1 0x24 PUSH1 0x0 REVERT JUMPDEST POP SWAP2 SWAP1 POP JUMP JUMPDEST PUSH1 0x1F DUP3 GT ISZERO PUSH3 0x599 JUMPI PUSH1 0x0 DUP2 DUP2 MSTORE PUSH1 0x20 DUP2 KECCAK256 PUSH1 0x1F DUP6 ADD PUSH1 0x5 SHR DUP2 ADD PUSH1 0x20 DUP7 LT ISZERO PUSH3 0x574 JUMPI POP DUP1 JUMPDEST PUSH1 0x1F DUP6 ADD PUSH1 0x5 SHR DUP3 ADD SWAP2 POP JUMPDEST DUP2 DUP2 LT ISZERO PUSH3 0x595 JUMPI DUP3 DUP2 SSTORE PUSH1 0x1 ADD PUSH3 0x580 JUMP JUMPDEST POP POP POP JUMPDEST POP POP POP JUMP JUMPDEST DUP2 MLOAD PUSH1 0x1 PUSH1 0x1 PUSH1 0x40 SHL SUB DUP2 GT ISZERO PUSH3 0x5BA JUMPI PUSH3 0x5BA PUSH3 0x4F9 JUMP JUMPDEST PUSH3 0x5D2 DUP2 PUSH3 0x5CB DUP5 SLOAD PUSH3 0x50F JUMP JUMPDEST DUP5 PUSH3 0x54B JUMP JUMPDEST PUSH1 0x20 DUP1 PUSH1 0x1F DUP4 GT PUSH1 0x1 DUP2 EQ PUSH3 0x60A JUMPI PUSH1 0x0 DUP5 ISZERO PUSH3 0x5F1 JUMPI POP DUP6 DUP4 ADD MLOAD JUMPDEST PUSH1 0x0 NOT PUSH1 0x3 DUP7 SWAP1 SHL SHR NOT AND PUSH1 0x1 DUP6 SWAP1 SHL OR DUP6 SSTORE PUSH3 0x595 JUMP JUMPDEST PUSH1 0x0 DUP6 DUP2 MSTORE PUSH1 0x20 DUP2 KECCAK256 PUSH1 0x1F NOT DUP7 AND SWAP2 JUMPDEST DUP3 DUP2 LT ISZERO PUSH3 0x63B JUMPI DUP9 DUP7 ADD MLOAD DUP3 SSTORE SWAP5 DUP5 ADD SWAP5 PUSH1 0x1 SWAP1 SWAP2 ADD SWAP1 DUP5 ADD PUSH3 0x61A JUMP JUMPDEST POP DUP6 DUP3 LT ISZERO PUSH3 0x65A JUMPI DUP8 DUP6 ADD MLOAD PUSH1 0x0 NOT PUSH1 0x3 DUP9 SWAP1 SHL PUSH1 0xF8 AND SHR NOT AND DUP2 SSTORE JUMPDEST POP POP POP POP POP PUSH1 0x1 SWAP1 DUP2 SHL ADD SWAP1 SSTORE POP JUMP JUMPDEST PUSH4 0x4E487B71 PUSH1 0xE0 SHL PUSH1 0x0 MSTORE PUSH1 0x11 PUSH1 0x4 MSTORE PUSH1 0x24 PUSH1 0x0 REVERT JUMPDEST PUSH1 0x1 DUP2 DUP2 JUMPDEST DUP1 DUP6 GT ISZERO PUSH3 0x6C1 JUMPI DUP2 PUSH1 0x0 NOT DIV DUP3 GT ISZERO PUSH3 0x6A5 JUMPI PUSH3 0x6A5 PUSH3 0x66A JUMP JUMPDEST DUP1 DUP6 AND ISZERO PUSH3 0x6B3 JUMPI SWAP2 DUP2 MUL SWAP2 JUMPDEST SWAP4 DUP5 SHR SWAP4 SWAP1 DUP1 MUL SWAP1 PUSH3 0x685 JUMP JUMPDEST POP SWAP3 POP SWAP3 SWAP1 POP JUMP JUMPDEST PUSH1 0x0 DUP3 PUSH3 0x6DA JUMPI POP PUSH1 0x1 PUSH3 0x779 JUMP JUMPDEST DUP2 PUSH3 0x6E9 JUMPI POP PUSH1 0x0 PUSH3 0x779 JUMP JUMPDEST DUP2 PUSH1 0x1 DUP2 EQ PUSH3 0x702 JUMPI PUSH1 0x2 DUP2 EQ PUSH3 0x70D JUMPI PUSH3 0x72D JUMP JUMPDEST PUSH1 0x1 SWAP2 POP POP PUSH3 0x779 JUMP JUMPDEST PUSH1 0xFF DUP5 GT ISZERO PUSH3 0x721 JUMPI PUSH3 0x721 PUSH3 0x66A JUMP JUMPDEST POP POP PUSH1 0x1 DUP3 SHL PUSH3 0x779 JUMP JUMPDEST POP PUSH1 0x20 DUP4 LT PUSH2 0x133 DUP4 LT AND PUSH1 0x4E DUP5 LT PUSH1 0xB DUP5 LT AND OR ISZERO PUSH3 0x752 JUMPI POP DUP2 DUP2 EXP PUSH3 0x779 JUMP JUMPDEST PUSH3 0x75E DUP4 DUP4 PUSH3 0x680 JUMP JUMPDEST DUP1 PUSH1 0x0 NOT DIV DUP3 GT ISZERO PUSH3 0x775 JUMPI PUSH3 0x775 PUSH3 0x66A JUMP JUMPDEST MUL SWAP1 POP JUMPDEST SWAP3 SWAP2 POP POP JUMP JUMPDEST PUSH1 0x0 PUSH3 0x790 PUSH1 0xFF DUP5 AND DUP4 PUSH3 0x6C9 JUMP JUMPDEST SWAP4 SWAP3 POP POP POP JUMP JUMPDEST DUP1 DUP3 MUL DUP2 ISZERO DUP3 DUP3 DIV DUP5 EQ OR PUSH3 0x779 JUMPI PUSH3 0x779 PUSH3 0x66A JUMP JUMPDEST PUSH4 0x4E487B71 PUSH1 0xE0 SHL PUSH1 0x0 MSTORE PUSH1 0x21 PUSH1 0x4 MSTORE PUSH1 0x24 PUSH1 0x0 REVERT JUMPDEST DUP1 DUP3 ADD DUP1 DUP3 GT ISZERO PUSH3 0x779 JUMPI PUSH3 0x779 PUSH3 0x66A JUMP JUMPDEST PUSH2 0x1A67 DUP1 PUSH3 0x7ED PUSH1 0x0 CODECOPY PUSH1 0x0 RETURN INVALID PUSH1 0x80 PUSH1 0x40 MSTORE CALLVALUE DUP1 ISZERO PUSH2 0x10 JUMPI PUSH1 0x0 DUP1 REVERT JUMPDEST POP PUSH1 0x4 CALLDATASIZE LT PUSH2 0x1A9 JUMPI PUSH1 0x0 CALLDATALOAD PUSH1 0xE0 SHR DUP1 PUSH4 0x79BA5097 GT PUSH2 0xF9 JUMPI DUP1 PUSH4 0xE1A45218 GT PUSH2 0x97 JUMPI DUP1 PUSH4 0xE821C39A GT PUSH2 0x71 JUMPI DUP1 PUSH4 0xE821C39A EQ PUSH2 0x454 JUMPI DUP1 PUSH4 0xEEB32E3D EQ PUSH2 0x470 JUMPI DUP1 PUSH4 0xEFE08A7D EQ PUSH2 0x483 JUMPI DUP1 PUSH4 0xF2FDE38B EQ PUSH2 0x496 JUMPI PUSH1 0x0 DUP1 REVERT JUMPDEST DUP1 PUSH4 0xE1A45218 EQ PUSH2 0x414 JUMPI DUP1 PUSH4 0xE30C3978 EQ PUSH2 0x430 JUMPI DUP1 PUSH4 0xE70B11DF EQ PUSH2 0x441 JUMPI PUSH1 0x0 DUP1 REVERT JUMPDEST DUP1 PUSH4 0x8DA5CB5B GT PUSH2 0xD3 JUMPI DUP1 PUSH4 0x8DA5CB5B EQ PUSH2 0x39B JUMPI DUP1 PUSH4 0x95D89B41 EQ PUSH2 0x3C0 JUMPI DUP1 PUSH4 0xA9059CBB EQ PUSH2 0x3C8 JUMPI DUP1 PUSH4 0xDD62ED3E EQ PUSH2 0x3DB JUMPI PUSH1 0x0 DUP1 REVERT JUMPDEST DUP1 PUSH4 0x79BA5097 EQ PUSH2 0x313 JUMPI DUP1 PUSH4 0x79CC6790 EQ PUSH2 0x31B JUMPI DUP1 PUSH4 0x7BE6277B EQ PUSH2 0x32E JUMPI PUSH1 0x0 DUP1 REVERT JUMPDEST DUP1 PUSH4 0x42966C68 GT PUSH2 0x166 JUMPI DUP1 PUSH4 0x64F342EE GT PUSH2 0x140 JUMPI DUP1 PUSH4 0x64F342EE EQ PUSH2 0x2B7 JUMPI DUP1 PUSH4 0x70A08231 EQ PUSH2 0x2BF JUMPI DUP1 PUSH4 0x710315D6 EQ PUSH2 0x2E8 JUMPI DUP1 PUSH4 0x715018A6 EQ PUSH2 0x30B JUMPI PUSH1 0x0 DUP1 REVERT JUMPDEST DUP1 PUSH4 0x42966C68 EQ PUSH2 0x231 JUMPI DUP1 PUSH4 0x4E71D92D EQ PUSH2 0x246 JUMPI DUP1 PUSH4 0x52A9039C EQ PUSH2 0x24E JUMPI PUSH1 0x0 DUP1 REVERT JUMPDEST DUP1 PUSH4 0x6FDDE03 EQ PUSH2 0x1AE JUMPI DUP1 PUSH4 0x95EA7B3 EQ PUSH2 0x1CC JUMPI DUP1 PUSH4 0x10786DEB EQ PUSH2 0x1EF JUMPI DUP1 PUSH4 0x18160DDD EQ PUSH2 0x207 JUMPI DUP1 PUSH4 0x23B872DD EQ PUSH2 0x20F JUMPI DUP1 PUSH4 0x313CE567 EQ PUSH2 0x222 JUMPI JUMPDEST PUSH1 0x0 DUP1 REVERT JUMPDEST PUSH2 0x1B6 PUSH2 0x4A9 JUMP JUMPDEST PUSH1 0x40 MLOAD PUSH2 0x1C3 SWAP2 SWAP1 PUSH2 0x15A2 JUMP JUMPDEST PUSH1 0x40 MLOAD DUP1 SWAP2 SUB SWAP1 RETURN JUMPDEST PUSH2 0x1DF PUSH2 0x1DA CALLDATASIZE PUSH1 0x4 PUSH2 0x160C JUMP JUMPDEST PUSH2 0x53B JUMP JUMPDEST PUSH1 0x40 MLOAD SWAP1 ISZERO ISZERO DUP2 MSTORE PUSH1 0x20 ADD PUSH2 0x1C3 JUMP JUMPDEST PUSH2 0x1F9 PUSH3 0x278D00 DUP2 JUMP JUMPDEST PUSH1 0x40 MLOAD SWAP1 DUP2 MSTORE PUSH1 0x20 ADD PUSH2 0x1C3 JUMP JUMPDEST PUSH1 0x2 SLOAD PUSH2 0x1F9 JUMP JUMPDEST PUSH2 0x1DF PUSH2 0x21D CALLDATASIZE PUSH1 0x4 PUSH2 0x1636 JUMP JUMPDEST PUSH2 0x555 JUMP JUMPDEST PUSH1 0x40 MLOAD PUSH1 0x12 DUP2 MSTORE PUSH1 0x20 ADD PUSH2 0x1C3 JUMP JUMPDEST PUSH2 0x244 PUSH2 0x23F CALLDATASIZE PUSH1 0x4 PUSH2 0x1672 JUMP JUMPDEST PUSH2 0x57B JUMP JUMPDEST STOP JUMPDEST PUSH2 0x244 PUSH2 0x588 JUMP JUMPDEST PUSH2 0x2A3 PUSH2 0x25C CALLDATASIZE PUSH1 0x4 PUSH2 0x168B JUMP JUMPDEST PUSH1 0x8 PUSH1 0x20 MSTORE PUSH1 0x0 SWAP1 DUP2 MSTORE PUSH1 0x40 SWAP1 KECCAK256 DUP1 SLOAD PUSH1 0x1 DUP3 ADD SLOAD PUSH1 0x2 DUP4 ADD SLOAD PUSH1 0x3 DUP5 ADD SLOAD PUSH1 0x4 DUP6 ADD SLOAD PUSH1 0x5 DUP7 ADD SLOAD PUSH1 0x6 DUP8 ADD SLOAD PUSH1 0x7 SWAP1 SWAP8 ADD SLOAD PUSH1 0xFF SWAP1 SWAP7 AND SWAP7 SWAP5 SWAP6 SWAP4 SWAP5 SWAP3 SWAP4 SWAP2 SWAP3 SWAP1 SWAP2 DUP9 JUMP JUMPDEST PUSH1 0x40 MLOAD PUSH2 0x1C3 SWAP9 SWAP8 SWAP7 SWAP6 SWAP5 SWAP4 SWAP3 SWAP2 SWAP1 PUSH2 0x16DE JUMP JUMPDEST PUSH2 0x244 PUSH2 0x7AB JUMP JUMPDEST PUSH2 0x1F9 PUSH2 0x2CD CALLDATASIZE PUSH1 0x4 PUSH2 0x168B JUMP JUMPDEST PUSH1 0x1 PUSH1 0x1 PUSH1 0xA0 SHL SUB AND PUSH1 0x0 SWAP1 DUP2 MSTORE PUSH1 0x20 DUP2 SWAP1 MSTORE PUSH1 0x40 SWAP1 KECCAK256 SLOAD SWAP1 JUMP JUMPDEST PUSH2 0x1DF PUSH2 0x2F6 CALLDATASIZE PUSH1 0x4 PUSH2 0x168B JUMP JUMPDEST PUSH1 0x9 PUSH1 0x20 MSTORE PUSH1 0x0 SWAP1 DUP2 MSTORE PUSH1 0x40 SWAP1 KECCAK256 SLOAD PUSH1 0xFF AND DUP2 JUMP JUMPDEST PUSH2 0x244 PUSH2 0x816 JUMP JUMPDEST PUSH2 0x244 PUSH2 0x82A JUMP JUMPDEST PUSH2 0x244 PUSH2 0x329 CALLDATASIZE PUSH1 0x4 PUSH2 0x160C JUMP JUMPDEST PUSH2 0x86B JUMP JUMPDEST PUSH2 0x370 PUSH2 0x33C CALLDATASIZE PUSH1 0x4 PUSH2 0x1731 JUMP JUMPDEST PUSH1 0x7 PUSH1 0x20 MSTORE PUSH1 0x0 SWAP1 DUP2 MSTORE PUSH1 0x40 SWAP1 KECCAK256 DUP1 SLOAD PUSH1 0x1 DUP3 ADD SLOAD PUSH1 0x2 DUP4 ADD SLOAD PUSH1 0x3 DUP5 ADD SLOAD PUSH1 0x4 SWAP1 SWAP5 ADD SLOAD SWAP3 SWAP4 PUSH2 0xFFFF SWAP1 SWAP3 AND SWAP3 SWAP1 SWAP2 SWAP1 DUP6 JUMP JUMPDEST PUSH1 0x40 DUP1 MLOAD SWAP6 DUP7 MSTORE PUSH2 0xFFFF SWAP1 SWAP5 AND PUSH1 0x20 DUP7 ADD MSTORE SWAP3 DUP5 ADD SWAP2 SWAP1 SWAP2 MSTORE PUSH1 0x60 DUP4 ADD MSTORE PUSH1 0x80 DUP3 ADD MSTORE PUSH1 0xA0 ADD PUSH2 0x1C3 JUMP JUMPDEST PUSH1 0x5 SLOAD PUSH1 0x1 PUSH1 0x1 PUSH1 0xA0 SHL SUB AND JUMPDEST PUSH1 0x40 MLOAD PUSH1 0x1 PUSH1 0x1 PUSH1 0xA0 SHL SUB SWAP1 SWAP2 AND DUP2 MSTORE PUSH1 0x20 ADD PUSH2 0x1C3 JUMP JUMPDEST PUSH2 0x1B6 PUSH2 0x884 JUMP JUMPDEST PUSH2 0x1DF PUSH2 0x3D6 CALLDATASIZE PUSH1 0x4 PUSH2 0x160C JUMP JUMPDEST PUSH2 0x893 JUMP JUMPDEST PUSH2 0x1F9 PUSH2 0x3E9 CALLDATASIZE PUSH1 0x4 PUSH2 0x174C JUMP JUMPDEST PUSH1 0x1 PUSH1 0x1 PUSH1 0xA0 SHL SUB SWAP2 DUP3 AND PUSH1 0x0 SWAP1 DUP2 MSTORE PUSH1 0x1 PUSH1 0x20 SWAP1 DUP2 MSTORE PUSH1 0x40 DUP1 DUP4 KECCAK256 SWAP4 SWAP1 SWAP5 AND DUP3 MSTORE SWAP2 SWAP1 SWAP2 MSTORE KECCAK256 SLOAD SWAP1 JUMP JUMPDEST PUSH2 0x41D PUSH2 0x2710 DUP2 JUMP JUMPDEST PUSH1 0x40 MLOAD PUSH2 0xFFFF SWAP1 SWAP2 AND DUP2 MSTORE PUSH1 0x20 ADD PUSH2 0x1C3 JUMP JUMPDEST PUSH1 0x6 SLOAD PUSH1 0x1 PUSH1 0x1 PUSH1 0xA0 SHL SUB AND PUSH2 0x3A8 JUMP JUMPDEST PUSH2 0x244 PUSH2 0x44F CALLDATASIZE PUSH1 0x4 PUSH2 0x168B JUMP JUMPDEST PUSH2 0x8A1 JUMP JUMPDEST PUSH2 0x244 CALLER PUSH1 0x0 SWAP1 DUP2 MSTORE PUSH1 0x9 PUSH1 0x20 MSTORE PUSH1 0x40 SWAP1 KECCAK256 DUP1 SLOAD PUSH1 0xFF NOT AND SWAP1 SSTORE JUMP JUMPDEST PUSH2 0x244 PUSH2 0x47E CALLDATASIZE PUSH1 0x4 PUSH2 0x17CB JUMP JUMPDEST PUSH2 0xA5C JUMP JUMPDEST PUSH2 0x244 PUSH2 0x491 CALLDATASIZE PUSH1 0x4 PUSH2 0x174C JUMP JUMPDEST PUSH2 0xE43 JUMP JUMPDEST PUSH2 0x244 PUSH2 0x4A4 CALLDATASIZE PUSH1 0x4 PUSH2 0x168B JUMP JUMPDEST PUSH2 0x1174 JUMP JUMPDEST PUSH1 0x60 PUSH1 0x3 DUP1 SLOAD PUSH2 0x4B8 SWAP1 PUSH2 0x184C JUMP JUMPDEST DUP1 PUSH1 0x1F ADD PUSH1 0x20 DUP1 SWAP2 DIV MUL PUSH1 0x20 ADD PUSH1 0x40 MLOAD SWAP1 DUP2 ADD PUSH1 0x40 MSTORE DUP1 SWAP3 SWAP2 SWAP1 DUP2 DUP2 MSTORE PUSH1 0x20 ADD DUP3 DUP1 SLOAD PUSH2 0x4E4 SWAP1 PUSH2 0x184C JUMP JUMPDEST DUP1 ISZERO PUSH2 0x531 JUMPI DUP1 PUSH1 0x1F LT PUSH2 0x506 JUMPI PUSH2 0x100 DUP1 DUP4 SLOAD DIV MUL DUP4 MSTORE SWAP2 PUSH1 0x20 ADD SWAP2 PUSH2 0x531 JUMP JUMPDEST DUP3 ADD SWAP2 SWAP1 PUSH1 0x0 MSTORE PUSH1 0x20 PUSH1 0x0 KECCAK256 SWAP1 JUMPDEST DUP2 SLOAD DUP2 MSTORE SWAP1 PUSH1 0x1 ADD SWAP1 PUSH1 0x20 ADD DUP1 DUP4 GT PUSH2 0x514 JUMPI DUP3 SWAP1 SUB PUSH1 0x1F AND DUP3 ADD SWAP2 JUMPDEST POP POP POP POP POP SWAP1 POP SWAP1 JUMP JUMPDEST PUSH1 0x0 CALLER PUSH2 0x549 DUP2 DUP6 DUP6 PUSH2 0x11E5 JUMP JUMPDEST PUSH1 0x1 SWAP2 POP POP JUMPDEST SWAP3 SWAP2 POP POP JUMP JUMPDEST PUSH1 0x0 CALLER PUSH2 0x563 DUP6 DUP3 DUP6 PUSH2 0x11F7 JUMP JUMPDEST PUSH2 0x56E DUP6 DUP6 DUP6 PUSH2 0x1276 JUMP JUMPDEST PUSH1 0x1 SWAP2 POP POP JUMPDEST SWAP4 SWAP3 POP POP POP JUMP JUMPDEST PUSH2 0x585 CALLER DUP3 PUSH2 0x12D5 JUMP JUMPDEST POP JUMP JUMPDEST CALLER PUSH1 0x0 SWAP1 DUP2 MSTORE PUSH1 0x8 PUSH1 0x20 MSTORE PUSH1 0x40 SWAP1 KECCAK256 PUSH1 0x1 DUP2 ADD SLOAD PUSH2 0x5E2 JUMPI PUSH1 0x40 MLOAD PUSH3 0x461BCD PUSH1 0xE5 SHL DUP2 MSTORE PUSH1 0x20 PUSH1 0x4 DUP3 ADD MSTORE PUSH1 0x12 PUSH1 0x24 DUP3 ADD MSTORE PUSH18 0x23A3A19D1037379030B63637B1B0BA34B7B7 PUSH1 0x71 SHL PUSH1 0x44 DUP3 ADD MSTORE PUSH1 0x64 ADD JUMPDEST PUSH1 0x40 MLOAD DUP1 SWAP2 SUB SWAP1 REVERT JUMPDEST PUSH1 0x7 DUP2 ADD SLOAD TIMESTAMP SWAP1 DUP2 LT ISZERO PUSH2 0x62B JUMPI PUSH1 0x40 MLOAD PUSH3 0x461BCD PUSH1 0xE5 SHL DUP2 MSTORE PUSH1 0x20 PUSH1 0x4 DUP3 ADD MSTORE PUSH1 0x10 PUSH1 0x24 DUP3 ADD MSTORE PUSH16 0x11D1D0CE881B9BDD081CDD185C9D1959 PUSH1 0x82 SHL PUSH1 0x44 DUP3 ADD MSTORE PUSH1 0x64 ADD PUSH2 0x5D9 JUMP JUMPDEST PUSH1 0x2 DUP3 ADD SLOAD PUSH1 0x1 DUP4 ADD SLOAD PUSH1 0x0 SWAP1 PUSH2 0x643 SWAP1 DUP4 SWAP1 PUSH2 0x189C JUMP JUMPDEST SWAP1 POP PUSH1 0x0 PUSH3 0x278D00 DUP6 PUSH1 0x3 ADD SLOAD PUSH2 0x65A SWAP2 SWAP1 PUSH2 0x18AF JUMP JUMPDEST DUP6 PUSH1 0x7 ADD SLOAD PUSH2 0x669 SWAP2 SWAP1 PUSH2 0x18C6 JUMP JUMPDEST SWAP1 POP DUP1 DUP5 LT PUSH2 0x6D3 JUMPI PUSH1 0x0 PUSH3 0x278D00 DUP7 PUSH1 0x4 ADD SLOAD PUSH2 0x687 SWAP2 SWAP1 PUSH2 0x18AF JUMP JUMPDEST PUSH2 0x691 SWAP1 DUP4 PUSH2 0x18C6 JUMP JUMPDEST SWAP1 POP DUP1 DUP6 LT PUSH2 0x6AB JUMPI PUSH2 0x6A4 DUP4 DUP6 PUSH2 0x18C6 JUMP JUMPDEST SWAP4 POP PUSH2 0x6D1 JUMP JUMPDEST PUSH1 0x5 DUP7 ADD SLOAD PUSH2 0x6BA DUP4 DUP8 PUSH2 0x189C JUMP JUMPDEST PUSH2 0x6C4 SWAP2 SWAP1 PUSH2 0x18AF JUMP JUMPDEST PUSH2 0x6CE SWAP1 DUP6 PUSH2 0x18C6 JUMP JUMPDEST SWAP4 POP JUMPDEST POP JUMPDEST DUP5 PUSH1 0x1 ADD SLOAD DUP4 GT ISZERO PUSH2 0x6E7 JUMPI DUP5 PUSH1 0x1 ADD SLOAD SWAP3 POP JUMPDEST PUSH1 0x0 DUP6 PUSH1 0x6 ADD SLOAD DUP5 PUSH2 0x6F9 SWAP2 SWAP1 PUSH2 0x189C JUMP JUMPDEST SWAP1 POP PUSH1 0x0 DUP2 GT PUSH2 0x743 JUMPI PUSH1 0x40 MLOAD PUSH3 0x461BCD PUSH1 0xE5 SHL DUP2 MSTORE PUSH1 0x20 PUSH1 0x4 DUP3 ADD MSTORE PUSH1 0x15 PUSH1 0x24 DUP3 ADD MSTORE PUSH21 0x4747433A206E6F7468696E6720746F20636C61696D PUSH1 0x58 SHL PUSH1 0x44 DUP3 ADD MSTORE PUSH1 0x64 ADD PUSH2 0x5D9 JUMP JUMPDEST DUP1 DUP7 PUSH1 0x6 ADD PUSH1 0x0 DUP3 DUP3 SLOAD PUSH2 0x757 SWAP2 SWAP1 PUSH2 0x18C6 JUMP JUMPDEST SWAP1 SWAP2 SSTORE POP PUSH2 0x768 SWAP1 POP ADDRESS CALLER DUP4 PUSH2 0x1276 JUMP JUMPDEST PUSH1 0x40 DUP1 MLOAD DUP3 DUP2 MSTORE PUSH1 0x20 DUP2 ADD DUP8 SWAP1 MSTORE CALLER SWAP2 PUSH32 0x9923B4306C6C030F2BDFBF156517D5983B87E15B96176DA122CD4F2EFFA4BA7B SWAP2 ADD PUSH1 0x40 MLOAD DUP1 SWAP2 SUB SWAP1 LOG2 POP POP POP POP POP POP JUMP JUMPDEST CALLER PUSH1 0x0 SWAP1 DUP2 MSTORE PUSH1 0x8 PUSH1 0x20 MSTORE PUSH1 0x40 SWAP1 KECCAK256 PUSH1 0x1 ADD SLOAD PUSH2 0x7FA JUMPI PUSH1 0x40 MLOAD PUSH3 0x461BCD PUSH1 0xE5 SHL DUP2 MSTORE PUSH1 0x20 PUSH1 0x4 DUP3 ADD MSTORE PUSH1 0xD PUSH1 0x24 DUP3 ADD MSTORE PUSH13 0x4747433A206E6F20616C6C6F63 PUSH1 0x98 SHL PUSH1 0x44 DUP3 ADD MSTORE PUSH1 0x64 ADD PUSH2 0x5D9 JUMP JUMPDEST CALLER PUSH1 0x0 SWAP1 DUP2 MSTORE PUSH1 0x9 PUSH1 0x20 MSTORE PUSH1 0x40 SWAP1 KECCAK256 DUP1 SLOAD PUSH1 0xFF NOT AND PUSH1 0x1 OR SWAP1 SSTORE JUMP JUMPDEST PUSH2 0x81E PUSH2 0x130B JUMP JUMPDEST PUSH2 0x828 PUSH1 0x0 PUSH2 0x1338 JUMP JUMPDEST JUMP JUMPDEST PUSH1 0x6 SLOAD CALLER SWAP1 PUSH1 0x1 PUSH1 0x1 PUSH1 0xA0 SHL SUB AND DUP2 EQ PUSH2 0x862 JUMPI PUSH1 0x40 MLOAD PUSH4 0x118CDAA7 PUSH1 0xE0 SHL DUP2 MSTORE PUSH1 0x1 PUSH1 0x1 PUSH1 0xA0 SHL SUB DUP3 AND PUSH1 0x4 DUP3 ADD MSTORE PUSH1 0x24 ADD PUSH2 0x5D9 JUMP JUMPDEST PUSH2 0x585 DUP2 PUSH2 0x1338 JUMP JUMPDEST PUSH2 0x876 DUP3 CALLER DUP4 PUSH2 0x11F7 JUMP JUMPDEST PUSH2 0x880 DUP3 DUP3 PUSH2 0x12D5 JUMP JUMPDEST POP POP JUMP JUMPDEST PUSH1 0x60 PUSH1 0x4 DUP1 SLOAD PUSH2 0x4B8 SWAP1 PUSH2 0x184C JUMP JUMPDEST PUSH1 0x0 CALLER PUSH2 0x549 DUP2 DUP6 DUP6 PUSH2 0x1276 JUMP JUMPDEST PUSH2 0x8A9 PUSH2 0x130B JUMP JUMPDEST PUSH1 0x1 PUSH1 0x1 PUSH1 0xA0 SHL SUB DUP2 AND PUSH1 0x0 SWAP1 DUP2 MSTORE PUSH1 0x8 PUSH1 0x20 MSTORE PUSH1 0x40 SWAP1 KECCAK256 PUSH1 0x1 DUP2 ADD SLOAD PUSH2 0x907 JUMPI PUSH1 0x40 MLOAD PUSH3 0x461BCD PUSH1 0xE5 SHL DUP2 MSTORE PUSH1 0x20 PUSH1 0x4 DUP3 ADD MSTORE PUSH1 0x12 PUSH1 0x24 DUP3 ADD MSTORE PUSH18 0x23A3A19D1037379030B63637B1B0BA34B7B7 PUSH1 0x71 SHL PUSH1 0x44 DUP3 ADD MSTORE PUSH1 0x64 ADD PUSH2 0x5D9 JUMP JUMPDEST PUSH1 0x0 DUP2 PUSH1 0x6 ADD SLOAD DUP3 PUSH1 0x1 ADD SLOAD PUSH2 0x91D SWAP2 SWAP1 PUSH2 0x189C JUMP JUMPDEST SWAP1 POP PUSH1 0x0 DUP2 GT PUSH2 0x96F JUMPI PUSH1 0x40 MLOAD PUSH3 0x461BCD PUSH1 0xE5 SHL DUP2 MSTORE PUSH1 0x20 PUSH1 0x4 DUP3 ADD DUP2 SWAP1 MSTORE PUSH1 0x24 DUP3 ADD MSTORE PUSH32 0x4747433A206E6F7468696E6720756E636C61696D656420746F207265766F6B65 PUSH1 0x44 DUP3 ADD MSTORE PUSH1 0x64 ADD PUSH2 0x5D9 JUMP JUMPDEST DUP2 SLOAD PUSH1 0x0 SWAP1 PUSH1 0x7 SWAP1 DUP3 SWAP1 PUSH1 0xFF AND PUSH1 0xA DUP2 GT ISZERO PUSH2 0x98D JUMPI PUSH2 0x98D PUSH2 0x16A6 JUMP JUMPDEST PUSH1 0xA DUP2 GT ISZERO PUSH2 0x99E JUMPI PUSH2 0x99E PUSH2 0x16A6 JUMP JUMPDEST DUP2 MSTORE PUSH1 0x20 ADD SWAP1 DUP2 MSTORE PUSH1 0x20 ADD PUSH1 0x0 KECCAK256 SWAP1 POP DUP2 DUP2 PUSH1 0x4 ADD PUSH1 0x0 DUP3 DUP3 SLOAD PUSH2 0x9C2 SWAP2 SWAP1 PUSH2 0x189C JUMP JUMPDEST SWAP1 SWAP2 SSTORE POP POP PUSH1 0x1 PUSH1 0x1 PUSH1 0xA0 SHL SUB DUP5 AND PUSH1 0x0 DUP2 DUP2 MSTORE PUSH1 0x8 PUSH1 0x20 MSTORE PUSH1 0x40 DUP1 DUP3 KECCAK256 DUP1 SLOAD PUSH1 0xFF NOT AND DUP2 SSTORE PUSH1 0x1 DUP2 ADD DUP4 SWAP1 SSTORE PUSH1 0x2 DUP2 ADD DUP4 SWAP1 SSTORE PUSH1 0x3 DUP2 ADD DUP4 SWAP1 SSTORE PUSH1 0x4 DUP2 ADD DUP4 SWAP1 SSTORE PUSH1 0x5 DUP2 ADD DUP4 SWAP1 SSTORE PUSH1 0x6 DUP2 ADD DUP4 SWAP1 SSTORE PUSH1 0x7 ADD SWAP2 SWAP1 SWAP2 SSTORE DUP5 SLOAD SWAP1 MLOAD PUSH32 0x2A00296A8BB64E722A7D641B29B1B11EFDE441C98CF2CE2E75C7FF866DA7C723 SWAP2 PUSH2 0xA4E SWAP2 DUP7 SWAP2 PUSH1 0xFF AND SWAP1 PUSH2 0x18D9 JUMP JUMPDEST PUSH1 0x40 MLOAD DUP1 SWAP2 SUB SWAP1 LOG2 POP POP POP POP JUMP JUMPDEST PUSH2 0xA64 PUSH2 0x130B JUMP JUMPDEST DUP3 DUP2 EQ PUSH2 0xAAA JUMPI PUSH1 0x40 MLOAD PUSH3 0x461BCD PUSH1 0xE5 SHL DUP2 MSTORE PUSH1 0x20 PUSH1 0x4 DUP3 ADD MSTORE PUSH1 0x14 PUSH1 0x24 DUP3 ADD MSTORE PUSH20 0x8E8E867440D8CADCCEE8D040DAD2E6DAC2E8C6D PUSH1 0x63 SHL PUSH1 0x44 DUP3 ADD MSTORE PUSH1 0x64 ADD PUSH2 0x5D9 JUMP JUMPDEST PUSH1 0x0 PUSH1 0x7 PUSH1 0x0 DUP8 PUSH1 0xA DUP2 GT ISZERO PUSH2 0xAC2 JUMPI PUSH2 0xAC2 PUSH2 0x16A6 JUMP JUMPDEST PUSH1 0xA DUP2 GT ISZERO PUSH2 0xAD3 JUMPI PUSH2 0xAD3 PUSH2 0x16A6 JUMP JUMPDEST DUP2 MSTORE PUSH1 0x20 ADD SWAP1 DUP2 MSTORE PUSH1 0x20 ADD PUSH1 0x0 KECCAK256 SWAP1 POP PUSH1 0x0 JUMPDEST DUP5 DUP2 LT ISZERO PUSH2 0xE3A JUMPI PUSH1 0x0 DUP7 DUP7 DUP4 DUP2 DUP2 LT PUSH2 0xB02 JUMPI PUSH2 0xB02 PUSH2 0x18ED JUMP JUMPDEST SWAP1 POP PUSH1 0x20 MUL ADD PUSH1 0x20 DUP2 ADD SWAP1 PUSH2 0xB17 SWAP2 SWAP1 PUSH2 0x168B JUMP JUMPDEST SWAP1 POP PUSH1 0x1 PUSH1 0x1 PUSH1 0xA0 SHL SUB DUP2 AND PUSH2 0xB63 JUMPI PUSH1 0x40 MLOAD PUSH3 0x461BCD PUSH1 0xE5 SHL DUP2 MSTORE PUSH1 0x20 PUSH1 0x4 DUP3 ADD MSTORE PUSH1 0x11 PUSH1 0x24 DUP3 ADD MSTORE PUSH17 0x4747433A207A65726F2061646472657373 PUSH1 0x78 SHL PUSH1 0x44 DUP3 ADD MSTORE PUSH1 0x64 ADD PUSH2 0x5D9 JUMP JUMPDEST PUSH1 0x0 PUSH2 0xB71 PUSH1 0x12 PUSH1 0xA PUSH2 0x19E7 JUMP JUMPDEST DUP7 DUP7 DUP6 DUP2 DUP2 LT PUSH2 0xB83 JUMPI PUSH2 0xB83 PUSH2 0x18ED JUMP JUMPDEST SWAP1 POP PUSH1 0x20 MUL ADD CALLDATALOAD PUSH2 0xB94 SWAP2 SWAP1 PUSH2 0x18AF JUMP JUMPDEST SWAP1 POP DUP4 PUSH1 0x0 ADD SLOAD DUP2 DUP6 PUSH1 0x4 ADD SLOAD PUSH2 0xBAB SWAP2 SWAP1 PUSH2 0x18C6 JUMP JUMPDEST GT ISZERO PUSH2 0xBEF JUMPI PUSH1 0x40 MLOAD PUSH3 0x461BCD PUSH1 0xE5 SHL DUP2 MSTORE PUSH1 0x20 PUSH1 0x4 DUP3 ADD MSTORE PUSH1 0x13 PUSH1 0x24 DUP3 ADD MSTORE PUSH19 0x11D1D0CE881C1BDBDB08195E1A185D5CDD1959 PUSH1 0x6A SHL PUSH1 0x44 DUP3 ADD MSTORE PUSH1 0x64 ADD PUSH2 0x5D9 JUMP JUMPDEST PUSH1 0x1 PUSH1 0x1 PUSH1 0xA0 SHL SUB DUP3 AND PUSH1 0x0 SWAP1 DUP2 MSTORE PUSH1 0x8 PUSH1 0x20 MSTORE PUSH1 0x40 SWAP1 KECCAK256 PUSH1 0x1 ADD SLOAD ISZERO PUSH2 0xC51 JUMPI PUSH1 0x40 MLOAD PUSH3 0x461BCD PUSH1 0xE5 SHL DUP2 MSTORE PUSH1 0x20 PUSH1 0x4 DUP3 ADD MSTORE PUSH1 0x16 PUSH1 0x24 DUP3 ADD MSTORE PUSH22 0x4747433A20616C72656164792068617320616C6C6F63 PUSH1 0x50 SHL PUSH1 0x44 DUP3 ADD MSTORE PUSH1 0x64 ADD PUSH2 0x5D9 JUMP JUMPDEST DUP1 DUP5 PUSH1 0x4 ADD PUSH1 0x0 DUP3 DUP3 SLOAD PUSH2 0xC65 SWAP2 SWAP1 PUSH2 0x18C6 JUMP JUMPDEST SWAP1 SWAP2 SSTORE POP POP PUSH1 0x1 DUP5 ADD SLOAD PUSH1 0x0 SWAP1 PUSH2 0x2710 SWAP1 PUSH2 0xC84 SWAP1 PUSH2 0xFFFF AND DUP5 PUSH2 0x18AF JUMP JUMPDEST PUSH2 0xC8E SWAP2 SWAP1 PUSH2 0x19F6 JUMP JUMPDEST SWAP1 POP PUSH1 0x0 PUSH2 0xC9C DUP3 DUP5 PUSH2 0x189C JUMP JUMPDEST SWAP1 POP PUSH1 0x0 DUP1 DUP8 PUSH1 0x3 ADD SLOAD GT ISZERO PUSH2 0xCCC JUMPI PUSH3 0x278D00 DUP8 PUSH1 0x3 ADD SLOAD PUSH2 0xCBF SWAP2 SWAP1 PUSH2 0x18AF JUMP JUMPDEST PUSH2 0xCC9 SWAP1 DUP4 PUSH2 0x19F6 JUMP JUMPDEST SWAP1 POP JUMPDEST PUSH1 0x40 MLOAD DUP1 PUSH2 0x100 ADD PUSH1 0x40 MSTORE DUP1 DUP14 PUSH1 0xA DUP2 GT ISZERO PUSH2 0xCEA JUMPI PUSH2 0xCEA PUSH2 0x16A6 JUMP JUMPDEST DUP2 MSTORE PUSH1 0x20 DUP1 DUP3 ADD DUP8 SWAP1 MSTORE PUSH1 0x40 DUP1 DUP4 ADD DUP8 SWAP1 MSTORE PUSH1 0x2 DUP12 ADD SLOAD PUSH1 0x60 DUP5 ADD MSTORE PUSH1 0x3 DUP12 ADD SLOAD PUSH1 0x80 DUP5 ADD MSTORE PUSH1 0xA0 DUP4 ADD DUP6 SWAP1 MSTORE PUSH1 0x0 PUSH1 0xC0 DUP5 ADD DUP2 SWAP1 MSTORE TIMESTAMP PUSH1 0xE0 SWAP1 SWAP5 ADD SWAP4 SWAP1 SWAP4 MSTORE PUSH1 0x1 PUSH1 0x1 PUSH1 0xA0 SHL SUB DUP10 AND DUP4 MSTORE PUSH1 0x8 SWAP1 SWAP2 MSTORE SWAP1 KECCAK256 DUP2 MLOAD DUP2 SLOAD DUP3 SWAP1 PUSH1 0xFF NOT AND PUSH1 0x1 DUP4 PUSH1 0xA DUP2 GT ISZERO PUSH2 0xD5B JUMPI PUSH2 0xD5B PUSH2 0x16A6 JUMP JUMPDEST MUL OR SWAP1 SSTORE POP PUSH1 0x20 DUP3 ADD MLOAD PUSH1 0x1 DUP3 ADD SSTORE PUSH1 0x40 DUP3 ADD MLOAD PUSH1 0x2 DUP3 ADD SSTORE PUSH1 0x60 DUP3 ADD MLOAD PUSH1 0x3 DUP3 ADD SSTORE PUSH1 0x80 DUP3 ADD MLOAD PUSH1 0x4 DUP3 ADD SSTORE PUSH1 0xA0 DUP3 ADD MLOAD PUSH1 0x5 DUP3 ADD SSTORE PUSH1 0xC0 DUP3 ADD MLOAD PUSH1 0x6 DUP3 ADD SSTORE PUSH1 0xE0 SWAP1 SWAP2 ADD MLOAD PUSH1 0x7 SWAP1 SWAP2 ADD SSTORE PUSH1 0x1 PUSH1 0x1 PUSH1 0xA0 SHL SUB DUP6 AND DUP13 PUSH1 0xA DUP2 GT ISZERO PUSH2 0xDC4 JUMPI PUSH2 0xDC4 PUSH2 0x16A6 JUMP JUMPDEST PUSH1 0x2 DUP10 ADD SLOAD PUSH1 0x3 DUP11 ADD SLOAD PUSH1 0x40 DUP1 MLOAD DUP10 DUP2 MSTORE PUSH1 0x20 DUP2 ADD DUP10 SWAP1 MSTORE SWAP1 DUP2 ADD SWAP3 SWAP1 SWAP3 MSTORE PUSH1 0x60 DUP3 ADD MSTORE PUSH1 0x80 DUP2 ADD DUP5 SWAP1 MSTORE TIMESTAMP PUSH1 0xA0 DUP3 ADD MSTORE PUSH32 0x951A64FD3E10BDB0C1FE79C048549DBDBB2A891EE03ED559D71FB935D35D95F8 SWAP1 PUSH1 0xC0 ADD PUSH1 0x40 MLOAD DUP1 SWAP2 SUB SWAP1 LOG3 POP POP POP POP POP DUP1 DUP1 PUSH2 0xE32 SWAP1 PUSH2 0x1A18 JUMP JUMPDEST SWAP2 POP POP PUSH2 0xAE6 JUMP JUMPDEST POP POP POP POP POP POP POP JUMP JUMPDEST PUSH2 0xE4B PUSH2 0x130B JUMP JUMPDEST PUSH1 0x1 PUSH1 0x1 PUSH1 0xA0 SHL SUB DUP3 AND ISZERO DUP1 ISZERO SWAP1 PUSH2 0xE6B JUMPI POP PUSH1 0x1 PUSH1 0x1 PUSH1 0xA0 SHL SUB DUP2 AND ISZERO ISZERO JUMPDEST PUSH2 0xEA8 JUMPI PUSH1 0x40 MLOAD PUSH3 0x461BCD PUSH1 0xE5 SHL DUP2 MSTORE PUSH1 0x20 PUSH1 0x4 DUP3 ADD MSTORE PUSH1 0xE PUSH1 0x24 DUP3 ADD MSTORE PUSH14 0x23A3A19D103D32B9379030B23239 PUSH1 0x91 SHL PUSH1 0x44 DUP3 ADD MSTORE PUSH1 0x64 ADD PUSH2 0x5D9 JUMP JUMPDEST PUSH1 0x1 PUSH1 0x1 PUSH1 0xA0 SHL SUB DUP3 AND PUSH1 0x0 SWAP1 DUP2 MSTORE PUSH1 0x8 PUSH1 0x20 MSTORE PUSH1 0x40 SWAP1 KECCAK256 PUSH1 0x1 DUP2 ADD SLOAD PUSH2 0xF05 JUMPI PUSH1 0x40 MLOAD PUSH3 0x461BCD PUSH1 0xE5 SHL DUP2 MSTORE PUSH1 0x20 PUSH1 0x4 DUP3 ADD MSTORE PUSH1 0x11 PUSH1 0x24 DUP3 ADD MSTORE PUSH17 0x11D1D0CE881B9BC8185B1B1BD8C81BDB19 PUSH1 0x7A SHL PUSH1 0x44 DUP3 ADD MSTORE PUSH1 0x64 ADD PUSH2 0x5D9 JUMP JUMPDEST PUSH1 0x1 PUSH1 0x1 PUSH1 0xA0 SHL SUB DUP3 AND PUSH1 0x0 SWAP1 DUP2 MSTORE PUSH1 0x8 PUSH1 0x20 MSTORE PUSH1 0x40 SWAP1 KECCAK256 PUSH1 0x1 ADD SLOAD ISZERO PUSH2 0xF66 JUMPI PUSH1 0x40 MLOAD PUSH3 0x461BCD PUSH1 0xE5 SHL DUP2 MSTORE PUSH1 0x20 PUSH1 0x4 DUP3 ADD MSTORE PUSH1 0x15 PUSH1 0x24 DUP3 ADD MSTORE PUSH21 0x4747433A20616C6C6F6320657869737473206E6577 PUSH1 0x58 SHL PUSH1 0x44 DUP3 ADD MSTORE PUSH1 0x64 ADD PUSH2 0x5D9 JUMP JUMPDEST PUSH1 0x1 PUSH1 0x1 PUSH1 0xA0 SHL SUB DUP4 AND PUSH1 0x0 SWAP1 DUP2 MSTORE PUSH1 0x9 PUSH1 0x20 MSTORE PUSH1 0x40 SWAP1 KECCAK256 SLOAD PUSH1 0xFF AND PUSH2 0xFC6 JUMPI PUSH1 0x40 MLOAD PUSH3 0x461BCD PUSH1 0xE5 SHL DUP2 MSTORE PUSH1 0x20 PUSH1 0x4 DUP3 ADD MSTORE PUSH1 0x15 PUSH1 0x24 DUP3 ADD MSTORE PUSH21 0x11D1D0CE881B9BC81D5CD95C88185C1C1C9BDD985B PUSH1 0x5A SHL PUSH1 0x44 DUP3 ADD MSTORE PUSH1 0x64 ADD PUSH2 0x5D9 JUMP JUMPDEST PUSH1 0x40 DUP1 MLOAD PUSH2 0x100 DUP2 ADD SWAP1 SWAP2 MSTORE DUP2 SLOAD DUP2 SWAP1 PUSH1 0xFF AND PUSH1 0xA DUP2 GT ISZERO PUSH2 0xFEA JUMPI PUSH2 0xFEA PUSH2 0x16A6 JUMP JUMPDEST DUP2 MSTORE PUSH1 0x20 ADD DUP3 PUSH1 0x1 ADD SLOAD DUP2 MSTORE PUSH1 0x20 ADD DUP3 PUSH1 0x2 ADD SLOAD DUP2 MSTORE PUSH1 0x20 ADD DUP3 PUSH1 0x3 ADD SLOAD DUP2 MSTORE PUSH1 0x20 ADD DUP3 PUSH1 0x4 ADD SLOAD DUP2 MSTORE PUSH1 0x20 ADD DUP3 PUSH1 0x5 ADD SLOAD DUP2 MSTORE PUSH1 0x20 ADD DUP3 PUSH1 0x6 ADD SLOAD DUP2 MSTORE PUSH1 0x20 ADD DUP3 PUSH1 0x7 ADD SLOAD DUP2 MSTORE POP PUSH1 0x8 PUSH1 0x0 DUP5 PUSH1 0x1 PUSH1 0x1 PUSH1 0xA0 SHL SUB AND PUSH1 0x1 PUSH1 0x1 PUSH1 0xA0 SHL SUB AND DUP2 MSTORE PUSH1 0x20 ADD SWAP1 DUP2 MSTORE PUSH1 0x20 ADD PUSH1 0x0 KECCAK256 PUSH1 0x0 DUP3 ADD MLOAD DUP2 PUSH1 0x0 ADD PUSH1 0x0 PUSH2 0x100 EXP DUP2 SLOAD DUP2 PUSH1 0xFF MUL NOT AND SWAP1 DUP4 PUSH1 0xA DUP2 GT ISZERO PUSH2 0x1082 JUMPI PUSH2 0x1082 PUSH2 0x16A6 JUMP JUMPDEST MUL OR SWAP1 SSTORE POP PUSH1 0x20 DUP3 DUP2 ADD MLOAD PUSH1 0x1 DUP1 DUP5 ADD SWAP2 SWAP1 SWAP2 SSTORE PUSH1 0x40 DUP1 DUP6 ADD MLOAD PUSH1 0x2 DUP1 DUP7 ADD SWAP2 SWAP1 SWAP2 SSTORE PUSH1 0x60 DUP7 ADD MLOAD PUSH1 0x3 DUP1 DUP8 ADD SWAP2 SWAP1 SWAP2 SSTORE PUSH1 0x80 DUP8 ADD MLOAD PUSH1 0x4 DUP1 DUP9 ADD SWAP2 SWAP1 SWAP2 SSTORE PUSH1 0xA0 DUP9 ADD MLOAD PUSH1 0x5 DUP1 DUP10 ADD SWAP2 SWAP1 SWAP2 SSTORE PUSH1 0xC0 DUP10 ADD MLOAD PUSH1 0x6 DUP1 DUP11 ADD SWAP2 SWAP1 SWAP2 SSTORE PUSH1 0xE0 SWAP1 SWAP10 ADD MLOAD PUSH1 0x7 SWAP9 DUP10 ADD SSTORE PUSH1 0x1 PUSH1 0x1 PUSH1 0xA0 SHL SUB DUP1 DUP14 AND PUSH1 0x0 DUP2 DUP2 MSTORE PUSH1 0x8 DUP11 MSTORE DUP8 DUP2 KECCAK256 DUP1 SLOAD PUSH1 0xFF NOT SWAP1 DUP2 AND DUP3 SSTORE SWAP10 DUP2 ADD DUP3 SWAP1 SSTORE SWAP7 DUP8 ADD DUP2 SWAP1 SSTORE SWAP5 DUP7 ADD DUP6 SWAP1 SSTORE SWAP3 DUP6 ADD DUP5 SWAP1 SSTORE SWAP1 DUP5 ADD DUP4 SWAP1 SSTORE SWAP8 DUP4 ADD DUP3 SWAP1 SSTORE SWAP2 SWAP1 SWAP6 ADD DUP6 SWAP1 SSTORE PUSH1 0x9 SWAP1 SWAP4 MSTORE DUP1 DUP5 KECCAK256 DUP1 SLOAD SWAP1 SWAP3 AND SWAP1 SWAP2 SSTORE MLOAD SWAP3 DUP6 AND SWAP3 SWAP1 SWAP2 PUSH32 0x1552BF14C580C20E53A4227E9B76734DA8E21905A818FDC5FA05DCB2891BB89E SWAP2 LOG3 POP POP POP JUMP JUMPDEST PUSH2 0x117C PUSH2 0x130B JUMP JUMPDEST PUSH1 0x6 DUP1 SLOAD PUSH1 0x1 PUSH1 0x1 PUSH1 0xA0 SHL SUB DUP4 AND PUSH1 0x1 PUSH1 0x1 PUSH1 0xA0 SHL SUB NOT SWAP1 SWAP2 AND DUP2 OR SWAP1 SWAP2 SSTORE PUSH2 0x11AD PUSH1 0x5 SLOAD PUSH1 0x1 PUSH1 0x1 PUSH1 0xA0 SHL SUB AND SWAP1 JUMP JUMPDEST PUSH1 0x1 PUSH1 0x1 PUSH1 0xA0 SHL SUB AND PUSH32 0x38D16B8CAC22D99FC7C124B9CD0DE2D3FA1FAEF420BFE791D8C362D765E22700 PUSH1 0x40 MLOAD PUSH1 0x40 MLOAD DUP1 SWAP2 SUB SWAP1 LOG3 POP JUMP JUMPDEST PUSH2 0x11F2 DUP4 DUP4 DUP4 PUSH1 0x1 PUSH2 0x1351 JUMP JUMPDEST POP POP POP JUMP JUMPDEST PUSH1 0x1 PUSH1 0x1 PUSH1 0xA0 SHL SUB DUP4 DUP2 AND PUSH1 0x0 SWAP1 DUP2 MSTORE PUSH1 0x1 PUSH1 0x20 SWAP1 DUP2 MSTORE PUSH1 0x40 DUP1 DUP4 KECCAK256 SWAP4 DUP7 AND DUP4 MSTORE SWAP3 SWAP1 MSTORE KECCAK256 SLOAD PUSH1 0x0 NOT DUP2 LT ISZERO PUSH2 0x1270 JUMPI DUP2 DUP2 LT ISZERO PUSH2 0x1261 JUMPI PUSH1 0x40 MLOAD PUSH4 0x7DC7A0D9 PUSH1 0xE1 SHL DUP2 MSTORE PUSH1 0x1 PUSH1 0x1 PUSH1 0xA0 SHL SUB DUP5 AND PUSH1 0x4 DUP3 ADD MSTORE PUSH1 0x24 DUP2 ADD DUP3 SWAP1 MSTORE PUSH1 0x44 DUP2 ADD DUP4 SWAP1 MSTORE PUSH1 0x64 ADD PUSH2 0x5D9 JUMP JUMPDEST PUSH2 0x1270 DUP5 DUP5 DUP5 DUP5 SUB PUSH1 0x0 PUSH2 0x1351 JUMP JUMPDEST POP POP POP POP JUMP JUMPDEST PUSH1 0x1 PUSH1 0x1 PUSH1 0xA0 SHL SUB DUP4 AND PUSH2 0x12A0 JUMPI PUSH1 0x40 MLOAD PUSH4 0x4B637E8F PUSH1 0xE1 SHL DUP2 MSTORE PUSH1 0x0 PUSH1 0x4 DUP3 ADD MSTORE PUSH1 0x24 ADD PUSH2 0x5D9 JUMP JUMPDEST PUSH1 0x1 PUSH1 0x1 PUSH1 0xA0 SHL SUB DUP3 AND PUSH2 0x12CA JUMPI PUSH1 0x40 MLOAD PUSH4 0xEC442F05 PUSH1 0xE0 SHL DUP2 MSTORE PUSH1 0x0 PUSH1 0x4 DUP3 ADD MSTORE PUSH1 0x24 ADD PUSH2 0x5D9 JUMP JUMPDEST PUSH2 0x11F2 DUP4 DUP4 DUP4 PUSH2 0x1426 JUMP JUMPDEST PUSH1 0x1 PUSH1 0x1 PUSH1 0xA0 SHL SUB DUP3 AND PUSH2 0x12FF JUMPI PUSH1 0x40 MLOAD PUSH4 0x4B637E8F PUSH1 0xE1 SHL DUP2 MSTORE PUSH1 0x0 PUSH1 0x4 DUP3 ADD MSTORE PUSH1 0x24 ADD PUSH2 0x5D9 JUMP JUMPDEST PUSH2 0x880 DUP3 PUSH1 0x0 DUP4 PUSH2 0x1426 JUMP JUMPDEST PUSH1 0x5 SLOAD PUSH1 0x1 PUSH1 0x1 PUSH1 0xA0 SHL SUB AND CALLER EQ PUSH2 0x828 JUMPI PUSH1 0x40 MLOAD PUSH4 0x118CDAA7 PUSH1 0xE0 SHL DUP2 MSTORE CALLER PUSH1 0x4 DUP3 ADD MSTORE PUSH1 0x24 ADD PUSH2 0x5D9 JUMP JUMPDEST PUSH1 0x6 DUP1 SLOAD PUSH1 0x1 PUSH1 0x1 PUSH1 0xA0 SHL SUB NOT AND SWAP1 SSTORE PUSH2 0x585 DUP2 PUSH2 0x1550 JUMP JUMPDEST PUSH1 0x1 PUSH1 0x1 PUSH1 0xA0 SHL SUB DUP5 AND PUSH2 0x137B JUMPI PUSH1 0x40 MLOAD PUSH4 0xE602DF05 PUSH1 0xE0 SHL DUP2 MSTORE PUSH1 0x0 PUSH1 0x4 DUP3 ADD MSTORE PUSH1 0x24 ADD PUSH2 0x5D9 JUMP JUMPDEST PUSH1 0x1 PUSH1 0x1 PUSH1 0xA0 SHL SUB DUP4 AND PUSH2 0x13A5 JUMPI PUSH1 0x40 MLOAD PUSH4 0x4A1406B1 PUSH1 0xE1 SHL DUP2 MSTORE PUSH1 0x0 PUSH1 0x4 DUP3 ADD MSTORE PUSH1 0x24 ADD PUSH2 0x5D9 JUMP JUMPDEST PUSH1 0x1 PUSH1 0x1 PUSH1 0xA0 SHL SUB DUP1 DUP6 AND PUSH1 0x0 SWAP1 DUP2 MSTORE PUSH1 0x1 PUSH1 0x20 SWAP1 DUP2 MSTORE PUSH1 0x40 DUP1 DUP4 KECCAK256 SWAP4 DUP8 AND DUP4 MSTORE SWAP3 SWAP1 MSTORE KECCAK256 DUP3 SWAP1 SSTORE DUP1 ISZERO PUSH2 0x1270 JUMPI DUP3 PUSH1 0x1 PUSH1 0x1 PUSH1 0xA0 SHL SUB AND DUP5 PUSH1 0x1 PUSH1 0x1 PUSH1 0xA0 SHL SUB AND PUSH32 0x8C5BE1E5EBEC7D5BD14F71427D1E84F3DD0314C0F7B2291E5B200AC8C7C3B925 DUP5 PUSH1 0x40 MLOAD PUSH2 0x1418 SWAP2 DUP2 MSTORE PUSH1 0x20 ADD SWAP1 JUMP JUMPDEST PUSH1 0x40 MLOAD DUP1 SWAP2 SUB SWAP1 LOG3 POP POP POP POP JUMP JUMPDEST PUSH1 0x1 PUSH1 0x1 PUSH1 0xA0 SHL SUB DUP4 AND PUSH2 0x1451 JUMPI DUP1 PUSH1 0x2 PUSH1 0x0 DUP3 DUP3 SLOAD PUSH2 0x1446 SWAP2 SWAP1 PUSH2 0x18C6 JUMP JUMPDEST SWAP1 SWAP2 SSTORE POP PUSH2 0x14C3 SWAP1 POP JUMP JUMPDEST PUSH1 0x1 PUSH1 0x1 PUSH1 0xA0 SHL SUB DUP4 AND PUSH1 0x0 SWAP1 DUP2 MSTORE PUSH1 0x20 DUP2 SWAP1 MSTORE PUSH1 0x40 SWAP1 KECCAK256 SLOAD DUP2 DUP2 LT ISZERO PUSH2 0x14A4 JUMPI PUSH1 0x40 MLOAD PUSH4 0x391434E3 PUSH1 0xE2 SHL DUP2 MSTORE PUSH1 0x1 PUSH1 0x1 PUSH1 0xA0 SHL SUB DUP6 AND PUSH1 0x4 DUP3 ADD MSTORE PUSH1 0x24 DUP2 ADD DUP3 SWAP1 MSTORE PUSH1 0x44 DUP2 ADD DUP4 SWAP1 MSTORE PUSH1 0x64 ADD PUSH2 0x5D9 JUMP JUMPDEST PUSH1 0x1 PUSH1 0x1 PUSH1 0xA0 SHL SUB DUP5 AND PUSH1 0x0 SWAP1 DUP2 MSTORE PUSH1 0x20 DUP2 SWAP1 MSTORE PUSH1 0x40 SWAP1 KECCAK256 SWAP1 DUP3 SWAP1 SUB SWAP1 SSTORE JUMPDEST PUSH1 0x1 PUSH1 0x1 PUSH1 0xA0 SHL SUB DUP3 AND PUSH2 0x14DF JUMPI PUSH1 0x2 DUP1 SLOAD DUP3 SWAP1 SUB SWAP1 SSTORE PUSH2 0x14FE JUMP JUMPDEST PUSH1 0x1 PUSH1 0x1 PUSH1 0xA0 SHL SUB DUP3 AND PUSH1 0x0 SWAP1 DUP2 MSTORE PUSH1 0x20 DUP2 SWAP1 MSTORE PUSH1 0x40 SWAP1 KECCAK256 DUP1 SLOAD DUP3 ADD SWAP1 SSTORE JUMPDEST DUP2 PUSH1 0x1 PUSH1 0x1 PUSH1 0xA0 SHL SUB AND DUP4 PUSH1 0x1 PUSH1 0x1 PUSH1 0xA0 SHL SUB AND PUSH32 0xDDF252AD1BE2C89B69C2B068FC378DAA952BA7F163C4A11628F55A4DF523B3EF DUP4 PUSH1 0x40 MLOAD PUSH2 0x1543 SWAP2 DUP2 MSTORE PUSH1 0x20 ADD SWAP1 JUMP JUMPDEST PUSH1 0x40 MLOAD DUP1 SWAP2 SUB SWAP1 LOG3 POP POP POP JUMP JUMPDEST PUSH1 0x5 DUP1 SLOAD PUSH1 0x1 PUSH1 0x1 PUSH1 0xA0 SHL SUB DUP4 DUP2 AND PUSH1 0x1 PUSH1 0x1 PUSH1 0xA0 SHL SUB NOT DUP4 AND DUP2 OR SWAP1 SWAP4 SSTORE PUSH1 0x40 MLOAD SWAP2 AND SWAP2 SWAP1 DUP3 SWAP1 PUSH32 0x8BE0079C531659141344CD1FD0A4F28419497F9722A3DAAFE3B4186F6B6457E0 SWAP1 PUSH1 0x0 SWAP1 LOG3 POP POP JUMP JUMPDEST PUSH1 0x0 PUSH1 0x20 DUP1 DUP4 MSTORE DUP4 MLOAD DUP1 DUP3 DUP6 ADD MSTORE PUSH1 0x0 JUMPDEST DUP2 DUP2 LT ISZERO PUSH2 0x15CF JUMPI DUP6 DUP2 ADD DUP4 ADD MLOAD DUP6 DUP3 ADD PUSH1 0x40 ADD MSTORE DUP3 ADD PUSH2 0x15B3 JUMP JUMPDEST POP PUSH1 0x0 PUSH1 0x40 DUP3 DUP7 ADD ADD MSTORE PUSH1 0x40 PUSH1 0x1F NOT PUSH1 0x1F DUP4 ADD AND DUP6 ADD ADD SWAP3 POP POP POP SWAP3 SWAP2 POP POP JUMP JUMPDEST DUP1 CALLDATALOAD PUSH1 0x1 PUSH1 0x1 PUSH1 0xA0 SHL SUB DUP2 AND DUP2 EQ PUSH2 0x1607 JUMPI PUSH1 0x0 DUP1 REVERT JUMPDEST SWAP2 SWAP1 POP JUMP JUMPDEST PUSH1 0x0 DUP1 PUSH1 0x40 DUP4 DUP6 SUB SLT ISZERO PUSH2 0x161F JUMPI PUSH1 0x0 DUP1 REVERT JUMPDEST PUSH2 0x1628 DUP4 PUSH2 0x15F0 JUMP JUMPDEST SWAP5 PUSH1 0x20 SWAP4 SWAP1 SWAP4 ADD CALLDATALOAD SWAP4 POP POP POP JUMP JUMPDEST PUSH1 0x0 DUP1 PUSH1 0x0 PUSH1 0x60 DUP5 DUP7 SUB SLT ISZERO PUSH2 0x164B JUMPI PUSH1 0x0 DUP1 REVERT JUMPDEST PUSH2 0x1654 DUP5 PUSH2 0x15F0 JUMP JUMPDEST SWAP3 POP PUSH2 0x1662 PUSH1 0x20 DUP6 ADD PUSH2 0x15F0 JUMP JUMPDEST SWAP2 POP PUSH1 0x40 DUP5 ADD CALLDATALOAD SWAP1 POP SWAP3 POP SWAP3 POP SWAP3 JUMP JUMPDEST PUSH1 0x0 PUSH1 0x20 DUP3 DUP5 SUB SLT ISZERO PUSH2 0x1684 JUMPI PUSH1 0x0 DUP1 REVERT JUMPDEST POP CALLDATALOAD SWAP2 SWAP1 POP JUMP JUMPDEST PUSH1 0x0 PUSH1 0x20 DUP3 DUP5 SUB SLT ISZERO PUSH2 0x169D JUMPI PUSH1 0x0 DUP1 REVERT JUMPDEST PUSH2 0x574 DUP3 PUSH2 0x15F0 JUMP JUMPDEST PUSH4 0x4E487B71 PUSH1 0xE0 SHL PUSH1 0x0 MSTORE PUSH1 0x21 PUSH1 0x4 MSTORE PUSH1 0x24 PUSH1 0x0 REVERT JUMPDEST PUSH1 0xB DUP2 LT PUSH2 0x16DA JUMPI PUSH4 0x4E487B71 PUSH1 0xE0 SHL PUSH1 0x0 MSTORE PUSH1 0x21 PUSH1 0x4 MSTORE PUSH1 0x24 PUSH1 0x0 REVERT JUMPDEST SWAP1 MSTORE JUMP JUMPDEST PUSH2 0x100 DUP2 ADD PUSH2 0x16ED DUP3 DUP12 PUSH2 0x16BC JUMP JUMPDEST PUSH1 0x20 DUP3 ADD SWAP9 SWAP1 SWAP9 MSTORE PUSH1 0x40 DUP2 ADD SWAP7 SWAP1 SWAP7 MSTORE PUSH1 0x60 DUP7 ADD SWAP5 SWAP1 SWAP5 MSTORE PUSH1 0x80 DUP6 ADD SWAP3 SWAP1 SWAP3 MSTORE PUSH1 0xA0 DUP5 ADD MSTORE PUSH1 0xC0 DUP4 ADD MSTORE PUSH1 0xE0 SWAP1 SWAP2 ADD MSTORE SWAP2 SWAP1 POP JUMP JUMPDEST DUP1 CALLDATALOAD PUSH1 0xB DUP2 LT PUSH2 0x1607 JUMPI PUSH1 0x0 DUP1 REVERT JUMPDEST PUSH1 0x0 PUSH1 0x20 DUP3 DUP5 SUB SLT ISZERO PUSH2 0x1743 JUMPI PUSH1 0x0 DUP1 REVERT JUMPDEST PUSH2 0x574 DUP3 PUSH2 0x1722 JUMP JUMPDEST PUSH1 0x0 DUP1 PUSH1 0x40 DUP4 DUP6 SUB SLT ISZERO PUSH2 0x175F JUMPI PUSH1 0x0 DUP1 REVERT JUMPDEST PUSH2 0x1768 DUP4 PUSH2 0x15F0 JUMP JUMPDEST SWAP2 POP PUSH2 0x1776 PUSH1 0x20 DUP5 ADD PUSH2 0x15F0 JUMP JUMPDEST SWAP1 POP SWAP3 POP SWAP3 SWAP1 POP JUMP JUMPDEST PUSH1 0x0 DUP1 DUP4 PUSH1 0x1F DUP5 ADD SLT PUSH2 0x1791 JUMPI PUSH1 0x0 DUP1 REVERT JUMPDEST POP DUP2 CALLDATALOAD PUSH8 0xFFFFFFFFFFFFFFFF DUP2 GT ISZERO PUSH2 0x17A9 JUMPI PUSH1 0x0 DUP1 REVERT JUMPDEST PUSH1 0x20 DUP4 ADD SWAP2 POP DUP4 PUSH1 0x20 DUP3 PUSH1 0x5 SHL DUP6 ADD ADD GT ISZERO PUSH2 0x17C4 JUMPI PUSH1 0x0 DUP1 REVERT JUMPDEST SWAP3 POP SWAP3 SWAP1 POP JUMP JUMPDEST PUSH1 0x0 DUP1 PUSH1 0x0 DUP1 PUSH1 0x0 PUSH1 0x60 DUP7 DUP9 SUB SLT ISZERO PUSH2 0x17E3 JUMPI PUSH1 0x0 DUP1 REVERT JUMPDEST PUSH2 0x17EC DUP7 PUSH2 0x1722 JUMP JUMPDEST SWAP5 POP PUSH1 0x20 DUP7 ADD CALLDATALOAD PUSH8 0xFFFFFFFFFFFFFFFF DUP1 DUP3 GT ISZERO PUSH2 0x1809 JUMPI PUSH1 0x0 DUP1 REVERT JUMPDEST PUSH2 0x1815 DUP10 DUP4 DUP11 ADD PUSH2 0x177F JUMP JUMPDEST SWAP1 SWAP7 POP SWAP5 POP PUSH1 0x40 DUP9 ADD CALLDATALOAD SWAP2 POP DUP1 DUP3 GT ISZERO PUSH2 0x182E JUMPI PUSH1 0x0 DUP1 REVERT JUMPDEST POP PUSH2 0x183B DUP9 DUP3 DUP10 ADD PUSH2 0x177F JUMP JUMPDEST SWAP7 SWAP10 SWAP6 SWAP9 POP SWAP4 SWAP7 POP SWAP3 SWAP5 SWAP4 SWAP3 POP POP POP JUMP JUMPDEST PUSH1 0x1 DUP2 DUP2 SHR SWAP1 DUP3 AND DUP1 PUSH2 0x1860 JUMPI PUSH1 0x7F DUP3 AND SWAP2 POP JUMPDEST PUSH1 0x20 DUP3 LT DUP2 SUB PUSH2 0x1880 JUMPI PUSH4 0x4E487B71 PUSH1 0xE0 SHL PUSH1 0x0 MSTORE PUSH1 0x22 PUSH1 0x4 MSTORE PUSH1 0x24 PUSH1 0x0 REVERT JUMPDEST POP SWAP2 SWAP1 POP JUMP JUMPDEST PUSH4 0x4E487B71 PUSH1 0xE0 SHL PUSH1 0x0 MSTORE PUSH1 0x11 PUSH1 0x4 MSTORE PUSH1 0x24 PUSH1 0x0 REVERT JUMPDEST DUP2 DUP2 SUB DUP2 DUP2 GT ISZERO PUSH2 0x54F JUMPI PUSH2 0x54F PUSH2 0x1886 JUMP JUMPDEST DUP1 DUP3 MUL DUP2 ISZERO DUP3 DUP3 DIV DUP5 EQ OR PUSH2 0x54F JUMPI PUSH2 0x54F PUSH2 0x1886 JUMP JUMPDEST DUP1 DUP3 ADD DUP1 DUP3 GT ISZERO PUSH2 0x54F JUMPI PUSH2 0x54F PUSH2 0x1886 JUMP JUMPDEST DUP3 DUP2 MSTORE PUSH1 0x40 DUP2 ADD PUSH2 0x574 PUSH1 0x20 DUP4 ADD DUP5 PUSH2 0x16BC JUMP JUMPDEST PUSH4 0x4E487B71 PUSH1 0xE0 SHL PUSH1 0x0 MSTORE PUSH1 0x32 PUSH1 0x4 MSTORE PUSH1 0x24 PUSH1 0x0 REVERT JUMPDEST PUSH1 0x1 DUP2 DUP2 JUMPDEST DUP1 DUP6 GT ISZERO PUSH2 0x193E JUMPI DUP2 PUSH1 0x0 NOT DIV DUP3 GT ISZERO PUSH2 0x1924 JUMPI PUSH2 0x1924 PUSH2 0x1886 JUMP JUMPDEST DUP1 DUP6 AND ISZERO PUSH2 0x1931 JUMPI SWAP2 DUP2 MUL SWAP2 JUMPDEST SWAP4 DUP5 SHR SWAP4 SWAP1 DUP1 MUL SWAP1 PUSH2 0x1908 JUMP JUMPDEST POP SWAP3 POP SWAP3 SWAP1 POP JUMP JUMPDEST PUSH1 0x0 DUP3 PUSH2 0x1955 JUMPI POP PUSH1 0x1 PUSH2 0x54F JUMP JUMPDEST DUP2 PUSH2 0x1962 JUMPI POP PUSH1 0x0 PUSH2 0x54F JUMP JUMPDEST DUP2 PUSH1 0x1 DUP2 EQ PUSH2 0x1978 JUMPI PUSH1 0x2 DUP2 EQ PUSH2 0x1982 JUMPI PUSH2 0x199E JUMP JUMPDEST PUSH1 0x1 SWAP2 POP POP PUSH2 0x54F JUMP JUMPDEST PUSH1 0xFF DUP5 GT ISZERO PUSH2 0x1993 JUMPI PUSH2 0x1993 PUSH2 0x1886 JUMP JUMPDEST POP POP PUSH1 0x1 DUP3 SHL PUSH2 0x54F JUMP JUMPDEST POP PUSH1 0x20 DUP4 LT PUSH2 0x133 DUP4 LT AND PUSH1 0x4E DUP5 LT PUSH1 0xB DUP5 LT AND OR ISZERO PUSH2 0x19C1 JUMPI POP DUP2 DUP2 EXP PUSH2 0x54F JUMP JUMPDEST PUSH2 0x19CB DUP4 DUP4 PUSH2 0x1903 JUMP JUMPDEST DUP1 PUSH1 0x0 NOT DIV DUP3 GT ISZERO PUSH2 0x19DF JUMPI PUSH2 0x19DF PUSH2 0x1886 JUMP JUMPDEST MUL SWAP4 SWAP3 POP POP POP JUMP JUMPDEST PUSH1 0x0 PUSH2 0x574 PUSH1 0xFF DUP5 AND DUP4 PUSH2 0x1946 JUMP JUMPDEST PUSH1 0x0 DUP3 PUSH2 0x1A13 JUMPI PUSH4 0x4E487B71 PUSH1 0xE0 SHL PUSH1 0x0 MSTORE PUSH1 0x12 PUSH1 0x4 MSTORE PUSH1 0x24 PUSH1 0x0 REVERT JUMPDEST POP DIV SWAP1 JUMP JUMPDEST PUSH1 0x0 PUSH1 0x1 DUP3 ADD PUSH2 0x1A2A JUMPI PUSH2 0x1A2A PUSH2 0x1886 JUMP JUMPDEST POP PUSH1 0x1 ADD SWAP1 JUMP INVALID LOG2 PUSH5 0x6970667358 0x22 SLT KECCAK256 DUP12 0xC9 0xD9 BYTE 0x28 PUSH14 0x1C2093A32FD3DA9F4A2A43F2DCFB CALLDATASIZE LOG4 0xA5 STOP 0xEC GAS 0xF BASEFEE 0xED 0xDF PUSH28 0xAE64736F6C6343000814003300000000000000000000000000000000 "},"methodIdentifiers":{"BPS_DENOMINATOR()":"e1a45218","SECONDS_PER_MONTH()":"10786deb","acceptOwnership()":"79ba5097","addressChangeApproved(address)":"710315d6","allocateBatch(uint8,address[],uint256[])":"eeb32e3d","allocations(address)":"52a9039c","allowance(address,address)":"dd62ed3e","approve(address,uint256)":"095ea7b3","approveAddressChange()":"64f342ee","balanceOf(address)":"70a08231","burn(uint256)":"42966c68","burnFrom(address,uint256)":"79cc6790","categories(uint8)":"7be6277b","changeAddress(address,address)":"efe08a7d","claim()":"4e71d92d","decimals()":"313ce567","name()":"06fdde03","owner()":"8da5cb5b","pendingOwner()":"e30c3978","renounceOwnership()":"715018a6","revokeAddressChangeApproval()":"e821c39a","revokeAllocation(address)":"e70b11df","symbol()":"95d89b41","totalSupply()":"18160ddd","transfer(address,uint256)":"a9059cbb","transferFrom(address,address,uint256)":"23b872dd","transferOwnership(address)":"f2fde38b"}}}}}